:020000040800F2
:1000000020090020350200082F2F0008632D00086A
:100010002D2F000857070008253A000800000000AF
:1000200000000000000000000000000099320008FD
:100030005907000800000000312F00089B3200081B
:100040004F0200084F0200084F0200084F0200084C
:100050004F0200084F0200084F0200084F0200083C
:100060004F0200084F0200084F0200084F0200082C
:100070004F0200084F0200084F0200084F0200081C
:100080004F0200084F0200084F0200084F0200080C
:100090004F0200084F0200084F0200084F020008FC
:1000A0004F0200084F0200084F0200084F020008EC
:1000B0004F02000800000000000000004F0200088E
:1000C0004F0200084F0200084F0200084F020008CC
:1000D0004F020008193A00084F0200084F020008BA
:1000E0004F020008C13100080000000000000000BD
:1000F0000000000000000000000000000000000000
:10010000000000004F020008000000004F0200083D
:1001100000000000000000004F0200084F0200082D
:100120004F0200084F0200084F0200084F0200086B
:100130004F02000800000000000000000000000066
:100140004F0200084F0200084F02000800000000A4
:100150004F0200084F0200084F0200084F0200083B
:100160004F0200084F0200084F0200080000000084
:100170004F0200084F0200080000000000000000CD
:100180004F0200084F0200084F02000800F002F87A
:1001900000F041F80AA090E8000C82448344AAF1E0
:1001A0000107DA4501D100F036F8AFF2090EBAE8DE
:1001B0000F0013F0010F18BFFB1A43F0010318479B
:1001C000183A0000383A0000103A24BF78C878C1C5
:1001D000FAD8520724BF30C830C144BF04680C604D
:1001E000704700000023002400250026103A28BF95
:1001F00078C1FBD8520728BF30C148BF0B60704799
:10020000642900F0E380002070471FB503F0B0FCC4
:100210001FBD10B510BD00F065FA1146FFF7F5FFE0
:1002200003F026FC00F083FA03B4FFF7F2FF03BCEF
:1002300000F08AFA0948804709480047FEE7FEE7D0
:10024000FEE7FEE7FEE7FEE7FEE7FEE7FEE7FEE786
:1002500004480549054A064B704700002933000849
:100260008D01000820010020200900202005002029
:100270002005002053EA020C00F069802DE9F04BC4
:100280004FF00006002B1FBFB3FA83F503FA05F405
:1002900024FA05F65E4012BF1643B2FA82F502FA5E
:1002A00005F4C5F120051EBF22FA05FC44EA0C0442
:1002B000203556EA044C4FEA144418BF641C4FF032
:1002C00000084FF00009904271EB030C39D300296C
:1002D00019BFB1FA81F701FA07F6B0FA80F700FA10
:1002E00007F6C7F120071EBF20FA07FC46EA0C06F6
:1002F0002037B6FBF4FCA7EB0507103F07F01F0BF8
:10030000CBF120060CFA0BFB2CFA06F644BFB346E1
:100310000026202FA4BF5E464FF0000B5BEA060CC0
:1003200008BF4FF0010B19EB0B09ABFB027C48EB4C
:100330000608C01B06FB02CC0BFB03CC71EB0C01C7
:10034000C1E70B46024641464846BDE8F08B13B56F
:100350004FF000004FF00001AFF30080BDE81C40FB
:10036000704700000FB4044910B503AA029800F0CA
:100370008BF910BC5DF814FB1000002070B504462A
:1003800085690068C10601D5302600E02026C00737
:1003900007D070BDD4E9012130469047206A401C47
:1003A00020626D1EF6D570BD70B504468569007873
:1003B000C00707D170BDD4E9012120209047206AF1
:1003C000401C20626D1EF6D570BD00002DE9F04185
:1003D0000646002410687529314616A510D0AFF3E3
:1003E0000080002802DA404213A507E031688A073E
:1003F00001D512A502E0490704D511A5012401E0A9
:10040000AFF3008000210A2206F1240709E0B0FBC7
:10041000F2FCB0FBF2F302FB1C00303078541846BB
:10042000491C0028F3D123462A463046BDE8F04156
:1004300000F0D1B8000000002D0000002B000000EB
:10044000200000002DE9F05F894604464FF0000AC5
:10045000DFF824B1FB44C0F820A02046E1688847BB
:1004600000287DD0252806D0D4E901219047206AB4
:10047000401C2062F1E700255F462046E16888477E
:100480002028064607DB312E05D2B81910F8200CBB
:1004900008B10543F1E7A80701D525F00405C4F824
:1004A0001CA00027C4F818A02A2E09D0304603F05B
:1004B000CAFA38B304EB8708303EC8F8186019E070
:1004C00059F8041B204604EB87029161E1688847D4
:1004D000012F064618D1E069002820DA25F0200512
:1004E0001DE0D8F8180000EB800006EB4000303823
:1004F000C8F818002046E1688847064603F0A3FACA
:100500000028EED1012F0AD02E2E08D12046E16816
:1005100088477F1C0646022F45F02005C4DBA069F2
:10052000002803DA404245F00105A061E80701D048
:1005300025F01005A6B1A6F14100192802D82036F1
:1005400045F400654A463146204625604D46FFF792
:1005500057FE60B1012807D0ED1D25F0070000E02F
:1005600007E000F1080978E705F1040975E730466E
:100570007AE7206A00F002B86C37000030BCBDE8B2
:10058000C09F4FF0000200B51346944696462039AE
:1005900022BFA0E80C50A0E80C50B1F12001BFF43C
:1005A000F7AF090728BFA0E80C5048BF0CC05DF8A2
:1005B00004EB890028BF40F8042B08BF704748BFF0
:1005C00020F8022B11F0804F18BF00F8012B704764
:1005D0007047704770472DE9F0470D46994692469F
:1005E000044600F124080168880604D5E06921F07A
:1005F0001001216000E00120A84201DD471B00E05E
:100600000027A1697A1902EB0900081AA061207875
:10061000C00602D42046FFF7B1FE002608E0D4E968
:1006200001211AF806009047206A401C761C2062BF
:100630004E45F4DB2078C0060AD52046FFF79EFE23
:1006400006E0D4E9012130209047206A401C206256
:10065000381EA7F10107F4DC07E0D4E9012118F8FE
:1006600005009047206A401C2062281EA5F1010564
:10067000F3DC2046FFF798FE2078000602D5022022
:10068000BDE8F0870120FBE7074B70B50D467B44C2
:1006900000F011F80446284600F020F810B14FF0A1
:1006A000FF3070BD204670BDC733000001694A1C91
:1006B00002610878704700B58FB0CDE901310021A3
:1006C000059105497944CDE9031011466846FFF7C5
:1006D000B9FE0FB000BD0000E5FFFFFF007B00F09A
:1006E00080007047754600F02BF8AE46050069465D
:1006F000534620F00700854618B020B5FFF7A8FD47
:10070000BDE820404FF000064FF000074FF0000812
:100710004FF0000B21F00701AC46ACE8C009ACE893
:10072000C009ACE8C009ACE8C0098D46704710B5F7
:100730000446AFF300802046BDE81040FFF774BDCB
:1007400000487047C000002001491820ABBEFEE7FA
:10075000260002007047FEE7704772B6FEE710B54C
:1007600090F825100022022905D00421C16380F8E9
:100770002420012010BD01680B6823F00E030B60DC
:1007800001680B6823F001030B6090F84410046CBF
:1007900001F01C03012101FA03F3636080F82510C6
:1007A00080F82420104610BD10B590F825100024C4
:1007B000022903D00421C16301241AE001680A68F8
:1007C00022F00E020A6001680A6822F001020A6043
:1007D00090F84410036C01F01C02012101FA02F2AE
:1007E0005A6080F82510002180F82410816B01B137
:1007F0008847204610BD000070B5044600F0CCF9D3
:100800000546601C02D004480078044400F0C4F996
:10081000401BA042FAD370BD000000202DE9F84F24
:1008200000274FF0904ADFF84482DFF844B20D46CB
:100830000446504510D044450ED05C450CD08D4840
:10084000844209D08C48844206D08C48844203D02C
:10085000AA218BA003F0FEF828680104090C01D03E
:10086000000C03D0AB2186A003F0F4F868684FF0C9
:100870000309002821D00128FCD01128FAD0022831
:10088000F8D01228F6D0B0F5881FF3D0B0F5041FC9
:10089000F0D0B0F5441FEDD0B0F5901FEAD0B0F520
:1008A000081FE7D0B0F5481FE4D00328E2D00B289A
:1008B000E0D0AC2172A003F0CDF8CFE00121B94027
:1008C0000840009106007DD0287900F0030001283F
:1008D00001D002281DD1E86848B1012807D00228BC
:1008E00005D0032803D0BB2165A003F0B3F8A068AE
:1008F0007A0009FA02F18843E96891400143A16056
:100900006068009988432979C1F30011B940014317
:1009100061602879C043800712D0A86838B10128E7
:1009200005D0022803D0DC2155A003F093F8E0683D
:100930007A0009FA02F18843A96891400143E16015
:10094000287900F00300022826D1544510D04445F0
:100950000ED05C450CD04748844209D046488442BA
:1009600006D04648844203D0E82145A003F072F83F
:1009700028690F2803D9E92141A003F06BF8F80892
:1009800004EB8003186A7907CA0E0F21914088434F
:10099000296991400143196221687A0009FA02F03D
:1009A0008143287900F00300904008432060686884
:1009B00010F4403F51D04148016E41F00101016601
:1009C000006E00E049E000F0010000903C4827F094
:1009D00003010A189168B807030F0F20984081435C
:1009E000544501D1002012E0444501D101200EE020
:1009F0005C4501D102200AE01E48844201D1032057
:100A000005E01D48844201D1042000E00720984001
:100A1000084390602B4908686A68B043D20200D549
:100A2000304308602749091D08686A68B04392028C
:100A300000D5304308602349091F08686A68B0433D
:100A4000920300D5304308601E49083908686A6877
:100A5000B043D20300D5304308607F1C2E68304677
:100A6000FE407FF42BAF00F02FB8000000040048D8
:100A700000080048000C004800100048001C004816
:100A80002E2E2F447269766572732F53544D333274
:100A90004C3478785F48414C5F4472697665722FB8
:100AA0005372632F73746D33326C3478785F68617E
:100AB0006C5F6770696F2E630000000000100240D9
:100AC000000001400804014018BCBDE8E08F0000B0
:100AD00070B50C00054604D14FF4E37105A002F097
:100AE000B9FF696924EA0100214040EA0140A86198
:100AF00070BD00002E2E2F447269766572732F53DD
:100B0000544D33324C3478785F48414C5F447269BD
:100B10007665722F5372632F73746D33326C347831
:100B2000785F68616C5F6770696F2E63000000001A
:100B300070B515460C00064604D14FF4D77107A0D6
:100B400002F088FF45B1012D04D040F2AF1103A09F
:100B500002F080FFB46170BDB46270BD2E2E2F44D0
:100B60007269766572732F53544D33324C347878F2
:100B70005F48414C5F4472697665722F5372632FF0
:100B800073746D33326C3478785F68616C5F677052
:100B9000696F2E6300000000014880687047000004
:100BA000000000200248816802781144816070478B
:100BB0000000002010B50024032000F0C5F80F202D
:100BC00000F008F808B1012401E000F025F8204603
:100BD00010BD000070B50E4E05460024307898B167
:100BE0004FF47A71B1FBF0F00A490968B1FBF0F0FB
:100BF00001F082FE40B9102D06D200222946501E77
:100C000000F052F8756000E00124204670BD00003D
:100C1000000000200C000020094808B5016E41F0DA
:100C200001010166016E01F001010091816D41F049
:100C300080518165806D00F08050009008BD0000FB
:100C40000010024010B5040003D5D22107A002F025
:100C500001FF002C09DB04F01F010120884061091D
:100C6000890001F1E021C1F8000110BD2E2E2F44B2
:100C70007269766572732F53544D33324C347878E1
:100C80005F48414C5F4472697665722F5372632FDF
:100C900073746D33326C3478785F68616C5F636F46
:100CA000727465782E63000070B515460C460646D2
:100CB000102A03D3BE2114A002F0CCFE102C03D3C3
:100CC000BF2111A002F0C6FE1E480068C0F3022337
:100CD000C3F107022046042A00D90422191D07295E
:100CE00001D2002300E0DB1E012404FA02F1491EB8
:100CF000014099409C40641E2C4021433046BDE891
:100D0000704002F090BE00002E2E2F44726976656E
:100D100072732F53544D33324C3478785F48414CC2
:100D20005F4472697665722F5372632F73746D33EB
:100D3000326C3478785F68616C5F636F7274657869
:100D40002E6300000CED00E010B5044607280BD020
:100D5000062C09D0052C07D0042C05D0032C03D079
:100D6000A62108A002F076FE154904F007020868E3
:100D70004FF6FF03184040EA0220124A1043086071
:100D800010BD00002E2E2F447269766572732F53AA
:100D9000544D33324C3478785F48414C5F4472692B
:100DA0007665722F5372632F73746D33326C34789F
:100DB000785F68616C5F636F727465782E630000A2
:100DC0000CED00E00000FA0510B51B4CB0F5007FFB
:100DD00013D0B0F5806F03D0A72118A002F03AFE1F
:100DE0002068C0F34120022805D0206820F4C060AC
:100DF00040F480602060002010BD2068C0F34120D6
:100E00000128F8D0206820F4C06040F40070206011
:100E100019483221006848431849B0FBF1F0401CE2
:100E200000E0401E6169490501D50028F9D16069DB
:100E30004005E0D5032010BD007000402E2E2F4449
:100E40007269766572732F53544D33324C3478780F
:100E50005F48414C5F4472697665722F5372632F0D
:100E600073746D33326C3478785F68616C5F70775F
:100E7000725F65782E6300000C00002040420F0076
:100E80000248006800F4C060704700000070004035
:100E90000248016841F480710160704700700040B1
:100EA0000648016821F00701C91C01600448016877
:100EB00041F00401016030BF704700000070004045
:100EC00010ED00E02DE9F84F044600270068F349D3
:100ED0003E46084202D0C943084203D0C921F0A0CF
:100EE00002F0B8FD2088FD4D000521D5606C4FF45F
:100EF00000084FF4400938B1404505D0484503D0BB
:100F0000D121E7A002F0A6FD606C50B1404503D0AE
:100F100048453BD001270AE0E86840F48030E860AB
:100F200034E00021201D02F005F807002ED03E46D7
:100F3000206880034BD5A06D4FF0000868B1B0F574
:100F4000807F0AD0B0F5007F07D0B0F5407F04D095
:100F50004FF4A271D2A002F07DFDA86DC00009D4AB
:100F6000A86D40F08050A865A86D4FF0010800F012
:100F700080500090DFF868A3DAF8001041F4807127
:100F8000CAF80010FFF708FE814611E0D5F8880086
:100F9000616C20F440000843C5F88800C8E700BF32
:100FA000FFF7FAFDA0EB0900022801D9032705E0AD
:100FB000DAF80000C005F3D5002F7DD04FEA070610
:100FC000B8F1000F03D0A86D20F08050A8652078FC
:100FD000C00714D0206A50B1012808D0032806D0D9
:100FE000022804D040F29911ADA002F033FDD5F8EB
:100FF0008800216A20F003000843C5F888002078A3
:10100000800714D5606A50B1042808D00C2806D097
:10101000082804D040F2A311A1A002F01BFDD5F8CE
:101020008800616A20F00C000843C5F88800207829
:10103000400714D5A06A50B1102808D0302806D037
:10104000202804D040F2AF1195A002F003FDD5F89E
:101050008800A16A20F030000843C5F88800207895
:10106000800617D5E06A68B1B0F5806F0AD0B0F598
:10107000406F07D0B0F5006F04D040F2D71188A0C0
:1010800002F0E8FCD5F88800E16A20F440600843EB
:10109000C5F888002088800519D5E06B78B1B0F5D7
:1010A000802F0CD0B0F5002F09D0B0F5402F06D01E
:1010B0004FF4F0717AA000E092E002F0CBFCD5F89A
:1010C0008800E16B20F440200843C5F888002088A0
:1010D000400517D5206C68B1B0F5801F0AD0B0F577
:1010E000001F07D0B0F5401F04D040F2E7116CA0FC
:1010F00002F0B0FCD5F88800216C20F440100843C1
:10110000C5F888002078400614D5206B50B1B0F5A2
:10111000805F07D0B0F5005F04D040F2EF1160A00F
:1011200002F098FCD5F88800216B20F44050084369
:10113000C5F888002078000614D5606B50B1B0F572
:10114000804F07D0B0F5004F04D040F2FB1154A0FF
:1011500002F080FCD5F88800616B20F44040084321
:10116000C5F888002088C00514D5A06B50B1B0F533
:10117000803F07D0B0F5003F04D040F2072148A0DF
:1011800002F068FCD5F88800A16B20F440300843D9
:10119000C5F8880020684FF0406900034FF0806771
:1011A0004FF000685AD5A06C50B1B84208D0404505
:1011B00006D0484504D040F2412139A002F04AFC53
:1011C000D5F88800A16C20F040600843C5F888007D
:1011D000A06C40453AD1E86840F48010E8603DE0FA
:1011E000D5F8900010F4407014D0A16D814211D058
:1011F000D5F89000D5F8901020F4407041F480317B
:10120000C5F89010D5F8901021F48031C5F89010F1
:10121000C5F89000C00710D0FFF7BEFC074641F2AA
:10122000883906E0FFF7B8FCC11B494501D9032600
:10123000C6E6D5F890008007F4D5D5F89000A16DEA
:1012400020F440700843C5F89000B9E6B84205D1D3
:101250000121201D01F06EFE00B10646206840030A
:1012600048D5E06C50B1B84208D0404506D048455A
:1012700004D040F266210AA002F0ECFBD5F8880009
:10128000E16C20F040600843C5F88800E06C404500
:1012900028D1E86840F48010E8602BE0E7CF0E002A
:1012A0002E2E2F447269766572732F53544D33324C
:1012B0004C3478785F48414C5F4472697665722F90
:1012C0005372632F73746D33326C3478785F686156
:1012D0006C5F7263635F65782E63000000100240EC
:1012E00000700040B84205D10121201D01F022FE0E
:1012F00000B10646208840041FD5206D4FF080576E
:1013000050B1B84208D0B0F1405F05D040F286211C
:10131000AFF2740002F09EFBD5F88800216D20F03A
:1013200040500843C5F88800206DB84205D102211D
:10133000201D01F0FFFD00B106462088000411D5F4
:10134000606D40B1B0F1804F05D040F2B221AFF2F4
:10135000B00002F07FFB55F8880F616D20F08040EF
:1013600008432860304600F000B818BCBDE8E08FA4
:101370002DE9F0470E46050072D02868401E0E2861
:1013800004D940F2594178A002F064FB66B1012E05
:101390000AD0022E08D0032E06D0042E04D040F22C
:1013A0005A4171A002F056FB7D4F386800F00700EB
:1013B000B04209D2386820F00700304338603868FE
:1013C00000F00700B0424BD12878764C800721D539
:1013D000A868A0B1802812D0902810D0A0280ED0E4
:1013E000B0280CD0C0280AD0D02808D0E02806D0D9
:1013F000F02804D040F272415BA002F02BFBA868F9
:10140000A16801F0F001884204D9A16821F0F0013F
:101410000143A1602878C0073CD0686838B3012830
:101420000ED0022820D003281BD040F27D414EA0D0
:1014300002F010FB6868032813D0022814D0B0B162
:1014400020684005002842DAA068696820F003009F
:101450000843A060FFF7A0FB804641F2883912E004
:1014600035E020688001EDE720688003EAE7206826
:101470008007E7E7FFF790FBA0EB0801494502D999
:101480000320BDE8F087A068696800F00C00B0EBAD
:10149000810FEFD1287880070AD5A868A16801F0EC
:1014A000F001884204D2A16821F0F0010143A1605B
:1014B000386800F00700B0420BD9386820F0070008
:1014C00030433860386800F00700B04201D0012096
:1014D000D7E728784FF4806640074FF4A0674FF4B1
:1014E000C0684FF4E06914D5E86860B1B0420AD032
:1014F000B84208D0404506D0484504D040F2F541F6
:1015000019A002F0A7FAA068E96820F4E060084397
:10151000A0602878000715D5286960B1B0420AD0CC
:10152000B84208D0404506D0484504D040F2FC41BE
:101530000DA002F08FFAA068296920F4605040EAFB
:10154000C100A06000F05AF8A168174AC1F3031166
:10155000515C01F01F01C84014490860144800683C
:10156000BDE8F047FFF736BB2E2E2F447269766533
:1015700072732F53544D33324C3478785F48414C5A
:101580005F4472697665722F5372632F73746D3383
:10159000326C3478785F68616C5F7263632E6300CD
:1015A00000200240001002407C3B00080C0000209C
:1015B000040000200548064900688968054AC1F30F
:1015C0000221515C01F01F01C84070470C0000204F
:1015D00000100240BC3B00080548064900688968C5
:1015E000054AC1F3C221515C01F01F01C840704798
:1015F0000C00002000100240BC3B000870B52549DB
:10160000002318468A68CC6812F00C0204F0030626
:10161000214C4FEA640509D00C2A05D0042A32D0A7
:10162000082A00D1284670BD012E10D10B681B0777
:1016300004D4D1F89430C3F3032302E00B68C3F35E
:101640000313164E56F82330DAB10C2AEBD1C868D2
:1016500000F00300022818D0032818D01846CA68E2
:10166000CB68C2F30212C3F306234343521CB3FBFD
:10167000F2F2C868C0F34160401C4000B2FBF0F0D9
:1016800070BD184670BD204670BD2046E7E728466D
:10169000E5E70000001002400024F4008C3B000845
:1016A0002DE9F84304007CD0206830B1800904D0D3
:1016B0004FF4D171F1A002F0CDF9FE4DA86800F011
:1016C0000C06E86800F003072078C0066AD5A06918
:1016D00030B1012804D040F2AB11E8A002F0BAF911
:1016E000E069FF2804D94FF4D671E4A002F0B2F902
:1016F000206AD0B1102818D0202816D0302814D055
:10170000402812D0502810D060280ED070280CD05D
:1017100080280AD0902808D0A02806D0B02804D06D
:1017200040F2AD11D5A002F095F976B10C2E01D1A1
:10173000012F0AD0A069002828687BD040F0010062
:101740002860FFF729FA80465EE02868800702D506
:10175000A0690028A7D0216A2868000703D5286857
:1017600000F0F00004E0D5F89400F02202EA101036
:10177000814218D9084601F0E5FC002811D12868FB
:1017800040F0080028602868216A20F0F000084333
:1017900028606868E16920F47F4040EA01206860C1
:1017A00018E0F0E057E0286840F00800286028685A
:1017B000216A20F0F000084328606868E16920F49D
:1017C0007F4040EA0120686026B9206A01F0BAFC37
:1017D0000028D3D1FFF712FFA968B74AC1F303115C
:1017E000515C01F01F01C840B4490860B44800686A
:1017F000FFF7F0F9002873D12DE000BFFFF7CCF917
:10180000A0EB080002286CD828688007F6D5286865
:1018100040F0080028602868216A20F0F0000843A2
:1018200028606868E16920F47F4040EA0120686030
:1018300011E0FFE720F001002860FFF7ADF98046D6
:1018400006E000BFFFF7A8F9A0EB08000228DAD8ED
:1018500028688007F6D42078C00750D060684FF41D
:1018600080384FF4A02940B1404506D0484504D007
:1018700040F2192181A002F0EDF8082E0AD00C2EBA
:1018800001D1032F06D0606840450AD1286840F492
:10189000803013E02868800331D56068002872D05A
:1018A0002DE04845286803D140F480202860EDE70A
:1018B00020F480302860286820F480202860606848
:1018C00080B1FFF769F9804606E000BFFFF764F9D1
:1018D000A0EB0800642896D828688003F6D50EE0AF
:1018E00062E260E2FFF758F9804605E0FFF754F93D
:1018F000A0EB0800642886D828688003F6D42078F6
:10190000800749D5E06838B1B0F5807F04D04FF446
:1019100013715AA002F09EF820691F2804D940F2E2
:101920004D2156A002F096F8042E0ED00C2E01D1B7
:10193000022F0AD0E068002828681DD040F480708B
:101940002860FFF729F907460BE0286840050BD50A
:10195000E0680028A3D007E0FFF71EF9C01B0228AB
:10196000B9D828684005F7D56868217C20F0F85080
:1019700040EA016068600FE020F480702860FFF7A3
:101980000BF9074605E092E1FFF706F9C01B0228B4
:10199000A1D828684005F7D42078000731D56069C0
:1019A000E0B1012806D040F28D2134A002F052F8B7
:1019B000606998B1D5F8940040F00100C5F8940032
:1019C000FFF7EAF8074604E0FFF7E6F8C01B022835
:1019D00091D8D5F894008007F6D512E0D5F8940098
:1019E00020F00100C5F89400FFF7D6F8074604E0A0
:1019F000FFF7D2F8C01B0228B2D8D5F894008007B0
:101A0000F6D4207840076FD5A068002740B10128A0
:101A100006D0052804D04FF4387118A002F01AF847
:101A2000A86DC00008D4A86D40F08050A865A86DCE
:101A3000012700F08050009022480168C90513D4A6
:101A40000168814641F480710160FFF7A5F8804686
:101A500006E000BFFFF7A0F8A0EB0800022897D827
:101A6000D9F80000C005F5D5A06801283DD00528AB
:101A7000D5F890003ED020F0010025E02E2E2F4416
:101A80007269766572732F53544D33324C347878C3
:101A90005F48414C5F4472697665722F5372632FC1
:101AA00073746D33326C3478785F68616C5F726325
:101AB000632E6300001002407C3B00080C000020F5
:101AC0000400002000700040C5F89000D5F8900098
:101AD00020F00400C5F89000A06841F28839D0B128
:101AE000FFF75AF8804611E029E0D5F8900040F061
:101AF0000100EFE740F00400C5F89000F5E700BFF3
:101B0000FFF74AF8A0EB08014945A8D8D5F890009E
:101B10008007F5D50EE0FFF73FF8804606E000BFEE
:101B2000FFF73AF8A0EB0801494598D8D5F890009E
:101B30008007F5D41FB1A86D20F08050A8652078EB
:101B4000800632D5606AE8B1012807D040F24531FD
:101B5000AFF2D80001F07EFF606A98B1D5F8980026
:101B600040F00100C5F89800FFF716F8074604E0BA
:101B7000FFF712F8C01B0228C7D8D5F898008007D5
:101B8000F6D512E0D5F8980020F00100C5F89800CD
:101B9000FFF702F8074604E0FEF7FEFFC01B02282D
:101BA000B3D8D5F898008007F6D4A06A00287DD075
:101BB00001280CD0022814D040F26E31AFF244104C
:101BC00001F048FFA06A0028F1D0022809D00C2EAD
:101BD0006DD0286820F080702860FEF7DDFF044695
:101BE000E4E0E06A58B1012809D0022807D00328B0
:101BF00005D040F27631AFF27C1001F02BFF206B64
:101C0000401E072805D940F27731AFF2901001F05D
:101C100021FF606B08384E2805D94FF45E71AFF292
:101C2000A41001F017FFA06B801E1D2805D940F2FB
:101C30007A31AFF2B81001F00DFFE06B02280BD043
:101C4000042809D0062807D0082805D04FF45F7172
:101C5000AFF2D81001F0FEFE206C02280BD0042851
:101C600009D0062807D0082805D040F27D31AFF210
:101C7000F41001F0EFFEE868E26A00F0030191421F
:101C800029D1216B00F0700209011039914222D153
:101C9000626B00F4FE41B1EB022F1CD194F83820A6
:101CA00000F07841B1EBC26F15D101E074E086E03D
:101CB000A18F00F4C00249084905A1F50011914225
:101CC00009D194F8401000F0C06049084906A1F11C
:101CD0000071814249D00C2E72D0286840016FD427
:101CE000286820F080702860FEF756FF064604E062
:101CF000FEF752FF801B022855D828688001F7D4D0
:101D0000F4E90B016FF00F0202EB01110843218A85
:101D10005204490802EB4151A26841EA02210843FA
:101D2000217D4FF07E42490802EB41610843217B4F
:101D300040EAC160E968234A11400843E860286826
:101D400040F080702860E86840F08070E860FEF73E
:101D500023FF044605E000BFFEF71EFF001B02281C
:101D600021D828688001F7D527E02868800124D48D
:101D7000286840F080702860E86840F08070E86073
:101D8000FEF70AFF044604E0FEF706FF001B0228E8
:101D900009D828688001F7D50FE000BFFEF7FCFEE8
:101DA000001B022802D90320BDE8F88328688001BF
:101DB000F4D4E86804490840E8600020F4E7FFE74D
:101DC0000120F1E78C809D01FCFFEEFE70470000D2
:101DD00010B505A0FEF7C6FABDE8104002214FF08D
:101DE0009040FEF775BE000048414C5F5254435F7F
:101DF000416C61726D414576656E7443616C6C62D5
:101E000061636B0D0A00000010B5144904464FF4DD
:101E10008020086020688168C9040BD5C168C905A5
:101E200008D5C16801F0800161F4C071C16020462D
:101E3000FFF7CEFF2068816889040BD5C16889054A
:101E400008D5C16801F0800161F42071C1602046AD
:101E5000FFF7BCFF012084F8210010BD14040140ED
:101E600070B515000C46064606D0012D04D040F290
:101E7000A16110A001F0EEFD306841681B480140EF
:101E8000080CE070C1F30422627001F03F02A270FE
:101E9000C1F34231217055B901F098F9E0706078D2
:101EA00001F094F96070A07801F090F9A070002022
:101EB00070BD00002E2E2F447269766572732F5309
:101EC000544D33324C3478785F48414C5F447269EA
:101ED0007665722F5372632F73746D33326C34785E
:101EE000785F68616C5F7274632E63003FFFFF0070
:101EF00070B515000C46064606D0012D04D040F200
:101F0000216114A001F0A6FD3068806A606030682D
:101F10000069C0F30E00A060306801681B480140F2
:101F2000C1F305402070C1F30622627001F07F0208
:101F3000A270890DE17055B901F048F92070607800
:101F400001F044F96070A07801F040F9A070002021
:101F500070BD00002E2E2F447269766572732F5368
:101F6000544D33324C3478785F48414C5F44726949
:101F70007665722F5372632F73746D33326C3478BD
:101F8000785F68616C5F7274632E63007F7F7F008F
:101F900010B504004FF001007ED0504920688842FF
:101FA00003D0FE214EA001F055FD6068402804D00A
:101FB00018B1FF214AA001F04DFDA0687F2804D987
:101FC0004FF4807146A001F045FDE068B0F5004F88
:101FD00004D340F2011142A001F03CFD206968B138
:101FE000B0F5001F0AD0B0F5800F07D0B0F5C00FD4
:101FF00004D04FF481713AA001F02CFD606930B13A
:10200000022804D040F2031135A001F023FDA0699D
:1020100038B1B0F5801F04D04FF4827130A001F0C8
:1020200019FDE06930B1012804D040F205112CA05F
:1020300001F010FD94F8210028B9002084F8200058
:10204000204600F06BF8022084F821002068C16867
:10205000C943C9063AD5CA21416221685320486262
:10206000204601F0C9F8B0B9206881682A4A1140B9
:102070008160216888686268A369104322691A43F5
:10208000104388602168E06808612068016922893E
:1020900041EA0241016100E017E0204601F0D0F87A
:1020A00000280DD12168CA6C22F00302CA6462695B
:1020B000E16941EA02012268D36C41EA0301D1647B
:1020C00022684FF0FF01516202D010BD4FF00000B6
:1020D0004FF0010184F8211010BD000000280040DD
:1020E0002E2E2F447269766572732F53544D3332FE
:1020F0004C3478785F48414C5F4472697665722F42
:102100005372632F73746D33326C3478785F686107
:102110006C5F7274632E6300BFFF8FFF10B598B0C1
:1021200004465C216846FEF72CFA0F492068884275
:1021300018D14FF400300090401216906846FEF718
:10214000C1FE08B1FEF709FB084850F8901F41F4A2
:1021500000410160002211462920FEF7A5FD29203B
:10216000FEF770FD18B010BD0028004000100240BE
:102170002DE9F05F16000C46054606D0012E04D06E
:1021800040F29271D9A001F065FCA06A4FF4807909
:10219000484507D0B0F5007F04D040F29371D3A03A
:1021A00001F058FC606910F07F3F04D040F2947158
:1021B000CEA001F04FFC206A38B1B0F1804F04D0BE
:1021C00040F29571C9A001F045FC6068B0F5004F80
:1021D00004D340F29671C5A001F03CFCE06948B11F
:1021E000A0F18070B0F1606F04D940F29771BFA088
:1021F00001F030FC95F82000012823D0012085F85B
:102200002000022085F821002868002780684FEA16
:102210004060D6B1002879DA207800F0D7FF20B1ED
:10222000207800F0D3FF0C2804D940F2C271AFA08F
:1022300001F010FCE078002873D0012871D040F242
:10224000C3716BE0022000F06FB900280FDA20782C
:10225000401E0B2804D940F2A271A4A001F0FAFBA1
:10226000E07868B101280BD040F2A37105E0E77077
:102270002078172804D94FF4F5619CA001F0EAFBFF
:1022800060783B2804D940F2AA7198A001F0E2FBE3
:10229000A0783B2804D940F2AB7194A001F0DAFB9E
:1022A000206A002894F824002AD0012810D002289F
:1022B0000ED003280CD004280AD0052808D0062800
:1022C00006D0072804D040F2B37188A001F0C2FB09
:1022D000207800F084FF0304607800F080FF43EA78
:1022E0000023A07800F07BFF0343E07843EA8053AB
:1022F00094F8240000F073FF43EA006665E005E00F
:10230000401E1E28E4D940F2AF71DEE7E770207866
:1023100000F05CFF172804D94FF4F96173A001F0B5
:1023200099FB607800F052FF3B2804D940F2CB7152
:102330006EA001F08FFBA07800F048FF3B2804D985
:1023400040F2CC7169A001F085FB206A002894F866
:10235000240060D000F03AFF012828D094F824002F
:1023600000F034FF022822D094F8240000F02EFF61
:1023700003281CD094F8240000F028FF042816D06D
:1023800094F8240000F022FF052810D094F82400CF
:1023900000F01CFF06280AD094F8240000F016FF75
:1023A000072804D040F2D57150A001F053FBA0786B
:1023B0002178E27840EA01406178090241EA8251DD
:1023C000084394F8241040EA0166206AE169064354
:1023D00060690643606840EA01082968CA204862CB
:1023E000296853204862A06AFF24484528684FF0B6
:1023F000030A4FF47A7B816833D121F480718160C4
:102400002868C16801F0800161F4C071C160FEF705
:10241000C3FB814612E000F0D9FE28B194F82400F5
:1024200000F0D4FE1F28C2D940F2D171BCE700BF32
:10243000FEF7B2FBA0EB0900584527D82868C06812
:10244000C007F5D02868C6612968C1F844802868AB
:10245000816841F4807181602868816841F480510D
:102460002EE021F4007181602868C16801F08001CC
:1024700061F42071C160FEF78FFB81460EE000BF62
:10248000FEF78AFBA0EB0900584507D9286844628B
:1024900085F821A085F820700320D4E62868C0685C
:1024A0008007EDD5286806622968C1F84880286849
:1024B000816841F4007181602868816841F40051AD
:1024C00081601848016841F4802101601548083096
:1024D000016841F48021016028684462012085F888
:1024E000210085F820700020ADE600002E2E2F443C
:1024F0007269766572732F53544D33324C34787849
:102500005F48414C5F4472697665722F5372632F46
:1025100073746D33326C3478785F68616C5F727499
:10252000632E63000004014030BCBDE8C09F000082
:102530002DE9F04116000C46054606D0012E04D0C8
:1025400040F24E6152A001F085FA95F82000012872
:1025500007D0012785F82070022085F821001EB1E0
:1025600009E00220BDE8F0816078C10603D500F0E3
:10257000EF000A3060702078012810D002280ED0B9
:1025800003280CD004280AD0052808D0062806D035
:10259000072804D040F25A613DA001F05BFAE078D0
:1025A000002E3AD000F012FE632804D940F269618F
:1025B00037A001F04FFA607800F008FE20B1607893
:1025C00000F004FE0C2804D940F26A6130A001F04A
:1025D00041FAA07800F0FAFD20B1A07800F0F6FDF5
:1025E0001F2804D940F26B6129A001F033FAA078CA
:1025F000E17840EA014660782178000240EA413003
:1026000006432968CA204862296853204862284640
:1026100000F0F2FD00282AD030E0632804D940F20F
:102620005E611BA001F016FA6078401E0B2804D9E9
:1026300040F25F6116A001F00DFAA078401E1E283E
:1026400004D94FF4CC6112A001F004FAE07800F054
:10265000C6FD0304607800F0C2FD43EA0023A078C1
:1026600000F0BDFD0343207843EA4036C9E7164831
:10267000064028684660284600F0E2FD2A68FF21EF
:10268000516208B985F82170002185F8201069E7AA
:102690002E2E2F447269766572732F53544D333248
:1026A0004C3478785F48414C5F4472697665722F8C
:1026B0005372632F73746D33326C3478785F686152
:1026C0006C5F7274632E63003FFFFF002DE9F041E1
:1026D00016000C46054606D0012E04D040F2B45137
:1026E00068A001F0B7F9E068B0F5003F08D0B0F598
:1026F000803F05D020B140F2B55162A001F0AAF9A7
:10270000206938B1B0F5802F04D040F2B6515DA0F9
:1027100001F0A0F995F82000012812D04FF001082F
:1027200085F82080022085F821002968CA204862A7
:10273000296853204862284600F05EFD002718B142
:1027400097E00220BDE8F081286880684FEA406089
:10275000BEB1002851DA207800F038FD20B1207891
:1027600000F034FD0C2804D940F2DC5145A001F002
:1027700071F9E07800284BD0012849D040F2DD51B2
:1027800043E000280FDA2078401E0B2804D94FF4CC
:10279000B9613CA001F05EF9E07868B101280BD086
:1027A00040F2C95105E0E7702078172804D940F2BB
:1027B000CE5134A001F04EF960783B2804D94FF493
:1027C000BA6130A001F046F9A0783B2804D940F264
:1027D000D1512CA001F03EF9207800F000FD030457
:1027E000607800F0FCFC43EA0023A07800F0F7FCDE
:1027F0000343E07843EA805028E0E770207800F057
:10280000E5FC172804D940F2E2511EA001F022F99C
:10281000607800F0DBFC3B2804D940F2E45119A0B9
:1028200001F018F9A07800F0D1FC3B2804D940F25F
:10283000E55114A001F00EF9A0782178E27840EA81
:1028400001406178090241EA825108431B4908406E
:10285000296808602868816821F480218160D4E9B2
:102860000301084329688A6810438860284600F0FD
:10287000E7FC2A68FF21516208B985F8218085F8B4
:1028800020705FE72E2E2F447269766572732F5386
:10289000544D33324C3478785F48414C5F44726910
:1028A0007665722F5372632F73746D33326C347884
:1028B000785F68616C5F7274632E63007F7F7F0056
:1028C00070B504460B482168C860FEF765F90546F7
:1028D0004FF47A7607E000BFFEF75EF9401BB04286
:1028E00001D9032070BD2068C0688006F4D500209F
:1028F00070BD00005FFF030010B5401EB0F1807F87
:1029000001D3012010BD4FF0E02460610F2160175A
:1029100001F089F80020A06107202061002010BD8F
:1029200070477047704700002DE9F0410268044687
:10293000D0691168936840F60F0528424FF00005F2
:102940004FF0020605D187067ED58F067CD5A16E95
:102950002BE1DFF884C203F0010701EA0C0C57EA0F
:102960000C0C71D05FEAC07C0CD05FEAC15C09D569
:102970004FF0010CC2F820C0D4F8842042F00102CC
:10298000C4F88420820709D5DA0707D022681662C6
:10299000D4F8842042F00402C4F8842042070AD507
:1029A000DA0708D0236804221A62D4F8842042F09F
:1029B0000202C4F8842002070CD501F020023A4339
:1029C00008D0236808221A62D4F8842042F0080252
:1029D000C4F8842002050BD54A0109D523684FF4B9
:1029E00000621A62D4F8842042F02002C4F88420E5
:1029F000D4F88420002A36D0800605D5880603D571
:102A0000A16E09B120468847D4F8840021688968FE
:102A1000490602D410F0280F27D0204600F002FE0D
:102A20002068806840061BD52068083050E8001FE9
:102A300021F0400140E80012002AF5D1606F78B122
:102A400066498163606F00E015E0FDF7ADFE002888
:102A500009D0606F816B00E02046BDE8F041084777
:102A60002046FFF75FFFBDE8F0812046FFF75AFFE1
:102A7000C4F88450F7E7D4F860C02027BCF1010FF8
:102A80007ED15FEAC06C7FD55FEAC16C7CD5102037
:102A9000106220688068400643D5616F086840680E
:102AA0000004000CDFD0B4F858208242DBD9A4F82F
:102AB0005A000868006880062BD4216851E8000F8E
:102AC00020F4807041E80002002AF6D12068083026
:102AD00050E8001F21F0010140E80012002AF5D162
:102AE0002068083050E8001F21F0400140E8001243
:102AF000002AF5D1C4F880702566206850E8001FD0
:102B000021F0100140E80012002AF6D1606FFDF7B5
:102B100026FE6666B4F85800B4F85A10401A81B21E
:102B20002CE0B4F85800B4F85A10401A81B2B4F846
:102B30005A00002897D0002995D0226852E8000F4B
:102B400020F4907042E80003002BF6D12068083092
:102B500050E8002F22F0010240E80023002BF5D1BD
:102B6000C4F880702566A566226852E8000F20F040
:102B7000100042E80003002BF6D16666204600E014
:102B800002E0FFF7CDFE6EE7C60209D55B0207D56E
:102B90004FF4801010622046BDE8F041FFF7C1BE3F
:102BA000020606D50A0604D5E16E00297FF454AF6B
:102BB00059E74006E7D54806E5D52046026852E8C1
:102BC000001F21F0400142E80013002BF6D1C76737
:102BD000C56600F0C5F846E720010004113600087C
:102BE00070B5040012D0A06926490028264A274B58
:102BF000274D20680CD0884217D0904215D09842BB
:102C000013D0A84211D04FF4A9710BE0012070BD80
:102C100088420AD0904208D0984206D0A84204D0F8
:102C200040F257111BA000F015FFE06F28B90020FB
:102C300084F87800204600F04BF82420E0672068F4
:102C4000016821F001010160606A10B1204600F0C6
:102C500089FB204600F00CFD0128D8D0206841688F
:102C600021F4904141602068816821F02A0181604F
:102C70002068016841F0010101602046BDE8704014
:102C800000F072BC003801400044004000480040A1
:102C9000008000402E2E2F447269766572732F5388
:102CA000544D33324C3478785F48414C5F447269FC
:102CB0007665722F5372632F73746D33326C347870
:102CC000785F68616C5F756172742E63000000004C
:102CD00010B59EB00446142117A8FDF752FC5C21E4
:102CE0006846FDF74EFC1C492068884231D101201E
:102CF0000024009008946846FEF7E4F808B1FDF758
:102D00002CFD1648016E41F480410166016E01F40C
:102D100080411C91C16C41F00101C164C06C17A9D4
:102D200000F001001C904FF4C06017900220CDE924
:102D3000180403201A9007201B904FF09040FDF7D5
:102D40006DFD002211462520FDF7AEFF2520FDF781
:102D500079FF1EB010BD0000003801400010024095
:102D60007047FEE770B586B014216846FDF709FC90
:102D70002B48C16C41F00401C164C16C01F0040135
:102D80000591C16C41F08001C164C16C01F080010A
:102D90000591C16C41F00101C164C16C01F00101F8
:102DA0000591C16C41F00201C164C06C4FF09046C6
:102DB00000F002000590012207213046FDF7B8FE21
:102DC0004FF40050002401258DE831006946154874
:102DD000FDF724FD0720CDE90005CDE90254694641
:102DE0003046FDF71BFD49F6F8100325CDE9000537
:102DF000694602943046FDF711FD4FF6FF70CDE9AC
:102E00000005694602940848FDF708FD0820CDE951
:102E10000005694602940548FDF700FD06B070BD47
:102E2000001002400008004800040048001C004850
:102E300030B591B014210BA8FDF7A3FB00242C2181
:102E400068461094FDF79DFB28482749C0E9001407
:102E50007F218160FF21C0E9031444618461C46162
:102E6000FFF796F808B1FDF778FC8DF82C408DF847
:102E70002D408DF82E400E9401220BA91B480F9473
:102E8000FFF724FC08B1FDF768FC01258DF84050E0
:102E90008DF841508DF842508DF843402A4610A9D4
:102EA0001248FFF745FB08B1FDF757FC8DF80040CD
:102EB0008DF8014005208DF8020005944FF48070D4
:102EC000039404940A900194079408948DF8245074
:102ED000012269460548FFF74BF9002801D0FDF7AC
:102EE0003CFC11B030BD0000002800401400002060
:102EF0000D4810B50B4901604FF4E13141600021EC
:102F000081600C22C160C0E904128161C16101626B
:102F10004162FFF765FE002803D0BDE81040FDF7D1
:102F20001CBC10BD0038014038000020FEE7FEE761
:102F3000704700002DE9F0410446006888460026ED
:102F400050B1012808D0022806D0032804D040F64A
:102F50005E3167A000F07EFD6068401E072804D93E
:102F600040F65F3162A000F075FDA06808384E2879
:102F700004D94FF436615EA000F06CFDA069C10376
:102F800003D4C10201D4C10102D56849084204D06A
:102F900040F6613156A000F05DFD654DE8688007A0
:102FA0000ED0E86800F003012068814217D1B0B16B
:102FB000E8686168C0F30210401C88420FD121E02C
:102FC0002068012804D0022805D0032807D108E092
:102FD0002968890701E029684905002907DB0126DE
:102FE00082E02968890302D429684903F5E7E96882
:102FF00062686FF00F0321F0730103EB02121143BB
:103000000143E960286820F080602860FDF7C4FD76
:10301000074604E0FDF7C0FDC01B02285BD8286806
:103020000001F7D4B8F1000F26D0B8F1010F34D069
:10303000606902280AD0042808D0062806D008288B
:1030400004D040F6EA312AA000F004FD207D4FF0C4
:103050007E41400801EB4060A16840EA01202969F7
:10306000344A114008432861286840F08060286095
:10307000FDF792FD074630E0E068801E1D2804D968
:1030800040F6B4311AA000F0E5FCA068217B0002F4
:1030900040EAC1602969284AE3E7206902280AD08A
:1030A000042808D0062806D0082804D040F6D831D5
:1030B0000FA000F0CFFC208A2049400801EB4050CF
:1030C000A16840EA012029691D4ACAE7FDF764FDAD
:1030D000C01B022801D9032606E028680001F5D5A7
:1030E0002869A169084328613046BDE8F0810000E5
:1030F0002E2E2F447269766572732F53544D3332DE
:103100004C3478785F48414C5F4472697665722F21
:103110005372632F73746D33326C3478785F6861E7
:103120006C5F7263635F65782E630000FFFFEEFEE5
:1031300000100240FF80FFF9FF80FF070000E0FF62
:10314000FF809FFFF8B51C4D06460024A86DC00007
:1031500002D5FDF795FE0DE0A86D40F08050A86502
:10316000A86D00F080500090FDF78AFEA96D21F057
:103170008051A965B0F5007F04D0802E07D94FF0AB
:1031800003040AE0802E08D9A02E01D804E001D162
:10319000022402E0702E00D101240848016821F0C9
:1031A000070121430160006800F00700A04201D040
:1031B0000120F8BD0020F8BD0010024000200240B0
:1031C0000148FEF721BE000014000020010901EBB8
:1031D000810100F00F0000EB4100C0B270470022F7
:1031E000014602E00A39C9B2521C0A29FAD2100774
:1031F00041EA1060704700002DE9F0410446006884
:103200000025C168490617D4691EC160FDF7C4FCDA
:1032100006464FF47A78032708E000BFFDF7BCFCB0
:10322000801B404502D9032584F821702068C068BE
:10323000400601D4032DF1D12846BDE8F0810000FD
:103240002DE9F041064613480025016821F0800170
:103250000160041F20684FF00307800607D4304642
:10326000FFF72EFB90B186F8217003250EE0206851
:1032700020F0200020603046FFF722FB10B186F8D6
:1032800021700325206840F0200020602846BDE81A
:10329000F08100000C2800407047FDF783BC00005F
:1032A00010B596B044216846FDF76BF9142111A8BA
:1032B000FDF767F94FF40070FDF786FD08B172B6AF
:1032C000FEE7FDF7E5FD174850F8901F21F01801C3
:1032D0000160052000904FF480300121CDE901010B
:1032E000022003240A90CDE90B4114210D910721FE
:1032F000CDE90E1010906846FEF7D2F908B172B60B
:10330000FEE70F20CDE911040020139014901590D2
:10331000042111A8FEF72CF8002801D072B6FEE7B0
:1033200016B010BD001002400B48016841F4700156
:1033300001600A48016841F00101016000218160DB
:103340000268074B1A4002608214C260026822F4CD
:10335000802202608161704788ED00E00010024029
:10336000FFFFF6EA70B50446406AFF2804D940F62C
:1033700042516BA000F06EFB94F82400000710D5BA
:10338000606B38B1B0F5004F04D040F6475164A0EF
:1033900000F060FB20684168626B21F4004111433A
:1033A000416094F82400C00710D0A06A38B1B0F58D
:1033B000003F04D040F64E5159A000F04BFB20686E
:1033C0004168A26A21F400311143416094F824005D
:1033D000800710D5E06A38B1B0F5803F04D040F6E0
:1033E00055514FA000F036FB20684168E26A21F495
:1033F00080311143416094F82400400710D5206BC0
:1034000038B1B0F5802F04D040F65C5144A000F0F4
:1034100021FB20684168226B21F480211143416027
:1034200094F82400C00610D5A06B38B1B0F5805FC9
:1034300004D040F663513AA000F00CFB206881688C
:10344000A26B21F480511143816094F8240080061E
:1034500010D5E06B38B1B0F5005F04D040F66A518A
:103460002FA000F0F7FA20688168E26B21F4005188
:103470001143816094F8240040063AD5374920680A
:1034800088420AD03649884207D03649884204D05B
:1034900040F6715122A000F0DDFA206C4FF4801547
:1034A00030B1A84204D040F672511DA000F0D2FA0B
:1034B00020684168226C21F4801111434160206C26
:1034C000A84216D1606C68B1B0F5001F0AD0B0F503
:1034D000800F07D0B0F5C00F04D040F6775110A090
:1034E00000F0B8FA20684168626C21F4C001114311
:1034F000416094F82400000610D5A06C38B1B0F5F6
:10350000002F04D040F67F5105A000F0A3FA2068F8
:103510004168A26C21F400211143416070BD00009C
:103520002E2E2F447269766572732F53544D3332A9
:103530004C3478785F48414C5F4472697665722FED
:103540005372632F73746D33326C3478785F6861B3
:103550006C5F756172742E630000000000380140DA
:1035600000440040004800402DE9F843002604468E
:10357000C0F88460FDF710FB8046206800684FF0BB
:10358000200500076FF07E4712D54346002229042C
:103590002046009700F0FAF950B1216851E8000F79
:1035A00020F0800041E80002002AF6D1E56721E022
:1035B00020680068400722D5434600224FF480016E
:1035C0002046009700F0E2F9C8B1216851E8000FE9
:1035D00020F4907041E80002002AF6D120680830FB
:1035E00050E8001F21F0010140E80012002AF5D147
:1035F000C4F8805084F878600320BDE8F883E5675C
:10360000C4F8805044F8606F666026760020F4E7C6
:1036100010B5806A0021A0F85A10A0F85210FFF7E8
:1036200081F910BD016851E8002F22F4907241E841
:103630000023002BF6D10168083151E8002F22F059
:10364000010241E80023002BF5D1016E012908D1C8
:10365000026852E8001F21F0100142E80013002B1D
:10366000F6D12021C0F880100021016681667047E4
:103670002DE9F04704464068AC490026884204D34F
:1036800040F64D41AAA000F0E5F9A0684FF480553E
:10369000B0F1805F07D030B1A84204D040F64E416F
:1036A000A3A000F0D7F9DFF8C48220684FF40051DE
:1036B0004045E0684FF4006906D100281AD08842DE
:1036C00018D040F6514112E0A8420AD048B1B0F5F6
:1036D000405F06D0884204D040F6554194A000F0E7
:1036E000B9F9206A30B1484504D040F6564190A05F
:1036F00000F0B0F920694FF4806748B1B84207D0B4
:10370000B0F5C06F04D040F6594189A000F0A2F98D
:10371000606930F00C0100D120B940F65A4184A014
:1037200000F098F9A06968B1B0F5807F0AD0B0F5D3
:10373000007F07D0B0F5407F04D040F65B417CA00D
:1037400000F088F9E0694FF4004530B1A84204D098
:1037500040F65C4176A000F07DF92169A068E2693D
:10376000084361691143084321680A68804B1A4085
:1037700002430A6020684168E26821F44051114325
:1037800041602168A069414501D0226A10438A68DE
:1037900022F4306202438A607649226876488A427F
:1037A0000DD1D0F8880010F0030006D0012841D0D8
:1037B000022831D003282ED13EE001202CE06F49B1
:1037C0008A420BD1D0F8880010F00C0024D00428D5
:1037D00022D008282CD00C281DD12DE068498A421F
:1037E0000BD1D0F8880010F0300015D0102821D06F
:1037F00020281DD030280ED11EE042450BD1D0F834
:10380000880010F4406007D0B84213D048450FD06C
:10381000B0F5406F10D010205A49002742452FD1F3
:1038200060B102280DD004280DD0082874D125E0FD
:103830000220F1E70420EFE70820EDE7FDF7BAFEEC
:1038400003E0084602E0FDF7D9FE78B3626802EBB8
:103850004201814260D8B0EB023F5DD8010E030205
:103860005008181879410023FCF704FD464AA0F5DA
:103870004071914250D82168C8604EE02846E5E783
:10388000E2694FF6EF78AA4229D1092844D2DFE84D
:1038900000F005080B430E4343432400FDF78AFE66
:1038A00007E0FDF799FE04E0084603E035E0FDF788
:1038B000A5FE90B34100606801EB5001B1FBF0F050
:1038C000A0F11001414527D84FF6F0710140C0F337
:1038D000420001432068C1601FE02846EAE709284A
:1038E0001AD2DFE800F005080B190D1919191F008D
:1038F000FDF760FE06E0FDF76FFE03E0084602E01C
:10390000FDF77CFE48B1616800EB5100B0FBF1F0BF
:10391000A0F11001414507D90126A7663046E766A8
:10392000BDE8F0872846EEE780B2A4E781969800CC
:103930002E2E2F447269766572732F53544D333295
:103940004C3478785F48414C5F4472697665722FD9
:103950005372632F73746D33326C3478785F68619F
:103960006C5F756172742E6300000000008000407F
:10397000F369FFEF003801400010024000440040AE
:10398000004800400024F400FFFC0F002DE9F04740
:10399000994617460E4604464FF00008089D2FE052
:1039A000681C2DD0FDF7F8F8A0EB0900A84214D848
:1039B0009DB120680168490722D5C169C94309073B
:1039C0000DD4082505622046FFF72CFEC4F884506C
:1039D00084F878800120BDE8F0870320FBE7C06908
:1039E000C04300050CD421684FF4006008622046F3
:1039F000FFF718FE2020C4F8840084F87880ECE7F4
:103A00002068C06936EA000004D00020B842C7D060
:103A10000020E0E70120F9E70148FEF785BF00003C
:103A200038000020FEE70907090E002804DB00F13A
:103A3000E02080F80014704700F00F0000F1E02053
:103A400080F8141D704730380A2801D201207047D1
:103A5000002070477047000004490A685206FCD5F0
:103A6000024AC1B20C321180704700001C3801407C
:103A700086B00024FDF79EF8FFF712FCFFF772F9FD
:103A8000FFF736FAFFF7D4F94FF0904500220121F5
:103A90002846FDF74DF84FF4FA70FCF7ADFE2348C9
:103AA000FEF776FA08B172B6FEE701221146284603
:103AB000FDF73EF81E491F208861FDF7F1F90A263F
:103AC0001427641CE4B2B4FBF6F006FB104000BB04
:103AD000002269461548FEF70BFA9DF802309DF862
:103AE00001209DF8001013A0FCF73CFC002205A962
:103AF0000E48FEF7B5F99DF816309DF815209DF893
:103B0000171012A0FCF72EFC9DF8141015A0FCF75E
:103B100029FCB4FBF7F007FB104018B90121284637
:103B2000FCF7D6FF0A20FCF767FECAE71400002066
:103B30000070004054696D653A253032643A253092
:103B400032643A253032640D0A0000004461746525
:103B50003A3230253032642D253032642D25303212
:103B6000640D0A005765656B3A25640D0A0D0A005D
:103B70004FF04070E1EE100A7047000000000000B6
:103B8000000000000102030406070809A0860100E6
:103B9000400D0300801A060000350C0040420F0063
:103BA00080841E0000093D0000127A000024F40009
:103BB00000366E010048E801006CDC0200000000E5
:103BC00001020304040000080000000000000002DD
:103BD0000001000010000000F83B00080000002079
:103BE00014000000C80100080C3C0008140000206C
:103BF0000C090000E40100080100000010000000B2
:0C3C00000000000000093D000000000072
:040000050800018D61
:00000001FF
