:020000040800F2
:10000000881900202D0200089D3C00080B3A0008CA
:10001000993C0008BF040008FD4C000800000000E7
:10002000000000000000000000000000474300083E
:10003000C304000800000000A13C00084943000878
:10004000470200084702000847020008470200086C
:10005000470200084702000847020008470200085C
:10006000470200084702000847020008470200084C
:10007000470200084702000847020008470200083C
:10008000470200084702000847020008470200082C
:10009000470200084702000847020008470200081C
:1000A000470200084702000847020008470200080C
:1000B000470200080000000000000000470200089E
:1000C00047020008470200084702000847020008EC
:1000D00047020008ED4C00084702000847020008EC
:1000E00047020008F93F000800000000000000007F
:1000F0000000000000000000000000000000000000
:10010000000000004702000800000000470200084D
:10011000000000000000000047020008470200083D
:10012000470200084702000847020008470200088B
:10013000470200080000000000000000000000006E
:1001400047020008470200084702000800000000BC
:10015000470200084702000847020008470200085B
:10016000470200084702000847020008000000009C
:1001700047020008470200080000000000000000DD
:1001800047020008470200084702000800F002F892
:1001900000F03CF80AA090E8000C82448344AAF1E5
:1001A0000107DA4501D100F031F8AFF2090EBAE8E3
:1001B0000F0013F0010F18BFFB1A43F0010318479B
:1001C000F850000018510000103A24BF78C878C1D8
:1001D000FAD8520724BF30C830C144BF04680C604D
:1001E000704700000023002400250026103A28BF95
:1001F00078C1FBD8520728BF30C148BF0B60704799
:100200001FB505F021F81FBD10B510BD00F00AF9AB
:100210001146FFF7F5FF04F047FF00F03CF903B487
:10022000FFF7F2FF03BC00F043F9000009488047E4
:1002300009480047FEE7FEE7FEE7FEE7FEE7FEE7C8
:10024000FEE7FEE7FEE7FEE704480549054A064BE0
:1002500070470000C94300088D0100088811002084
:1002600088190020881500208815002053EA020C08
:1002700000F069802DE9F04B4FF00006002B1FBF06
:10028000B3FA83F503FA05F424FA05F65E4012BFCB
:100290001643B2FA82F502FA05F4C5F120051EBF35
:1002A00022FA05FC44EA0C04203556EA044C4FEAD5
:1002B000144418BF641C4FF000084FF0000990422E
:1002C00071EB030C39D3002919BFB1FA81F701FA98
:1002D00007F6B0FA80F700FA07F6C7F120071EBF4D
:1002E00020FA07FC46EA0C062037B6FBF4FCA7EB25
:1002F0000507103F07F01F0BCBF120060CFA0BFB94
:100300002CFA06F644BFB3460026202FA4BF5E4653
:100310004FF0000B5BEA060C08BF4FF0010B19EB26
:100320000B09ABFB027C48EB0608C01B06FB02CCAA
:100330000BFB03CC71EB0C01C1E70B4602464146B7
:100340004846BDE8F08B13B54FF000004FF00001B8
:10035000AFF30080BDE81C40704700000FB40449B3
:1003600010B503AA029800F02FF810BC5DF814FB3A
:10037000100000204FF0000200B513469446964648
:10038000203922BFA0E80C50A0E80C50B1F12001A8
:10039000BFF4F7AF090728BFA0E80C5048BF0CC056
:1003A0005DF804EB890028BF40F8042B08BF7047B4
:1003B00048BF20F8022B11F0804F18BF00F8012B26
:1003C0007047704770477047074B70B50D467B44C8
:1003D00000F011F80446284600F020F810B14FF064
:1003E000FF3070BD204670BDBB4C000001694A1C47
:1003F00002610878704700B58FB0CDE90131002166
:10040000059105497944CDE903101146684600F08D
:100410002EF80FB000BD0000E5FFFFFF007B00F0ED
:1004200080007047754600F03FF8AE46050069460B
:10043000534620F00700854618B020B5FFF704FFAB
:10044000BDE820404FF000064FF000074FF00008D5
:100450004FF0000B21F00701AC46ACE8C009ACE856
:10046000C009ACE8C009ACE8C0098D4670472DE969
:10047000F04106460024D6E90170F5688046304612
:1004800003E04146B847641C3046A8470028F8D12D
:100490002046BDE8F08110B50446AFF30080204649
:1004A000BDE81040FFF7BBBE004870472811002090
:1004B00001491820ABBEFEE726000200704700BFCE
:1004C000FEE7704772B600BFFEE70146002291F8D2
:1004D0002500022808D00420C86300BF002081F84E
:1004E000240000BF012070470868006820F00E005B
:1004F0000B6818600868006820F001000B6818603D
:1005000091F8440000F01C03012098400B6C5860E7
:10051000012081F8250000BF002081F8240000BFE1
:100520001046E0E770B50446002594F8250002283F
:1005300003D00420E063012520E02068006820F05B
:100540000E00216808602068006820F00100216822
:10055000086094F8440000F01C0101208840216CE0
:100560004860012084F8250000BF002084F82400A2
:1005700000BFA06B10B12046A16B8847284670BD14
:1005800070B5044600F052FA06462546681C10B1C4
:1005900004480078054400BF00F048FA801BA842D8
:1005A000FAD370BD080000202DE9F84306460C463A
:1005B0000027B6F1904F0ED0B24886420BD0B24819
:1005C000864208D0B148864205D0B148864202D062
:1005D000B048864200D103E0AA21AFA004F054FD48
:1005E000208880B220B120686FF30F0000B903E0CB
:1005F000AB21A9A004F048FD606848B360680128F9
:1006000026D06068112823D06068022820D0606856
:1006100012281DD06068B0F5881F19D06068B0F549
:10062000041F15D06068B0F5441F11D06068B0F5A4
:10063000901F0DD06068B0F5081F09D06068B0F554
:10064000481F05D06068032802D060680B2800D1DD
:1006500003E0AC2190A004F017FD0BE10121B940AB
:10066000206800EA0108B8F1000F7DD0207900F081
:100670000300012804D0207900F00300022823D1D0
:10068000E06840B1E068012805D0E068022802D0A7
:10069000E068032800D103E0BB217FA004F0F4FC54
:1006A000B56879000320884085437900E068884078
:1006B0000543B56075680120B84085432079C0F3D3
:1006C0000010B84005437560207900F0030003284E
:1006D00016D0A06828B1A068012802D0A06802281E
:1006E00000D103E0DC216CA004F0CEFCF5687900B9
:1006F0000320884085437900A06888400543F56061
:10070000207900F00300022834D1B6F1904F0ED0CA
:100710005C4886420BD05C48864208D05B488642E3
:1007200005D05B48864202D05A48864200D103E099
:10073000E82159A004F0A8FC20690F2800D803E0A4
:10074000E92155A004F0A0FCF90806F1200050F8BA
:1007500021507807C10E0F20884085437907C90EC4
:1007600020698840054300E083E0F90806F1200095
:1007700040F821503568790003208840854320796E
:1007800000F003007900884005433560606800F49C
:10079000403000286DD000BF4E48006E40F0010090
:1007A0004C4908660846006E00F00100009000BF4A
:1007B00000BF4FEAB130B90850F82150B807010F17
:1007C0000F2088408543B6F1904F01D1002014E0FE
:1007D0002C48864201D101200FE02B48864201D1EE
:1007E00002200AE02948864201D1032005E028487A
:1007F000864201D1042000E00720B907090F884094
:1008000005433548B90840F821503448056825EAC1
:100810000805606800F4801008B145EA08052F4813
:100820000560001D056825EA0805606800F40010F1
:1008300008B145EA08052948001D05602748001F42
:10084000056825EA0805606800F4003008B145EA4B
:1008500008052248001F0560001F056825EA0805F5
:10086000606800F4803008B145EA08051B48083884
:1008700005607F1C2068F84000287FF4EFAEBDE8DB
:10088000F88300000004004800080048000C0048FD
:1008900000100048001C00482E2E2F447269766517
:1008A00072732F53544D33324C3478785F48414C37
:1008B0005F4472697665722F5372632F73746D3360
:1008C000326C3478785F68616C5F6770696F2E6333
:1008D0000000000000100240080001400804014030
:1008E00070B506460C46A0B218B1200C000400B941
:1008F00004E04FF4C77105A004F0C6FB3069204046
:1009000008B1012500E00025284670BD2E2E2F4499
:100910007269766572732F53544D33324C34787844
:100920005F48414C5F4472697665722F5372632F42
:1009300073746D33326C3478785F68616C5F6770A4
:10094000696F2E630000000070B505460C46A0B22A
:1009500018B1200C000400B904E04FF4E37106A0C4
:1009600004F092FB6E6924EA060006EA040140EAFC
:100970000140A86170BD00002E2E2F44726976657B
:1009800072732F53544D33324C3478785F48414C56
:100990005F4472697665722F5372632F73746D337F
:1009A000326C3478785F68616C5F6770696F2E6352
:1009B0000000000070B506460C461546A0B218B1FE
:1009C000200C000400B904E04FF4D77108A004F033
:1009D0005BFB0DB1012D00D104E040F2AF1104A08A
:1009E00004F052FB0DB1B46100E0B46270BD0000D0
:1009F0002E2E2F447269766572732F53544D333205
:100A00004C3478785F48414C5F4472697665722F48
:100A10005372632F73746D33326C3478785F68610E
:100A20006C5F6770696F2E6300000000014800680A
:100A3000704700000000002003480068034909785F
:100A400008440149086070470000002008000020A9
:100A500010B50024032000F0FFF80F2000F008F884
:100A600008B1012401E000F02FF8204610BD00007D
:100A700070B50446002511480078D8B10F480078B9
:100A80004FF47A71B1FBF0F00D490968B1FBF0F653
:100A9000304602F0A0FC58B9102C07D200222146A3
:100AA000501E00F06BF80748046004E0012502E0E6
:100AB000012500E00125284670BD00000800002047
:100AC0000C0000200400002008B500BF0D48006E97
:100AD00040F001000B4908660846006E00F0010076
:100AE000009000BF00BF00BF0846806D40F08050FE
:100AF00088650846806D00F08050009000BF00BF00
:100B000008BD00000010024010B50446002C00DBB8
:100B100003E0D2210AA004F0B7FA204600280DDB3A
:100B200000BF00BF00F01F02012191404209920066
:100B300002F1E022C2F8001100BF00BF00BF10BDEB
:100B40002E2E2F447269766572732F53544D3332B3
:100B50004C3478785F48414C5F4472697665722FF7
:100B60005372632F73746D33326C3478785F6861BD
:100B70006C5F636F727465782E6300002DE9F05F1F
:100B800080460C4615460027102D00D203E0BE21FA
:100B900020A004F079FA102C00D203E0BF211DA0A0
:100BA00004F072FA04F054FA0746394622462B46FE
:100BB00001F00700C0F1070ABAF1040F02D94FF0A3
:100BC000040A01E0C0F1070AD14600F1040ABAF1B3
:100BD000070F02D24FF0000A01E0A0F1030AD44649
:100BE0004FF0010A0AFA09FAAAF1010A0AEA020A0E
:100BF0000AFA0CFA4FF0010B0BFA0CFBABF1010BEC
:100C00000BEA030B4AEA0B063146404604F028FA89
:100C100000F01EB82E2E2F447269766572732F5322
:100C2000544D33324C3478785F48414C5F4472699C
:100C30007665722F5372632F73746D33326C347810
:100C4000785F68616C5F636F727465782E63000013
:100C500030BCBDE8C09F000010B50446072C07D08B
:100C6000062C05D0052C03D0042C01D0032C00D178
:100C700003E0A62109A004F007FA00BF04F0070171
:100C8000154A10684FF6FF021040144A024342EA28
:100C90000120114A106000BF10BD00002E2E2F440D
:100CA0007269766572732F53544D33324C347878B1
:100CB0005F48414C5F4472697665722F5372632FAF
:100CC00073746D33326C3478785F68616C5F636F16
:100CD000727465782E6300000CED00E00000FA05E8
:100CE00070B50446B4F5007F02D0B4F5806F00D132
:100CF00003E0A72120A004F0C7F9B4F5007F2AD1B2
:100D00002C48006800F4C060B0F5007F32D029485C
:100D1000006820F4C06040F400702649086026484E
:100D20000068322148432549B0FBF1F0451C00E042
:100D30006D1E2048406900F48060B0F5806F01D1DD
:100D4000002DF5D11B48406900F48060B0F5806F3C
:100D500010D1032070BD1748006800F4C060B0F5E2
:100D6000806F07D01348006820F4C06040F48060B2
:100D7000104908600020EDE72E2E2F447269766539
:100D800072732F53544D33324C3478785F48414C52
:100D90005F4472697665722F5372632F73746D337B
:100DA000326C3478785F68616C5F7077725F6578F9
:100DB0002E630000007000400C00002040420F0035
:100DC0000248006800F4C0607047000000700040F6
:100DD0002DE9F84304460025A846FE49206808404E
:100DE00020B1C9432068084000B903E0C921FAA036
:100DF00004F04AF9208800F40060B0F5006F35D1A6
:100E0000606C38B1606CB0F5000F03D0606CB0F569
:100E1000400F00D103E0D121EFA004F035F9606C60
:100E200068B1B0F5000F03D0B0F5400F0ED10CE063
:100E3000F848C06840F48030F649C86008E00021F6
:100E4000201D02F02FFF054602E001E0012500BF52
:100E500000BF55B9EF488830006820F44000616C4D
:100E60000843EC49C1F8880000E0A846206800F477
:100E70000030B0F5003F74D14FF00009A06D58B1BB
:100E8000A06DB0F5807F07D0A06DB0F5007F03D0D6
:100E9000A06DB0F5407F00D104E04FF4A271CEA068
:100EA00004F0F2F8DB48806D012121EA107078B17E
:100EB00000BFD848806D40F08050D649886508460C
:100EC000806D00F08050009000BF00BF4FF001091E
:100ED000D148006840F48070CF490860FFF7A6FD54
:100EE000074606E0FFF7A2FDC01B022801D9032533
:100EF00005E0C948006800F480700028F2D000BF07
:100F000085BBC4489030006800F44076CEB1A06D37
:100F1000B04216D0BF489030006820F44076BD48FB
:100F2000D0F8900040F48030BA49C1F890000846EB
:100F3000D0F8900020F48030C1F890000846C0F846
:100F4000906006F00100B0B1FFF770FD07460AE0BF
:100F5000FFF76CFDC01B41F28831884203D903259D
:100F600008E021E015E0AB489030006800F0020096
:100F70000028EDD000BF55B9A6489030006820F495
:100F80004070A16D0843A349C1F8900002E0A84653
:100F900000E0A846B9F1010F05D19E48806D20F010
:100FA00080509C49886500BF207800F00100D0B1D6
:100FB000206A40B1206A012805D0206A032802D0A7
:100FC000206A022800D104E040F2991182A004F0C6
:100FD0005BF890488830006820F00300216A0843DD
:100FE0008C49C1F88800207800F0020002281AD14C
:100FF000606A40B1606A042805D0606A0C2802D09B
:10100000606A082800D104E040F2A31172A004F045
:101010003BF880488830006820F00C00616A084383
:101020007C49C1F88800207800F0040004281AD117
:10103000A06A40B1A06A102805D0A06A302802D06A
:10104000A06A202800D104E040F2AF1162A004F0B1
:101050001BF870488830006820F03000A16A08430F
:101060006C49C1F88800207800F0200020281DD1AC
:10107000E06A58B1E06AB0F5806F07D0E06AB0F579
:10108000406F03D0E06AB0F5006F00D104E040F299
:10109000D71151A003F0F8FF5E488830006820F4B3
:1010A0004060E16A08435B49C1F88800208800F489
:1010B0000070B0F5007F1DD1E06B58B1E06BB0F56A
:1010C000802F07D0E06BB0F5002F03D0E06BB0F5B8
:1010D000402F00D104E04FF4F0713FA003F0D4FFA3
:1010E0004C488830006820F44020E16B08434949AF
:1010F000C1F88800208800F48060B0F5806F1DD1B1
:10110000206C58B1206CB0F5801F07D0206CB0F572
:10111000001F03D0206CB0F5401F00D104E040F266
:10112000E7112DA003F0B0FF3A488830006820F4A2
:101130004010216C08433749C1F88800207800F03E
:101140004000402819D1206B38B1206BB0F5805F8A
:1011500003D0206BB0F5005F00D104E040F2EF1146
:101160001DA003F091FF2B488830006820F4405008
:10117000216B08432749C1F88800207800F08000DF
:10118000802819D1606B38B1606BB0F5804F03D007
:10119000606BB0F5004F00D104E040F2FB110EA0EF
:1011A00003F072FF1B488830006820F44040616BF8
:1011B00008431849C1F88800208800F48070B0F511
:1011C000807F40D1A06B48B3A06BB0F5803F29D0A1
:1011D000A06B24E0E7CF0E002E2E2F4472697665B7
:1011E00072732F53544D33324C3478785F48414CEE
:1011F0005F4472697665722F5372632F73746D3317
:10120000326C3478785F68616C5F7263635F6578B5
:101210002E630000001002400070004002E0B0F5B4
:10122000003F00D105E040F20721AFF2540003F087
:101230002BFF6548006820F44030A16B08436249E9
:101240008839C1F88800206800F40020B0F5002F2C
:1012500034D1A06C58B1A06CB0F1806F07D0A06CF5
:10126000B0F1006F03D0A06CB0F1406F00D105E089
:1012700040F24121AFF2A00003F006FF524800689F
:1012800020F04060A16C08434F490860A06CB0F1A9
:10129000006F08D14C488838C06840F480104A4933
:1012A0008839C8600AE0A06CB0F1806F06D10121D6
:1012B000201D02F0F7FC054605B1A846206800F4A1
:1012C0008020B0F5802F34D1E06C58B1E06CB0F1E3
:1012D000806F07D0E06CB0F1006F03D0E06CB0F12C
:1012E000406F00D105E040F26621AFF2141003F028
:1012F000CBFE3548006820F04060E16C084332497D
:101300000860E06CB0F1006F08D12F488838C068E1
:1013100040F480102C498839C8600AE0E06CB0F1D4
:10132000806F06D10121201D02F0BCFC054605B1ED
:10133000A846208800F48040B0F5804F23D1206D6E
:1013400038B1206DB0F1805F03D0206DB0F1405F07
:1013500000D105E040F28621AFF2841003F094FE44
:101360001948006820F04050216D08431649086074
:10137000206DB0F1805F06D10221201D02F092FCA9
:10138000054605B1A846208800F40040B0F5004F9E
:1013900016D1606D18B1606DB0F1804F00D105E0DD
:1013A00040F2B621AFF2D01003F06EFE064800689E
:1013B00020F08040616D084303498839C1F88800F6
:1013C0004046BDE8F8830000881002402DE9F04156
:1013D00004460D4614B90120BDE8F08120680128BB
:1013E00003D320680F2800D804E040F259419DA0A3
:1013F00003F04AFE3DB1012D05D0022D03D0032D8F
:1014000001D0042D00D104E040F25A4195A003F030
:101410003BFEA248006800F00700A8420ED29F4899
:10142000006820F0070028439C49086008460068CF
:1014300000F00700A84201D00120CDE7207800F09D
:10144000020002282ED1A068B8B1A068802814D06C
:10145000A068902811D0A068A0280ED0A068B0285D
:101460000BD0A068C02808D0A068D02805D0A068FC
:10147000E02802D0A068F02800D104E040F27241D8
:1014800078A003F001FE8649A068896801F0F001A8
:10149000884207D98248806820F0F000A16808439C
:1014A0007F498860207800F00100002851D06068F2
:1014B00040B16068012805D06068022802D06068E9
:1014C000032800D104E040F27D4166A003F0DCFD7A
:1014D0006068032806D17248006800F00070D8B92F
:1014E000012079E76068022806D16D48006800F4A1
:1014F000003088B901206FE7606830B9684800683B
:1015000000F0020040B9012066E76548006800F479
:10151000806008B901205FE76148806820F003001F
:10152000616808435E498860FFF780FA064608E074
:10153000FFF77CFA801B41F28831884201D90320F1
:101540004AE75748806800F00C006168B0EB810FF3
:10155000EED1207800F0020002280ED15049A06898
:10156000896801F0F001884207D24D48806820F078
:10157000F000A16808434A4988604848006800F0C4
:101580000700A8420ED94548006820F0070028430C
:10159000424908600846006800F00700A84201D0F0
:1015A000012019E7207800F0040004281FD1E0682A
:1015B00078B1E068B0F5806F0BD0E068B0F5A06F4F
:1015C00007D0E068B0F5C06F03D0E068B0F5E06F19
:1015D00000D104E040F2F54122A003F055FD30486F
:1015E000806820F4E060E16808432D498860207835
:1015F00000F00800082820D1206978B12069B0F5F2
:10160000806F0BD02069B0F5A06F07D02069B0F5CE
:10161000C06F03D02069B0F5E06F00D104E040F264
:10162000FC4110A003F030FD1D48806820F460509C
:10163000216940EAC1001A49886000F063F818493E
:101640008968C1F30311174A515C01F01F01C840BA
:101650001549086015480068FFF70AFA074638463A
:10166000BAE600002E2E2F447269766572732F53EE
:10167000544D33324C3478785F48414C5F44726942
:101680007665722F5372632F73746D33326C3478B6
:10169000785F68616C5F7263632E630000200240B4
:1016A00000100240705200080C00002004000020CE
:1016B00001480068704700000C00002000B5FFF7EB
:1016C000F7FF05498968C1F30221044A515C01F022
:1016D0001F01C84000BD00000010024080520008F9
:1016E00000B5FFF7E5FF05498968C1F3C221044A47
:1016F000515C01F01F01C84000BD00000010024015
:1017000080520008F0B500230020DFF8D4C0DCF8D8
:1017100008C00CF00C01DFF8C8C0DCF80CC00CF0FD
:10172000030719B10C291ED1012F1CD1DFF8B0C05D
:10173000DCF800C00CF0080CBCF1000F06D1DFF89B
:10174000A0C0DCF894C0CCF3032305E0DFF890C020
:10175000DCF800C0CCF30313DFF888C05CF823305A
:1017600041B9184606E0042901D11F4802E00829C2
:1017700000D11E480C2932D1DFF864C0DCF80CC05F
:101780000CF00304012C09D0022C02D0032C04D14C
:1017900001E0154A04E0154A02E000BF1A4600BF06
:1017A00000BFDFF83CC0DCF80CC0CCF3021C0CF12D
:1017B0000106DFF82CC0DCF80CC0CCF3062C0CFBC7
:1017C00002FCBCFBF6F2DFF818C0DCF80CC0CCF36E
:1017D000416C0CF1010C4FEA4C05B2FBF5F0F0BD89
:1017E00000100240885200080024F40000127A0021
:1017F0002DE9F843044614B90120BDE8F8832068B8
:1018000018B1206820F03F0000B904E04FF4D17116
:10181000EDA003F039FCFA48806800F00C06F848A7
:10182000C06800F00307207800F0100010287DD178
:10183000A06910B1A069012800D104E040F2AB1109
:10184000E1A003F021FCE069FF2800D804E04FF498
:10185000D671DDA003F018FC206A00B3206A1028BE
:101860001DD0206A20281AD0206A302817D0206A7C
:10187000402814D0206A502811D0206A60280ED049
:10188000206A70280BD0206A802808D0206A90280F
:1018900005D0206AA02802D0206AB02800D104E038
:1018A00040F2AD11C8A003F0EFFB1EB10C2E76D1B3
:1018B000012F74D1D248006800F0020018B1A0696D
:1018C00008B9012099E7CE48216A006800F00800B5
:1018D00020B1CB48006800F0F00005E0C848943023
:1018E000006800F470600009814220D9206A02F08B
:1018F00035FB08B1012080E700BFC148006840F017
:101900000800BF4908600846006820F0F000216A1E
:101910000843BB49086000BF0846406820F47F4088
:10192000E16940EA0120B649486020E069E000BF73
:10193000B348006840F00800B149086008460068F4
:1019400020F0F000216A0843AD49086000BF084656
:10195000406820F47F40E16940EA0120A8494860DE
:101960002EB9206A02F0FAFA08B1012045E7FFF724
:10197000C9FEA3498968C1F30311A24A515C01F071
:101980001F01C840A0490860A0480068FFF770F830
:101990008046B8F1000F4DD040462EE7FFE7A06922
:1019A00080B39748006840F0010095490860FFF750
:1019B0003DF8054606E0FFF739F8401B022801D93B
:1019C00003201AE78E48006800F002000028F2D0D9
:1019D00000BF8B48006840F008008949086008464D
:1019E000006820F0F000216A08438549086000BFC4
:1019F0000846406820F47F40E16940EA01208049C0
:101A0000486017E0FFE77E48006820F001007C494D
:101A10000860FFF70BF8054606E0FFF707F8401BE4
:101A2000022801D90320E8E67548006800F00200AA
:101A30000028F2D1207800F0010000286CD0606806
:101A400038B16068B0F5803F03D06068B0F5A02F72
:101A500000D104E040F219215BA003F015FB082E31
:101A600003D00C2E0AD1032F08D16548006800F47A
:101A7000003088B3606878BB0120BEE600BF6068B4
:101A8000B0F5803F06D15E48006840F480305C4984
:101A900008601AE06068B0F5A02F0BD158480068C4
:101AA00040F48020564908600846006840F48030C1
:101AB00008600AE05248006820F48030504908600D
:101AC0000846006820F48020086000BF606890B17C
:101AD000FEF7ACFF054607E01EE0FEF7A7FF401B40
:101AE000642801D9032088E64548006800F40030E6
:101AF0000028F2D010E0FEF799FF054606E0FEF759
:101B000095FF401B642801D9032076E63C48006815
:101B100000F400300028F2D1207800F00200022802
:101B20002CD1E06818B1E068B0F5807F00D104E006
:101B30004FF4137124A003F0A7FA20691F2800D8DE
:101B400004E040F24D2120A003F09EFA042E03D0C1
:101B50000C2E14D1022F12D12948006800F48060A5
:101B600018B1E06808B9012047E62548406820F030
:101B7000F850217C40EA0160214948605FE0E0685C
:101B800000B31F48006840F480701D490860FEF7EC
:101B90004DFF054606E0FEF749FF401B022801D92C
:101BA00003202AE61648006800F480600028F2D07E
:101BB0001348406820F0F850217C40EA0160104949
:101BC00048603CE024E000002E2E2F4472697665C8
:101BD00072732F53544D33324C3478785F48414CF4
:101BE0005F4472697665722F5372632F73746D331D
:101BF000326C3478785F68616C5F7263632E630067
:101C000000100240705200080C0000200400002068
:101C1000FE48006820F48070FC490860FEF706FF6B
:101C2000054606E0FEF702FF401B022801D903200B
:101C3000E3E5F648006800F480600028F2D12078DF
:101C400000F00800082842D1606910B160690128DD
:101C500000D105E040F28D21AFF2940003F014FAB8
:101C60006069D0B1E9489430006840F00100E7496C
:101C7000C1F89400FEF7DAFE054606E0FEF7D6FE50
:101C8000401B022801D90320B7E5E04894300068E2
:101C900000F002000028F1D019E0DC489430006820
:101CA00020F00100D949C1F89400FEF7BFFE0546B7
:101CB00006E0FEF7BBFE401B022801D903209CE58D
:101CC000D2489430006800F002000028F1D120785A
:101CD00000F00400042877D14FF00009A06828B173
:101CE000A068012802D0A068052800D105E04FF4C3
:101CF0003871AFF22C1003F0C7F9C448806D00F0C2
:101D0000805078B900BFC148806D40F08050BF4915
:101D100088650846806D00F08050009000BF00BFCD
:101D20004FF00109BA48006800F48070B0B9B848B3
:101D3000006840F48070B6490860FEF777FE0546FB
:101D400006E0FEF773FE401B022801D9032054E58C
:101D5000AF48006800F480700028F2D000BFA0688F
:101D6000012808D1A9489030006840F00100A74937
:101D7000C1F8900021E0A06805280FD1A348903059
:101D8000006840F00400A149C1F890000846D0F86E
:101D9000900040F00100C1F890000EE09B489030A8
:101DA000006820F001009949C1F890000846D0F879
:101DB000900020F00400C1F8900000BFA068A8B116
:101DC000FEF734FE054609E02EE0FEF72FFE401B2D
:101DD00041F28831884201D903200EE58B489030CA
:101DE000006800F002000028EFD013E0FEF71EFEAE
:101DF000054608E0FEF71AFE401B41F28831884292
:101E000001D90320F9E481489030006800F0020015
:101E10000028EFD1B9F1010F05D17C48806D20F089
:101E200080507A49886500BF207800F02000202883
:101E300042D1606A10B1606A012800D105E040F229
:101E40004531AFF27C2003F01FF9606AD0B16F48D2
:101E50009830006840F001006C49C1F89800FEF726
:101E6000E5FD054606E0FEF7E1FD401B022801D92D
:101E70000320C2E465489830006800F002000028A2
:101E8000F1D019E061489830006820F001005F4906
:101E9000C1F89800FEF7CAFD054606E0FEF7C6FD4C
:101EA000401B022801D90320A7E458489830006855
:101EB00000F002000028F1D1A06A28B1A06A012830
:101EC00002D0A06A022800D105E040F26E31AFF2E4
:101ED000083003F0D9F8A06A00287DD0A06A022853
:101EE0007BD1E06A40B1E06A012805D0E06A0228AF
:101EF00002D0E06A032800D105E040F27631AFF26B
:101F0000383003F0C1F8206B012803D3206B082878
:101F100000D805E040F27731AFF2543003F0B4F866
:101F2000606B082803D3606B562800D805E04FF497
:101F30005E71AFF26C3003F0A7F8A06B022803D3F8
:101F4000A06B1F2800D805E040F27A31AFF288304C
:101F500003F09AF8E06B022808D0E06B042805D063
:101F6000E06B062802D0E06B082800D105E04FF4B2
:101F70005F71AFF2AC3003F087F8206C022808D014
:101F8000206C042805D0206C062802D0206C08287C
:101F900000D105E040F27D31AFF2D43003F074F8A7
:101FA0001A48C76807F00301E06A814228D107F0A8
:101FB0007001206B401EB1EB001F21D107F4FE41E0
:101FC000606BB1EB002F1BD107F078413820005D2A
:101FD000B1EBC06F14D101E0AAE096E007F4C001B4
:101FE000A08F0122C2EB5000B1EB405F08D107F097
:101FF000C0614020005DC2EB5000B1EB406F62D089
:102000000C2E5ED00148006804E000000010024081
:102010000070004000F0806008B1012052E44D489B
:10202000006820F080704B490860FEF7FFFC054611
:1020300006E0FEF7FBFC401B022801D9032041E427
:102040004448006800F000700028F2D1D4E90B1079
:10205000401E41EA0011606B41EA0021A08F01227D
:10206000C2EB500041EA40514020005DC2EB5000FD
:1020700041EA40613820005D41EAC0603549C968E5
:10208000354A114008433349C8600846006840F0AB
:10209000807008600846C06840F08070C860FEF735
:1020A000C5FC054606E0FEF7C1FC401B022801D92D
:1020B000032007E42748006800F000700028F2D0F1
:1020C00046E0012017E42348006800F0007078BB68
:1020D0002048006840F080701E4908600846C068CB
:1020E00040F08070C860FEF7A1FC054606E0FEF7F0
:1020F0009DFC401B022801D9032037E415480068E5
:1021000000F000700028F2D022E00C2E1ED0114802
:10211000006820F080700F490860FEF787FC0546D4
:1021200007E0FEF783FC401B022802D903201DE4D0
:102130000EE00848006800F000700028F1D1054862
:10214000C068064908400349C86001E001200DE469
:1021500000200BE4001002408C809D01FCFFEEFE8D
:102160007047704710B504464FF480201749086047
:1021700020688068C0F3003078B12068C068C0F380
:10218000002050B12068C06800F0800060F4C0708A
:102190002168C8602046FFF7E4FF20688068C0F32C
:1021A000403078B12068C068C0F3402050B120684A
:1021B000C06800F0800060F420702168C86020468C
:1021C000FFF7CEFF012084F8210010BD1404014068
:1021D00070B504460125002C7ED05B4920688842FA
:1021E00000D103E0FE2159A002F04EFF60684028B4
:1021F00001D0606800B903E0FF2154A002F044FF61
:10220000A0687F2800D804E04FF480714FA002F04E
:102210003BFFE068B0F5004F00D204E040F201114E
:102220004AA002F031FF206958B12069B0F5001FC3
:1022300007D02069B0F5800F03D02069B0F5C00F3A
:1022400000D104E04FF4817140A002F01DFF6069ED
:1022500010B16069022800D104E040F203113BA0F4
:1022600002F012FFA06918B1A069B0F5801F00D17B
:1022700004E04FF4827135A002F006FFE06910B16E
:10228000E069012800D104E040F205112FA002F01E
:10229000FBFE94F8210028B9002084F82000204695
:1022A00000F072F8022084F821002068C068C0F3B2
:1022B0000010E8BB00BFCA20216848625320216893
:1022C000486200BF204601F0B7FE0546DDB9206830
:1022D00080682C49084000E034E02168886021696A
:1022E00060680843A1690843216889680843216838
:1022F00088602168E068086120680169208941EAF6
:10230000004021680861204601F0B8FE05466DB91D
:102310002068C06C20F003002168C8646169E0692E
:1023200008432168C96C08432168C86400BF00E005
:1023300003E0FF202168486200E0002515B9012074
:1023400084F82100284670BD002800402E2E2F441E
:102350007269766572732F53544D33324C347878EA
:102360005F48414C5F4472697665722F5372632FE8
:1023700073746D33326C3478785F68616C5F72743B
:10238000632E6300BFFF8FFF10B598B004465C2139
:1023900001A8FDF7EFFF1049206888421AD14FF4D9
:1023A000003001900012179001A8FEF711FD08B14E
:1023B000FEF788F80948006840F400400749903962
:1023C000C1F89000002211462920FEF7D7FB2920F2
:1023D000FEF79AFB18B010BD002800409010024094
:1023E0002DE9F04705460C4616460EB1012E00D1E8
:1023F00004E040F29271F8A002F046FEA06AB0F547
:10240000807F03D0A06AB0F5007F00D104E040F2E5
:102410009371F1A002F038FE606900F07F3000B9DE
:1024200004E040F29471ECA002F02EFE206A18B194
:10243000206AB0F1804F00D104E040F29571E6A02F
:1024400002F022FE6068B0F5004F00D204E040F2D6
:102450009671E1A002F018FEE06938B1E069B0F1D0
:10246000807F04D3E069B0F1706F00D804E040F2DF
:102470009771D9A002F008FE00BF95F8200001284E
:1024800002D10220BDE8F087012085F8200000BFBE
:10249000022085F82100002E7ED12868806800F097
:1024A0004000002816D0207818B120780C2800D8D9
:1024B00004E040F2A271C8A002F0E6FDE07810B19D
:1024C000E078012800D110E040F2A371C2A002F030
:1024D000DBFD0AE00020E0702078172800D804E037
:1024E0004FF4F561BCA002F0CFFD60783B2800D826
:1024F00004E040F2AA71B8A002F0C6FDA0783B2823
:1025000000D804E040F2AB71B3A002F0BDFD206A38
:1025100068B994F8240020B194F824001F2800D84A
:1025200027E040F2AF71ACA002F0AEFD21E094F8DC
:102530002400012817D094F82400022813D094F81E
:10254000240003280FD094F8240004280BD094F81A
:102550002400052807D094F82400062803D094F816
:102560002400072800D104E040F2B3719AA002F0E1
:102570008BFD207801F052FD4FEA0049607801F0B0
:102580004DFD49EA0029A07801F048FD49EA00091B
:10259000E07849EA805900E00BE094F8240001F06B
:1025A0003DFD49EA0060216A0843616940EA01078C
:1025B00099E02868806800F04000D0B1207801F0F0
:1025C00023FD28B1207801F01FFD0C2800D804E07D
:1025D00040F2C27180A002F057FDE07810B1E078BF
:1025E000012800D112E040F2C3717BA002F04CFD43
:1025F0000CE00020E070207801F006FD172800D8DC
:1026000004E04FF4F96174A002F03EFD607801F03F
:10261000FBFC3B2800D804E040F2CB716EA002F036
:1026200033FDA07801F0F0FC3B2800D804E040F234
:10263000CC7169A002F028FD206A88B994F82400C2
:1026400001F0E2FC30B194F8240001F0DDFC1F2819
:1026500000D835E040F2D1715FA002F015FD2FE007
:1026600094F8240001F0D0FC012823D094F8240031
:1026700001F0CAFC02281DD094F8240001F0C4FC2B
:10268000032817D094F8240001F0BEFC042811D0D0
:1026900094F8240001F0B8FC05280BD094F824002D
:1026A00001F0B2FC062805D094F8240001F0ACFC3F
:1026B000072800D104E040F2D57147A002F0E4FC05
:1026C00020780004617840EA0120A1780843E1788D
:1026D00040EA815094F8241040EA0160216A0843DE
:1026E000616940EA0107E169606840EA010800BFEA
:1026F000CA202968486253202968486200BFA06A3E
:10270000B0F5807F3FD12868806820F48070296808
:1027100088602868C06800F0800060F4C070296894
:10272000C860FEF783F9814615E0FEF77FF9A0EB5C
:102730000900B0F57A7F0ED900BFFF2029684862F2
:1027400000BF032085F8210000BF002085F820008D
:1027500000BF032096E62868C06800F0010000284A
:10276000E3D02868C7612868C0F84480286880687A
:1027700040F48070296888602868806840F4805040
:10278000296888605CE02868806820F40070296807
:1027900088602868C06800F0800060F420702968B4
:1027A000C860FEF743F9814632E0FEF73FF9A0EB3F
:1027B0000900B0F57A7F2BD900BFFF202968486255
:1027C00000BF032085F8210000BF002085F820000D
:1027D00000BF032056E600002E2E2F447269766556
:1027E00072732F53544D33324C3478785F48414CD8
:1027F0005F4472697665722F5372632F73746D3301
:10280000326C3478785F68616C5F7274632E630039
:102810002868C068C0F340000028C6D02868076256
:102820002868C0F848802868806840F400702968EB
:1028300088602868806840F400502968886000BF7C
:102840000E48006840F480200C4908600B480830AE
:10285000006840F4802009490831086000BFFF206B
:102860002968486200BF012085F8210000BF0020D0
:1028700085F8200000BF00BF04E60000000401400E
:102880002DE9F04705460C4616460EB1012E00D143
:1028900004E040F24E6162A002F0F6FB00BF95F842
:1028A0002000012802D10220BDE8F087012085F830
:1028B000200000BF022085F821004EB9607800F0AA
:1028C0001000102804D1607800F0EF000A3060702A
:1028D0002078012811D0207802280ED020780328F3
:1028E0000BD02078042808D02078052805D020783F
:1028F000062802D02078072800D104E040F25A616F
:1029000047A002F0C1FB002E31D1E078632800D847
:1029100004E040F25E6142A002F0B6FB607818B1BC
:1029200060780C2800D804E040F25F613CA002F01F
:10293000ABFBA07818B1A0781F2800D804E04FF4B2
:10294000CC6137A002F0A0FBE07801F067FB4FEA12
:102950000049607801F062FB49EA0029A07801F0A3
:102960005DFB49EA0009207849EA403832E0E07826
:1029700001F04AFB632800D804E040F2696128A016
:1029800002F082FB607801F03FFB28B1607801F033
:102990003BFB0C2800D804E040F26A6120A002F062
:1029A00073FBA07801F030FB28B1A07801F02CFB7C
:1029B0001F2800D804E040F26B6119A002F064FB0C
:1029C000E0780004617840EA0120A178084321788A
:1029D00040EA413800BFCA2029684862532029686C
:1029E000486200BF284601F027FB074647B91A484E
:1029F00008EA000029684860284601F03FFB0746C6
:102A000000BFFF202968486200BF17B9012085F880
:102A1000210000BF002085F8200000BF384643E7B2
:102A20002E2E2F447269766572732F53544D3332B4
:102A30004C3478785F48414C5F4472697665722FF8
:102A40005372632F73746D33326C3478785F6861BE
:102A50006C5F7274632E63003FFFFF002DE9F04747
:102A600005460C4616460EB1012E00D104E040F298
:102A7000B45180A002F008FBE068B0F5003F05D03B
:102A8000E068B0F5803F01D0E06800B904E040F2B2
:102A9000B55178A002F0F8FA206918B12069B0F5B4
:102AA000802F00D104E040F2B65172A002F0ECFA9F
:102AB00000BF95F82000012802D10220BDE8F08770
:102AC000012085F8200000BF022085F8210000BF0A
:102AD000CA202968486253202968486200BF2846F6
:102AE00001F0AAFA0746002F76D1002E4CD12868B3
:102AF000806800F04000002816D0207818B12078B7
:102B00000C2800D804E04FF4B9615AA002F0BCFAD6
:102B1000E07810B1E078012800D110E040F2C9510E
:102B200054A002F0B1FA0AE00020E07020781728E3
:102B300000D804E040F2CE514EA002F0A5FA607831
:102B40003B2800D804E04FF4BA614AA002F09CFA96
:102B5000A0783B2800D804E040F2D15145A002F013
:102B600093FA207801F05AFA4FEA0049607801F0B0
:102B700055FA49EA0029A07801F050FA49EA00091B
:102B8000E07849EA80584DE02868806800F040000D
:102B9000D0B1207801F038FA28B1207801F034FA69
:102BA0000C2800D804E040F2DC5132A002F06CFAAC
:102BB000E07810B1E078012800D113E040F2DD5157
:102BC0002CA002F061FA0DE00020E070207801F006
:102BD0001BFA172801D805E03BE040F2E25125A09E
:102BE00002F052FA607801F00FFA3B2800D804E0B6
:102BF00040F2E4511FA002F047FAA07801F004FA75
:102C00003B2800D804E040F2E5511AA002F03CFA5B
:102C100020780004617840EA0120A1780843E17837
:102C200040EA8158214808EA0000296808602868BD
:102C3000806820F4802029688860D4E90301084373
:102C400029688968084329688860284601F016FACF
:102C5000074600BFFF202968486200BF17B901205E
:102C600085F8210000BF002085F8200000BF38460D
:102C700024E700002E2E2F447269766572732F535D
:102C8000544D33324C3478785F48414C5F4472691C
:102C90007665722F5372632F73746D33326C347890
:102CA000785F68616C5F7274632E63007F7F7F0062
:102CB00070B504460B482168C860FDF7B7FE0546AD
:102CC00007E0FDF7B3FE401BB0F57A7F01D9032082
:102CD00070BD2068C06800F020000028F1D00020FE
:102CE000F6E700005FFF030070B504460CB9012051
:102CF00070BDBD492068884207D0BC492068884221
:102D000003D0BB492068884200D104E040F247115B
:102D1000B8A002F0B9F9606818B16068B0F5827FB8
:102D200000D104E04FF4A471B2A002F0ADF9A068A4
:102D300038B1A068B0F5806F03D0A068B0F5004F3F
:102D400000D104E040F24911AAA002F09DF9E06828
:102D5000B0F5706F2FD0E068B0F5606F2BD0E068F1
:102D6000B0F5506F27D0E068B0F5406F23D0E06831
:102D7000B0F5306F1FD0E068B0F5206F1BD0E06871
:102D8000B0F5106F17D0E068B0F5006F13D0E068B1
:102D9000B0F5E06F0FD0E068B0F5C06F0BD0E06821
:102DA000B0F5A06F07D0E068B0F5806F03D0E068A1
:102DB000B0F5407F00D104E04FF4A5718DA002F082
:102DC00063F9A069B0F5007F05D0A06918B1A069CA
:102DD000B0F5802F00D104E040F24B1185A002F045
:102DE00053F9606B082801D0606B00B904E04FF420
:102DF000A67180A002F048F9E069A0B1E069082856
:102E000011D0E06910280ED0E06918280BD0E069D5
:102E1000202808D0E069282805D0E069302802D0B1
:102E2000E069382800D104E040F24D1171A002F0B1
:102E30002BF9206A10B1206A802800D104E04FF4F9
:102E4000A7716CA002F020F9606A10B1606A1028C6
:102E500000D104E040F24F1166A002F015F9606A5B
:102E600000283AD1206910B12069022800D104E07D
:102E70004FF4A9715FA002F007F9606910B16069B1
:102E8000012800D104E040F253115AA002F0FCF8EE
:102E90006068B0F5827F1DD1E069A0B1E0690828C3
:102EA00011D0E06910280ED0E06918280BD0E06935
:102EB000202808D0E069282805D0E069302802D011
:102EC000E069382800D128E040F2571149A002F00B
:102ED000DBF822E00021E1611FE0E069A0B1E069D8
:102EE000082811D0E06910280ED0E06918280BD00E
:102EF000E069202808D0E069282805D0E06930285A
:102F000002D0E069382800D104E040F2611139A014
:102F100002F0BAF80021216161610021A16294F8F8
:102F20005D0028B9002084F85C00204600F07EF89F
:102F3000022084F85D002068006820F040002168CD
:102F40000860E068B0F5E06F01D9002501E04FF4BA
:102F50008055E068B0F5706F05D0E068B0F5E06FBF
:102F600001D00021A162A08800F48270218901F4BF
:102F700004410843217C01F002010843217D01F056
:102F800001010843218B01F400710843217F01F006
:102F9000380108432021095D01F080010843218D9B
:102FA00001F400510843216808600421A06901EA86
:102FB000104094F8241001F01001084394F83410E4
:102FC00001F008010843A18901F47061084305F488
:102FD000805108432168486000202066012084F861
:102FE0005D00002084E60000003001400038004011
:102FF000003C00402E2E2F447269766572732F5369
:10300000544D33324C3478785F48414C5F44726998
:103010007665722F5372632F73746D33326C34780C
:10302000785F68616C5F7370692E630010B586B05D
:103030000446142101A8FDF79DF91849206888422B
:1030400029D100BF1648806D40F48040144988653E
:103050000846806D00F48040009000BF00BF00BFB4
:103060000846C06C40F00200C8640846C06C00F01E
:103070000200009000BF00BF4FF4604001900220AA
:10308000029001200390032004900520059001A9DF
:103090000448FDF789FA06B010BD00000038004072
:1030A00000100240000400482DE9FE4F0446894606
:1030B00092461D460C9E01200090A06800B904E0D5
:1030C0004FF49F61B4A001F0DFFFFDF7AFFC0746AE
:1030D00094F85D00019060680290A846AB460198A4
:1030E00001280BD00298B0F5827F04D1A06810B9F6
:1030F0000198042802D0022000F06AB9B9F1000F4B
:1031000003D0BAF1000F00D00DB90120F4E700BFE1
:1031100094F85C00012801D10220EDE7012084F839
:103120005C0000BF94F85D00042802D0052084F8FC
:103130005D0000202066C4F840A0A4F84650A4F822
:103140004450C4F83890E587A587E0642065E068BE
:10315000B0F5E06F02D8BBF1010F06D920684068D6
:1031600020F480502168486005E02068406840F401
:103170008050216848602068006800F040004028C6
:1031800005D02068006840F0400021680860E068D1
:10319000B0F5E06F55D9606810B1B8F1010F09D1F1
:1031A000A06B00882168C860A06B801CA063E08FC2
:1031B000401EE0873DE02068806800F002000228A1
:1031C00010D1E08F70B1009801280BD1A06B00885E
:1031D0002168C860A06B801CA063E08F401EE08760
:1031E000002000902068806800F0010080B1B4F8F1
:1031F000460068B12068C068216C0880206C801C83
:103200002064B4F84600401EA4F846000120009057
:10321000FDF70CFCC01BB0420BD3701C48B1012061
:1032200084F85D0000BF002084F85C0000BF03202C
:1032300062E7E08F0028BED1B4F846000028BAD17A
:103240008CE0606810B1B8F1010F17D1E08F012850
:103250000AD9A06B00882168C860A06B801CA0639D
:10326000E08F801EE08709E0A06B0078216808737A
:10327000A06B401CA063E08F401EE08767E02068E1
:10328000806800F0020002281ED1E08FE0B10098B3
:10329000012819D1E08F01280AD9A06B0088216884
:1032A000C860A06B801CA063E08F801EE08709E0EF
:1032B000A06B007821680873A06B401CA063E08FAE
:1032C000401EE087002000902068806800F0010028
:1032D00058B3B4F8460040B3B4F84600012816D9F4
:1032E0002068C068216C0880206C801C2064B4F8C1
:1032F0004600801EA4F84600B4F84600012812D803
:103300002068406840F48050216848600BE02068E5
:10331000007B216C0870206C401C2064B4F84600CF
:10332000401EA4F8460001200090FDF77FFBC01B63
:10333000B04201D3701C00B94EB9012084F85D0081
:1033400000BF002084F85C0000BF0320D4E6E08FBB
:10335000002894D1B4F84600002890D13A4631466E
:10336000204600F0CFFE40B12020206600BF0020A4
:1033700084F85C0000BF0120BEE6012084F85D00F7
:1033800000BF002084F85C0000BF206E08B101205F
:10339000B2E60020B0E600002E2E2F44726976655A
:1033A00072732F53544D33324C3478785F48414C0C
:1033B0005F4472697665722F5372632F73746D3335
:1033C000326C3478785F68616C5F7370692E63006B
:1033D0001EBCBDE8E08F70B504462546681EB0F1FE
:1033E000807F01D301200FE0681E4FF0E02148618B
:1033F0000F214FF0FF3001F033FE00204FF0E021AD
:10340000886107200861002070BD704770477047D1
:103410002DE9F04704462068C569206806682068E1
:10342000876840F60F0005EA0009B9F1000F0CD1DA
:1034300005F0200048B106F0200030B1A06E10B1B8
:103440002046A16E8847BDE8F087B9F1000F7DD016
:1034500007F0010018B9CB4830400028F7D005F03C
:10346000010058B106F4807040B101202168086263
:10347000D4F8840040F00100C4F8840005F0020094
:1034800058B107F0010040B1022021680862D4F869
:10349000840040F00400C4F8840005F0040058B132
:1034A00007F0010040B1042021680862D4F88400CC
:1034B00040F00200C4F8840005F0080070B106F086
:1034C000200010B907F0010040B10820216808620F
:1034D000D4F8840040F00800C4F8840005F40060CB
:1034E00060B106F0806048B14FF400602168086266
:1034F000D4F8840040F02000C4F88400D4F884009C
:1035000000284BD005F0200038B106F0200020B193
:10351000A06E10B12046A16E8847D4F884A0206820
:10352000806800F04000402802D00AF0280070B304
:10353000204601F01EF92068806800F04000402815
:1035400021D100BF00BF2168083100E027E051E829
:10355000001F21F040002168083141E80002002AE4
:10356000F1D100BF606F50B18748616F8863606FB1
:10357000FCF7D8FF90B1606F816B88470EE0204662
:10358000FFF745FF0AE02046FFF741FF06E0FFE7AF
:103590002046FFF73CFF0020C4F8840053E7206E6C
:1035A000012872D105F0100000286ED006F010003E
:1035B0000028FAD01020216808622068806800F096
:1035C0004000402876D1606F006840681FFA80F89C
:1035D000B8F1000F5AD0B4F85800404556DDA4F8B1
:1035E0005A80606F0068006800F02000F0BB00BFE8
:1035F00000BF216851E8001F21F48070226842E872
:1036000000010029F5D100BF00BF00BF21680831CB
:1036100051E8001F21F001002168083141E8000253
:10362000002AF3D100BF00BF00BF2168083151E874
:10363000001F21F040002168083141E80002002A03
:10364000F3D100BF2020C4F880000020206600BF16
:1036500000BF216851E8001F21F01000226842E8F5
:1036600000010029F5D100BF606F00E001E0FCF728
:103670002CFF02206066B4F85800B4F85A20801A73
:1036800081B22046FFF7C1FE12E055E0B4F85800C1
:1036900040450DD1606F0068006800F020002028D0
:1036A00006D102206066B4F858102046FFF7ADFE40
:1036B000C9E6FFE734F8580F6188401A1FFA80F80E
:1036C0006088583CB8B3B8F1000F34D000BF00BFD9
:1036D000216851E8001F21F49070226842E800013F
:1036E0000029F5D100BF00BF00BF2168083151E8B3
:1036F000001F21F001002168083141E80002002A82
:10370000F3D100BF2020C4F8800000202066A0660E
:1037100000BF00BF216851E8001F21F0100022689F
:1037200042E800010029F5D100BF02206066414651
:103730002046FFF76AFE86E605F4801050B107F4D4
:10374000800038B14FF48010216808622046FFF7EE
:103750005DFE78E605F0800040B106F0800028B1FB
:10376000E06E10B12046E16E88476CE605F040003F
:1037700030B106F0400018B1204601F02DF862E6A5
:1037800000BF60E6200100045B47000810B5044656
:103790000CB9012010BDA069B0B12F492068884242
:1037A0000BD02E492068884207D02D4920688842D6
:1037B00003D02C492068884200D11BE04FF4A97146
:1037C00029A001F061FC15E02349206888420BD054
:1037D00022492068884207D021492068884203D0C6
:1037E00020492068884200D104E040F257111EA011
:1037F00001F04AFCE06F28B9002084F878002046E8
:1038000000F050F82420E0672068006820F00100F4
:1038100021680860606A10B1204600F0F9FD20467A
:1038200000F0F2FF012800D1B4E72068406820F4DE
:103830009040216848602068806820F02A00216854
:1038400088602068006840F0010021680860204618
:1038500000F010FF9EE700000038014000440040E7
:1038600000480040008000402E2E2F44726976658B
:1038700072732F53544D33324C3478785F48414C37
:103880005F4472697665722F5372632F73746D3360
:10389000326C3478785F68616C5F756172742E6326
:1038A0000000000010B59EB00446142119A8FCF7D2
:1038B00061FD5C2102A8FCF75DFD2149206888427A
:1038C0003CD10120029000200A9002A8FDF780FA66
:1038D00008B1FCF7F7FD00BF1A48006E40F48040C5
:1038E000184908660846006E00F48040019000BF49
:1038F00000BF00BF0846C06C40F00100C864084625
:10390000C06C00F00100019000BF00BF4FF4C06028
:10391000199002201A9000201B9003201C90072071
:103920001D9019A94FF09040FCF73EFE0022114671
:103930002520FDF723F92520FDF7E6F81EB010BD80
:1039400000380140001002402DE9F84F04460E46B1
:1039500017469946E06F202851D106B117B90120CA
:1039600000F04FB80020503460632120E062FDF782
:103970005DF8824627806780503CA068B0F5805F84
:1039800004D1206910B90025B04602E035464FF059
:1039900000081FE05346002280212046CDF8009009
:1039A00001F04DF918B12020E0670320D8E745B9B0
:1039B000B8F80000C0F308002168088508F1020883
:1039C00003E02878216808856D1CB4F85200401E79
:1039D000A4F85200B4F852000028DBD1534600226C
:1039E00040212046CDF8009001F029F918B120209F
:1039F000E0670320B4E72020E0670020B0E7022062
:103A0000AEE718BCBDE8E08F704700BFFEE70000DE
:103A100000B587B0142102A8FCF7ACFC00BF4348F6
:103A2000C06C40F004004149C8640846C06C00F016
:103A30000400019000BF00BF00BF0846C06C40F00A
:103A40008000C8640846C06C00F08000019000BF90
:103A500000BF00BF0846C06C40F00100C8640846C3
:103A6000C06C00F00100019000BF00BF00BF08461D
:103A7000C06C40F00200C8640846C06C00F0020050
:103A8000019000BF00BF012207214FF09040FCF7DA
:103A900091FF00224FF480512548FCF78BFF4FF433
:103AA00000500290002003900120049002A92148B8
:103AB000FCF77AFD0720029001200390049000207B
:103AC000059002A94FF09040FCF76EFD49F6F81002
:103AD0000290032003900020049002A94FF0904030
:103AE000FCF762FD40F6FF70029003200390002077
:103AF000049002A90E48FCF757FD4FF48050029045
:103B00000120039004900020059002A90848FCF7CA
:103B10004BFD08200290032003900020049002A98E
:103B20000548FCF741FD07B000BD00000010024051
:103B30000004004800080048001C004800B591B08F
:103B400014210CA8FCF716FC00200B902C216846D1
:103B5000FCF710FC2A482B490860002048607F21B0
:103B600028488160FF21C1600021016141618161BC
:103B7000C161FEF72DFB08B1FCF7A4FC00208DF815
:103B800030008DF831008DF832000F901090012236
:103B90000CA91C48FEF762FF08B1FCF793FC01205A
:103BA0008DF82C008DF82D008DF82E0000208DF85A
:103BB0002F0001220BA91348FEF762FE08B1FCF7A3
:103BC00081FC00208DF800008DF8010010208DF898
:103BD0000200002001900390049005900790089047
:103BE00001208DF8240000020A9001226946054850
:103BF000FEF7F6FB08B1FCF765FC11B000BD000054
:103C0000002800401800002010B511481149086034
:103C10004FF48270486000210E4881604FF4E061EB
:103C2000C1600221016101214161490281610021DC
:103C3000C1610162416281620721C16200210163A9
:103C40004163FFF751F808B1FCF73CFC10BD0000E0
:103C5000003800403C00002010B50D480D490860B8
:103C60004FF4E130486000210A488160C160016181
:103C70000C21416100218161C1610162002005497F
:103C800048620846FFF782FD08B1FCF71BFC10BD37
:103C900000380140A000002000BFFEE700BFFEE7A3
:103CA000704700002DE9F04104460F4600252068CA
:103CB00040B12068012805D02068022802D0206881
:103CC000032800D104E040F6623190A001F0DCF955
:103CD0006068012803D36068082800D804E040F633
:103CE00063318AA001F0D0F9A068082803D3A06846
:103CF000562800D804E040F6643184A001F0C4F9ED
:103D0000A06900F48030B0F5803F0BD0A06900F4CA
:103D10008010B0F5801F05D0A06900F08070B0F170
:103D2000807F04D18849A069084000B904E040F6CA
:103D3000653176A001F0A8F98448C06800F003005E
:103D400090B18248C06800F003002168884209D120
:103D5000206838B17D48C068C0F30210401C61681B
:103D6000884233D0012531E02068012804D00228A0
:103D700009D003281AD10DE07448006800F0020051
:103D800000B9012514E07148006800F4806000B9B2
:103D900001250DE06D48006800F4003028B96B483B
:103DA000006800F4802000B9012501E0012500BF72
:103DB00000BF5DB9D4E90010401E41EA001063491C
:103DC000C96821F0730108436049C860002D7DD1A6
:103DD0005E48006820F080605C490860FCF726FEC1
:103DE000064606E0FCF722FE801B022801D90325C7
:103DF00005E05648006800F000600028F2D100BFDE
:103E0000002D7FD1C7B9E068022803D3E0681F28DE
:103E100000D804E040F6B8313CA001F035F9A068C4
:103E20000002217B40EAC16048490969484A1140C3
:103E300008434649086144E0012F21D12069022846
:103E400008D02069042805D02069062802D02069FE
:103E5000082800D104E040F6DC312CA001F014F970
:103E6000A0680002218A0122C2EB510140EA4150C0
:103E700036490969374A114008433449086120E04E
:103E80006069022808D06069042805D060690628A6
:103E900002D06069082800D104E040F6EE311BA092
:103EA00001F0F2F8A0680002217D0122C2EB51016D
:103EB00040EA416025490969274A114008432349DE
:103EC00008612248006840F0806000E01AE01F4965
:103ED0000860FCF7ABFD064606E0FCF7A7FD801B7B
:103EE000022801D9032505E01848006800F00060A9
:103EF0000028F2D000BF2DB914480069A169084319
:103F0000124908612846BDE8F08100002E2E2F449A
:103F10007269766572732F53544D33324C3478780E
:103F20005F48414C5F4472697665722F5372632F0C
:103F300073746D33326C3478785F68616C5F726370
:103F4000635F65782E630000FFFFEEFE0010024005
:103F5000FF80FF07FF809FFFFF80FFF9F8B5044651
:103F600000262348806D00F0805018B1FCF728FF30
:103F7000054616E000BF1E48806D40F080501C4989
:103F800088650846806D00F08050009000BF00BF3B
:103F9000FCF716FF05461648806D20F08050144946
:103FA0008865B5F5007F07D1802C10D9A02C01D9E8
:103FB00002260CE001260AE0802C01D9032606E047
:103FC000802C01D1022602E0702C00D10126094884
:103FD000006820F007003043064908600846006882
:103FE00000F00700B04201D00120F8BD0020FCE73E
:103FF000001002400020024010B50248FEF7B2F85F
:1040000010BD0000180000200146080900EB8000E8
:10401000420001F00F001044C0B270470246002376
:10402000114603E05B1CA1F10A00C1B20A29F9D2D2
:10403000180741EA1060704770B5044600262068F2
:10404000C06800F04000B8B9701E2168C860FCF775
:10405000EDFC054609E0FCF7E9FC401BB0F57A7F72
:1040600003D90326032084F821002068C06800F0EB
:10407000400008B9032EEED1304670BD70B504463D
:1040800000251748006820F0800015490860081FC7
:10409000006800F0200040B92046FEF709FEE0B1BC
:1040A000032084F82100032517E00D48001F006855
:1040B00020F020000A49091F08602046FEF7F8FD9D
:1040C00018B1032084F8210003250548001F00686B
:1040D00040F020000249091F0860284670BD00001A
:1040E0000C28004001B582B04FF47A70012301AA78
:1040F00002A900900248FEF7D7FF9DF804000EBD0C
:104100003C000020F8B504460E4615463346002212
:104110004FF4C0512046009500F026F828B1206EDB
:1041200040F0200020660320F8BD334600228021A5
:104130002046009500F098F828B1206E40F020004D
:1041400020660320F0E7334600224FF4C06120468A
:10415000009500F009F828B1206E40F0200020669C
:104160000320E1E70020DFE72DE9FC5F04460D4670
:1041700016461F46DDF8309000200090FCF756FCF4
:10418000A0EB0900A7EB0008FCF750FC8246206872
:1041900000F10C0B31480068C0EBC00000EB800060
:1041A000000D00FB08F0019050E0B5F5C06F05D19F
:1041B00026B99BF8000000909DF80000781C0028AC
:1041C00044D0FCF733FCA0EB0A00404502D2B8F122
:1041D000000F34D12068406820F0E000216848607A
:1041E0006068B0F5827F0DD1A068B0F5004F03D0B4
:1041F000A068B0F5806F05D12068006820F040000D
:1042000021680860A06AB0F5005F0DD100BF20688A
:10421000006820F40050216808602068006840F4BD
:1042200000502168086000BF012084F85D0000BFD5
:10423000002084F85C0000BF032000F011B8019852
:1042400008B94FF000080198401E0190206880686E
:104250002840B042A9D10020EFE700000C00002068
:104260003CBCBDE8C09F00002DE9F84F04460D4658
:1042700090461E46DDF82890FCF7D8FBA0EB09001D
:10428000371AFCF7D3FB82462C480068C0F3CB30CA
:104290007843009045E0701C002842D0FCF7C6FB34
:1042A000A0EB0A00B84200D2A7BB2068406820F00B
:1042B000E000216848606068B0F5827F0DD1A06899
:1042C000B0F5004F03D0A068B0F5806F05D120682D
:1042D000006820F0400021680860A06AB0F5005F27
:1042E0000DD100BF2068006820F4005021680860EC
:1042F0002068006840F400502168086000BF012079
:1043000084F85D0000BF002084F85C0000BF03203B
:1043100000F016B8FFE7009800B900270098401E8B
:104320000090206880682840A84201D1012000E068
:1043300000204045AFD10020EAE700000C0000203B
:1043400018BCBDE8E08F704710B5FCF775FB10BDD9
:1043500000B597B0442106A8FCF70CF8142101A879
:10436000FCF708F84FF40070FCF7BAFC08B1FCF752
:10437000A9F8092006904FF48030079001200B9097
:104380000220109003211191012112911421139107
:104390000721149102211591169106A8FDF728FA1C
:1043A00008B1FCF78FF80F20019003200290002045
:1043B000039004900590042101A8FDF707F808B1C7
:1043C000FCF780F817B000BD0E48006840F470009C
:1043D0000C4908600C48006840F001000A49086078
:1043E00000208860084600680849084006490860BF
:1043F0008814C8600846006820F480200860002007
:104400008861704788ED00E000100240FFFFF6EA87
:1044100010B50446606AFF2800D804E040F64D510C
:1044200082A000F031FE94F8240000F00800082873
:1044300013D1606B18B1606BB0F5004F00D104E090
:1044400040F6525179A000F01FFE2068406820F429
:104450000040616B08432168486094F8240000F034
:10446000010098B1A06A18B1A06AB0F5003F00D170
:1044700004E040F659516DA000F006FE2068406847
:1044800020F40030A16A08432168486094F82400B1
:1044900000F00200022813D1E06A18B1E06AB0F51A
:1044A000803F00D104E04FF4566160A000F0ECFDC5
:1044B0002068406820F48030E16A08432168486041
:1044C00094F8240000F00400042813D1206B18B1E4
:1044D000206BB0F5802F00D104E040F6675153A067
:1044E00000F0D2FD2068406820F48020216B084352
:1044F0002168486094F8240000F01000102813D1BF
:10450000A06B18B1A06BB0F5805F00D104E040F65D
:104510006E5146A000F0B8FD2068806820F48050FD
:10452000A16B08432168886094F8240000F0200003
:10453000202813D1E06B18B1E06BB0F5005F00D11B
:1045400004E040F6755139A000F09EFD20688068B7
:1045500020F40050E16B08432168886094F824003F
:1045600000F04000402845D13F492068884207D0EC
:104570003E492068884203D03D492068884200D1E6
:1045800004E040F67C5129A000F07EFD206C18B1BB
:10459000206CB0F5801F00D104E040F67D5123A0CF
:1045A00000F072FD2068406820F48010216C084300
:1045B00021684860206CB0F5801F1BD1606C58B139
:1045C000606CB0F5001F07D0606CB0F5800F03D0B1
:1045D000606CB0F5C00F00D104E040F6825113A02A
:1045E00000F052FD2068406820F4C000616C084370
:1045F0002168486094F8240000F08000802813D1DE
:10460000A06C18B1A06CB0F5002F00D104E040F60A
:104610008A5106A000F038FD2068406820F4002090
:10462000A16C08432168486010BD00002E2E2F4465
:104630007269766572732F53544D33324C347878E7
:104640005F48414C5F4472697665722F5372632FE5
:1046500073746D33326C3478785F68616C5F756148
:1046600072742E63000000000038014000440040D6
:104670000048004038B504460020C4F88400FCF728
:10468000D5F905462068006800F00800082820D108
:104690006FF07E402B4600224FF400110090204620
:1046A00000F0CDFAA8B100BF00BF216851E8001F9B
:1046B00021F08000226842E800010029F5D100BF06
:1046C0002020E06700BF002084F8780000BF0320AE
:1046D00038BD2068006800F00400042830D16FF075
:1046E0007E402B4600224FF480010090204600F0CF
:1046F000A6FA28B300BF00BF216851E8001F21F4CB
:104700009070226842E800010029F5D100BF00BF87
:1047100000BF2168083151E8001F21F00100216825
:10472000083141E80002002AF3D100BF2020C4F87C
:10473000800000BF002084F8780000BF0320C7E796
:104740002020E067C4F8800000202066606600BF7B
:1047500084F8780000BF00BFBAE770B50546AC6AC0
:104760000020A4F85A00A4F852002046FEF74FFE9D
:1047700070BD00BF00BF026852E8002F22F49071A4
:10478000036843E80012002AF5D100BF00BF00BF54
:104790000268083252E8002F22F001010268083254
:1047A00042E80013002BF3D100BF016E01290CD1A8
:1047B00000BF00BF026852E8002F22F0100103681A
:1047C00043E80012002AF5D100BF2021C0F8801074
:1047D000002101668166704710B5044600BF00BF26
:1047E000216851E8001F21F04000226842E80001E2
:1047F0000029F5D100BF2020E0670020E0662046B8
:10480000FFF702F910BD00002DE9F84F0446002023
:104810000090F2496068884200D204E040F65841B6
:10482000EFA000F031FCA068B0F1805F05D0A06877
:1048300018B1A068B0F5805F00D104E040F659419E
:10484000E7A000F021FCF549206888420CD1E0681F
:1048500018B1E068B0F5005F00D125E040F65C419A
:10486000DFA000F011FC1FE0E068B0F5805F09D028
:10487000E06838B1E068B0F5405F03D0E068B0F5BB
:10488000005F00D104E04FF44661D5A000F0FCFBCE
:10489000206A18B1206AB0F5006F00D104E040F63C
:1048A0006141CFA000F0F0FB206938B12069B0F57C
:1048B000806F03D02069B0F5C06F00D104E040F6EE
:1048C0006441C7A000F0E0FB606920F00C0010B963
:1048D000606900B104E040F66541C1A000F0D4FB7E
:1048E000A06958B1A069B0F5807F07D0A069B0F584
:1048F000007F03D0A069B0F5407F00D104E040F60E
:104900006641B7A000F0C0FBE06918B1E069B0F5FE
:10491000004F00D104E040F66741B1A000F0B4FBC5
:104920002169A068084361690843E16940EA010A16
:1049300020680068BA49084040EA0A002168086017
:104940002068406820F44050E168084321684860CE
:10495000D4F818A0B1492068884202D0206A40EA01
:104960000A0A2068806820F4306040EA0A00216862
:10497000886000BFAB492068884216D1AA48006809
:1049800000F0030030B1012808D0022804D0032829
:1049900008D105E0012507E0022505E0042503E034
:1049A000082501E0102500BF54E0A0492068884296
:1049B00016D19D48006800F00C0030B1042808D0E2
:1049C000082804D00C2808D105E0002507E00225BE
:1049D00005E0042503E0082501E0102500BF39E0CB
:1049E00093492068884216D18F48006800F0300053
:1049F00030B1102808D0202804D0302808D105E094
:104A0000002507E0022505E0042503E0082501E074
:104A1000102500BF1EE081492068884219D18248D4
:104A2000006800F4406048B1B0F5806F0AD0B0F57E
:104A3000006F05D0B0F5406F08D105E0002507E014
:104A4000022505E0042503E0082501E0102500BF4C
:104A500000E0102500BF71492068884245D135B17A
:104A6000022D08D0042D08D0082D0DD109E0FCF747
:104A700025FE06460CE06F4E0AE0FCF743FE0646B4
:104A800006E04FF4004603E000260120009000BF3E
:104A900000BF002E0AD0606800EB4000B04203D88F
:104AA00060680003B04202D20120009090E04FF411
:104AB0008070A6FB0030D4F804C04FEA5C015F1898
:104AC00040F10001624600233846FBF7CFFB8146E8
:104AD000B9F5407F06D3B9F5801F03D22068C0F82E
:104AE0000C9075E00120009072E0E069B0F5004F95
:104AF0003AD1092D17D2DFE805F005090D160F167A
:104B000016161300FCF7DAFD064610E0FCF7E8FD88
:104B100006460CE0474E0AE0FCF7F4FD064606E0C8
:104B20004FF4004603E000260120009000BF00BFC4
:104B30008EB37000616800EB5100B0FBF1F9B9F180
:104B4000100F0ED3B9F5803F0BD24FF6F07009EA83
:104B5000000BC9F342004BEA000B2068C0F80CB010
:104B600036E00120009033E0092D18D2DFE805F08F
:104B700005090D170F1717171400FCF79FFD0646C0
:104B800011E0FCF7ADFD06460DE02A4E0BE0FCF708
:104B9000B9FD064607E01BE04FF4004603E000269F
:104BA0000120009000BF00BF96B1606806EB500086
:104BB0006168B0FBF1F9B9F1100F07D3B9F5803F87
:104BC00004D21FFA89F02168C86001E0012000903A
:104BD0000020A066E066009800F02EB8819698004C
:104BE0002E2E2F447269766572732F53544D3332D3
:104BF0004C3478785F48414C5F4472697665722F17
:104C00005372632F73746D33326C3478785F6861DC
:104C10006C5F756172742E630000000000800040BC
:104C2000F369FFEF00380140881002400044004063
:104C3000004800400024F40018BCBDE8E08F2DE9D6
:104C4000F04104460D4617469846069E41E0701C0A
:104C500000283ED0FBF7EAFEA0EB0800B04200D8E7
:104C600016B90320BDE8F0812068006800F0040058
:104C700070B3802D2DD0402D2BD02068C069C0F39B
:104C8000C00078B10820216808622046FFF771FD56
:104C90000820C4F8840000BF002084F8780000BF1A
:104CA0000120DFE72068C069C0F3C02080B14FF465
:104CB0000060216808622046FFF75BFD2020C4F8F1
:104CC000840000BF002084F8780000BF0320C9E7FB
:104CD000FFE72068C0692840A84201D1012000E018
:104CE0000020B842B3D00020BCE7000010B5024855
:104CF000FEF78EFB10BD0000A000002000BFFEE705
:104D000010B50446240300F033F900F0C7F8002280
:104D10004FF480511048FBF74DFE2020FFF7E2F9D9
:104D20000E4800884EF61871884202D1200EFFF717
:104D3000D9F9C4F30740FFF7D5F9C4F30720FFF70B
:104D4000D1F9E0B2FFF7CEF9012211030248FBF7D7
:104D500031FE00F0A3F810BD00040048160000204A
:104D60002DE9F04106460C46174600224FF48051CB
:104D70001548FBF71FFE0320FFF7B4F9134800881E
:104D80004EF61871884202D1200EFFF7ABF9C4F33A
:104D90000740FFF7A7F9C4F30720FFF7A3F9E0B234
:104DA000FFF7A0F9002505E0FF20FFF79BF97055FC
:104DB000681C85B2BD42F7DB012211030248FBF7F4
:104DC000F9FDBDE8F0810000000400481600002055
:104DD00010B5002400224FF480510F48FBF7EAFD84
:104DE0009020FFF77FF90020FFF77CF90020FFF704
:104DF00079F90020FFF776F9FF20FFF773F944EA0D
:104E00000024FF20FFF76EF904430122110302483A
:104E1000FBF7D0FD204610BD0004004870B50446E5
:104E200000250026012C04D0022C04D0032C06D12E
:104E300003E0052605E0352603E0152601E00526FA
:104E400000BF00BF00224FF480510848FBF7B2FDBD
:104E50003046FFF747F9FF20FFF744F905460122E6
:104E600011030248FBF7A6FD284670BD0004004868
:104E700010B500224FF480510748FBF79BFDAB2093
:104E8000FFF730F9012211030348FBF793FD0320DC
:104E9000FBF776FB10BD00000004004810B500BF12
:104EA0000120FFF7BBFF00F001000028F8D110BD82
:104EB0002DE9F05F81460F461646DFF8A8B04FEAAD
:104EC0001738C7F30B0ACAF58054A64200DC3446F3
:104ED00044E04FEA08314FF480525846FFF740FF54
:104EE000002508E00AEB05001BF80000FF2800D0B1
:104EF00003E0681C85B2A542F4DB00BFA54216DAC8
:104F00004046FFF7FDFE002507E019F8050005EB18
:104F10000A010BF80100681C85B2A542F5DB4FEAD7
:104F200008314FF48052584600F034F804E022462D
:104F30003946484600F02EF8A64200D10FE008F1AD
:104F400001084FF0000AA1442744301B86B2B6F591
:104F5000805F02DD4FF4805400E03446B9E700BFC3
:104F600000F002B82801002030BCBDE8C09F00005E
:104F700010B500224FF480510548FBF71BFD0620B9
:104F8000FFF7B0F8012211030148FBF713FD10BD34
:104F9000000400482DE9F04107460E461446F0B2E1
:104FA000C0F58075AC4200DC254612E02A46314649
:104FB000384600F013F8AC4200D10BE02F442E44E9
:104FC000601B84B2B4F5807F02DD4FF4807500E091
:104FD0002546EBE700BFBDE8F08100002DE9F04178
:104FE00006460C461746FFF7C3FF00224FF48051D8
:104FF0001548FBF7DFFC0220FFF774F81348008820
:105000004EF61871884202D1200EFFF76BF8C4F3F8
:105010000740FFF767F8C4F30720FFF763F8E0B233
:10502000FFF760F8002504E0705DFFF75BF8681C8F
:1050300085B2BD42F8DB012211030348FBF7BAFC3D
:10504000FFF72CFFBDE8F0810004004816000020A7
:1050500002480068C0F30220704700000CED00E039
:1050600010B5002804DB0A07130E054A135406E0A6
:105070000A07140E034A00F00F031B1FD45410BD7F
:1050800000E400E018ED00E07047000000BF054AB2
:10509000126802F04002002AF9D0C2B2014B0C3370
:1050A0001A8070471C38014088B00027FBF7D0FCFD
:1050B000FFF74EF9FEF7ACFCFEF7CEFDFEF7A4FDC0
:1050C000FEF73CFD3D480068006840F040003B4969
:1050D00009680860FF20FFF705F8FFF7C9FE6420A4
:1050E000FBF74EFA08E04FF4FA70FBF749FA01219A
:1050F0004FF09040FBF728FCFFF76AFE4EF6177161
:105100008842F0D12EA0FBF729F94FF0807454E0CB
:10511000ADB1A6B94FF400512D48FBF7E1FB70B9D2
:10512000002501262BA0FBF719F9A4F164011B222D
:105130002E48FFF7BDFE2EA0FBF710F907E04FF455
:1051400000512348FBF7CCFB012800D10125FDB11C
:10515000012E1DD171031E48FBF7C2FBC0B900250B
:10516000002629A0FBF7FAF8A4F164011B2201A88C
:10517000FFF7F6FD2AA0FBF7F1F84FF47A731B2234
:1051800001A92E48FEF7E0FB2DA0FBF7E7F807E0AA
:105190004FF400510E48FBF7A3FB012800D1012575
:1051A000781C87B20A20FBF7EBF9642F05D10221A6
:1051B0004FF09040FBF7C8FB0027A9E73C00002018
:1051C000535049205265616479200D0A00000000A7
:1051D0000008004853746172742057726974652026
:1051E0005350492E2E2E2E0D0A0000005252000858
:1051F0005350492057726974652046696E69736817
:105200006564210D0A0000005374617274205265B8
:105210006164205350492E2E2E2E200D0A000000CE
:10522000546865204461746120526561646564203E
:1052300049733A2020200D0A00000000A000002041
:105240000D0A0D0A000000004FF04070E1EE100A58
:105250007047424F52494E472D54454348205354BE
:105260004D33322053504920544553540000000020
:105270000000000000000000010203040607080906
:105280000000000001020304A0860100400D03009D
:10529000801A060000350C0040420F0080841E007A
:1052A00000093D0000127A000024F40000366E016F
:1052B0000048E801006CDC02D85200080000002021
:1052C00018000000C8010008F05200081800002073
:1052D00070190000E4010008000000001000000048
:1052E0000100000000093D0000000000000015EF73
:040000050800018D61
:00000001FF
