:020000040800F2
:10000000F81300103D0200080F2A00088728000896
:100010000D2A000887070008613A00080000000068
:10002000000000000000000000000000E9320008AD
:100030008907000800000000112A0008EB320008C0
:10004000570200085702000857020008570200082C
:10005000570200085702000857020008570200081C
:10006000570200085702000857020008570200080C
:1000700057020008570200085702000857020008FC
:1000800057020008570200085702000857020008EC
:1000900057020008570200085702000857020008DC
:1000A00057020008570200085702000857020008CC
:1000B000570200080000000000000000570200087E
:1000C00057020008570200085702000857020008AC
:1000D00057020008553A0008570200085702000866
:1000E000570200085702000800000000000000004E
:1000F0000000000000000000000000000000000000
:10010000000000005702000800000000570200082D
:10011000000000000000000057020008570200081D
:10012000570200085702000857020008570200084B
:10013000570200080000000000000000000000005E
:10014000570200085702000857020008000000008C
:10015000570200085702000857020008570200081B
:10016000570200085702000857020008000000006C
:1001700057020008570200080000000000000000BD
:1001800057020008570200085702000800F002F862
:1001900000F044F80AA090E8000C82448344AAF1DD
:1001A0000107DA4501D100F039F8AFF2090EBAE8DB
:1001B0000F0013F0010F18BFFB1A43F0010318479B
:1001C000AC3B0000DC3B0000103A24BF78C878C18B
:1001D000FAD8520724BF30C830C144BF04680C604D
:1001E000704700000023002400250026103A28BF95
:1001F00078C1FBD8520728BF30C148BF0B60704799
:10020000642900F0E780782900F020810020704701
:100210001FB503F06EFD1FBD10B510BD00F07AFADA
:100220001146FFF7F5FF03F041FC00F098FA03B424
:10023000FFF7F2FF03BC00F09FFA00000948804777
:1002400009480047FEE7FEE7FEE7FEE7FEE7FEE7B8
:10025000FEE7FEE7FEE7FEE704480549054A064BD0
:10026000704700005D3300088D010008F80B001096
:10027000F8130010F80F0010F80F001053EA020CEA
:1002800000F069802DE9F04B4FF00006002B1FBFF6
:10029000B3FA83F503FA05F424FA05F65E4012BFBB
:1002A0001643B2FA82F502FA05F4C5F120051EBF25
:1002B00022FA05FC44EA0C04203556EA044C4FEAC5
:1002C000144418BF641C4FF000084FF0000990421E
:1002D00071EB030C39D3002919BFB1FA81F701FA88
:1002E00007F6B0FA80F700FA07F6C7F120071EBF3D
:1002F00020FA07FC46EA0C062037B6FBF4FCA7EB15
:100300000507103F07F01F0BCBF120060CFA0BFB83
:100310002CFA06F644BFB3460026202FA4BF5E4643
:100320004FF0000B5BEA060C08BF4FF0010B19EB16
:100330000B09ABFB027C48EB0608C01B06FB02CC9A
:100340000BFB03CC71EB0C01C1E70B4602464146A7
:100350004846BDE8F08B13B54FF000004FF00001A8
:10036000AFF30080BDE81C40704700000FB40449A3
:1003700010B503AA029800F09FF910BC5DF814FBB9
:100380002800001070B5044685690068C10601D5D3
:10039000302600E02026C00707D070BDD4E9012137
:1003A00030469047206A401C20626D1EF6D570BD15
:1003B00070B5044685690078C00707D170BDD4E9DF
:1003C000012120209047206A401C20626D1EF6D536
:1003D00070BD00002DE9F041064600241068752923
:1003E000314616A510D0AFF30080002802DA404253
:1003F00013A507E031688A0701D512A502E0490775
:1004000004D511A5012401E0AFF3008000210A22E8
:1004100006F1240709E0B0FBF2FCB0FBF2F302FBAB
:100420001C00303078541846491C0028F3D123466C
:100430002A463046BDE8F04100F0E5B80000000073
:100440002D0000002B0000002000000070B50446C5
:100450000D4621461068AFF300802188090502D5BA
:100460000F4A7A4402E00E4A7A440E32002104F127
:10047000240305E000F00F060009965D5E54491C58
:100480000028F7D120780023000704D5702D02D072
:1004900009B1022311322046BDE8704000F0B3B824
:1004A000DE3800002DE9F0474FF0000A8946044687
:1004B000C0F820A02046E1688847002876D025288B
:1004C00006D0D4E901219047206A401C2062F1E760
:1004D000E168204600258847C4F81CA0064600278E
:1004E000C4F818A02A2E09D0304603F0CAFA38B34F
:1004F00004EB8708303EC8F8186019E059F8041B6F
:10050000204604EB87029161E1688847012F064687
:1005100018D1E069002820DA25F020051DE0D8F880
:10052000180000EB800006EB40003038C8F81800D7
:100530002046E1688847064603F0A3FA0028EED17A
:10054000012F0AD02E2E08D12046E16888477F1C53
:100550000646022F45F02005C4DBA069002803DA17
:10056000404245F00105A061E80701D025F01005E3
:10057000B6B1A6F14100192802D8203645F400652D
:100580004A463146204625604D46FFF739FE58B1B0
:10059000012806D0ED1D25F0070000F1080989E7C4
:1005A00004E005F1040985E730468AE7206ABDE8E2
:1005B000F0874FF0000200B5134694469646203966
:1005C00022BFA0E80C50A0E80C50B1F12001BFF40C
:1005D000F7AF090728BFA0E80C5048BF0CC05DF872
:1005E00004EB890028BF40F8042B08BF704748BFC0
:1005F00020F8022B11F0804F18BF00F8012B704734
:100600007047704770472DE9F0470D46994692466E
:10061000044600F124080168880604D5E06921F049
:100620001001216000E00120A84201DD471B00E02D
:100630000027A1697A1902EB0900081AA061207845
:10064000C00602D42046FFF79DFE002608E0D4E94C
:1006500001211AF806009047206A401C761C20628F
:100660004E45F4DB2078C0060AD52046FFF78AFE07
:1006700006E0D4E9012130209047206A401C206226
:10068000381EA7F10107F4DC07E0D4E9012118F8CE
:1006900005009047206A401C2062281EA5F1010534
:1006A000F3DC2046FFF784FE2078000602D5022006
:1006B000BDE8F0870120FBE7074B70B50D467B4492
:1006C00000F011F80446284600F020F810B14FF071
:1006D000FF3070BD204670BDD333000001694A1C55
:1006E00002610878704700B58FB0CDE90131002173
:1006F000059105497944CDE9031011466846FFF795
:10070000D1FE0FB000BD0000E5FFFFFF007B00F051
:1007100080007047754600F02BF8AE46050069462C
:10072000534620F00700854618B020B5FFF794FD2A
:10073000BDE820404FF000064FF000074FF00008E2
:100740004FF0000B21F00701AC46ACE8C009ACE863
:10075000C009ACE8C009ACE8C0098D46704710B5C7
:100760000446AFF300802046BDE81040FFF75FBDB0
:1007700000487047980B001001491820ABBEFEE7F7
:10078000260002007047FEE7704772B6FEE710B51C
:1007900090F825100022022905D00421C16380F8B9
:1007A0002420012010BD01680B6823F00E030B60AC
:1007B00001680B6823F001030B6090F84410046C8F
:1007C00001F01C03012101FA03F3636080F8251096
:1007D00080F82420104610BD10B590F82510002494
:1007E000022903D00421C16301241AE001680A68C8
:1007F00022F00E020A6001680A6822F001020A6013
:1008000090F84410036C01F01C02012101FA02F27D
:100810005A6080F82510002180F82410816B01B106
:100820008847204610BD000070B5044600F0F8F976
:100830000546601C02D004480078044400F0F0F93A
:10084000401BA042FAD370BD180000102DE9F84FEC
:1008500000274FF0904ADFF84482DFF844B20D469B
:100860000446504510D044450ED05C450CD08D4810
:10087000844209D08C48844206D08C48844203D0FC
:10088000AA218BA003F004F928680104090C01D007
:10089000000C03D0AB2186A003F0FAF868684FF093
:1008A0000309002821D00128FCD01128FAD0022801
:1008B000F8D01228F6D0B0F5881FF3D0B0F5041F99
:1008C000F0D0B0F5441FEDD0B0F5901FEAD0B0F5F0
:1008D000081FE7D0B0F5481FE4D00328E2D00B286A
:1008E000E0D0AC2172A003F0D3F8CFE00121B940F1
:1008F0000840009106007DD0287900F0030001280F
:1009000001D002281DD1E86848B1012807D002288B
:1009100005D0032803D0BB2165A003F0B9F8A06877
:100920007A0009FA02F18843E96891400143A16025
:100930006068009988432979C1F30011B9400143E7
:1009400061602879C043800712D0A86838B10128B7
:1009500005D0022803D0DC2155A003F099F8E06807
:100960007A0009FA02F18843A96891400143E160E5
:10097000287900F00300022826D1544510D04445C0
:100980000ED05C450CD04748844209D0464884428A
:1009900006D04648844203D0E82145A003F078F809
:1009A00028690F2803D9E92141A003F071F8F8085C
:1009B00004EB8003186A7907CA0E0F21914088431F
:1009C000296991400143196221687A0009FA02F00D
:1009D0008143287900F00300904008432060686854
:1009E00010F4403F51D04148016E41F001010166D1
:1009F000006E00E049E000F0010000903C4827F064
:100A000003010A189168B807030F0F20984081432B
:100A1000544501D1002012E0444501D101200EE0EF
:100A20005C4501D102200AE01E48844201D1032026
:100A300005E01D48844201D1042000E007209840D1
:100A4000084390602B4908686A68B043D20200D519
:100A5000304308602749091D08686A68B04392025C
:100A600000D5304308602349091F08686A68B0430D
:100A7000920300D5304308601E49083908686A6847
:100A8000B043D20300D5304308607F1C2E68304647
:100A9000FE407FF42BAF00F02FB8000000040048A8
:100AA00000080048000C004800100048001C0048E6
:100AB0002E2E2F447269766572732F53544D333244
:100AC0004C3478785F48414C5F4472697665722F88
:100AD0005372632F73746D33326C3478785F68614E
:100AE0006C5F6770696F2E630000000000100240A9
:100AF000000001400804014018BCBDE8E08F000080
:100B000070B50C00054604D14FF4C77103A002F084
:100B1000BFFF2869204000D0012070BD2E2E2F4439
:100B20007269766572732F53544D33324C34787832
:100B30005F48414C5F4472697665722F5372632F30
:100B400073746D33326C3478785F68616C5F677092
:100B5000696F2E630000000070B50C00054604D1DB
:100B60004FF4E37105A002F093FF696924EA0100E4
:100B7000214040EA0140A86170BD00002E2E2F44A4
:100B80007269766572732F53544D33324C347878D2
:100B90005F48414C5F4472697665722F5372632FD0
:100BA00073746D33326C3478785F68616C5F677032
:100BB000696F2E630000000070B515460C000646F4
:100BC00004D14FF4D77107A002F062FF45B1012DA7
:100BD00004D040F2AF1103A002F05AFFB46170BD1F
:100BE000B46270BD2E2E2F447269766572732F53D6
:100BF000544D33324C3478785F48414C5F447269CD
:100C00007665722F5372632F73746D33326C347840
:100C1000785F68616C5F6770696F2E630000000029
:100C20000148806870470000180000100248816881
:100C300002781144816070471800001010B500243C
:100C4000032000F0C5F80F2000F008F808B10124D7
:100C500001E000F025F8204610BD000070B50E4EF2
:100C600005460024307898B14FF47A71B1FBF0F06A
:100C70000A490968B1FBF0F001F0C9FB40B9102D39
:100C800006D200222946501E00F052F8756000E09E
:100C90000124204670BD0000180000102400001040
:100CA000094808B5016E41F001010166016E01F0CD
:100CB00001010091816D41F080518165806D00F0EE
:100CC0008050009008BD00000010024010B50400E4
:100CD00003D5D22107A002F0DBFE002C09DB04F0D3
:100CE0001F01012088406109890001F1E021C1F85C
:100CF000000110BD2E2E2F447269766572732F533A
:100D0000544D33324C3478785F48414C5F447269BB
:100D10007665722F5372632F73746D33326C34782F
:100D2000785F68616C5F636F727465782E63000032
:100D300070B515460C460646102A03D3BE2114A0F2
:100D400002F0A6FE102C03D3BF2111A002F0A0FEDA
:100D50001E480068C0F30223C3F107022046042A9C
:100D600000D90422191D072901D2002300E0DB1E4F
:100D7000012404FA02F1491E014099409C40641E7E
:100D80002C4021433046BDE8704002F06ABE0000AE
:100D90002E2E2F447269766572732F53544D333261
:100DA0004C3478785F48414C5F4472697665722FA5
:100DB0005372632F73746D33326C3478785F68616B
:100DC0006C5F636F727465782E6300000CED00E059
:100DD00010B5044607280BD0062C09D0052C07D0E7
:100DE000042C05D0032C03D0A62108A002F050FE4D
:100DF000154904F0070208684FF6FF03184040EA5F
:100E00000220124A1043086010BD00002E2E2F440D
:100E10007269766572732F53544D33324C3478783F
:100E20005F48414C5F4472697665722F5372632F3D
:100E300073746D33326C3478785F68616C5F636FA4
:100E4000727465782E6300000CED00E00000FA0576
:100E500010B51B4CB0F5007F13D0B0F5806F03D0F8
:100E6000A72118A002F014FE2068C0F34120022838
:100E700005D0206820F4C06040F48060206000202D
:100E800010BD2068C0F341200128F8D0206820F46C
:100E9000C06040F400702060194832210068484367
:100EA0001849B0FBF1F0401C00E0401E61694905A3
:100EB00001D50028F9D160694005E0D5032010BDB7
:100EC000007000402E2E2F447269766572732F5386
:100ED000544D33324C3478785F48414C5F447269EA
:100EE0007665722F5372632F73746D33326C34785E
:100EF000785F68616C5F7077725F65782E63000061
:100F00002400001040420F000248006800F4C06056
:100F100070470000007000402DE9F84F044600279C
:100F20000068F3493E46084202D0C943084203D054
:100F3000C921F0A002F0ACFD2088FD4D000521D5AF
:100F4000606C4FF400084FF4400938B1404505D0BB
:100F5000484503D0D121E7A002F09AFD606C50B162
:100F6000404503D048453BD001270AE0E86840F4FB
:100F70008030E86034E00021201D01F04BFD0700C7
:100F80002ED03E46206880034BD5A06D4FF0000860
:100F900068B1B0F5807F0AD0B0F5007F07D0B0F51A
:100FA000407F04D04FF4A271D2A002F071FDA86D71
:100FB000C00009D4A86D40F08050A865A86D4FF01E
:100FC000010800F080500090DFF868A3DAF8001004
:100FD00041F48071CAF80010FFF722FE814611E04B
:100FE000D5F88800616C20F440000843C5F88800FB
:100FF000C8E700BFFFF714FEA0EB0900022801D9E3
:10100000032705E0DAF80000C005F3D5002F7DD0F6
:101010004FEA0706B8F1000F03D0A86D20F080500A
:10102000A8652078C00714D0206A50B1012808D0E4
:10103000032806D0022804D040F29911ADA002F096
:1010400027FDD5F88800216A20F003000843C5F881
:1010500088002078800714D5606A50B1042808D031
:101060000C2806D0082804D040F2A311A1A002F059
:101070000FFDD5F88800616A20F00C000843C5F820
:1010800088002078400714D5A06A50B1102808D0F5
:10109000302806D0202804D040F2AF1195A002F0ED
:1010A000F7FCD5F88800A16A20F030000843C5F8A5
:1010B00088002078800617D5E06A68B1B0F5806FA7
:1010C0000AD0B0F5406F07D0B0F5006F04D040F201
:1010D000D71188A002F0DCFCD5F88800E16A20F482
:1010E00040600843C5F888002088800519D5E06B6A
:1010F00078B1B0F5802F0CD0B0F5002F09D0B0F545
:10110000402F06D04FF4F0717AA000E092E002F098
:10111000BFFCD5F88800E16B20F440200843C5F8F7
:1011200088002088400517D5206C68B1B0F5801F75
:101130000AD0B0F5001F07D0B0F5401F04D040F230
:10114000E7116CA002F0A4FCD5F88800216C20F413
:1011500040100843C5F888002078400614D5206B5D
:1011600050B1B0F5805F07D0B0F5005F04D040F219
:10117000EF1160A002F08CFCD5F88800216B20F400
:1011800040500843C5F888002078000614D5606BED
:1011900050B1B0F5804F07D0B0F5004F04D040F209
:1011A000FB1154A002F074FCD5F88800616B20F4A8
:1011B00040400843C5F888002088C00514D5A06BBE
:1011C00050B1B0F5803F07D0B0F5003F04D040F2F9
:1011D000072148A002F05CFCD5F88800A16B20F440
:1011E00040300843C5F8880020684FF0406900038C
:1011F0004FF080674FF000685AD5A06C50B1B842EC
:1012000008D0404506D0484504D040F2412139A0DD
:1012100002F03EFCD5F88800A16C20F04060084345
:10122000C5F88800A06C40453AD1E86840F48010C9
:10123000E8603DE0D5F8900010F4407014D0A16D46
:10124000814211D0D5F89000D5F8901020F440706C
:1012500041F48031C5F89010D5F8901021F4803118
:10126000C5F89010C5F89000C00710D0FFF7D8FC63
:10127000074641F2883906E0FFF7D2FCC11B494519
:1012800001D90326C6E6D5F890008007F4D5D5F835
:101290009000A16D20F440700843C5F89000B9E6B5
:1012A000B84205D10121201D01F0B4FB00B1064672
:1012B0002068400348D5E06C50B1B84208D04045A2
:1012C00006D0484504D040F266210AA002F0E0FBB7
:1012D000D5F88800E16C20F040600843C5F888002C
:1012E000E06C404528D1E86840F48010E8602BE0CD
:1012F000E7CF0E002E2E2F447269766572732F533E
:10130000544D33324C3478785F48414C5F447269B5
:101310007665722F5372632F73746D33326C347829
:10132000785F68616C5F7263635F65782E6300004D
:101330000010024000700040B84205D10121201D7C
:1013400001F068FB00B10646208840041FD5206DDF
:101350004FF0805750B1B84208D0B0F1405F05D08F
:1013600040F28621AFF2740002F092FBD5F88800BB
:10137000216D20F040500843C5F88800206DB84228
:1013800005D10221201D01F045FB00B10646208851
:10139000000411D5606D40B1B0F1804F05D040F22E
:1013A000B621AFF2B00002F073FB55F8880F616D03
:1013B00020F0804008432860304600F000B818BC98
:1013C000BDE8E08F2DE9F0470E46050072D0286891
:1013D000401E0E2804D940F2594178A002F058FB73
:1013E00066B1012E0AD0022E08D0032E06D0042E9C
:1013F00004D040F25A4171A002F04AFB7D4F386898
:1014000000F00700B04209D2386820F007003043EE
:101410003860386800F00700B0424BD12878764C2D
:10142000800721D5A868A0B1802812D0902810D0BC
:10143000A0280ED0B0280CD0C0280AD0D02808D0C0
:10144000E02806D0F02804D040F272415BA002F000
:101450001FFBA868A16801F0F001884204D9A168C7
:1014600021F0F0010143A1602878C0073CD06868F2
:1014700038B301280ED0022820D003281BD040F218
:101480007D414EA002F004FB6868032813D00228B7
:1014900014D0B0B120684005002842DAA06869681D
:1014A00020F003000843A060FFF7BAFB804641F23A
:1014B000883912E035E020688001EDE7206880037C
:1014C000EAE720688007E7E7FFF7AAFBA0EB08013F
:1014D000494502D90320BDE8F087A068696800F09B
:1014E0000C00B0EB810FEFD1287880070AD5A868EF
:1014F000A16801F0F001884204D2A16821F0F00156
:101500000143A160386800F00700B0420BD9386889
:1015100020F0070030433860386800F00700B04220
:1015200001D00120D7E728784FF4806640074FF4B8
:10153000A0674FF4C0684FF4E06914D5E86860B163
:10154000B0420AD0B84208D0404506D0484504D041
:1015500040F2F54119A002F09BFAA068E96820F476
:10156000E0600843A0602878000715D5286960B1BD
:10157000B0420AD0B84208D0404506D0484504D011
:1015800040F2FC410DA002F083FAA068296920F422
:10159000605040EAC100A06000F05AF8A168174A04
:1015A000C1F30311515C01F01F01C84014490860E8
:1015B00014480068BDE8F047FFF750BB2E2E2F44BB
:1015C0007269766572732F53544D33324C34787888
:1015D0005F48414C5F4472697665722F5372632F86
:1015E00073746D33326C3478785F68616C5F7263EA
:1015F000632E63000020024000100240FC3C000803
:10160000240000101C000010054806490068896885
:10161000054AC1F30221515C01F01F01C840704727
:1016200024000010001002403C3D00080548064917
:1016300000688968054AC1F3C221515C01F01F01AD
:10164000C840704724000010001002403C3D0008D4
:1016500070B52549002318468A68CC6812F00C0240
:1016600004F00306214C4FEA640509D00C2A05D08A
:10167000042A32D0082A00D1284670BD012E10D18C
:101680000B681B0704D4D1F89430C3F3032302E0A2
:101690000B68C3F30313164E56F82330DAB10C2A45
:1016A000EBD1C86800F00300022818D0032818D036
:1016B0001846CA68CB68C2F30212C3F30623434339
:1016C000521CB3FBF2F2C868C0F34160401C4000FA
:1016D000B2FBF0F070BD184670BD204670BD2046CC
:1016E000E7E72846E5E70000001002400024F40088
:1016F0000C3D00082DE9F84304007CD0206830B18F
:10170000800904D04FF4D171F1A002F0C1F9FE4D6F
:10171000A86800F00C06E86800F003072078C0060F
:101720006AD5A06930B1012804D040F2AB11E8A01D
:1017300002F0AEF9E069FF2804D94FF4D671E4A0B5
:1017400002F0A6F9206AD0B1102818D0202816D0AF
:10175000302814D0402812D0502810D060280ED045
:1017600070280CD080280AD0902808D0A02806D055
:10177000B02804D040F2AD11D5A002F089F976B1BD
:101780000C2E01D1012F0AD0A069002828687BD037
:1017900040F001002860FFF743FA80465EE02868C9
:1017A000800702D5A0690028A7D0216A2868000711
:1017B00003D5286800F0F00004E0D5F89400F0228A
:1017C00002EA1010814218D9084601F02BFA0028CD
:1017D00011D1286840F0080028602868216A20F0AC
:1017E000F000084328606868E16920F47F4040EA1F
:1017F0000120686018E0F0E057E0286840F0080039
:1018000028602868216A20F0F00008432860686892
:10181000E16920F47F4040EA0120686026B9206A2F
:1018200001F000FA0028D3D1FFF712FFA968B74AE8
:10183000C1F30311515C01F01F01C840B4490860B5
:10184000B4480068FFF70AFA002873D12DE000BF02
:10185000FFF7E6F9A0EB080002286CD8286880079B
:10186000F6D5286840F0080028602868216A20F032
:10187000F000084328606868E16920F47F4040EA8E
:101880000120686011E0FFE720F001002860FFF709
:10189000C7F9804606E000BFFFF7C2F9A0EB0800D9
:1018A0000228DAD828688007F6D42078C00750D0FC
:1018B00060684FF480384FF4A02940B1404506D00D
:1018C000484504D040F2192181A002F0E1F8082E29
:1018D0000AD00C2E01D1032F06D0606840450AD1F2
:1018E000286840F4803013E02868800331D56068B0
:1018F000002872D02DE04845286803D140F48020AC
:101900002860EDE720F480302860286820F48020EB
:101910002860606880B1FFF783F9804606E000BF69
:10192000FFF77EF9A0EB0800642896D828688003AA
:10193000F6D50EE062E260E2FFF772F9804605E05C
:10194000FFF76EF9A0EB0800642886D828688003AA
:10195000F6D42078800749D5E06838B1B0F5807FAB
:1019600004D04FF413715AA002F092F820691F2896
:1019700004D940F24D2156A002F08AF8042E0ED070
:101980000C2E01D1022F0AD0E068002828681DD053
:1019900040F480702860FFF743F907460BE02868A1
:1019A00040050BD5E0680028A3D007E0FFF738F921
:1019B000C01B0228B9D828684005F7D56868217C83
:1019C00020F0F85040EA016068600FE020F4807079
:1019D0002860FFF725F9074605E092E1FFF720F9B7
:1019E000C01B0228A1D828684005F7D4207800073A
:1019F00031D56069E0B1012806D040F28D2134A0D4
:101A000002F046F8606998B1D5F8940040F0010002
:101A1000C5F89400FFF704F9074604E0FFF700F962
:101A2000C01B022891D8D5F894008007F6D512E0A3
:101A3000D5F8940020F00100C5F89400FFF7F0F805
:101A4000074604E0FFF7ECF8C01B0228B2D8D5F82F
:101A500094008007F6D4207840076FD5A06800274F
:101A600040B1012806D0052804D04FF4387118A0E1
:101A700002F00EF8A86DC00008D4A86D40F08050A8
:101A8000A865A86D012700F08050009022480168E9
:101A9000C90513D40168814641F480710160FFF7E4
:101AA000BFF8804606E000BFFFF7BAF8A0EB0800D9
:101AB000022897D8D9F80000C005F5D5A0680128FC
:101AC0003DD00528D5F890003ED020F0010025E05B
:101AD0002E2E2F447269766572732F53544D333214
:101AE0004C3478785F48414C5F4472697665722F58
:101AF0005372632F73746D33326C3478785F68611E
:101B00006C5F7263632E630000100240FC3C0008AF
:101B1000240000101C00001000700040C5F8900068
:101B2000D5F8900020F00400C5F89000A06841F2BC
:101B30008839D0B1FFF774F8804611E029E0D5F874
:101B4000900040F00100EFE740F00400C5F890007D
:101B5000F5E700BFFFF764F8A0EB08014945A8D8F6
:101B6000D5F890008007F5D50EE0FFF759F88046CC
:101B700006E000BFFFF754F8A0EB0801494598D8EC
:101B8000D5F890008007F5D41FB1A86D20F08050E3
:101B9000A8652078800632D5606AE8B1012807D0B0
:101BA00040F24531AFF2D80001F072FF606A98B19F
:101BB000D5F8980040F00100C5F89800FFF730F81C
:101BC000074604E0FFF72CF8C01B0228C7D8D5F859
:101BD00098008007F6D512E0D5F8980020F00100B3
:101BE000C5F89800FFF71CF8074604E0FFF718F85F
:101BF000C01B0228B3D8D5F898008007F6D4A06A95
:101C000000287DD001280CD0022814D040F26E317B
:101C1000AFF2441001F03CFFA06A0028F1D0022886
:101C200009D00C2E6DD0286820F080702860FEF757
:101C3000F7FF0446E4E0E06A58B1012809D0022821
:101C400007D0032805D040F27631AFF27C1001F0C6
:101C50001FFF206B401E072805D940F27731AFF2F5
:101C6000901001F015FF606B08384E2805D94FF42D
:101C70005E71AFF2A41001F00BFFA06B801E1D2857
:101C800005D940F27A31AFF2B81001F001FFE06BF4
:101C900002280BD0042809D0062807D0082805D030
:101CA0004FF45F71AFF2D81001F0F2FE206C022801
:101CB0000BD0042809D0062807D0082805D040F208
:101CC0007D31AFF2F41001F0E3FEE868E26A00F063
:101CD0000301914229D1216B00F0700209011039F2
:101CE000914222D1626B00F4FE41B1EB022F1CD174
:101CF00094F8382000F07841B1EBC26F15D101E0C3
:101D000074E086E0A18F00F4C00249084905A1F5FE
:101D10000011914209D194F8401000F0C0604908C8
:101D20004906A1F10071814249D00C2E72D0286879
:101D300040016FD4286820F080702860FEF770FFA3
:101D4000064604E0FEF76CFF801B022855D8286881
:101D50008001F7D4F4E90B016FF00F0202EB0111DF
:101D60000843218A5204490802EB4151A26841EA22
:101D700002210843217D4FF07E42490802EB416178
:101D80000843217B40EAC160E968234A11400843C7
:101D9000E860286840F080702860E86840F0807053
:101DA000E860FEF73DFF044605E000BFFEF738FFA0
:101DB000001B022821D828688001F7D527E0286871
:101DC000800124D4286840F080702860E86840F0E2
:101DD0008070E860FEF724FF044604E0FEF720FF71
:101DE000001B022809D828688001F7D50FE000BF42
:101DF000FEF716FF001B022802D90320BDE8F88376
:101E000028688001F4D4E86804490840E8600020AC
:101E1000F4E7FFE70120F1E78C809D01FCFFEEFE77
:101E20002DE9F04104007CD09E49206888420AD008
:101E30009D49884207D09D49884204D040F247110D
:101E40009BA001F025FE60684FF4827630B1B0426D
:101E500004D04FF4A47196A001F01AFEA0684FF4CC
:101E6000806748B1B84207D0B0F5004F04D040F2C7
:101E700049118FA001F00CFEE0684FF470684FF438
:101E8000E065404526D0B0F5606F23D0B0F5506FC7
:101E900020D0B0F5406F1DD0B0F5306F1AD0B0F53E
:101EA000206F17D0B0F5106F14D0B0F5006F11D0BF
:101EB000A8420FD0B0F5C06F0CD0B0F5A06F09D01C
:101EC000B84207D0B0F5407F04D04FF4A57178A098
:101ED00001F0DEFDA069B0F5007F08D038B1B0F5A3
:101EE000802F04D040F24B1171A001F0D1FD606B46
:101EF000082805D020B14FF4A6716DA001F0C8FDEF
:101F0000E069A0B1082812D0102810D018280ED0EF
:101F100020280CD028280AD0302808D0382806D00D
:101F200000E036E040F24D1161A001F0B1FD206A01
:101F300030B1802804D04FF4A7715DA001F0A8FD56
:101F4000606A002740B3102806D040F24F1158A015
:101F500001F09EFD606AF8B1E06990B1082810D0E8
:101F600010280ED018280CD020280AD0282808D0F5
:101F7000302806D0382804D040F261114CA001F07E
:101F800087FD27616761A76294F85D00002831D062
:101F900035E00120BDE8F081206930B1022804D08D
:101FA0004FF4A97142A001F073FD606930B10128BE
:101FB00004D040F253113EA001F06AFD6068B042C7
:101FC00016D1E0690028DED00828DCD01028DAD04D
:101FD0001828D8D02028D6D02828D4D03028D2D03D
:101FE0003828D0D040F2571131A001F051FDCAE796
:101FF000E761C8E784F85C70204600F075F80220BD
:1020000084F85D002068016821F040010160E0680B
:10201000A84203D90021404502D104E04FF4805189
:10202000A84200D0A762A088228900F4827002F43E
:1020300004421043227C02F002021043227D02F08F
:1020400001021043228B02F400721043227F02F03F
:102050003802104394F8202002F080021043228DB1
:1020600002F40052104322681060A069042202EAC0
:10207000104094F8242001F4805102F01002104323
:1020800094F8342002F008021043A28902F470622E
:1020900010430843216848602766012084F85D00EA
:1020A000002077E70030014000380040003C00404D
:1020B0002E2E2F447269766572732F53544D33322E
:1020C0004C3478785F48414C5F4472697665722F72
:1020D0005372632F73746D33326C3478785F686138
:1020E0006C5F7370692E630010B586B004461421CE
:1020F0006846FEF75EFA1349206888421FD11248ED
:10210000816D41F480418165816D01F480410591CB
:10211000C16C41F00201C164C06C694600F002006C
:1021200005904FF460400090022001900020029042
:1021300003200390052004900448FEF787FB06B0B7
:1021400010BD0000003800400010024000040048AC
:102150002DE9FF5F04460E9E80681D4693464FF0B2
:10216000010920B14FF49F6199A001F091FCFEF7A5
:1021700057FD074694F85D006168012806D0B1F567
:10218000827F39D1A168B1BB042835D101980028DC
:102190007ED0BBF1000FFBD0002DF9D094F85C008D
:1021A000012829D04FF0010A84F85CA094F85D0062
:1021B000042802D0052084F85D004FF00008C4F820
:1021C0006080C4F840B0A4F84650A4F84450019987
:1021D000A163E587A587C4F84C80C4F85080E06807
:1021E0004FF4E061884201D8012D09D92068426886
:1021F00022F4805208E0FFE7022004B000F004B9A6
:102200002068426842F480524260206802685206A8
:1022100003D4026842F040020260E06888426068CD
:1022200046D908B1012D3BD1A06B21680088C86058
:10223000A06B801CA063E08F401EE08730E0206828
:10224000816889070FD5E18F69B1B9F1010F0AD112
:10225000A16B0988C160A06B801CA063E08F401E49
:10226000E0874FF0000920688168C9070FD0B4F8F3
:10227000461061B1C068216C0880206C801C20640D
:10228000B4F84600401EA4F846004FF0010900E0F3
:102290009CE0FEF7C5FCC01BB04201D3701C74D19A
:1022A000E08F0028CBD1B4F846000028C7D175E0F4
:1022B00008B1012D6BD1E08F0128A06B08D92168EE
:1022C0000088C860A06B801CA063E08F801E07E0C0
:1022D000216800780873A06B401CA063E08F401E4B
:1022E000E08754E02068816889071AD5E18FC1B181
:1022F000B9F1010F15D1E18F0129A16B07D9098827
:10230000C160A06B801CA063E08F801E06E009788E
:102310000173A06B401CA063E08F401EE0874FF06C
:10232000000920688168C90728D0B4F8461029B38D
:10233000B4F84610012914D9C068216C0880206CBB
:10234000801C2064B4F84600801EA4F84600B4F84F
:102350004600012810D82068416841F4805141604E
:102360000AE0007B216C0870206C401C2064B4F8EB
:102370004600401EA4F846004FF00109FEF750FC4D
:10238000C01BB04202D3701C01D012E08EB1E08FAE
:102390000028A7D1B4F846000028A3D13A46314618
:1023A000204600F0ADFE50B12020206684F85C800D
:1023B0000CE084F85DA084F85C8003201DE784F8BD
:1023C0005DA084F85C80206E0028F7D0012014E71F
:1023D0002E2E2F447269766572732F53544D33320B
:1023E0004C3478785F48414C5F4472697665722F4F
:1023F0005372632F73746D33326C3478785F686115
:102400006C5F7370692E630030BCBDE8C09F10B56F
:10241000401EB0F1807F01D3012010BD4FF0E024B9
:1024200060610F21601701F01CFB0020A0610720F4
:102430002061002010BD7047704770472DE9F041C2
:1024400002680446D0691168936840F60F05284277
:102450004FF000054FF0020605D187067ED58F06A6
:102460007CD5A16E33E1DFF894C203F0010701EAE5
:102470000C0C57EA0C0C71D05FEAC07C0CD05FEA00
:10248000C15C09D54FF0010CC2F820C0D4F88420FB
:1024900042F00102C4F88420820709D5DA0707D088
:1024A00022681662D4F8842042F00402C4F8842022
:1024B00042070AD5DA0708D0236804221A62D4F842
:1024C000842042F00202C4F8842002070CD501F0F7
:1024D00020023A4308D0236808221A62D4F88420E4
:1024E00042F00802C4F8842002050BD54A0109D540
:1024F00023684FF400621A62D4F8842042F020026C
:10250000C4F88420D4F88420002A36D0800605D56B
:10251000880603D5A16E09B120468847D4F8840007
:1025200021688968490602D410F0280F27D0204678
:1025300001F092F82068806840061BD520680830BA
:1025400050E8001F21F0400140E80012002AF5D1B8
:10255000606F78B16A498163606F00E015E0FEF753
:102560003BF9002809D0606F816B00E02046BDE890
:10257000F04108472046FFF760FFBDE8F0812046A4
:10258000FFF75BFFC4F88450F7E7D4F860C020275A
:10259000BCF1010F7ED15FEAC06C7BD55FEAC16CF4
:1025A00078D5102010622068806840064FD5616F92
:1025B0000A6850680004000C3DD0B4F858308342DB
:1025C00039D9A4F85A000868006880062BD420681E
:1025D00050E8001F21F4807140E80012002AF6D173
:1025E0002068083050E8001F21F0010140E8001287
:1025F000002AF5D12068083050E8001F21F0400182
:1026000040E80012002AF5D1C4F8807025662068E1
:1026100050E8001F21F0100140E80012002AF6D116
:10262000606FFEF7B4F86666B4F85800B4F85A1054
:10263000401A81B207E0B4F8581081429DD1106869
:1026400080069AD566662046FFF7F5FE95E7B4F852
:102650005800B4F85A10401A81B2B4F85A00002851
:102660008BD0002989D0226852E8000F20F49070A6
:1026700042E80003002BF6D12068083050E8002F14
:1026800022F0010240E80023002BF5D1C4F880704D
:10269000256600E00AE0A566226852E8000F20F0F7
:1026A000100042E80003002BF6D1CBE7C60209D5A3
:1026B0005B0207D54FF4801010622046BDE8F04160
:1026C000FFF7BABE020606D50A0604D5E16E002958
:1026D0007FF44CAF51E74006B8D54806B6D5204642
:1026E000026852E8001F21F0400142E80013002B6D
:1026F000F6D1C767C56600F0C5F83EE720010004C3
:102700004536000870B5040012D0A069264900289B
:10271000264A274B274D20680CD0884217D090427C
:1027200015D0984213D0A84211D04FF4A9710BE0F4
:10273000012070BD88420AD0904208D0984206D04D
:10274000A84204D040F257111BA001F0A1F9E06F9C
:1027500028B9002084F87800204600F04BF82420A7
:10276000E0672068016821F001010160606A10B132
:10277000204600F011FE204600F094FF0128D8D03A
:102780002068416821F4904141602068816821F00F
:102790002A0181602068016841F001010160204642
:1027A000BDE8704000F0FABE00380140004400402F
:1027B00000480040008000402E2E2F44726976654C
:1027C00072732F53544D33324C3478785F48414CF8
:1027D0005F4472697665722F5372632F73746D3321
:1027E000326C3478785F68616C5F756172742E63E7
:1027F0000000000010B59EB00446142117A8FDF794
:10280000D8FE5C216846FDF7D4FE1C49206888424A
:1028100031D101200024009008946846FEF77CFB2B
:1028200008B1FDF7B2FF1648016E41F48041016620
:10283000016E01F480411C91C16C41F00101C16441
:10284000C06C17A900F001001C904FF4C0601790F5
:102850000220CDE9180403201A9007201B904FF0A6
:102860009040FDF7F3FF002211462520FEF760FAA5
:102870002520FEF72BFA1EB010BD000000380140E5
:10288000001002407047FEE72DE9F04186B01421A8
:102890006846FDF78EFE3648C16C41F00401C16404
:1028A000C16C01F004010591C16C41F08001C1646B
:1028B000C16C01F080010591C16C41F00101C1645E
:1028C000C16C01F001010591C16C41F00201C164CC
:1028D000C06C4FF0904800F002000590012240F2D9
:1028E00007114046FEF768F94FF400500024012517
:1028F0008DE831001F4F69463846FDF7A7FF4FF4BA
:1029000040400326CDE90006694602943846FDF7AB
:102910009DFF0720CDE90005CDE9025469464046F8
:10292000FDF794FF49F6F800CDE9000669460294E8
:102930004046FDF78BFF41F6FF70CDE90006694682
:1029400002940D48FDF782FF2802CDE90005CDE98C
:10295000025669464046FDF779FF0820CDE900069A
:10296000694602940548FDF771FF06B0BDE8F081A5
:10297000001002400008004800040048001C004805
:10298000124810B5104901604FF482714160002176
:102990004FF4E062C0E902124FF400720161C0E935
:1029A0000512C161016207224162C0E90A12016396
:1029B00008214163FFF734FA002803D0BDE8104036
:1029C000FDF7E3BE10BD000000380040AC0A001067
:1029D0000D4810B50B4901604FF4E1314160002111
:1029E00081600C22C160C0E904128161C161016291
:1029F0004162FFF787FE002803D0BDE81040FDF7D5
:102A0000C4BE10BD00380140100B0010FEE7FEE709
:102A1000704700002DE9F041044600688846002612
:102A200050B1012808D0022806D0032804D040F66F
:102A3000623167A001F02CF86068401E072804D9B5
:102A400040F6633162A001F023F8A06808384E28F0
:102A500004D940F664315EA001F01AF8A069C10300
:102A600003D4C10201D4C10102D56849084204D08F
:102A700040F6653156A001F00BF8654DE868800717
:102A80000ED0E86800F003012068814217D1B0B190
:102A9000E8686168C0F30210401C88420FD121E051
:102AA0002068012804D0022805D0032807D108E0B7
:102AB0002968890701E029684905002907DB012603
:102AC00082E02968890302D429684903F5E7E968A7
:102AD00062686FF00F0321F0730103EB02121143E0
:102AE0000143E960286820F080602860FEF798F8CC
:102AF000074604E0FEF794F8C01B02285BD828685C
:102B00000001F7D4B8F1000F26D0B8F1010F34D08E
:102B1000606902280AD0042808D0062806D00828B0
:102B200004D040F6EE312AA000F0B2FF207D4FF035
:102B30007E41400801EB4060A16840EA012029691C
:102B4000344A114008432861286840F080602860BA
:102B5000FEF766F8074630E0E068801E1D2804D9BD
:102B600040F6B8311AA000F093FFA068217B000264
:102B700040EAC1602969284AE3E7206902280AD0AF
:102B8000042808D0062806D0082804D040F6DC31F6
:102B90000FA000F07DFF208A2049400801EB405043
:102BA000A16840EA012029691D4ACAE7FEF738F802
:102BB000C01B022801D9032606E028680001F5D5CC
:102BC0002869A169084328613046BDE8F08100000A
:102BD0002E2E2F447269766572732F53544D333203
:102BE0004C3478785F48414C5F4472697665722F47
:102BF0005372632F73746D33326C3478785F68610D
:102C00006C5F7263635F65782E630000FFFFEEFE0A
:102C100000100240FF80FFF9FF80FF070000E0FF87
:102C2000FF809FFFF8B51C4D06460024A86DC0002C
:102C300002D5FEF769F90DE0A86D40F08050A86557
:102C4000A86D00F080500090FEF75EF9A96D21F0AC
:102C50008051A965B0F5007F04D0802E07D94FF0D0
:102C600003040AE0802E08D9A02E01D804E001D187
:102C7000022402E0702E00D101240848016821F0EE
:102C8000070121430160006800F00700A04201D065
:102C90000120F8BD0020F8BD0010024000200240D5
:102CA00010B5012211024FF09040FDF785FFBDE8FD
:102CB0001040FF2000F004BA70B505460122002143
:102CC000092000F0BDF9040004D11021284600F0CD
:102CD0008BF90446FFF7E4FF0CB1012070BD002022
:102CE00070BD70B505464FF6FF7401E0641EA4B2D6
:102CF000FF2000F093F9A84202D0002CF6D102E0A8
:102D00000CB1002070BDFF2070BD1FB56846FFF7F5
:102D1000D3FF10B1002004B010BD9DF800100120B9
:102D2000B0EB911F09D19DF808209DF8091000EB28
:102D30000220084400048009EDE79DF805009DF895
:102D40000A1000F00F0000EBD1109DF809109DF85B
:102D5000072001F0030100EB41019DF80800800904
:102D600000EB82009DF8062002F0030200EB8220B7
:102D7000401CC91F8840CEE72DE9F843382000F0F9
:102D8000AFF90024FF2000F09BF9641CA4B20A2CC8
:102D9000F8D3142400219522084600F051F9054685
:102DA000012802D0641EA4B2F4D2474E0027012DA0
:102DB00037707AD187224FF4D571082000F040F99E
:102DC0004FF6FE7801281ED001220021372000F0A6
:102DD00037F901220021292000F032F901284FD8CB
:102DE00002203070444601220021372000F028F9EB
:102DF00001220021292000F023F905004DD0641E96
:102E0000A4B2F0D249E000246F46FF2000F006F99A
:102E10003855641CA4B2042CF7D39DF80200012895
:102E200043D19DF80300AA283FD144464FF0804883
:102E300001220021372000F003F901224146292018
:102E400000F0FEF8050002D0641EA4B2F0D2B4B1C6
:102E5000012200213A2000F0F3F880B90024FF207D
:102E600000F0DCF83855641CA4B2042CF7D39DF8AC
:102E70000000400601D5062000E00420307014E078
:102E800001203070444601220021104600F0D8F89D
:102E9000050002D0641EA4B2F5D22CB10122510269
:102EA000102000F0CDF800B13770FFF7F9FE0020D8
:102EB00000F016F9307810B10020BDE8F8830DB1AC
:102EC0002846FAE7AA20F8E7140000102DE9F0419F
:102ED0000646184815460078062800D049024FF4E7
:102EE0000077012D4FF0010219D0122000F0A8F850
:102EF0003946304600F078F86D1E044606F5007637
:102F000015F0FF0501D0002CF2D0012200210C2089
:102F100000F096F8FFF7C4FE2046BDE8F0811120CE
:102F200000F08EF80400F5D13946304600F05CF828
:102F30000446EFE71400001070B504464FF4007625
:102F4000304600F0C1FE054601222146FFF7BEFFD4
:102F5000002814D10CA0FDF709FA12A0FDF706FA1B
:102F6000002415A0295DFDF701FA641CA4B2B44247
:102F7000F7D312A0FDF7FAF914A0FDF7F7F92846E8
:102F8000BDE8704000F096BE555341525431205375
:102F9000656E64696E6720446174612E2E2E0D0A81
:102FA00000000000534543544F5220302044415408
:102FB000413A0D0A00000000257820000D0A444126
:102FC000544120454E4445440D0A0000555341529A
:102FD00054312053656E642044617461204F7665DE
:102FE00072210D0A0000000070B504460D46FE2057
:102FF000FFF777FE30B1012070BD00BF00F060F830
:1030000004F8010B6D1EADB24FF0FF00F6D200F0D8
:1030100057F8FF2000F054F8002070BD00F050B8C1
:1030200010B500224FF480714FF09040FDF7C4FDC1
:1030300000F035F8002802D0FFF732FE012010BD65
:1030400070B515460C460646FFF72AFEFFF7E8FF67
:1030500008B1FF2070BD46F0400000F031F8200EAE
:1030600000F02EF8C4F3074000F02AF8C4F307205C
:1030700000F026F8E0B200F023F8284600F020F82F
:103080000C2E02D1FF2000F01BF81F24FF20FFF7B9
:10309000C5FF0106DED5641EE4B2F7D270BD70B57F
:1030A00000246FF07F45FF20FFF7B8FFFF2804D012
:1030B000641CAC42F7D3012070BD002070BD00003D
:1030C00001B582B04FF47A700090012301AA02A9E1
:1030D0000248FFF73DF89DF804000EBDAC0A001051
:1030E000064910B5C8610846FEF79AFE002803D0CD
:1030F000BDE81040FDF749BB10BD0000AC0A001050
:10310000F8B515460E460B460092044600224FF4D1
:10311000C05100F019F888B93346002280212046BA
:10312000009500F085F848B9334600224FF4C0619D
:103130002046009500F008F8002804D0206E40F0EA
:10314000200020660320F8BD2DE9FE4F4FF0000A55
:10315000984617460E4604460C9D8DF804A0FDF7D0
:103160005FFD411BA8EB0105FDF75AFD8146206874
:103170004FF4C06B0C3002902A480068C0EBC000CE
:1031800000EB8000000D6843009043E05E4506D1EF
:103190002FB9029800788DF804009DF80400B8F16A
:1031A000FF3F37D0FDF73CFDA0EB0900A84203D25A
:1031B00015B1009858B32BE02068416821F0E00178
:1031C00041606068B0F5827F0BD1A068B0F5004F18
:1031D00002D0B0F5806F04D12068016821F0400171
:1031E0000160A06AB0F5005F09D12068016821F490
:1031F000005101602068016841F400510160012024
:1032000084F85D0084F85CA0032000F00DB8002570
:10321000401E0090206880683040B842B6D100203F
:10322000F3E70000240000101EBCBDE8E08F0000A2
:103230002DE9F8431E46914688460446089DFDF751
:10324000EFFC401B351AFDF7EBFC074625480068EC
:10325000C0F3CB30684338E0701C37D0FDF7E0FC9A
:10326000C01BA84203D215B1009860B32CE02068BF
:10327000416821F0E00141606068B0F5827F0BD1C8
:10328000A068B0F5004F02D0B0F5806F04D120687F
:10329000016821F040010160A06AB0F5005F09D12A
:1032A0002068016821F4005101602068016841F440
:1032B00000510160012084F85D00002084F85C006A
:1032C0000320BDE8F8830025401E00902068816837
:1032D00038EA010004D000214945BDD10020F0E7C3
:1032E0000121F9E7240000107047FDF79FBC10B5DD
:1032F00096B044216846FDF75CF9142111A8FDF74A
:1033000058F94FF40070FDF7A3FD08B172B6FEE75F
:1033100001210804CDE90010022003240A90CDE920
:103320000B4114210D910721CDE90E101090684634
:10333000FEF7E0F908B172B6FEE70F20CDE91104FF
:103340000020139014901590042111A8FEF73AF86C
:10335000002801D072B6FEE716B010BD0B48016818
:1033600041F4700101600A48016841F00101016007
:10337000002181600268074B1A4002608214C2601B
:10338000026822F4802202608161704788ED00E0CB
:1033900000100240FFFFF6EA70B50446406AFF28BD
:1033A00004D940F64D516BA000F072FB94F8240054
:1033B000000710D5606B38B1B0F5004F04D040F66F
:1033C000525164A000F064FB20684168626B21F4F4
:1033D00000411143416094F82400C00710D0A06A56
:1033E00038B1B0F5003F04D040F6595159A000F073
:1033F0004FFB20684168A26A21F40031114341600B
:1034000094F82400800710D5E06A38B1B0F5803F09
:1034100004D04FF456614FA000F03AFB2068416899
:10342000E26A21F480311143416094F8240040079E
:1034300010D5206B38B1B0F5802F04D040F667511D
:1034400044A000F025FB20684168226B21F4802114
:103450001143416094F82400C00610D5A06B38B128
:10346000B0F5805F04D040F66E513AA000F010FB3A
:1034700020688168A26B21F480511143816094F827
:103480002400800610D5E06B38B1B0F5005F04D0A1
:1034900040F675512FA000F0FBFA20688168E26BBE
:1034A00021F400511143816094F8240040063AD57C
:1034B0003749206888420AD03649884207D03649C1
:1034C000884204D040F67C5122A000F0E1FA206C42
:1034D0004FF4801530B1A84204D040F67D511DA0B4
:1034E00000F0D6FA20684168226C21F48011114363
:1034F0004160206CA84216D1606C68B1B0F5001F25
:103500000AD0B0F5800F07D0B0F5C00F04D040F658
:10351000825110A000F0BCFA20684168626C21F46E
:10352000C0011143416094F82400000610D5A06C3E
:1035300038B1B0F5002F04D040F68A5105A000F054
:10354000A7FA20684168A26C21F400211143416070
:1035500070BD00002E2E2F447269766572732F5352
:10356000544D33324C3478785F48414C5F44726933
:103570007665722F5372632F73746D33326C3478A7
:10358000785F68616C5F756172742E630000000083
:103590000038014000440040004800402DE9F84355
:1035A00000260446C0F88460FDF73AFB8046206898
:1035B00000684FF0200500076FF07E4712D54346A4
:1035C000002229042046009700F0FAF950B1216842
:1035D00051E8000F20F0800041E80002002AF6D1F7
:1035E000E56721E020680068400722D543460022B5
:1035F0004FF480012046009700F0E2F9C8B121683D
:1036000051E8000F20F4907041E80002002AF6D142
:103610002068083050E8001F21F0010140E8001246
:10362000002AF5D1C4F8805084F878600320BDE802
:10363000F883E567C4F8805044F8606F66602676CA
:103640000020F4E710B5806A0021A0F85A10A0F815
:103650005210FEF7F2FE10BD016851E8002F22F46F
:10366000907241E80023002BF6D10168083151E83F
:10367000002F22F0010241E80023002BF5D1016E5A
:10368000012908D1026852E8001F21F0100142E828
:103690000013002BF6D12021C0F880100021016614
:1036A000816670472DE9F04704464068AC49002622
:1036B000884204D340F65841AAA000F0E9F9A06876
:1036C0004FF48055B0F1805F07D030B1A84204D0EC
:1036D00040F65941A3A000F0DBF9DFF8C48220686E
:1036E0004FF400514045E0684FF4006906D10028CE
:1036F0001AD0884218D040F65C4112E0A8420AD0A5
:1037000048B1B0F5405F06D0884204D04FF446611E
:1037100094A000F0BDF9206A30B1484504D040F6CD
:10372000614190A000F0B4F920694FF4806748B17E
:10373000B84207D0B0F5C06F04D040F6644189A00C
:1037400000F0A6F9606930F00C0100D120B940F614
:10375000654184A000F09CF9A06968B1B0F5807F54
:103760000AD0B0F5007F07D0B0F5407F04D040F616
:1037700066417CA000F08CF9E0694FF4004530B15F
:10378000A84204D040F6674176A000F081F9216993
:10379000A068E269084361691143084321680A6827
:1037A000804B1A4002430A6020684168E26821F4B5
:1037B0004051114341602168A069414501D0226A0E
:1037C00010438A6822F4306202438A607649226894
:1037D00076488A420DD1D0F8880010F0030006D058
:1037E000012841D0022831D003282ED13EE001200B
:1037F0002CE06F498A420BD1D0F8880010F00C0001
:1038000024D0042822D008282CD00C281DD12DE04B
:1038100068498A420BD1D0F8880010F0300015D0EA
:10382000102821D020281DD030280ED11EE042457E
:103830000BD1D0F8880010F4406007D0B84213D004
:1038400048450FD0B0F5406F10D010205A490027DE
:1038500042452FD160B102280DD004280DD0082890
:1038600074D125E00220F1E70420EFE70820EDE71E
:10387000FDF7CAFE03E0084602E0FDF7E9FE78B373
:10388000626802EB4201814260D8B0EB023F5DD832
:10389000010E03025008181879410023FCF7EEFCD2
:1038A000464AA0F54071914250D82168C8604EE068
:1038B0002846E5E7E2694FF6EF78AA4229D10928C0
:1038C00044D2DFE800F005080B430E4343432400D5
:1038D000FDF79AFE07E0FDF7A9FE04E0084603E0C5
:1038E00035E0FDF7B5FE90B34100606801EB500193
:1038F000B1FBF0F0A0F11001414527D84FF6F0716F
:103900000140C0F3420001432068C1601FE0284627
:10391000EAE709281AD2DFE800F005080B190D19AB
:1039200019191F00FDF770FE06E0FDF77FFE03E0AA
:10393000084602E0FDF78CFE48B1616800EB5100DB
:10394000B0FBF1F0A0F11001414507D90126A766AF
:103950003046E766BDE8F0872846EEE780B2A4E788
:10396000819698002E2E2F447269766572732F53BC
:10397000544D33324C3478785F48414C5F4472691F
:103980007665722F5372632F73746D33326C347893
:10399000785F68616C5F756172742E63000000006F
:1039A00000800040F369FFEF003801400010024042
:1039B00000440040004800400024F400FFFC0F00D9
:1039C0002DE9F047994617460D4604464FF000088A
:1039D000089E33E0701C31D0FDF722F9A0EB0900FE
:1039E000B04218D8BEB120680168490726D5802D9D
:1039F00024D0402D22D0C169C94309070DD4082520
:103A000005622046FFF728FEC4F8845084F87880C9
:103A10000120BDE8F0870320FBE7C069C043000533
:103A20000CD421684FF4006008622046FFF714FEB2
:103A30002020C4F8840084F87880ECE72068C0690E
:103A400035EA000004D00020B842C3D00020E0E7EF
:103A50000120F9E70148FEF7F1BC0000100B00104F
:103A6000FEE70907090E002804DB00F1E02080F8DA
:103A70000014704700F00F0000F1E02080F8141DE2
:103A8000704730380A2801D2012070470020704763
:103A90007047000004490A685206FCD5024AC1B2C8
:103AA0000C321180704700001C38014000273C4652
:103AB000FDF7C4F8FFF71BFCFEF7E6FEFEF788FFF4
:103AC000FEF75EFF00F09CF84FF090484FF4FA7953
:103AD0000FE025A0FCF74AFC4846FCF7A5FE27A00E
:103AE000FCF744FC4846FCF79FFE01214046FDF7E9
:103AF00033F8FFF741F90028EBD125A0FCF736FC9D
:103B0000FFF703F9C10A26A0FCF730FC29A0FCF757
:103B10002DFC4FF4005ADFF8A49002E00FB101250C
:103B200000E02DB126B951464846FCF7E9FF30B117
:103B300051464846FCF7E4FF012806D006E0002580
:103B400001262846FFF7F8F900E00125641CA4B21D
:103B50000A20FCF769FE642CE0D102214046FCF704
:103B6000FBFF0024DAE70000534420436172642025
:103B70004572726F72210D0A00000000506C656181
:103B8000736520436865636B21200D0A0000000007
:103B900053442043617264204F4B202020200000BA
:103BA000534420436172642053697A653A25356431
:103BB000204D42000D0A0D0A0000000000080048D8
:103BC00070B50E490A7C4AB1B0F5284F13D24209AC
:103BD000C86830F812300020044608E008688047C2
:103BE000012070BDCD681618401C25F8164098427B
:103BF000F8DB002070BD022070BD00000000001046
:103C000010B5084C4FF428620021E06800F06AF813
:103C10004FF428420021A06800F064F801202074CD
:103C200010BD00000000001070B5154C06460025C0
:103C3000207C08B9206880474FF0FF33F6B1C6F307
:103C40004F11F00601D0491C89B2E26840F23F50A2
:103C500032F8106026B100258D420DD1002207E018
:103C60006D1CADB2F8E7E3688518521C23F81510F7
:103C70008A42F8D3400170BD401EE9D5184670BD98
:103C8000000000100A4A10B50021D26808464FF41F
:103C9000A86300BF32F8104004B1491C401C984290
:103CA000F8D364204143B1FBF3F0C0B210BD000073
:103CB00000000010002804D002498968401AFFF76C
:103CC0007FBF70470000001010B5FFF7ADFF411C2B
:103CD00003D003498968084410BD002010BD0000CE
:103CE0000000001002E000BF00F8011B521EFBD2D2
:103CF00070474FF04070E1EE100A7047000000007E
:103D0000000000000102030406070809A086010064
:103D1000400D0300801A060000350C0040420F00E1
:103D200080841E0000093D0000127A000024F40087
:103D300000366E010048E801006CDC020000000063
:103D400001020304303132333435363738394142D9
:103D500043444546403058003031323334353637ED
:103D60003839616263646566403078009C3D0008C4
:103D7000000000102C000000C80100089C3D000855
:103D80000000002000A80000E4010008C83D000871
:103D90002C000010CC130000E4010008013C0008D6
:103DA000853C0008000000202C00001000000000EE
:103DB00000000000010000001000000000000000F2
:083DC00000093D0000000000B5
:040000050800018D61
:00000001FF
