:020000040800F2
:10000000A042002069020008352D0008912A00084E
:10001000312D00082508000879390008000000008B
:100020000000000000000000000000008D2F00080C
:100030002908000800000000392D0008912F000851
:10004000830200088302000883020008830200087C
:10005000830200088302000883020008830200086C
:10006000830200088302000883020008830200085C
:10007000830200088302000883020008830200084C
:10008000830200088302000883020008830200083C
:10009000830200088302000883020008830200082C
:1000A000830200088302000883020008830200081C
:1000B0008302000800000000000000008302000826
:1000C00083020008830200088302000883020008FC
:1000D00083020008830200086D39000883020008CB
:1000E00083020008830200080000000000000000F6
:1000F0000000000000000000000000000000000000
:1001000000000000830200080000000083020008D5
:1001100000000000000000008302000883020008C5
:10012000830200088302000883020008830200089B
:100130008302000800000000000000000000000032
:10014000830200088302000883020008830200087B
:10015000830200088302000883020008830200086B
:1001600083020008830200088302000800000000E8
:10017000830200088302000883020008830200084B
:1001800083020008830200088302000800F002F8DE
:1001900000F05AF814A696E8000CB244B344DA45CD
:1001A00001D100F051F8BAE80F000FA696E8300030
:1001B000A5EB040504EB0607AAEB0704A7F101076A
:1001C0004FEA15154FEA3414A4F10104AC4201D3EF
:1001D00000F03AF813F0010F18BFFB1A43F00103C7
:1001E00000F001F8DBE71847F46600001467000030
:1001F000103A24BF78C878C1FAD8520724BF30C853
:1002000030C144BF04680C607047000070470000B4
:100210000023002400250026103A28BF78C1FBD80F
:10022000520728BF30C148BF0B607047642900F0F7
:100230002381732900F0B882002070471FB506F0B3
:1002400007FB1FBD10B510BD00F0B2FA1146FFF755
:10025000F5FF03F093FB00F0D0FA03B4FFF7F2FFD1
:1002600003BC00F0D7FA000009488047094800475E
:10027000FEE7FEE7FEE7FEE7FEE7FEE7FEE7FEE756
:10028000FEE7FEE704480549054A064B70470000B3
:10029000393000088D010008A03C0020A042002059
:1002A000A03E0020A03E002053EA020C00F069802E
:1002B0002DE9F04B4FF00006002B1FBFB3FA83F57A
:1002C00003FA05F424FA05F65E4012BF1643B2FAAB
:1002D00082F502FA05F4C5F120051EBF22FA05FCDD
:1002E00044EA0C04203556EA044C4FEA144418BF83
:1002F000641C4FF000084FF00009904271EB030CB2
:1003000039D3002919BFB1FA81F701FA07F6B0FA1B
:1003100080F700FA07F6C7F120071EBF20FA07FC96
:1003200046EA0C062037B6FBF4FCA7EB0507103FA6
:1003300007F01F0BCBF120062CFA06F60CFA0BFB8C
:1003400044BFB3460026202FA4BF5E464FF0000BEB
:100350005BEA060C08BF4FF0010B19EB0B0948EBE9
:100360000608ABFB027C06FB02CC0BFB03CCC01BDC
:1003700071EB0C01C1E70B46024641464846BDE819
:10038000F08B13B5084318BF4FF0FF300146AFF3B1
:100390000080BDE81C4070470FB41CB50C0007AAD4
:1003A000009007D04142A14202D32044401E01E008
:1003B0004FF0FF30074B7B4469460190069800F0F0
:1003C000C6F90020002C01D0009908701CBC5DF813
:1003D00014FB0000BB03000070B50446856900688B
:1003E000C10601D5302600E02026C00707D070BD29
:1003F000D4E9012130469047206A401C20626D1EDE
:10040000F6D570BD70B5044685690078C00707D180
:1004100070BDD4E9012120209047206A401C206251
:100420006D1EF6D570BD70B50C460546012A05D087
:100430002878800600D5EA69002302E0012305E060
:100440005B1C934202D2E05C0028F9D1A869E6184F
:10045000C01AA861286A184428622846FFF7BCFF22
:1004600004E0D5E9012114F8010B9047B442F8D318
:100470002846FFF7C7FF70BD2DE9F041064600246E
:1004800010687529314616A510D0AFF300800028FA
:1004900002DA404213A507E031688A0701D512A5A8
:1004A00002E0490704D511A5012401E0AFF3008063
:1004B00000210A2206F1240709E0B0FBF2FCB0FBA0
:1004C000F2F302FB1C00303078541846491C002817
:1004D000F3D123462A463046BDE8F04100F0D9B8B2
:1004E000000000002D0000002B0000002000000094
:1004F0002DE9F05F894604464FF0000ADFF824B189
:10050000FB44C0F820A02046E168884700287DD041
:10051000252806D0D4E901219047206A401C20629A
:10052000F1E700255F462046E16888472028064617
:1005300007DB312E05D2B81910F8200C08B105439D
:10054000F1E7A80701D525F00405C4F81CA0002791
:10055000C4F818A02A2E09D0304606F072F938B334
:1005600004EB8708303EC8F8186019E059F8041BFE
:10057000204604EB87029161E1688847012F064617
:1005800018D1E069002820DA25F020051DE0D8F810
:10059000180000EB800006EB40003038C8F8180067
:1005A0002046E1688847064606F04BF90028EED160
:1005B000012F0AD02E2E08D12046E16888477F1CE3
:1005C0000646022F45F02005C4DBA069002803DAA7
:1005D000404245F00105A061E80701D025F0100573
:1005E000A6B1A6F14100192802D8203645F40065CD
:1005F0004A463146204625604D46FFF717FE60B15A
:10060000012807D0ED1D25F0070000E007E000F10C
:10061000080978E705F1040975E730467AE7206AAA
:1006200000F002B86663000030BCBDE8C09F02F075
:10063000FF0343EA032242EA024200F002B84FF00D
:10064000000200B5134694469646203922BFA0E822
:100650000C50A0E80C50B1F12001BFF4F7AF09072E
:1006600028BFA0E80C5048BF0CC05DF804EB89001F
:1006700028BF40F8042B08BF704748BF20F8022B62
:1006800011F0804F18BF00F8012B7047704770477A
:1006900070472DE9F0470D4699469246044600F111
:1006A00024080168880604D5E06921F01001216062
:1006B00000E00120A84201DD471B00E00027A169FE
:1006C0007A1902EB0900081AA0612078C00602D44A
:1006D0002046FFF781FE002608E0D4E901211AF840
:1006E00006009047206A401C761C20624E45F4DBD1
:1006F0002078C0060AD52046FFF76EFE06E0D4E952
:10070000012130209047206A401C2062381EA7F14A
:100710000107F4DC07E0D4E9012118F8050090474F
:10072000206A401C2062281EA5F10105F3DC20464A
:10073000FFF768FE2078000602D50220BDE8F087AA
:100740000120FBE701694A1C02610878704700B587
:100750008FB0CDE901310021059105497944CDE9FA
:10076000031011466846FFF7C3FE0FB000BD00003E
:10077000E5FFFFFFD1E900239A4202D2531C0B6030
:100780001070704710B5436913B1AFF3008001E0FA
:10079000FFF749FE012010BD127800F124010A7014
:1007A00000224A700122EDE711684FF0FF32E9E7BD
:1007B000754600F02BF8AE4605006946534620F01A
:1007C0000700854618B020B5FFF75CFDBDE8204066
:1007D0004FF000064FF000074FF000084FF0000BFD
:1007E000AC46ACE8C009ACE8C009ACE8C009ACE86C
:1007F000C00921F007018D46704710B50446AFF3DC
:1008000000802046BDE81040FFF727BD0048704734
:100810001800002001491820ABBEFEE726000200A8
:1008200070470000FEE7000070470000014690F8A6
:100830002500022818D10868D1E910C3026822F007
:100840000E020260026822F00102026003F01C0046
:10085000012202FA00F0CCF8040081F825200020E3
:10086000002281F8242070470420C8630120002260
:1008700081F824207047000090F82510022921D12A
:1008800080B50268D0F838C0D0E910E1136801F0F3
:100890001C0123F00E0313601368BCF1000F23F05A
:1008A000010313604FF0010202FA01F1CEF80410C7
:1008B0004FF0000180F8252080F8241018BFE04791
:1008C000002080BD0421C16301207047B0B50446FB
:1008D00000F0F2F8054640F20000C2F20000007895
:1008E000611C18BF044400BF00F0E6F8401BA042A2
:1008F000FAD3B0BD2DE9F04F83B00E68002E00F0A2
:10090000CF8000F1200241F2000C009200F1384744
:10091000C4F6000C07224FEAB725604508BF042241
:10092000042D38BF4FEAB722002500274FF00008FA
:1009300001920AE00E6808F1010836FA08F207F1A0
:10094000020705F1040500F0AB80012202FA08FE5F
:1009500016EA0E09EED0D1F804C003220CF0030B06
:10096000ABF1010602FA07F4012E6FEA040A11D86E
:100970008468CE6804EA0A04BE4034438460446854
:1009800024EA0E06CCF3001404FA08F42643466069
:1009900006E000BFBBF1030F02D14FF0030B21E0D3
:1009A000C6688C6806EA0A06BC402643BBF1020F03
:1009B000C66017D16FF00302009B02EA580605F0EB
:1009C0001C020F2453F806C004FA02FE0C692CEA3C
:1009D0000E0C04FA02F242EA0C029A51D1F804C059
:1009E0000CF0030B02680BFA07F302EA0A021A433F
:1009F0001CF4403F02609DD041F26003C4F2020348
:100A00001A6840F2004E42F001021A601A68C4F2FD
:100A1000010E02F001020292029A28F003024FF640
:100A2000084C7244CFF6FF7C52F80C3005F00C06EF
:100A30000F24B440A343019C04FA06F6334342F862
:100A40000C30DEF808204B6842EA090640F20C4CF4
:100A5000DC0258BF22EA0906CEF80860C4F2010C95
:100A6000DCF800209C0242EA090658BF22EA090687
:100A7000CCF80060DEF804209C0342EA090658BF67
:100A800022EA0906CEF80460DEF80020DB0342EA21
:100A9000090658BF22EA0906CEF800604AE700BFFF
:100AA00003B000F000B830BCBDE8C08F1823002AA6
:100AB00008BF2823C150704743F69840C2F2000097
:100AC0000068704790F84120202A03D190F8402018
:100AD000012A01D102207047242280F841200268B7
:100AE000136823F001031360136823F48053136029
:100AF000136819431160116841F001011160202150
:100B000080F84110002180F840100020704700005C
:100B100090F84120202A03D190F84020012A01D1E9
:100B200002207047242280F841200268136823F0D5
:100B300001031360136823F4706343EA0121116019
:100B4000116841F001011160202180F8411000215D
:100B500080F8401000207047002804BF0120704733
:100B600010B590F8411031B9002180F840100446CA
:100B700000F03EFA2046242180F8411090E812103F
:100B8000C3680A68012B22F001020A6024F0706237
:100B90000A618A6822F400428A6003D14CF4004260
:100BA0008A6007E04CF40442022B8A6004BF4FF4D1
:100BB00000624A604A6800F1100C42F0007242F490
:100BC00000424A60CA6822F40042CA609CE81C10D5
:100BD0001A4342EA0422CA60026A42EA0C020A602C
:100BE0000A6842F001020A6000212022416480F874
:100BF0004120016380F84210002010BD2DE9F04F24
:100C000081B0044690F84100202803D194F84000B8
:100C1000012803D1022001B000F0EAB801200E46FD
:100C20001746984684F84000FFF746FF21680546BE
:100C30008A6912040AD500BFFFF73EFF401B19283E
:100C400000F2C680216888690004F5D4222284F865
:100C50004120102284F84220002262646762A4F8D6
:100C60002A806263628D49F6000040F20008CFF6E8
:100C70000040C0F2FF18B2F5807F6FF39F2609D3C2
:100C80004A6802403243424402F510524A60FF2251
:100C90000BE000BF628D4F68D3B246EA03430740C2
:100CA0003B4308F592373B434B602285618D0A9F99
:100CB00000295DD006F1007907F1010A00F5806B8B
:100CC0000DE000BF618D21854268C9B249EA01414A
:100CD00002EA0B0211434160608D002848D0204693
:100CE00039462A4601F082FF00285DD12068616AFA
:100CF000406A0870606A218D01306062481E20855C
:100D0000618D01396185618D0029E5D00004E3D151
:100D10002068816909060FD4BAF1000F1AD0002F9C
:100D200054D000BFFFF7C8FE401BB84250D820681F
:100D300081690906F6D500BF618DB1F5807FC1D309
:100D4000FF212185416801EA0B01314341EA080195
:100D5000C1E700BF81690906EED4816909065CBF5D
:100D600081695FEA0161E7D481690906F2D5E3E7A9
:100D700087B100BF20688169890619D420463946A9
:100D80002A4601F087FE78B9FFF796FE401BB8426D
:100D9000F0D91DE020688169890609D42046002128
:100DA0002A4601F077FE88B1012001B000F020B89A
:100DB0002021C16142684EF60003CFF600631A405D
:100DC0004260002084F841100AE000BFFFF774FE83
:100DD000606C40F020006064202084F84100012015
:100DE000002184F8421084F8401001B000F000B8EF
:100DF00030BCBDE8C08F00002DE9F04F81B0044643
:100E000090F84100202803D194F84000012803D134
:100E1000022001B000F0E8B801200E4617469846BF
:100E200084F84000FFF748FE216805468A691204ED
:100E30000AD500BFFFF740FE401B192800F2C4800E
:100E4000216888690004F5D4212284F84120102209
:100E500084F84220002262646762A4F82A806263F8
:100E6000628D49F6000040F20008CFF60040C0F263
:100E7000FF18B2F5807F6FF39F2609D34A680240BE
:100E80003243424402F500524A60FF220BE000BFA9
:100E9000628D4F68D3B246EA034307403B4308F5EF
:100EA00090373B434B602285628D0A9F002A5BD0BE
:100EB00006F1007907F1010A00F5806B0DE000BF33
:100EC000608D20854A68C0B249EA004002EA0B0200
:100ED00010434860608D002846D0204639462A4697
:100EE00001F0E2FE00285AD1606A216810F8012B57
:100EF0008A626062608D01386085208D01382085AE
:100F0000628D002AE6D00004E4D1886900060FD47F
:100F1000BAF1000F1AD0002F54D000BFFFF7CCFD5C
:100F2000401BB84250D8216888690006F6D500BF3A
:100F3000608DB0F5807FC3D3FF202085486800EA2C
:100F40000B00304340EA0800C3E700BF8869000691
:100F5000EED4886900065CBF88695FEA0060E7D468
:100F600088690006F2D5E3E787B100BF2168886988
:100F7000800619D4204639462A4601F08BFD70B907
:100F8000FFF79AFD401BB842F0D91DE08869800642
:100F90000AD4204600212A4601F07CFD90B10120B0
:100FA00001B000F021B800BF2020C8614A684EF6A9
:100FB0000003CFF600631A404A6084F84100002025
:100FC0000AE000BFFFF778FD606C40F0200060642D
:100FD000202084F841000120002184F8421084F888
:100FE000401001B000F000B830BCBDE8C08F000078
:100FF00010B586B0006845F20041C4F20001884295
:101000004FF000000590CDE90300CDE9010001D0CB
:1010100006B010BD41F24C04C4F20204206801A9DC
:1010200040F002002060206800F00200009000986C
:10103000C020019012200290012003900320049010
:101040000420059040F20040C4F60000FFF752FC77
:10105000E06840F40010E060E06800F400100090E8
:10106000009806B010BD000040F2000043F6984121
:10107000C2F20000C2F2000100780A681044086061
:101080007047000080B5032000F08CF80F2000F0BE
:1010900009F800281CBF012080BD00F02BF80020BB
:1010A00080BD0000B0B540F20005C2F2000529780D
:1010B000F1B1044640F20800C2F200004FF47A7227
:1010C0000068B2FBF1F1B0FBF1F001F04FF801461E
:1010D0000F2C4FF001000AD8002918BFB0BD4FF007
:1010E000FF302146002200F031F800206C60B0BDD6
:1010F0000120B0BD82B041F25800C4F20200816804
:1011000041F001018160816801F0010101910199C3
:10111000016841F080510160006800F0805000904B
:10112000009802B070470000002848BF704700F0E8
:101130001F01012202FA01F11C2202EAD0004EF244
:101140000012CEF2000281507047000010B54EF63A
:101150000C5CCEF2000CDCF80030C3F3022E8EF0F3
:101160000704042C28BF0424BEF103034FF0FF3E04
:101170000EFA04F438BF0023A14399400EFA03F39A
:101180009A43114300F00F0200F160430901043A51
:1011900003F564436244002848BF02F10C03197050
:1011A00010BD00004EF60C51CEF200010A684FF659
:1011B000FF031A4060F30A2242F0806040F0FD70A5
:1011C0000860704747F20001C4F200010A68B0F5F8
:1011D000007F02F4C06031D1B0F5007F2CD00868E8
:1011E000012262F34A20086040F20800C2F20000C7
:1011F0000068322250434DF68362C4F21B32A0FBDA
:101200000202900C4A69520511D5421C0FD04A695E
:1012100052050CD558B14A69520508D5012806D0A7
:101220004A69520503D50228A0F10400EAD14869B1
:10123000400544BF0320704700207047B0F5806F21
:10124000FAD00868022262F34A2008600020704742
:1012500047F20000C4F20000006800F4C06070476C
:1012600047F20000C4F20000016841F4807101609F
:101270007047000041F20000C4F20200016841F032
:1012800004010160704700002DE9F04381B000289F
:1012900000F08C8042F20009C4F202090446D9F839
:1012A000000000F0070081420CD9D9F8000020F0BE
:1012B00007000843C9F80000D9F8000000F0070053
:1012C000884273D1206841F2080610F00202C4F28D
:1012D00002060AD0A368376807F0F007BB4204D9BA
:1012E000376827F0F0073B433360C30734D06068AA
:1012F00056F8082C50B1022804D003280AD19201D4
:101300000AD453E0920307D450E000BF920703D4FD
:101310004CE000BF520549D58846316821F00301F1
:1013200008433060FFF7C8FB054641F2883700BF2D
:101330003068616800F00C00B0EB810F08D0FFF757
:10134000BBFB401BB842F3D9032001B0BDE8F083DA
:101350002068414600F0020252B1A268336803F0EF
:10136000F0039A4204D2336823F0F0031A43326048
:10137000D9F8002002F0070291420CD2D9F80020DF
:1013800022F007020A43C9F80020D9F8002002F031
:1013900007028A420AD141070CD4000712D43068F0
:1013A000716810F00C0019D11EE000BF012001B0DF
:1013B000BDE8F0833168E26821F4E06111433160F7
:1013C0000007ECD53068216920F4605040EAC10084
:1013D00030603068716810F00C0005D00C282BD1FB
:1013E00001F00301012927D156F8081C042211F04D
:1013F00008016FF0070108BF8C21715808BF08224F
:10140000D14046F6940201F00F01C0F6000252F8F6
:10141000211000280A4618BF00220C2838D1706815
:1014200000F00300022811D0032804BF41F200217C
:10143000C0F27A010EE000BF04281FD0082823D193
:1014400041F20022C0F27A0222E000BF42F20041E3
:10145000C0F2F40170687268C0F30210C2F3062291
:10146000514372680130B1FBF0F0C2F341610222D6
:1014700002EB4101B0FBF1F20AE000BF42F2004290
:10148000C0F2F40204E000BF002200210C28C6D004
:10149000306846F67B01C0F30310C0F60001085C1B
:1014A00000F01F0022FA00F140F20400C2F2000036
:1014B00040F208020068C2F20002116001B0BDE80B
:1014C000F043FFF7EFBD000040F2080041F20801D1
:1014D000C2F20000C4F202010068096846F68B02FD
:1014E000C1F30221C0F60002515C01F01F01C840A7
:1014F0007047000040F2080041F20801C2F200000B
:10150000C4F202010068096846F68B02C1F3C221E9
:10151000C0F60002515C01F01F01C8407047000096
:1015200041F20C01C4F2020151F8040C10F00C025B
:10153000086805D00C2A2BD100F00300012827D120
:1015400051F80C0C042310F008006FF00B0008BFDA
:101550008820085808BF0823D84046F6940300F0B6
:101560000F00C0F6000353F82030002A184618BFB9
:1015700000200C2A18BF7047086800F003000228FA
:1015800010D0032804BF41F20023C0F27A030DE01B
:10159000042A1FD0082A23D141F20020C0F27A0089
:1015A000704700BF42F20043C0F2F40308680A68C3
:1015B000C0F30210C2F30622096801305A43B2FB9D
:1015C000F0F0C1F34161022202EB4101B0FBF1F006
:1015D000704700BF42F20040C0F2F400704700BF05
:1015E00000200023C5E70000002804BF0120704749
:1015F0002DE9F04383B041F200060446C4F202062E
:10160000B068F168227800F00C09D00601F00308F8
:101610001ED42078C00700F08880B9F1080F00F0D0
:101620007D80B9F10C0F08BFB8F1030F76D0616867
:101630003068B1F5803F07D0B1F5A02F40F052825D
:1016400040F480203060306840F48030306053E2F5
:10165000B9F1000F1CD0B9F10C0F08BFB8F1010FA0
:1016600016D0A1693068002900F0A08140F0010087
:101670003060FFF721FA05463068800700F1A88145
:10168000FFF71AFA401B02284FF00300F4D960E379
:101690003068800703D5A069002800F00F83256A11
:1016A0003068000700F14A81D6F89400000900F084
:1016B000F000854200F248813068B9F1000F40F037
:1016C00008003060306820F0F00040EA050030602B
:1016D0007068E16920F47F4040EA0120706040F0CA
:1016E000B882B06DC00000F15582B06D40F08050FE
:1016F000B065B06D00F0805002900298FFF7A8FD31
:10170000B16D21F08051B165B0F5007F00F04882E5
:10171000802D40F2858203208DE200BF3068800377
:1017200003D56068002800F0C982207880072DD595
:10173000B9F1040F1CD0B9F10C0F08BFB8F1020FBA
:1017400016D0E1683068002900F0E68140F480702E
:101750003060FFF7B1F90546306840050FD4FFF758
:10176000ABF9401B02284FF00300F5D9F1E200BFAE
:101770003068400503D5E068002800F09F8270685B
:10178000216920F0F85040EA01607060207800077D
:1017900060D42078400779D42078800600F1B280A8
:1017A000A06A002800F01683022840F02381F06828
:1017B000E16A00F003028A4240F03481226B6FF04C
:1017C0000F0300F0700103EB0212914240F02A81F6
:1017D000616B00F4FE42B2EB012F40F02381A16B5C
:1017E00000F07842B2EBC16F40F01C81E26B002345
:1017F000CFF6E07303EA025200F4C001A2F5001232
:10180000914240F00F81216C4FF07E4202EA01616B
:1018100000F0C06001F17E41884240F003813068F1
:10182000800100F1D782306840F080703060F0684D
:1018300040F08070F060FFF73FF9044630688001A7
:1018400000F1C882FFF738F9001B02284FF00300AF
:10185000F4D97EE26169D6F89400002900F0908006
:1018600040F00100C6F89400FFF726F9054600BFD6
:10187000D6F8940080078CD4FFF71EF9401B02288D
:10188000F6D9032003B0BDE8F08300BFB06D5FEA76
:10189000C00808D4B06D40F08050B065B06D00F065
:1018A00080500090009847F20007C4F200073868A3
:1018B000C00513D4386840F480703860FFF7FCF836
:1018C000054600BF3868C00508D4FFF7F5F8401B8F
:1018D00002284FF00300F5D93BE200BFA168D6F81B
:1018E0009000012908D0052940F0DC8040F0040078
:1018F000C6F89000D6F8900040F00100C6F89000BD
:10190000DCE000BF616AD6F89800002900F0B480DE
:1019100040F00100C6F89800FFF7CEF8054600BF7A
:10192000D6F8980080073FF53BAFFFF7C5F8401B9E
:1019300002284FF00300F3D90BE200BF306800F03B
:10194000F00085427FF6B8AEB06DC00000F1868031
:10195000B06D40F08050B065B06D00F080500190E7
:101960000198FFF775FCB16D21F08051B165B0F5BC
:10197000007F79D0802D40F2E1800320E9E000BFB4
:1019800020F00100C6F89400FFF796F8054600BF66
:10199000D6F8940080077FF5FCAEFFF78DF8401B6A
:1019A00002284FF00300F3D9D3E100BF20F001007B
:1019B0003060FFF781F80546306880077FF529AE73
:1019C000FFF77AF8401B02284FF00300F4D9C0E17A
:1019D000306840F0080030603068D4E9071220F029
:1019E000F00010433060706820F47F4040EA01202E
:1019F00070600EE6B9F10C0F00F06081306820F0E5
:101A000080703060FFF758F8044600BF30688001EE
:101A100040F1EA80FFF750F8001B02284FF0030066
:101A2000F4D996E1B9F10C0F00F04881306840011B
:101A300000F14481306820F080703060FFF73CF89E
:101A4000054600BF3068800140F18681FFF734F819
:101A5000401B02284FF00300F4D97AE1FFF7F8FBAE
:101A6000B0F5007F7FF486AF812D71D30120A02DCA
:101A700088BF02206DE000BF20F00100C6F898008A
:101A8000FFF71AF8054600BFD6F8980080077FF5E3
:101A900087AEFFF711F8401B02284FF00300F3D97F
:101AA00057E100BF20F00100C6F89000D6F8900082
:101AB000002920F00400C6F8900079D0FEF7FCFF62
:101AC000054641F2883700BFD6F89000800700F144
:101AD0008180FEF7F1FF401BB842F5D9032003B027
:101AE000BDE8F08320F4803030603068002920F4B5
:101AF0008020306000F08480FEF7DEFF054600BFE6
:101B0000306880033FF511AEFEF7D6FF401B642816
:101B10004FF00300F4D91CE120F480703060FEF730
:101B2000CBFF0546306840057FF530AEFEF7C4FFB9
:101B3000401B02284FF00300F4D90AE1A5F1700020
:101B4000B0FA80F04009802D08BF022001E000BFFC
:101B5000002042F20001C4F202010A6822F00702EA
:101B600002440A60096801F00701814240F0A68042
:101B7000306840F0080030603068D4E9071220F087
:101B8000F00010433060706820F47F4040EA01208C
:101B900070605EE0FFF75CFBB0F5007F7FF4B8ADEE
:101BA000812D47D30120A02D88BF022043E000BF34
:101BB000FEF782FF054641F2883700BFD6F8900055
:101BC000800707D5FEF778FF401BB8424FF00300AF
:101BD000F4D9BEE0B8F1000F3FF5DEADB06D20F0F6
:101BE0008050B065D8E500BFF0684FF6FC71CFF6C5
:101BF000EE610840F060002003B0BDE8F08300BF54
:101C0000FEF75AFF054600BF306880037FF58DADB3
:101C1000FEF752FF401B64284FF00300F4D998E010
:101C2000A5F17000B0FA80F04009802D08BF0220B5
:101C300001E000BF002042F20001C4F202010A6884
:101C400022F0070202440A60096801F0070181429C
:101C500034D1B068F16810F00C0005D00C2831D1F7
:101C600001F0030101292DD1314651F8942B12F0D6
:101C70000802324608BF0A464FF00401126808BF46
:101C8000082122FA01F146F6940201F00F01C0F694
:101C9000000252F8211000280A4618BF00220C2822
:101CA0003CD1F06800F00300022815D0032804BFDF
:101CB00041F20021C0F27A0112E000BF012003B01E
:101CC000BDE8F08304281FD0082823D141F2002268
:101CD000C0F27A0222E000BF42F20041C0F2F401F9
:101CE000F068F268C0F30210C2F306225143F268B2
:101CF0000130B1FBF0F0C2F34161022202EB41017D
:101D0000B0FBF1F20AE000BF42F20042C0F2F4027E
:101D100004E000BF002200210C28C2D0B06846F6C3
:101D20007B01C0F30310C0F60001085C00F01F0047
:101D300022FA00F140F20400C2F2000040F2080270
:101D40000068C2F200021160FFF7ACF900283FF40E
:101D500060AC03B0BDE8F083F06848F28C01C0F2DB
:101D60009D1104F12C0700EA010C8ECF6FF00F00DB
:101D7000D4E90F5400EB02100022CFF6E07241EAE2
:101D80000C0102EA05520843A2F500124FF07E450D
:101D900040EA032005EA0465104305F17E4540EA68
:101DA000C7602843F060306840F080703060F068B1
:101DB00040F08070F060FEF77FFE044630688001DE
:101DC00008D4FEF779FE001B02284FF00300F5D976
:101DD000BFE700BF002003B0BDE8F083002804BFC8
:101DE00001207047416A19B100210161142104E00A
:101DF0004168B1F5827F02D01C2100224250B0B56B
:101E00000025856290F85D1029B980F85C50044681
:101E100000F052F82046022180F85D100168D0F8E9
:101E20000CE00B68BEF5E06F23F040030B6098BF39
:101E300001254EF40063B3F5706F4FEA053C1CBFFB
:101E400000258562D0E90154D0E9043205F4827599
:101E500004F404442C4403F002032344846902F094
:101E60000102C5691A4404F400731A4405F03803EA
:101E7000056A1A4405F08003856A1A4405F4005384
:101E80001A430A600422436A0EF4706502EA14429F
:101E9000446B45EA0C0503F010032A4304F00804E0
:101EA0001A4322434A6000210122016680F85D2026
:101EB000BDE8B0400846704780B586B0006843F280
:101EC0000002C4F2010200219042CDE90411CDE9E3
:101ED0000211019102D006B080BD00BF41F24C005A
:101EE000C4F20200426942F480524261426902F443
:101EF00080520092009A026842F00102026000687B
:101F000000F0010000900098A02001900220CDE98F
:101F10000201032004900520059001A94FF0904094
:101F2000FEF7E8FC06B080BD2DE9F04381B0044621
:101F300090F85C00012803D1022001B0BDE8F083D5
:101F40004FF001081D460F46164684F85C80FEF7E8
:101F5000B3FD94F85D10012948D18146002F4FF060
:101F6000010018BF002E00F0D9800320002284F861
:101F70005D002266A763A687E6872264A4F8442052
:101F8000A4F84620A0683146B0F5004F2068E2640E
:101F9000226507D1026822F040020260026842F422
:101FA000804202600268520603D4026842F0400296
:101FB000026062680139E368B2FA82F2B1FA81F133
:101FC00052094909B3F5E06F41EA02013ED931B146
:101FD00037F8021BC160A763E08F0138E087E08F0C
:101FE000002871D0681C0ED11FE000BF022095E0D0
:101FF000A16B31F8022BC260A163E08F0138E0874A
:10200000E08F002860D0206881688907F0D4FEF74F
:1020100053FDA0EB0900A842F2D303207EE000BFED
:10202000FEF74AFDE08F00284ED0206881688907BE
:10203000F6D5A16B31F8022BC260A163E08F0138A5
:10204000E087E08F0028F0D13EE000BF89B1E18F4A
:1020500002294FF6FE7103D337F8022BC26004E069
:102060003A7801310273A06B471CA763E08F0844E4
:10207000E087E08F40B3681C5DD04FF6FE70471CD0
:1020800008E000BFFEF718FDA0EB0900A842C4D28B
:10209000E08FC8B1216888688007F3D5E28FA06B14
:1020A000022A05D330F8022BCA604FF6FE7104E015
:1020B00000780873A06B39460130A063E08F0844B4
:1020C000E087E08F0028E5D120464FF4C0512A4632
:1020D0004B4600F033FE68B9204629464A4600F0D8
:1020E000EDFE38B920464FF4C0612A464B4600F059
:1020F00025FE28B1206E40F02000206620202066BA
:10210000A06838B9002000902068C16800918068FC
:1021100000900098206E002818BF0120002184F84C
:102120005D8084F85C1001B0BDE8F083FEF7C4FC6C
:10213000E08F0028C8D0206881688907F6D5E28F33
:10214000A16B012A08D931F8022BC260A163E08F8C
:102150000238E087ECE700BF09780173A06B01301B
:10216000A063E08F0138E087E2E70000411E002015
:10217000B0EB116F1CBF012070474EF21002CEF27F
:10218000000251604EF62351CEF20001F0230B7095
:102190000721906011607047704700007047000091
:1021A0007047000070B5016840F62F03CA690E68D9
:1021B0008C681340202B06F0200E07D1BEF1000FD3
:1021C00004D0416E41B3BDE87040084740F60F03AC
:1021D0001A4209D040F22013C0F2004304F0010C6F
:1021E000334013EB0C0325D1036ED50616D5012B16
:1021F00014D116F0100311D010220A628968490622
:1022000030D4B0F85810B0F85A20B0F85A30002B3B
:1022100018BF914240F02E8270BD00BFD30213D58B
:1022200014F4800310D04FF480120A62BDE87040AD
:10223000FFF7B4BFD30718BF16F4807340F0CC800B
:10224000930700F1D380DCE0110640F1D98116F04C
:10225000800100F0D581816E0029DDD0BDE870409D
:10226000084700BF016F0A6853689CB2002CD3D0A6
:10227000B0F858108C42CFD2A0F85A3012689206AB
:1022800000F1A280016851E8001F026821F480710A
:1022900042E80013DBB1016851E8001F026821F435
:1022A000807142E8001393B1016851E8001F026891
:1022B00021F4807142E800134BB1016851E8001F1E
:1022C000026821F4807142E80013002BDAD1016822
:1022D00051E8021F026821F0010142E80213C3B372
:1022E000016851E8021F026821F0010142E802136F
:1022F0007BB3016851E8021F026821F0010142E846
:10230000021333B3016851E8021F026821F0010192
:1023100042E80213002BDAD11BE000BF016851E84C
:10232000021F026821F0400142E80213DBB101689C
:1023300051E8021F026821F0400142E8021393B104
:10234000016851E8021F026821F0400142E80213CF
:102350004BB1016851E8021F026821F0400142E8D8
:102360000213002BDAD12021C16700210166016828
:1023700051E8001F026821F0100142E80013DBB1B0
:10238000016851E8001F026821F0100142E80013C3
:1023900093B1016851E8001F026821F0100142E882
:1023A00000134BB1016851E8001F026821F01001D1
:1023B00042E80013002BDAD1016F04460846FEF70D
:1023C00035FAB4F858102046B0F85A20891A89B264
:1023D000BDE87040FFF7E0BE01230B62D0F880300B
:1023E00043F00103C0F8803093070AD5BCF1000F19
:1023F00007D002230B62D0F8803043F00403C0F80A
:10240000803053070AD5BCF1000F07D004230B62BC
:10241000D0F8803043F00203C0F8803013070AD5AB
:102420005CEA0E0307D008230B62D0F8803043F03B
:102430000803C0F8803013050BD516F0806308D070
:102440004FF400630B62D0F8803043F02003C0F8F3
:102450008030D0F88030002B3FF4DEAE920608D5F5
:10246000BEF1000F05D0426E1AB1044690472168B4
:102470002046D0F88020896802F0280201F040014F
:10248000891807D10446FFF78BFE0020C4F88000AE
:1024900070BD00BF016851E8001F026821F490710F
:1024A00042E80013BBB3016851E8001F026821F441
:1024B000907142E8001373B3016851E8001F02688D
:1024C00021F4907142E800132BB3016851E8001F1A
:1024D000026821F4907142E80013002BDAD11AE06F
:1024E000016851E8021F026821F0010142E802136D
:1024F000DBB1016851E8021F026821F0010142E8E6
:10250000021393B1016851E8021F026821F0010132
:1025100042E802134BB1016851E8021F026821F042
:10252000010142E80213002BDAD1016E012924D106
:10253000016851E8001F026821F0100142E8001311
:10254000DBB1016851E8001F026821F0100142E888
:10255000001393B1016851E8001F026821F01001D7
:1025600042E800134BB1016851E8001F026821F0F6
:10257000100142E80013002BDAD12021C1670021AD
:10258000016602684166916849066FD5016851E8A5
:10259000021F026821F0400142E80213DBB101682A
:1025A00051E8021F026821F0400142E8021393B192
:1025B000016851E8021F026821F0400142E802135D
:1025C0004BB1016851E8021F026821F0400142E866
:1025D0000213002BDAD1016F002947D043F23512E4
:1025E000C0F60002044608468A63FEF745F9002853
:1025F0003FF412AE206F816BBDE87040084700BF0A
:1026000051067FF509AE16F0400108BF70BD00BF4E
:10261000016851E8001F026821F0400142E8001300
:10262000DBB1016851E8001F026821F0400142E877
:10263000001393B1016851E8001F026821F04001C6
:1026400042E800134BB1016851E8001F026821F015
:10265000400142E80013002BDAD1202181670021DC
:102660008166BDE8704000F011BA00BFBDE870405F
:10267000FFF796BD891A00BF026852E8002F036871
:1026800022F4907243E80026BEB3026852E8002F9D
:10269000036822F4907243E8002676B3026852E899
:1026A000002F036822F4907243E800262EB30268DC
:1026B00052E8002F036822F4907243E80026002EAF
:1026C000DAD11AE0026852E8022F036822F0010210
:1026D00043E80226DEB1026852E8022F036822F0C6
:1026E000010243E8022696B1026852E8022F03680D
:1026F00022F0010243E802264EB1026852E8022F9E
:10270000036822F0010243E80226002EDAD12022DB
:10271000C267002202664266026852E8002F036820
:1027200022F0100243E80026DEB1026852E8002FD2
:10273000036822F0100243E8002696B1026852E8CE
:10274000002F036822F0100243E800264EB1026811
:1027500052E8002F036822F0100243E80026002E02
:10276000DAD189B2BDE87040FFF716BD002804BF7A
:1027700001207047B0B582B00446806F28B90020B0
:1027800084F87400204600F059F82420A0672068DF
:10279000016821F001010160204600F01BFE18B124
:1027A000012002B0B0BD00BF606A10B1204600F049
:1027B0004DFC2068416821F490414160816821F01E
:1027C0002A018160016841F0010101600020C4F824
:1027D0008000FEF771F9216805460A68120710D5D6
:1027E0006FF07E4C20464FF4001100222B46CDF8AE
:1027F00000C000F0B9FF18B1032002B0B0BD00BFA7
:102800002168086840070FD56FF07E4C20464FF4D2
:10281000800100222B46CDF800C000F0A5FF18B1C2
:10282000032002B0B0BD00BF2020A067E0670020F9
:10283000206684F8740002B0B0BD000010B586B008
:10284000006844F20041C4F2000188424FF00000E9
:102850000590CDE90300CDE9010001D006B010BD1F
:1028600041F24C04C4F20204206801A940F00100C6
:102870002060206800F00100009000980C2001907A
:10288000022002900120039003200490072005906D
:102890004FF09040FEF72EF8E068052140F400303C
:1028A000E060E068002200F40030009000982620EC
:1028B000FEF74CFC2620FEF737FC06B010BD0000EA
:1028C000C36F202B0CD100294FF0010318BF002A41
:1028D00002D11846704700BF90F87430012B03D125
:1028E00002231846704700BF80B5012380F874307A
:1028F00000230366D0F800C048F20003C4F20003CE
:102900009C4503D0DCF804301B0203D400F070FEB9
:10291000002080BD036853E800CFD0F800E04CF001
:1029200080634EE8003CBCF1000FEFD0036853E831
:1029300000CFD0F800E04CF080634EE8003CBCF1E2
:10294000000FE3D0036853E800CFD0F800E04CF06C
:1029500080634EE8003CBCF1000FD7D0036853E819
:1029600000CFD0F800E04CF080634EE8003CBCF1B2
:10297000000FCFD1CAE70000016844F20042C4F260
:102980000002914218BF7047F0B540F27801C2F2E0
:1029900000010A780D2A6FD00A2A61D10A7901F163
:1029A0002C034FF0000C162A03F802C055D191F801
:1029B0002C20542A51D191F82D203A2A4DD191F84A
:1029C00032202D2A49D191F835202D2A45D191F870
:1029D0003820202A41D191F83B203A2A3DD191F864
:1029E0003E203A2A39D191F8392091F83A3002EB59
:1029F000820203EB4202A2F1100E5FFA8EF2172A56
:102A00002BD891F83C2091F83D3002EB820203EB89
:102A10004202103AD3B23B2B1FD891F83F3091F8C5
:102A2000404003EB830304EB4303103BDCB23B2C3D
:102A300013D8CC8E40F20C05C2F20005D1F82E60FE
:102A4000D1F832702C810024C5E90067AC7281F89E
:102A500001E08A700122CB704A7181F804C00BE05A
:102A60000B791E2B06D85F1C0F71194481F82C209E
:102A700002E000BF00220A7140F27801C2F20001B8
:102A80000122BDE8F040FFF71BBF000070470000C7
:102A9000FEE700002DE9F04381B003680446986921
:102AA000C00605D4002000219A69D70560D465E0EE
:102AB0001020D8619869800653D48846481C46D0B7
:102AC00016464FF02009002506E000BF0027986950
:102AD00000F02000384335D1FDF7EEFF2368B8F150
:102AE000000F02D0801B4045F0D9596894F842008D
:102AF0009A6912040CD511F4804109D1202807D01D
:102B0000586840F480405860FDF7D6FF23680646B9
:102B10009869002702E000BF236898698006D6D430
:102B2000FDF7CAFF801B1A28F6D3606C012740F01E
:102B30002000606484F8419084F8425084F840504A
:102B4000EAE700BF7FB90CE09869800609D498696C
:102B5000800606D4986980065CBF98695FEA806049
:102B6000F2D52020D861012104209A69D70505D526
:102B70004FF4807140F00100D9610121570507D45D
:102B800092050BD479B9002001B0BDE8F08300BFF5
:102B900008304FF480619205D96104D540F00200FD
:102BA0004FF40071D9619969890744BF0021996286
:102BB0009969C90703D1996941F00101996159687F
:102BC0004EF60002CFF6006211405960616C084376
:102BD0006064202084F84100002084F8420084F8DA
:102BE0004000012001B0BDE8F083000070B515463B
:102BF000044609B30E4600BF20688069400734D4FC
:102C0000204631462A46FFF745FFF8B9206881691A
:102C1000890625D4FDF750FF401BB042ECD9606C0B
:102C200040F020006064202084F84100002084F8F7
:102C30004000012070BD00BF20688069400714D4A7
:102C4000204600212A46FFF725FF08B1012070BD6C
:102C500020688169890603D4FDF72EFFDFE700BFF6
:102C60008169490704D5218D11B1002070BD00BFD5
:102C700082694EF60006D2064FF0000242BF1022D3
:102C8000C261042262642022C2614368CFF60066FA
:102C900000213340436084F8412084F84210002032
:102CA00084F84000012070BD70B50446006880695A
:102CB000800710D415460E4611B3701C17D100BF03
:102CC00020464FF0FF312A46FFF7E4FEF0B92068B6
:102CD00080698007F4D5002070BD00BFFDF7ECFED1
:102CE000401BB04216D8206880698007F3D4204684
:102CF00031462A46FFF7CEFE0028EFD006E000BF9F
:102D0000204600212A46FFF7C5FE08B1012070BD0C
:102D1000FDF7D2FE606C40F020006064202084F853
:102D20004100002084F8420084F84000012070BD7A
:102D3000FEE70000FEE70000704700002DE9F047C5
:102D400082B000261F4690460D4681468DF80360EE
:102D5000FDF7B2FE381A00EB0807FDF7ADFE40F2B2
:102D60000801C2F20001096823225143090DD9F874
:102D7000004079430191A168294235D0824618F17B
:102D8000010035D0B5F5C06F1AD100BF207B8DF89A
:102D900003009DF80300FDF78FFEA0EB0A00B84288
:102DA0005ED2019801990028A1F101010191D9F8A1
:102DB0000010896808BF074611F4C06FE6D112E021
:102DC000FDF77AFEA0EB0A00B84249D201980199BA
:102DD0000028A1F101010191D9F80010896808BF0C
:102DE00007462942ECD10026304602B0BDE8F08704
:102DF0000026B5F5C06F25D1207B8DF803009DF826
:102E00000300A06810F4C06FEDD0207B8DF80300A4
:102E10009DF80300A06810F4C06FE4D0207B8DF80B
:102E200003009DF80300A06810F4C06FDBD0207B86
:102E30008DF803009DF80300A06810F4C06FDBD18B
:102E4000D2E700BFA0682842CDD0A0682842CAD0EF
:102E5000A0682842C7D0A0682842F3D1C4E700BFC9
:102E6000D9E900014268B1F5827F22F0E0024260B8
:102E70000BD1D9F80810B1F5004F02D0B1F5806F31
:102E800003D1016821F040010160D9F82810B1F5A3
:102E9000005F07D1016821F400510160016841F42D
:102EA00000510160012089F85D00002089F85C0074
:102EB0000326304602B0BDE8F0870000F0B581B0CF
:102EC00015460E460446FDF7F7FD281A8719FDF74B
:102ED000F3FD40F20801C2F200010968C1F3CB31F1
:102EE0007943009121688A68120622D50546701C34
:102EF00015D000BFFDF7E0FD401BB8421CD2009882
:102F000000990028A1F1010100912168896808BF9A
:102F100007460806EED40CE08868000609D58868E4
:102F2000000606D58868000644BF88685FEA00602E
:102F3000F2D4002001B0F0BDD4E900014268B1F53F
:102F4000827F22F0E00242600AD1A168B1F5004F11
:102F500002D0B1F5806F03D1016821F0400101601A
:102F6000A16AB1F5005F07D1016821F40051016049
:102F7000016841F400510160012084F85D000020E7
:102F800084F85C00032001B0F0BD00007047000031
:102F9000FEF76AB810B596B005A84421FDF74FFBBF
:102FA00000244FF400700494CDE90244CDE90044BC
:102FB000FEF708F920B1EFF3108072B6FEE700BF0C
:102FC000FEF74EF941F29000C4F20200016821F0D0
:102FD0001801016014206021059001200D9102214B
:102FE0000790CDE90B04CDE90F1011902820129025
:102FF0000720CDE9130105A81591FEF7F5FA28B1D0
:10300000EFF3108072B600BFFEE700BF0F20009004
:10301000032001900020CDE90200049068460421BD
:10302000FEF732F920B1EFF3108072B6FEE700BF71
:10303000FEF720F916B010BD4EF68850CEF2000013
:10304000016841F47001016070470000416ACA07DD
:103050000CD18A0715D44A071ED40A0727D4CA06FA
:1030600030D48A0639D44A0642D457E00268D0F8F0
:1030700028C0536823F4003343EA0C0353608A07E3
:10308000E9D50268D0F82CC0536823F4803343EAB2
:103090000C0353604A07E0D50268D0F830C053688B
:1030A00023F4802343EA0C0353600A07D7D5026850
:1030B000D0F834C0536823F4004343EA0C03536050
:1030C000CA06CED50268D0F838C0936823F480537E
:1030D00043EA0C0393608A06C5D50268D0F83CC069
:1030E000936823F4005343EA0C0393604A0615D512
:1030F000D0F800C0036CDCF80420B3F5801F22F484
:10310000801242EA0302CCF8042007D1DCF8042044
:10311000436C22F4C0021A43CCF80420090658BFBD
:1031200070470168806C4A6822F4002210434860AE
:1031300070470000806A0021A0F85A10A0F85210D1
:10314000FFF72EB8B0F85C200168C36F222B40F067
:103150009780898C436D114023F8021B4365B0F8BA
:103160005A100139A0F85A10B0F85A10002918BFA7
:10317000704700BF016851E8001F026821F4907198
:1031800042E80013E3B1016851E8001F026821F42E
:10319000907142E800139BB1016851E8001F02687A
:1031A00021F4907142E8001353B1016851E8001F07
:1031B000026821F4907142E80013002BDAD100BFBD
:1031C000016851E8021F026821F0010142E8021380
:1031D000DBB1016851E8021F026821F0010142E8F9
:1031E000021393B1016851E8021F026821F0010146
:1031F00042E802134BB1016851E8021F026821F056
:10320000010142E80213002BDAD12021C16700211D
:103210004166026E012A18BFFFF7AEBB016600BF10
:10322000016851E8001F026821F0100142E8001314
:10323000DBB1016851E8001F026821F0100142E88B
:10324000001393B1016851E8001F026821F01001DA
:1032500042E800134BB1016851E8001F026821F0F9
:10326000100142E80013002BDAD10168CA69D206C6
:1032700044BF10220A62B0F85810FEF78DBF00BF9D
:10328000088B40F00800088370470000B0F85C101D
:103290000268C36F222B40F09780928C436D1140DF
:1032A0001970416D01314165B0F85A100139A0F82B
:1032B0005A10B0F85A10002918BF7047016851E839
:1032C000001F026821F4907142E80013E3B1016825
:1032D00051E8001F026821F4907142E800139BB18D
:1032E000016851E8001F026821F4907142E8001360
:1032F00053B1016851E8001F026821F4907142E85F
:103300000013002BDAD100BF016851E8021F0268E8
:1033100021F0010142E80213DBB1016851E8021F0C
:10332000026821F0010142E8021393B1016851E8FB
:10333000021F026821F0010142E802134BB101684B
:1033400051E8021F026821F0010142E80213002B3C
:10335000DAD12021C16700214166026E012A18BF1F
:10336000FFF70ABB016600BF016851E8001F026851
:1033700021F0100142E80013DBB1016851E8001FA1
:10338000026821F0100142E8001393B1016851E88E
:10339000001F026821F0100142E800134BB10168E0
:1033A00051E8001F026821F0100142E80013002BD1
:1033B000DAD10168CA69D20644BF10220A62B0F8A5
:1033C0005810FEF7E9BE00BF108B40F008001083D4
:1033D00070470000B0B5054605F108041ECC006832
:1033E000194341EA0403D5F81CE0046846F6F311DA
:1033F000CEF6FF712140194341EA0E010160416898
:1034000048F2000C21F4405111434160AA69C4F212
:10341000000C60451CBF296A0A438168102321F40F
:1034200030611143816047F6FF71C4F200018842A8
:1034300012DC44F20041C4F2000188421CD044F680
:103440000001C4F2000188422CD141F28801C4F28B
:10345000020109680B091DE0604515D043F6000123
:10346000C4F2010188421DD141F28801C4F2020177
:103470000B685BA212E000BF41F28801C4F20201B6
:1034800009688B0806E000BF41F28801C4F202011E
:1034900009688B0A46F6C402C0F6000203F0030175
:1034A00052F82130604542F20040C0F2F40015D0DD
:1034B000BEF5004F22D1082B4FF0010100F28B80A6
:1034C000DFE803F00650628958898989600000BFEF
:1034D000FDF7FAFF002840F0578078E0082B4FF006
:1034E000010100F27880DFE803F0057621761B7693
:1034F00076761F00FDF7E8FFC0B968E0082B4FF0B3
:10350000010100F26880DFE803F005315566396695
:1035100066665300FDF7D8FF00284BD157E000BF87
:10352000FDF7FEFF10B952E04FF400406A6802EB6D
:10353000420188424FF001014DD3130398424AD80B
:10354000010E000210EB520041F100010023FCF7D4
:10355000ABFE4FF60052A0F54071C0F20F0291424F
:1035600033D337E0FDF7C6FF70B930E0FDF7C2FF97
:1035700000BB2CE0FDF7D4FF30B928E0FDF7D0FF09
:10358000C0B924E04FF4004069684A0802EB4000EB
:10359000B0FBF1F04FF6EF72A0F11001914219D893
:1035A0004FF6F0710140C0F3420008440DE000BF47
:1035B0004FF4004069684FF6EF7200EB5100B0FB2A
:1035C000F1F0A0F11001914204D82968C8600021EF
:1035D00001E000BF0121002208466A66AA66B0BD6C
:1035E00001000000040000000200000008000000CC
:1035F0004165A0F85820A0F85A2081680022426650
:1036000071B1B1F1805F07D0B1F5805F0ED1016972
:1036100051B940F2FF110AE0016919B13F2106E0FA
:10362000016909B17F2102E0FF2100E00021A0F83B
:103630005C100021C0F880102221C167016851E8A8
:10364000021F026841F0010142E80213DBB1016888
:1036500051E8021F026841F0010142E8021393B1F0
:10366000016851E8021F026841F0010142E80213BB
:103670004BB1016851E8021F026841F0010142E8C4
:103680000213002BDAD182680169B2F5805F09D19B
:10369000D1B343F28D21C0F600014166002180F8CC
:1036A000741009E043F28D22C0F600024266002247
:1036B00080F8742081B300BF016851E8001F0268E0
:1036C00041F4907142E80013002B4AD0016851E8A0
:1036D000001F026841F4907142E80013002B40D0B3
:1036E000016851E8001F026841F4907142E800133C
:1036F000BBB3016851E8001F026841F4907142E8D1
:103700000013002BD8D12CE043F24511C0F6000184
:103710004166002180F87410016851E8001F0268BA
:1037200041F0200142E80013DBB1016851E8001FBD
:10373000026841F0200142E8001393B1016851E8AA
:10374000001F026841F0200142E800134BB10168FC
:1037500051E8001F026841F0200142E80013002BED
:10376000DAD10020704700002DE9F04104460068DE
:103770001546C2690E461140891BB1FA81F149090B
:103780008D4240F09C80DDF81880B8F1000F27D002
:1037900018F101017CD100BFC1693140891BB1FA28
:1037A00081F149098D4240F08A80C1693140891B0D
:1037B000B1FA81F149098D4240F08180C1693140FF
:1037C000891BB1FA81F149098D4278D1C169314033
:1037D000891BB1FA81F149098D42DDD06FE000BF4C
:1037E000FDF76AF9206850E8000F216820F4D070D6
:1037F00041E80002BAB3206850E8000F216820F4C5
:10380000D07041E8000272B3206850E8000F2168D0
:1038100020F4D07041E800022AB3206850E8000F7D
:10382000216820F4D07041E80002002ADAD11AE0C1
:10383000206850E8020F216820F0010041E80202F0
:10384000DAB1206850E8020F216820F0010041E859
:10385000020292B1206850E8020F216820F00100B6
:1038600041E802024AB1206850E8020F216820F0C6
:10387000010041E80202002ADAD17C2078212022CE
:1038800062502250002084F874000320BDE8F081CB
:103890001F4600BFFDF710F9C01B4045A2D82068A5
:1038A0000168490744BFC1695FEA01510AD4C06990
:1038B0003040801BB0FA80F040098542EAD00020F9
:1038C000BDE8F0814FF40061016200BF206850E85C
:1038D000000F216820F4D07041E80002BAB32068DC
:1038E00050E8000F216820F4D07041E8000272B364
:1038F000206850E8000F216820F4D07041E80002F1
:103900002AB3206850E8000F216820F4D07041E805
:103910000002002ADAD11AE0206850E8020F21687C
:1039200020F0010041E80202DAB1206850E8020FFD
:10393000216820F0010041E8020292B1206850E8BD
:10394000020F216820F0010041E802024AB120681C
:1039500050E8020F216820F0010041E80202002A2D
:10396000DAD12020A06780207C2188E740F27C10FB
:10397000C2F20000FEF716BCFEE7000098B040F26D
:10398000004944F20048C4F60009C4F20008FDF7FB
:1039900079FBFFF7FFFA002741F24C000F97CDE9C2
:1039A0000D77CDE90B77C4F202000168012241F0E6
:1039B000040101600168502401F00401149114997C
:1039C0000168012541F080010160016801F080017A
:1039D00014911499016841F001010160016801F03E
:1039E000010114911499016841F00201016000681D
:1039F000502100F00200149014984FF09040FDF711
:103A000055F8484601210122FDF750F80BA8B0C037
:103A10000BAC02264FF0904021460E96FCF76AFF51
:103A200048462146CDE90B55CDE90D76FCF762FFFE
:103A300040F2181608F56C40C2F200064FF482718D
:103A400086E8830007204FF4E0624FF400731024EF
:103A5000C6E90A703046C6E90327C6E90573F46172
:103A6000C6E90877C6E90C77FEF7B8F920B1EFF39D
:103A7000108072B6FEE700BF40F2C40008F5805126
:103A8000C2F2000049F6EC42C1F2900280E88600E2
:103A9000C0E90357C0E90577C0E90777FDF75CF88F
:103AA00020B1EFF3108072B6FEE700BF40F2C40011
:103AB000C2F200000021FDF705F828B1EFF31080F5
:103AC00072B600BFFEE700BF40F2C400C2F20000C1
:103AD00000210024FDF71CF820B1EFF3108072B62E
:103AE000FEE700BF40F27C10C2F200004FF4E1316B
:103AF0000C22C0E90081C0E90244C0E90442C0E9E7
:103B00000644C0E90844FEF731FE28B1EFF3108007
:103B100072B600BFFEE700BF40F27804C2F20004B4
:103B20004FF09041204661626161402140F8106F82
:103B30001022218301212285C4F81C90218401F0E8
:103B4000D9FC40F2C40104F10800C2F20001442291
:103B5000029000F0E3F840F27C10C2F2000021462F
:103B60000122FEF7ADFEFCF7A7FF064641F28835BD
:103B70000027002100234FF0010A4FF0030810E056
:103B800002980BA900F0CEF800280498BDF82C107C
:103B9000BDF82E2008BF0846039B014608BF134608
:103BA0005F4608B2049181EAE03146F6D902A1EB02
:103BB000E0310028C0F600024DA048BF024646F2A0
:103BC000676010FB01F00992821402EBD07008903C
:103BD00000EB8000A1EB400000B2079098B24CF6D9
:103BE000CD414843C00C069000EB8000A3EB4000A1
:103BF00080B2039305900A9758E000BFE078013047
:103C0000E0706378A778E5780DF12C09484610211B
:103C100038A206F57A76CDE90075FCF7BDFB099B65
:103C2000DDE9075714A8102136A2CDE90075FCF78D
:103C3000B3FBDDE9057310A8102135A20097FCF74E
:103C4000ABFB04F110073846002101F045FC40F2BF
:103C50000C0338460A211422C2F20003CDE900A861
:103C600001F018FC38460A2146224B460525CDE9CD
:103C700000A501F00FFC38460A21B42214ABCDE9AF
:103C800000A801F007FC38460A21E62210ABCDE976
:103C900000A801F0FFFB384602F000FD0A9F41F248
:103CA0008835ABEB0700A842BFF46AAFFCF704FF0E
:103CB0008346801BB0F57A7FF3D3E0783A289DD90C
:103CC0000021E170A0783A2804D8A0780130A070D3
:103CD00097E700BFA170607840F6AB210130414307
:103CE000090C01EB4101A0EBC100607089E700BF46
:103CF0002D000000253032643A253032643A2530F8
:103D000032640000543A257325642E256443000074
:103D1000483A25642E2564252500000001605100E5
:103D200001717047F0B583B005460C462422006847
:103D30002979ADF80A204FF0FF360DF10A0202236F
:103D40000096FDF759F808B103B0F0BD0F20FCF75D
:103D5000BDFD2868297901AA06230096FCF74EFFCD
:103D60000028F1D19DF904003121C24381EA4203C8
:103D7000002848BF53005AB25E00002A48BF81EABB
:103D8000430672B27300002A48BF81EA46035AB262
:103D90005E00002A48BF81EA430672B27300002A1F
:103DA00048BF81EA46035AB25E00002A48BF81EA52
:103DB000430672B27300002A48BF81EA46035AB232
:103DC0005E00002A48BF81EA43069DF805C09DF8C1
:103DD000063086EA0C0256B25500002E48BF81EA32
:103DE00042056AB26E00002A48BF81EA450672B2F7
:103DF0007500002A48BF81EA46056AB26E00002AB3
:103E000048BF81EA450672B27500002A48BF81EAC0
:103E100046056AB26E00002A48BF81EA450672B2C2
:103E20007500002A48BF81EA46056AB26E00002A82
:103E300048BF81EA4506F2B29A4240F095809DF96A
:103E400007E06FEA0E0281EA4206BEF1000F48BFAA
:103E5000560072B27500002A48BF81EA46056AB270
:103E60006E00002A48BF81EA450672B27500002A3A
:103E700048BF81EA46056AB26E00002A48BF81EA5F
:103E8000450672B27500002A48BF81EA46056AB24B
:103E90006E00002A48BF81EA450672B27300002A0C
:103EA00048BF81EA46039DF808509DF809206B4001
:103EB0005EB25F00002E48BF81EA43077BB27E00FE
:103EC000002B48BF81EA470673B27700002B48BF3A
:103ED00081EA46077BB27E00002B48BF81EA470695
:103EE00073B27700002B48BF81EA46077BB27E00A1
:103EF000002B48BF81EA470673B27700002B48BF0A
:103F000081EA46077BB27E00002B48BF81EA470664
:103F1000F1B2914228D1C0B24CEA002047F6FF71BD
:103F200040F2D66200FB021041F20102C1F200022F
:103F3000A0FB02025FFA8EF045EA00204FF47A738C
:103F400000FB031040F60101C0F60001A0FB0101D7
:103F5000C80A4FF63E61CFF6FF7101EB1231608067
:103F60000020218003B0F0BD012003B0F0BD0000AF
:103F70002DE9F04F93B0DDF874B0A3F120003428A0
:103F80001292009120D80FF6AC520192DFE800F0B7
:103F90001C1C1C1C1C3E1C1C1C1C1C1C1C3A2A1C13
:103FA00061324246565226362E224A1C1C1C1C1CCC
:103FB0001C1C1C4E1C1C1C1C5E1C1C1C1C1C1C1CCD
:103FC0001C1C1C1C5A0000BF46F6D400C0F60000A2
:103FD0003EE000BF0FF648603AE000BF0FF64860D1
:103FE00036E000BF0FF6486032E000BF0FF64860D1
:103FF0002EE000BF0FF648602AE000BF0FF64860D1
:1040000026E000BF0FF6486022E000BF0FF64860D0
:104010001EE000BF0FF648601AE000BF0FF64860D0
:1040200016E000BF0FF6486012E000BF0FF64860D0
:104030000EE000BF0FF648600AE000BF0FF64860D0
:1040400006E000BF0FF6486002E000BF0FF64860D0
:104050000190BBF1000F01F01782129A4FF0010896
:1040600002EB4B0110910BEB4B018F1802EB41015E
:104070000C9128EA0201099102F0010108918BEAF2
:1040800002010BEB02030F9702EB8B0701F0010219
:1040900028EA0101039103F001011C9807910BF03C
:1040A00003010B9140F200210E9703EB8B07049262
:1040B0000BF0FC0C0028C2F200014FF000020D973B
:1040C000119300F0BD844FF04B0904E0029A0132D5
:1040D000052A01F0D98101980292835C009805932A
:1040E00002FB0B000A90D80740F0B88005988007C3
:1040F00000F15C810598400700F1FC8105980007FC
:1041000000F19C820598C00600F14883059880065E
:1041100000F1E88305984006D8D54FF0000A03E087
:104120000AF1010ADA45D1D00A98504482B29208C5
:104130004A2AF5D80623BBF1040F03EA400E47D202
:1041400000260B980028EBD00C988719B8B2030909
:10415000182B0ED8400810FB092007F0010343EA92
:104160000E0380B283F007030C5C08FA03F32343C9
:104170000B540B980128D3D0781C84B22309182B38
:104180000ED8630813FB092300F0010040EA0E007B
:104190009BB280F00700CC5C08FA00F02043C854C2
:1041A0000B980228BCD0B81C84B22309182BB7D8AE
:1041B000630813FB092200F0010040EA0E0092B2EE
:1041C00080F007008B5C08FA00F018438854A7E7DA
:1041D0000898002640EA0E0080F0070008FA00F573
:1041E000099840EA0E0080F0070008FA00F702E0A4
:1041F0000436B445A5D00C988419A0B20309182B35
:1042000006D8400810FB092080B20B5C2B430B54EE
:10421000601C80B20309182B06D8400810FB092047
:1042200080B20B5C3B430B54A01C80B20309182BDB
:1042300006D8400810FB092080B20B5C2B430B54BE
:10424000E01C80B20309182BD2D8400810FB0920CB
:1042500080B20B5C3B430B54CAE700BF4FF0000A2F
:1042600005E000BF0AF1010ADA453FF43FAF0A98C2
:1042700000EB0A07B8B282084A2AF3D80620DE46C5
:10428000BBF1040F00EA4703069349D200260B98BE
:10429000F3460028E6D012988719B8B20309182B04
:1042A0000ED84008069E10FB092007F00103334397
:1042B00080B283F007030C5C08FA03F323430B542A
:1042C0000B980128CED07C1CA0B20309182B0ED865
:1042D0004008069E10FB092004F00103334380B21E
:1042E00083F007030C5C08FA03F323430B540B9889
:1042F0000228B7D0BC1CA0B20309182BB2D84008C2
:10430000069B10FB092004F001021A4380B282F0E0
:1043100007020B5C08FA02F21A430A54A2E700BF34
:1043200008980026184380F0070008FA00F509985D
:10433000184380F0070008FA00F702E00436B4459D
:10434000A5D012988419A0B24FEA101BBBF1180F28
:1043500006D8400810FB092080B20B5C2B430B549D
:10436000601C80B20309182B06D8400810FB0920F6
:1043700080B20B5C3B430B54A01C80B20309182B8A
:1043800006D8400810FB092080B20B5C2B430B546D
:10439000E01C80B20309182BD0D8400810FB09207C
:1043A00080B20B5C3B430B54C8E700BF4FF0000AE0
:1043B00005E000BF0AF1010ADA453FF49BAE0A9816
:1043C00000EB0A07B8B282084A2AF3D80620BBF1EC
:1043D000040F00EA470E47D200260B980028E9D0C8
:1043E00011988719B8B20309182B0ED8400810FB92
:1043F000092007F0010343EA0E0380B283F00703AC
:104400000C5C08FA03F323430B540B980128D1D01A
:104410007C1CA0B20309182B0ED8400810FB092001
:1044200004F0010343EA0E0380B283F007030C5C3F
:1044300008FA03F323430B540B980228BAD0BC1C90
:10444000A0B20309182BB5D8400810FB092004F0CE
:10445000010242EA0E0280B282F007020B5C08FA07
:1044600002F21A430A54A5E70498002640EA0E0017
:1044700080F0070008FA00F5039840EA0E0080F08B
:10448000070008FA00F702E00436B445A5D01198F9
:104490008419A0B20309182B06D8400810FB092084
:1044A00080B20B5C2B430B54601C80B20309182BA9
:1044B00006D8400810FB092080B20B5C3B430B542C
:1044C000A01C80B20309182B06D8400810FB092055
:1044D00080B20B5C2B430B54E01C80B20309182BF9
:1044E000D2D8400810FB092080B20B5C3B430B5430
:1044F000CAE700BF4FF0000A05E000BF0AF1010A59
:10450000DA453FF4FBAD0A9800EB0A07B8B282081F
:104510004A2AF3D80620BBF1040F00EA470E47D21F
:1045200000260B980028E9D010988719B8B2030923
:10453000182B0ED8400810FB092007F0010343EAAE
:104540000E0380B283F007030C5C08FA03F32343E5
:104550000B540B980128D1D07C1CA0B20309182B56
:104560000ED8400810FB092004F0010343EA0E03B3
:1045700080B283F007030C5C08FA03F323430B5467
:104580000B980228BAD0BC1CA0B20309182BB5D8CE
:10459000400810FB092004F0010242EA0E0280B23A
:1045A00082F007020B5C08FA02F21A430A54A5E7EC
:1045B0000898002640EA0E0080F0070008FA00F58F
:1045C000099840EA0E0080F0070008FA00F702E0C0
:1045D0000436B445A5D010988419A0B20309182B4D
:1045E00006D8400810FB092080B20B5C2B430B540B
:1045F000601C80B20309182B06D8400810FB092064
:1046000080B20B5C3B430B54A01C80B20309182BF7
:1046100006D8400810FB092080B20B5C2B430B54DA
:10462000E01C80B20309182BD2D8400810FB0920E7
:1046300080B20B5C3B430B54CAE700BF4FF0000E47
:1046400005E000BF0EF1010EDE453FF45BAD0A98B8
:1046500000EB0E0290B284084A2CF3D80620BBF17E
:10466000040F00EA420245D200250B980028E9D049
:104670000F984719B8B20309182B0DD8400810FB42
:10468000094007F00103134380B283F007030D5C78
:1046900008FA03F32B430B540B980128D2D0781C53
:1046A00083B21D09182D0DD85B0813FB094300F0D8
:1046B000010010439BB280F00700CD5C08FA00F0C7
:1046C0002843C8540B980228BCD0B81C83B21D09DB
:1046D000182DB7D85B0813FB094300F00100104305
:1046E0009AB280F007008B5C08FA00F018438854F7
:1046F000A8E700BF07980025104380F0070008FADC
:1047000000FA02E00435AC45AFD00F984719B8B2B3
:104710000309182B07D8400810FB094080B20B5C36
:1047200043EA0A030B54781C83B21E09182E0DD8D5
:104730005B0813FB094300F0010010439BB280F0BB
:104740000700CE5C08FA00F03043C854B81C83B2AE
:104750001E09182E0DD85B0813FB094300F0010059
:1047600010439BB280F00700CE5C08FA00F03043A3
:10477000C854F81C83B21E09182EC3D85B0813FB5B
:10478000094300F0010010439BB280F00700CE5CAB
:1047900008FA00F03043C854B4E700BF4FF0000AF5
:1047A00005E000BF0AF1010ADA453FF4AFAC0A9810
:1047B000504482B292084A2AF4D80623BBF1040F6F
:1047C00003EA400E48D200260B980028EAD00E9843
:1047D0008719B8B20309182B0ED8400810FB09201E
:1047E00007F0010343EA0E0380B283F007030C5C79
:1047F00008FA03F323430B540B980128D2D0781CFA
:1048000084B22309182B0ED8630813FB092300F088
:10481000010040EA0E009BB280F00700CC5C08FA71
:1048200000F02043C8540B980228BBD0B81C84B2B7
:104830002309182BB6D8630813FB092200F00100E6
:1048400040EA0E0092B280F007008B5C08FA00F09C
:1048500018438854A6E700BF0898002640EA0E00D7
:1048600080F0070008FA00F5099840EA0E0080F091
:10487000070008FA00F702E00436B445A4D00E9809
:104880008419A0B20309182B06D8400810FB092090
:1048900080B20B5C2B430B54601C80B20309182BB5
:1048A00006D8400810FB092080B20B5C3B430B5438
:1048B000A01C80B20309182B06D8400810FB092061
:1048C00080B20B5C2B430B54E01C80B20309182B05
:1048D000D2D8400810FB092080B20B5C3B430B543C
:1048E000CAE700BF4FF0000E05E000BF0EF1010E59
:1048F000DE453FF40FAC0A98704482B294084A2C0B
:10490000F4D80622BBF1040F02EA400244D200258B
:104910000B980028EAD00D984719B8B20309182B54
:104920000DD8400810FB094007F00103134380B283
:1049300083F007030D5C08FA03F32B430B540B9829
:104940000128D3D0781C83B21D09182D0DD85B081F
:1049500013FB094300F0010010439BB280F00700F5
:10496000CD5C08FA00F02843C8540B980228BDD04B
:10497000B81C83B21D09182DB8D85B0813FB094376
:1049800000F0010010439AB280F007008B5C08FA37
:1049900000F018438854A9E707980025104380F0D9
:1049A000070008FA00FA02E00435AC45B0D00D98D3
:1049B0004719B8B20309182B07D8400810FB094063
:1049C00080B20B5C43EA0A030B54781C83B21E09C5
:1049D000182E0DD85B0813FB094300F001001043AB
:1049E0009BB280F00700CE5C08FA00F03043C85458
:1049F000B81C83B21E09182E0DD85B0813FB09439F
:104A000000F0010010439BB280F00700CE5C08FA72
:104A100000F03043C854F81C83B21E09182EC3D8C6
:104A20005B0813FB094300F0010010439BB280F0C8
:104A30000700CE5C08FA00F03043C854B4E700BF6A
:104A40004FF04B0A05E000BF029A0132052A00F040
:104A50001B8501980292835C0098059302FB0B0072
:104A60000A90D80740F0BE800598800700F1668163
:104A70000598400700F14C820598000700F1F0828C
:104A80000598C00600F1A2830598800600F14684CF
:104A900005984006D8D54FF0000903E009F1010957
:104AA000D945D1D00A98484482B292084A2AF5D80A
:104AB0000623BBF1040F03EA400E4BD200260B98ED
:104AC0000028EBD00C988719B8B20309182B0FD81F
:104AD000400810FB0A2007F0010343EA0E0380B2EE
:104AE00083F007030C5C08FA03F324EA03030B5476
:104AF0000B980128D2D0781C84B22309182B0FD828
:104B0000630813FB0A2300F0010040EA0E009BB289
:104B100080F00700CC5C08FA00F024EA0000C854DA
:104B20000B980228BAD0B81C84B22309182BB5D828
:104B3000630813FB0A2200F0010040EA0E0092B263
:104B400080F007008B5C08FA00F023EA000088542C
:104B5000A4E700BF0898002640EA0E0080F0070096
:104B600008FA00F0C543099840EA0E0080F00700FB
:104B700008FA00F0C74302E00436B4459FD00C9811
:104B80008419A0B20309182B06D8400810FB0A208C
:104B900080B20B5C2B400B54601C80B20309182BB5
:104BA00006D8400810FB0A2080B20B5C3B400B5437
:104BB000A01C80B20309182B06D8400810FB0A205D
:104BC00080B20B5C2B400B54E01C80B20309182B05
:104BD000D2D8400810FB0A2080B20B5C3B400B543B
:104BE000CAE700BF4FF0000905E000BF09F1010965
:104BF000D9453FF439AF0A98484482B292084A2A0C
:104C0000F4D80623BBF1040F03EA400E4AD2002673
:104C10000B980028EAD012988719B8B20409182C0A
:104C20000FD8400810FB0A2007F0010444EA0E04E4
:104C300080B284F007040D5C08FA04F425EA040449
:104C40000C540B980128D1D0781C84B22509182D5A
:104C50000FD8640814FB0A2400F0010040EA0E009B
:104C6000A4B280F007000D5D08FA00F025EA00000C
:104C700008550B980228B9D0B81C84B22509182D04
:104C8000B4D8640814FB0A2200F0010040EA0E00C8
:104C900092B280F007008F5C08FA00F027EA00006B
:104CA0008854A3E70898002640EA0E0080F0070029
:104CB00008FA00F0C543099840EA0E0080F00700AA
:104CC00008FA00F0C74302E00436B445A0D01298B9
:104CD0008419A0B20309182B06D8400810FB0A203B
:104CE00080B20B5C2B400B54601C80B20309182B64
:104CF00006D8400810FB0A2080B20B5C3B400B54E6
:104D0000A01C80B20309182B06D8400810FB0A200B
:104D100080B20B5C2B400B54E01C80B20309182BB3
:104D2000D2D8400810FB0A2080B20B5C3B400B54E9
:104D3000CAE700BF3E5149453E0000004FF0000E5B
:104D400005E000BF0EF1010EDE453FF491AE0A987A
:104D5000704482B292084A2AF4D80623BBF1040FA9
:104D600003EA400306934BD200260B980028E9D0B3
:104D700011988719B8B20309182B0FD84008069C60
:104D800010FB0A2007F00103234380B283F00703DE
:104D90000C5C08FA03F324EA03030B540B98012874
:104DA000D0D0781C84B22309182B0FD86308069C36
:104DB00013FB0A2300F0010020439BB280F00700A0
:104DC000CC5C08FA00F024EA0000C8540B980228D2
:104DD000B8D0B81C84B22309182BB3D8630813FBCE
:104DE0000A22069B00F00100184392B280F00700EF
:104DF0008B5C08FA00F023EA00008854A2E700BFA9
:104E000004980026184380F0070008FA00F0C54314
:104E10000398184380F0070008FA00F0C74343E006
:104E2000064949291E0000003C4A4949300000005B
:104E3000006060000000000036494949360000006B
:104E400000427F40000000000171090503000000DE
:104E500008080808080000006313086463000000E5
:104E600042615149460000002141454B310000009C
:104E700000363600000000003E41414122000000A3
:104E800027454545390000001814127F1000000026
:104E900001017F01010000007F0808087F00000079
:104EA0000436B4453FF461AF11988419A0B24FEABB
:104EB0001019B9F1180F06D8400810FB0A2080B26B
:104EC0000B5C2B400B54601C80B20309182B06D8D6
:104ED000400810FB0A2080B20B5C3B400B54A01C26
:104EE00080B20309182B06D8400810FB0A2080B2B4
:104EF0000B5C2B400B54E01C80B20309182BCFD85D
:104F0000400810FB0A2080B20B5C3B400B54C7E703
:104F10004FF0000905E000BF09F10109D9453FF450
:104F2000ABAD0A98484482B292084A2AF4D80623C4
:104F3000BBF1040F03EA400E4AD200260B9800286A
:104F4000EAD010988719B8B20309182B0FD8400877
:104F500010FB0A2007F0010343EA0E0380B283F03E
:104F600007030C5C08FA03F324EA03030B540B98C1
:104F70000128D1D0781C84B22309182B0FD86308DC
:104F800013FB0A2300F0010040EA0E009BB280F000
:104F90000700CC5C08FA00F024EA0000C8540B9823
:104FA0000228B9D0B81C84B22309182BB4D86308DE
:104FB00013FB0A2200F0010040EA0E0092B280F0DA
:104FC00007008B5C08FA00F023EA00008854A3E78E
:104FD0000898002640EA0E0080F0070008FA00F06A
:104FE000C543099840EA0E0080F0070008FA00F077
:104FF000C74302E00436B445A0D010988419A0B28B
:105000000309182B06D8400810FB0A2080B20B5C5D
:105010002B400B54601C80B20309182B06D84008A3
:1050200010FB0A2080B20B5C3B400B54A01C80B2EA
:105030000309182B06D8400810FB0A2080B20B5C2D
:105040002B400B54E01C80B20309182BD2D8400827
:1050500010FB0A2080B20B5C3B400B54CAE700BF38
:105060004FF0000E05E000BF0EF1010EDE453FF4EB
:1050700007AD0A98704482B293084A2BF4D80622EE
:10508000BBF1040F02EA400448D200220B9800282A
:10509000EAD00F98024490B20509182D0ED84008A6
:1050A00010FB0A3002F00105254380B285F00705A8
:1050B0000E5C08FA05F526EA05050D540B98012843
:1050C000D2D0501C85B22E09182E0ED86D0815FBB3
:1050D0000A3500F001002043ADB280F007004E5DBC
:1050E00008FA00F026EA000048550B980228BBD0C9
:1050F000901C82B21509182DB6D8520812FB0A323C
:1051000000F00100204392B280F007008B5C08FAA7
:1051100000F023EA00008854A6E700BF07980022A9
:10512000204380F0070008FA00F06FEA000902E06F
:1051300004329445AAD00F988618B0B20709182FE8
:1051400007D8400810FB0A3080B20F5C07EA090755
:105150000F54701C87B23D09182D0ED87D0815FB21
:105160000A3500F001002043ADB280F007004F5D2A
:1051700008FA00F027EA00004855B01C87B23D0944
:10518000182D0ED87D0815FB0A3500F001002043CC
:10519000ADB280F007004F5D08FA00F027EA00008A
:1051A0004855F01C86B23509182DC1D8750815FB75
:1051B0000A3500F001002043ADB280F007004E5DDB
:1051C00008FA00F026EA00004855B1E74FF0000960
:1051D00005E000BF09F10109D9453FF455AC0A9833
:1051E000484482B292084A2AF4D80623BBF1040F3D
:1051F00003EA400E4AD200260B980028EAD00E9807
:105200008719B8B20309182B0FD8400810FB0A20E1
:1052100007F0010343EA0E0380B283F007030C5C3E
:1052200008FA03F324EA03030B540B980128D1D0A6
:10523000781C84B22309182B0FD8630813FB0A23A8
:1052400000F0010040EA0E009BB280F00700CC5C49
:1052500008FA00F024EA0000C8540B980228B9D0DC
:10526000B81C84B22309182BB4D8630813FB0A2294
:1052700000F0010040EA0E0092B280F007008B5C63
:1052800008FA00F023EA00008854A3E708980026F3
:1052900040EA0E0080F0070008FA00F0C5430998C4
:1052A00040EA0E0080F0070008FA00F0C74302E071
:1052B0000436B445A0D00E988419A0B20309182B67
:1052C00006D8400810FB0A2080B20B5C2B400B5420
:1052D000601C80B20309182B06D8400810FB0A2076
:1052E00080B20B5C3B400B54A01C80B20309182B0E
:1052F00006D8400810FB0A2080B20B5C2B400B54F0
:10530000E01C80B20309182BD2D8400810FB0A20F9
:1053100080B20B5C3B400B54CAE700BF4FF0000E5D
:1053200005E000BF0EF1010EDE453FF4B1AB0A9877
:10533000704482B294084A2CF4D80622BBF1040FC0
:1053400002EA400248D200250B980028EAD00D98C6
:105350004719B8B20309182B0ED8400810FB0A40B1
:1053600007F00103134380B283F007030D5C08FAD2
:1053700003F325EA03030B540B980128D2D0781CC1
:1053800083B21D09182D0ED85B0813FB0A4300F0E9
:10539000010010439BB280F00700CD5C08FA00F0DA
:1053A00025EA0000C8540B980228BBD0B81C83B271
:1053B0001D09182DB6D85B0813FB0A4300F0010045
:1053C00010439AB280F007008B5C08FA00F023EAE1
:1053D00000008854A6E700BF07980025104380F01E
:1053E000070008FA00F06FEA000902E00435AC4556
:1053F000AAD00D984719B8B20309182B07D840084E
:1054000010FB0A4080B20B5C03EA09030B54781CC2
:1054100083B21E09182E0ED85B0813FB0A4300F056
:10542000010010439BB280F00700CE5C08FA00F048
:1054300026EA0000C854B81C83B21E09182E0ED8E4
:105440005B0813FB0A4300F0010010439BB280F09D
:105450000700CE5C08FA00F026EA0000C854F81CE9
:1054600083B21E09182EC1D85B0813FB0A4300F053
:10547000010010439BB280F00700CE5C08FA00F0F8
:1054800026EA0000C854B1E713B000F000B830BC01
:10549000BDE8C08F1878002808BF70472DE9F04399
:1054A00083B0DDE90A890D4609EB490114464F0036
:1054B0005E1E00BFA9B2C3B22246CDE90089FEF745
:1054C00057FDB0783D44002806F10106F2D103B043
:1054D000BDE8F0437047000080B540F200200A4666
:1054E0000029C2F2000043F6982118BFFF22FBF703
:1054F0009EF880BD2DE9F04F81B004464069218BB4
:1055000001220125FBF7D2FAE068218A0122FBF78C
:10551000CDFA1420FBF7DAF9E068218A00224FF077
:105520000008FBF7C3FA1420FBF7D0F9E068218AE2
:105530000122FBF7BBFA7820FBF7C8F9D622606896
:1055400021898DF803200022FBF7B0FA6069218BD6
:105550000022FBF7ABFA20680DF1030101224FF0A6
:10556000FF33FCF7E1FC6069218B0122FBF79EFA17
:105570001722606821898DF803200122FBF796FA33
:105580006069218B0022FBF791FA20680DF103017D
:1055900001224FF0FF33FCF7C7FC6069218B012229
:1055A000FBF784FA0222606821898DF8032001222A
:1055B000FBF77CFA6069218B0022FBF777FA206801
:1055C0000DF1030101224FF0FF33FCF7ADFC6069E0
:1055D000218B0122FBF76AFAD122606821898DF8BC
:1055E00003200022FBF762FA6069218B0022FBF79F
:1055F0005DFA20680DF1030101224FF0FF33FCF743
:1056000093FC6069218B0122FBF750FA60682189C5
:1056100001228DF80350FBF749FA6069218B0022C3
:10562000FBF744FA20680DF1030101224FF0FF332C
:10563000FCF77AFC6069218B0122FBF737FAC02264
:10564000606821898DF803200022FBF72FFA60693A
:10565000218B0022FBF72AFA20680DF103010122B9
:105660004FF0FF33FCF760FC6069218B0122FBF7F0
:105670001DFA606821894FF0110901228DF803900D
:10568000FBF714FA6069218B0022FBF70FFA206800
:105690000DF1030101224FF0FF33FCF745FC606977
:1056A000218B0122FBF702FA0422606821898DF820
:1056B00003200122FBF7FAF96069218B0022FBF736
:1056C000F5F920680DF1030101224FF0FF33FCF7DB
:1056D0002BFC6069218B0122FBF7E8F9C12260688D
:1056E00021898DF803200022FBF7E0F96069218B06
:1056F0000022FBF7DBF920680DF1030101224FF0D6
:10570000FF33FCF711FC6069218B0122FBF7CEF916
:1057100060682189412701228DF80370FBF7C6F9E3
:105720006069218B0022FBF7C1F920680DF10301AC
:1057300001224FF0FF33FCF7F7FB6069218B012258
:10574000FBF7B4F96068218901228DF80370FBF73B
:10575000ADF96069218B0022FBF7A8F920680DF1F3
:10576000030101224FF0FF33FCF7DEFB6069218B60
:105770000122FBF79BF96068218901228DF80370F3
:10578000FBF794F96069218B0022FBF78FF9206801
:105790000DF1030101224FF0FF33FCF7C5FB6069F7
:1057A000218B0122FBF782F96068218901228DF8A3
:1057B0000370FBF77BF96069218B0022FBF776F918
:1057C00020680DF1030101224FF0FF33FCF7ACFB21
:1057D0006069218B0122FBF769F9C2226068218987
:1057E0008DF803200022FBF761F96069218B00220C
:1057F000FBF75CF920680DF1030101224FF0FF3344
:10580000FCF792FB6069218B0122FBF74FF960687E
:105810002189192501228DF80350FBF747F96069AA
:10582000218B0022FBF742F920680DF103010122D0
:105830004FF0FF33FCF778FB6069218B0122FBF707
:1058400035F96068218901228DF80350FBF72EF9A4
:105850006069218B0022FBF729F920680DF1030113
:1058600001224FF0FF33FCF75FFB6069218B0122BF
:10587000FBF71CF96068218901228DF80350FBF7C2
:1058800015F96069218B0022FBF710F920680DF1F2
:10589000030101224FF0FF33FCF746FB6069218BC7
:1058A0000122FBF703F96068218901228DF803507A
:1058B000FBF7FCF86069218B0022FBF7F7F8206802
:1058C0000DF1030101224FF0FF33FCF72DFB60695E
:1058D000218B0122FBF7EAF8C422606821898DF848
:1058E00003200022FBF7E2F86069218B0022FBF71E
:1058F000DDF820680DF1030101224FF0FF33FCF7C2
:1059000013FB6069218B0122FBF7D0F860682189C5
:1059100001228DF80370FBF7C9F86069218B002222
:10592000FBF7C4F820680DF1030101224FF0FF33AB
:10593000FCF7FAFA6069218B0122FBF7B7F860687F
:10594000218901228DF80370FBF7B0F86069218B83
:105950000022FBF7ABF820680DF1030101224FF0A4
:10596000FF33FCF7E1FA6069218B0122FBF79EF817
:105970006068218901228DF80370FBF797F8606950
:10598000218B0022FBF792F820680DF10301012220
:105990004FF0FF33FCF7C8FA6069218B0122FBF757
:1059A00085F86068218901228DF80370FBF77EF885
:1059B0006069218B0022FBF779F820680DF1030163
:1059C00001224FF0FF33FCF7AFFA6069218B01220F
:1059D000FBF76CF8C522606821898DF8032000224E
:1059E000FBF764F86069218B0022FBF75FF8206801
:1059F0000DF1030101224FF0FF33FCF795FA6069C6
:105A0000218B0122FBF752F86068218901228DF871
:105A10000350FBF74BF86069218B0022FBF746F837
:105A200020680DF1030101224FF0FF33FCF77CFAEF
:105A30006069218B0122FBF739F860682189012216
:105A40008DF80350FBF732F86069218B0022FBF7D9
:105A50002DF820680DF1030101224FF0FF33FCF710
:105A600063FA6069218B0122FBF720F860682189C5
:105A700001228DF80350FBF719F86069218B002291
:105A8000FBF714F820680DF1030101224FF0FF33FA
:105A9000FCF74AFA6069218B0122FBF707F860687E
:105AA000218901228DF80350FBF700F86069218BF2
:105AB0000022FAF7FBFF20680DF1030101224FF0ED
:105AC000FF33FCF731FA6069218B0122FAF7EEFF10
:105AD000D822606821898DF803200022FAF7E6FFBA
