:020000040800F2
:10000000F04100206902000869210008C51E0008AF
:100010006521000835070008812400080000000061
:10002000000000000000000000000000C1230008E4
:1000300039070008000000006D210008C5230008F2
:10004000830200088302000883020008830200087C
:10005000830200088302000883020008830200086C
:10006000830200088302000883020008830200085C
:10007000830200088302000883020008830200084C
:10008000830200088302000883020008830200083C
:10009000830200088302000883020008830200082C
:1000A000830200088302000883020008830200081C
:1000B0008302000800000000000000008302000826
:1000C00083020008830200088302000883020008FC
:1000D00083020008830200088302000883020008EC
:1000E00083020008830200080000000000000000F6
:1000F0000000000000000000000000000000000000
:1001000000000000830200080000000083020008D5
:1001100000000000000000008302000883020008C5
:10012000830200088302000883020008830200089B
:100130008302000800000000000000000000000032
:10014000830200088302000883020008830200087B
:10015000830200088302000883020008830200086B
:1001600083020008830200088302000800000000E8
:10017000830200088302000883020008830200084B
:1001800083020008830200088302000800F002F8DE
:1001900000F05AF814A696E8000CB244B344DA45CD
:1001A00001D100F051F8BAE80F000FA696E8300030
:1001B000A5EB040504EB0607AAEB0704A7F101076A
:1001C0004FEA15154FEA3414A4F10104AC4201D3EF
:1001D00000F03AF813F0010F18BFFB1A43F00103C7
:1001E00000F001F8DBE71847E45200000453000078
:1001F000103A24BF78C878C1FAD8520724BF30C853
:1002000030C144BF04680C607047000070470000B4
:100210000023002400250026103A28BF78C1FBD80F
:10022000520728BF30C148BF0B607047642900F0F7
:10023000AB80732900F04082002070471FB505F0A5
:10024000FBF81FBD10B510BD00F03AFA1146FFF7DC
:10025000F5FF02F017F900F058FA03B4FFF7F2FFC8
:1002600003BC00F05FFA00000948804709480047D6
:10027000FEE7FEE7FEE7FEE7FEE7FEE7FEE7FEE756
:10028000FEE7FEE704480549054A064B70470000B3
:100290006D2400088D010008F03B0020F041002093
:1002A000F03D0020F03D00200FB41CB50C0007AA63
:1002B000009007D04142A14202D32044401E01E0F9
:1002C0004FF0FF30074B7B4469460190069800F0E1
:1002D000C6F90020002C01D0009908701CBC5DF804
:1002E00014FB0000BB03000070B50446856900687C
:1002F000C10601D5302600E02026C00707D070BD1A
:10030000D4E9012130469047206A401C20626D1ECE
:10031000F6D570BD70B5044685690078C00707D171
:1003200070BDD4E9012120209047206A401C206242
:100330006D1EF6D570BD70B50C460546012A05D078
:100340002878800600D5EA69002302E0012305E051
:100350005B1C934202D2E05C0028F9D1A869E61840
:10036000C01AA861286A184428622846FFF7BCFF13
:1003700004E0D5E9012114F8010B9047B442F8D309
:100380002846FFF7C7FF70BD2DE9F041064600245F
:1003900010687529314616A510D0AFF300800028EB
:1003A00002DA404213A507E031688A0701D512A599
:1003B00002E0490704D511A5012401E0AFF3008054
:1003C00000210A2206F1240709E0B0FBF2FCB0FB91
:1003D000F2F302FB1C00303078541846491C002808
:1003E000F3D123462A463046BDE8F04100F0D9B8A3
:1003F000000000002D0000002B0000002000000085
:100400002DE9F05F894604464FF0000ADFF824B179
:10041000FB44C0F820A02046E168884700287DD032
:10042000252806D0D4E901219047206A401C20628B
:10043000F1E700255F462046E16888472028064608
:1004400007DB312E05D2B81910F8200C08B105438E
:10045000F1E7A80701D525F00405C4F81CA0002782
:10046000C4F818A02A2E09D0304604F0DEFF38B3B5
:1004700004EB8708303EC8F8186019E059F8041BEF
:10048000204604EB87029161E1688847012F064608
:1004900018D1E069002820DA25F020051DE0D8F801
:1004A000180000EB800006EB40003038C8F8180058
:1004B0002046E1688847064604F0B7FF0028EED1E1
:1004C000012F0AD02E2E08D12046E16888477F1CD4
:1004D0000646022F45F02005C4DBA069002803DA98
:1004E000404245F00105A061E80701D025F0100564
:1004F000A6B1A6F14100192802D8203645F40065BE
:100500004A463146204625604D46FFF78FFE60B1D2
:10051000012807D0ED1D25F0070000E007E000F1FD
:10052000080978E705F1040975E730467AE7206A9B
:1005300000F002B83E50000030BCBDE8C09F02F0A1
:10054000FF0343EA032242EA024200F002B84FF0FE
:10055000000200B5134694469646203922BFA0E813
:100560000C50A0E80C50B1F12001BFF4F7AF09071F
:1005700028BFA0E80C5048BF0CC05DF804EB890010
:1005800028BF40F8042B08BF704748BF20F8022B53
:1005900011F0804F18BF00F8012B7047704770476B
:1005A00070472DE9F0470D4699469246044600F102
:1005B00024080168880604D5E06921F01001216053
:1005C00000E00120A84201DD471B00E00027A169EF
:1005D0007A1902EB0900081AA0612078C00602D43B
:1005E0002046FFF781FE002608E0D4E901211AF831
:1005F00006009047206A401C761C20624E45F4DBC2
:100600002078C0060AD52046FFF76EFE06E0D4E942
:10061000012130209047206A401C2062381EA7F13B
:100620000107F4DC07E0D4E9012118F80500904740
:10063000206A401C2062281EA5F10105F3DC20463B
:10064000FFF768FE2078000602D50220BDE8F0879B
:100650000120FBE701694A1C02610878704700B578
:100660008FB0CDE901310021059105497944CDE9EB
:10067000031011466846FFF7C3FE0FB000BD00002F
:10068000E5FFFFFFD1E900239A4202D2531C0B6021
:100690001070704710B5436913B1AFF3008001E0EB
:1006A000FFF749FE012010BD127800F124010A7005
:1006B00000224A700122EDE711684FF0FF32E9E7AE
:1006C000754600F02BF8AE4605006946534620F00B
:1006D0000700854618B020B5FFF7D4FDBDE82040DF
:1006E0004FF000064FF000074FF000084FF0000BEE
:1006F000AC46ACE8C009ACE8C009ACE8C009ACE85D
:10070000C00921F007018D46704710B50446AFF3CC
:1007100000802046BDE81040FFF79FBD00487047AD
:100720001000002001491820ABBEFEE726000200A1
:1007300070470000FEE7000070470000B0B50446B7
:1007400000F0F2F8054640F20000C2F20000007826
:10075000611C18BF044400BF00F0E6F8401BA04233
:10076000FAD3B0BD2DE9F04F83B00E68002E00F033
:10077000CF8000F1200241F2000C009200F13847D6
:10078000C4F6000C07224FEAB725604508BF0422D3
:10079000042D38BF4FEAB722002500274FF000088C
:1007A00001920AE00E6808F1010836FA08F207F132
:1007B000020705F1040500F0AB80012202FA08FEF1
:1007C00016EA0E09EED0D1F804C003220CF0030B98
:1007D000ABF1010602FA07F4012E6FEA040A11D800
:1007E0008468CE6804EA0A04BE40344384604468E6
:1007F00024EA0E06CCF3001404FA08F426434660FB
:1008000006E000BFBBF1030F02D14FF0030B21E064
:10081000C6688C6806EA0A06BC402643BBF1020F94
:10082000C66017D16FF00302009B02EA580605F07C
:100830001C020F2453F806C004FA02FE0C692CEACD
:100840000E0C04FA02F242EA0C029A51D1F804C0EA
:100850000CF0030B02680BFA07F302EA0A021A43D0
:100860001CF4403F02609DD041F26003C4F20203D9
:100870001A6840F2004E42F001021A601A68C4F28F
:10088000010E02F001020292029A28F003024FF6D2
:10089000084C7244CFF6FF7C52F80C3005F00C0681
:1008A0000F24B440A343019C04FA06F6334342F8F4
:1008B0000C30DEF808204B6842EA090640F20C4C86
:1008C000DC0258BF22EA0906CEF80860C4F2010C27
:1008D000DCF800209C0242EA090658BF22EA090619
:1008E000CCF80060DEF804209C0342EA090658BFF9
:1008F00022EA0906CEF80460DEF80020DB0342EAB3
:10090000090658BF22EA0906CEF800604AE700BF90
:1009100003B000F000B830BCBDE8C08F1823002A37
:1009200008BF2823C150704743F6E830C2F20000E8
:100930000068704790F84120202A03D190F84020A9
:10094000012A01D102207047242280F84120026848
:10095000136823F001031360136823F480531360BA
:10096000136819431160116841F0010111602021E1
:1009700080F84110002180F84010002070470000EE
:1009800090F84120202A03D190F84020012A01D17B
:1009900002207047242280F841200268136823F067
:1009A00001031360136823F4706343EA01211160AB
:1009B000116841F001011160202180F841100021EF
:1009C00080F8401000207047002804BF01207047C5
:1009D00010B590F8411031B9002180F8401004465C
:1009E00000F03EFA2046242180F8411090E81210D1
:1009F000C3680A68012B22F001020A6024F07062C9
:100A00000A618A6822F400428A6003D14CF40042F1
:100A10008A6007E04CF40442022B8A6004BF4FF462
:100A200000624A604A6800F1100C42F0007242F421
:100A300000424A60CA6822F40042CA609CE81C1066
:100A40001A4342EA0422CA60026A42EA0C020A60BD
:100A50000A6842F001020A6000212022416480F805
:100A60004120016380F84210002010BD2DE9F04FB5
:100A700081B0044690F84100202803D194F840004A
:100A8000012803D1022001B000F0EAB801200E468F
:100A90001746984684F84000FFF746FF2168054650
:100AA0008A6912040AD500BFFFF73EFF401B1928D0
:100AB00000F2C680216888690004F5D4222284F8F7
:100AC0004120102284F84220002262646762A4F868
:100AD0002A806263628D49F6000040F20008CFF67A
:100AE0000040C0F2FF18B2F5807F6FF39F2609D354
:100AF0004A6802403243424402F510524A60FF22E3
:100B00000BE000BF628D4F68D3B246EA0343074053
:100B10003B4308F592373B434B602285618D0A9F2A
:100B200000295DD006F1007907F1010A00F5806B1C
:100B30000DE000BF618D21854268C9B249EA0141DB
:100B400002EA0B0211434160608D002848D0204624
:100B500039462A4601F064FA00285DD12068616AAE
:100B6000406A0870606A218D01306062481E2085ED
:100B7000618D01396185618D0029E5D00004E3D1E3
:100B80002068816909060FD4BAF1000F1AD0002F2E
:100B900054D000BFFFF7C8FE401BB84250D82068B1
:100BA00081690906F6D500BF618DB1F5807FC1D39B
:100BB000FF212185416801EA0B01314341EA080127
:100BC000C1E700BF81690906EED4816909065CBFEF
:100BD00081695FEA0161E7D481690906F2D5E3E73B
:100BE00087B100BF20688169890619D4204639463B
:100BF0002A4601F069F978B9FFF796FE401BB84222
:100C0000F0D91DE020688169890609D420460021B9
:100C10002A4601F059F988B1012001B000F020B84E
:100C20002021C16142684EF60003CFF600631A40EE
:100C30004260002084F841100AE000BFFFF774FE14
:100C4000606C40F020006064202084F841000120A6
:100C5000002184F8421084F8401001B000F000B880
:100C600030BCBDE8C08F00002DE9F04F81B00446D4
:100C700090F84100202803D194F84000012803D1C6
:100C8000022001B000F0E8B801200E461746984651
:100C900084F84000FFF748FE216805468A6912047F
:100CA0000AD500BFFFF740FE401B192800F2C480A0
:100CB000216888690004F5D4212284F8412010229B
:100CC00084F84220002262646762A4F82A8062638A
:100CD000628D49F6000040F20008CFF60040C0F2F5
:100CE000FF18B2F5807F6FF39F2609D34A68024050
:100CF0003243424402F500524A60FF220BE000BF3B
:100D0000628D4F68D3B246EA034307403B4308F580
:100D100090373B434B602285628D0A9F002A5BD04F
:100D200006F1007907F1010A00F5806B0DE000BFC4
:100D3000608D20854A68C0B249EA004002EA0B0291
:100D400010434860608D002846D0204639462A4628
:100D500001F0C4F900285AD1606A216810F8012B0B
:100D60008A626062608D01386085208D013820853F
:100D7000628D002AE6D00004E4D1886900060FD411
:100D8000BAF1000F1AD0002F54D000BFFFF7CCFDEE
:100D9000401BB84250D8216888690006F6D500BFCC
:100DA000608DB0F5807FC3D3FF202085486800EABE
:100DB0000B00304340EA0800C3E700BF8869000623
:100DC000EED4886900065CBF88695FEA0060E7D4FA
:100DD00088690006F2D5E3E787B100BF216888691A
:100DE000800619D4204639462A4601F06DF870B9BC
:100DF000FFF79AFD401BB842F0D91DE088698006D4
:100E00000AD4204600212A4601F05EF890B1012064
:100E100001B000F021B800BF2020C8614A684EF63A
:100E20000003CFF600631A404A6084F841000020B6
:100E30000AE000BFFFF778FD606C40F020006064BE
:100E4000202084F841000120002184F8421084F819
:100E5000401001B000F000B830BCBDE8C08F000009
:100E600010B586B0006845F20041C4F20001884226
:100E70004FF000000590CDE90300CDE9010001D05D
:100E800006B010BD41F24C04C4F20204206801A96E
:100E900040F002002060206800F0020000900098FE
:100EA000C0200190122002900120039003200490A2
:100EB0000420059040F20040C4F60000FFF752FC09
:100EC000E06840F40010E060E06800F4001000907A
:100ED000009806B010BD000040F2000043F6E83173
:100EE000C2F20000C2F2000100780A6810440860F3
:100EF0007047000080B5032000F07AF80F2000F062
:100F000009F800281CBF012080BD00F02BF800204C
:100F100080BD0000B0B540F20005C2F2000529789E
:100F2000F1B1044640F20800C2F200004FF47A72B8
:100F30000068B2FBF1F1B0FBF1F000F0ADFF01464B
:100F40000F2C4FF001000AD8002918BFB0BD4FF098
:100F5000FF302146002200F01FF800206C60B0BD79
:100F60000120B0BD82B041F25800C4F20200816895
:100F700041F001018160816801F001010191019955
:100F8000016841F080510160006800F080500090DD
:100F9000009802B07047000010B54EF60C5CCEF21F
:100FA000000CDCF80030C3F3022E8EF00704042C92
:100FB00028BF0424BEF103034FF0FF3E0EFA04F4F1
:100FC00038BF0023A14399400EFA03F39A4311431B
:100FD00000F00F0200F160430901043A03F5644395
:100FE0006244002848BF02F10C03197010BD0000D4
:100FF0004EF60C51CEF200010A684FF6FF031A407C
:1010000060F30A2242F0806040F0FD700860704793
:1010100047F20001C4F200010A68B0F5007F02F453
:10102000C06031D1B0F5007F2CD00868012262F396
:101030004A20086040F20800C2F200000068322234
:1010400050434DF68362C4F21B32A0FB0202900CA7
:101050004A69520511D5421C0FD04A6952050CD578
:1010600058B14A69520508D5012806D04A69520587
:1010700003D50228A0F10400EAD14869400544BF25
:101080000320704700207047B0F5806FFAD00868E1
:10109000022262F34A2008600020704747F20000F5
:1010A000C4F20000006800F4C060704747F200001E
:1010B000C4F20000016841F48071016070470000D3
:1010C00041F20000C4F20200016841F00401016035
:1010D000704700002DE9F04381B0002800F08C80BB
:1010E00042F20009C4F202090446D9F8000000F0F7
:1010F000070081420CD9D9F8000020F0070008430E
:10110000C9F80000D9F8000000F00700884273D148
:10111000206841F2080610F00202C4F202060AD06A
:10112000A368376807F0F007BB4204D9376827F097
:10113000F0073B433360C30734D0606856F8082C8F
:1011400050B1022804D003280AD192010AD453E0F6
:10115000920307D450E000BF920703D44CE000BFD5
:10116000520549D58846316821F0030108433060B3
:10117000FFF7DAFB054641F2883700BF3068616847
:1011800000F00C00B0EB810F08D0FFF7CDFB401B47
:10119000B842F3D9032001B0BDE8F083206841468E
:1011A00000F0020252B1A268336803F0F0039A42E1
:1011B00004D2336823F0F0031A433260D9F80020D8
:1011C00002F0070291420CD2D9F8002022F0070267
:1011D0000A43C9F80020D9F8002002F007028A4229
:1011E0000AD141070CD4000712D43068716810F09E
:1011F0000C0019D11EE000BF012001B0BDE8F08352
:101200003168E26821F4E061114331600007ECD5F8
:101210003068216920F4605040EAC10030603068D5
:10122000716810F00C0005D00C282BD101F00301DF
:10123000012927D156F8081C042211F008016FF08B
:10124000070108BF8C21715808BF0822D14045F220
:10125000744201F00F01C0F6000252F8211000287C
:101260000A4618BF00220C2838D1706800F003002D
:10127000022811D0032804BF41F20021C0F27A01F4
:101280000EE000BF04281FD0082823D141F200221D
:10129000C0F27A0222E000BF42F20041C0F2F40143
:1012A00070687268C0F30210C2F30622514372687C
:1012B0000130B1FBF0F0C2F34161022202EB4101C7
:1012C000B0FBF1F20AE000BF42F20042C0F2F402C9
:1012D00004E000BF002200210C28C6D0306845F28F
:1012E0006341C0F30310C0F60001085C00F01F006A
:1012F00022FA00F140F20400C2F2000040F20802BB
:101300000068C2F20002116001B0BDE8F043FFF7CF
:1013100001BE0000002804BF012070472DE9F04302
:1013200083B041F200060446C4F20206B068F168D8
:10133000227800F00C09D00601F003081ED42078B2
:10134000C00700F08880B9F1080F00F07D80B9F186
:101350000C0F08BFB8F1030F76D061683068B1F5A3
:10136000803F07D0B1F5A02F40F0528240F480209A
:101370003060306840F48030306053E2B9F1000FE3
:101380001CD0B9F10C0F08BFB8F1010F16D0A1693C
:101390003068002900F0A08140F001003060FFF7C4
:1013A000C3FA05463068800700F1A881FFF7BCFA50
:1013B000401B02284FF00300F4D960E33068800737
:1013C00003D5A069002800F00F83256A3068000764
:1013D00000F14A81D6F89400000900F0F00085423F
:1013E00000F248813068B9F1000F40F00800306029
:1013F000306820F0F00040EA050030607068E16974
:1014000020F47F4040EA0120706040F0B882B06D67
:10141000C00000F15582B06D40F08050B065B06DF5
:1014200000F0805002900298FFF738FEB16D21F075
:101430008051B165B0F5007F00F04882802D40F208
:10144000858203208DE200BF3068800303D5606889
:10145000002800F0C982207880072DD5B9F1040F4B
:101460001CD0B9F10C0F08BFB8F1020F16D0E1681B
:101470003068002900F0E68140F480703060FFF7AA
:1014800053FA0546306840050FD4FFF74DFA401B6C
:1014900002284FF00300F5D9F1E200BF30684005A3
:1014A00003D5E068002800F09F827068216920F071
:1014B000F85040EA016070602078000760D420781E
:1014C000400779D42078800600F1B280A06A002815
:1014D00000F01683022840F02381F068E16A00F0F2
:1014E00003028A4240F03481226B6FF00F0300F058
:1014F000700103EB0212914240F02A81616B00F40B
:10150000FE42B2EB012F40F02381A16B00F0784244
:10151000B2EBC16F40F01C81E26B0023CFF6E073A9
:1015200003EA025200F4C001A2F50012914240F019
:101530000F81216C4FF07E4202EA016100F0C06031
:1015400001F17E41884240F003813068800100F162
:10155000D782306840F080703060F06840F0807072
:10156000F060FFF7E1F904463068800100F1C882BD
:10157000FFF7DAF9001B02284FF00300F4D97EE2EE
:101580006169D6F89400002900F0908040F00100D5
:10159000C6F89400FFF7C8F9054600BFD6F89400D6
:1015A00080078CD4FFF7C0F9401B0228F6D903202E
:1015B00003B0BDE8F08300BFB06D5FEAC00808D497
:1015C000B06D40F08050B065B06D00F0805000907C
:1015D000009847F20007C4F200073868C00513D42A
:1015E000386840F480703860FFF79EF9054600BF08
:1015F0003868C00508D4FFF797F9401B02284FF060
:101600000300F5D93BE200BFA168D6F8900001299C
:1016100008D0052940F0DC8040F00400C6F89000B6
:10162000D6F8900040F00100C6F89000DCE000BF62
:10163000616AD6F89800002900F0B48040F00100FB
:10164000C6F89800FFF770F9054600BFD6F8980075
:1016500080073FF53BAFFFF767F9401B02284FF0CB
:101660000300F3D90BE200BF306800F0F0008542C0
:101670007FF6B8AEB06DC00000F18680B06D40F06E
:101680008050B065B06D00F0805001900198FFF778
:1016900005FDB16D21F08051B165B0F5007F79D0C5
:1016A000802D40F2E1800320E9E000BF20F001003E
:1016B000C6F89400FFF738F9054600BFD6F8940045
:1016C00080077FF5FCAEFFF72FF9401B02284FF093
:1016D0000300F3D9D3E100BF20F001003060FFF731
:1016E00023F90546306880077FF529AEFFF71CF91E
:1016F000401B02284FF00300F4D9C0E1306840F0ED
:10170000080030603068D4E9071220F0F000104380
:101710003060706820F47F4040EA012070600EE67F
:10172000B9F10C0F00F06081306820F080703060FB
:10173000FFF7FAF8044600BF3068800140F1EA8004
:10174000FFF7F2F8001B02284FF00300F4D996E1EE
:10175000B9F10C0F00F048813068400100F144817C
:10176000306820F080703060FFF7DEF8054600BF7B
:101770003068800140F18681FFF7D6F8401B0228CF
:101780004FF00300F4D97AE1FFF788FCB0F5007F51
:101790007FF486AF812D71D30120A02D88BF022058
:1017A0006DE000BF20F00100C6F89800FFF7BCF81C
:1017B000054600BFD6F8980080077FF587AEFFF793
:1017C000B3F8401B02284FF00300F3D957E100BFE4
:1017D00020F00100C6F89000D6F89000002920F013
:1017E0000400C6F8900079D0FFF79EF8054641F254
:1017F000883700BFD6F89000800700F18180FFF79E
:1018000093F8401BB842F5D9032003B0BDE8F0833C
:1018100020F4803030603068002920F4802030606F
:1018200000F08480FFF780F8054600BF3068800331
:101830003FF511AEFFF778F8401B64284FF0030026
:10184000F4D91CE120F480703060FFF76DF8054694
:10185000306840057FF530AEFFF766F8401B022880
:101860004FF00300F4D90AE1A5F17000B0FA80F05E
:101870004009802D08BF022001E000BF002042F295
:101880000001C4F202010A6822F0070202440A6061
:10189000096801F00701814240F0A680306840F0FD
:1018A000080030603068D4E9071220F0F0001043DF
:1018B0003060706820F47F4040EA012070605EE094
:1018C000FFF7ECFBB0F5007F7FF4B8AD812D47D377
:1018D0000120A02D88BF022043E000BFFFF724F8BD
:1018E000054641F2883700BFD6F89000800707D53B
:1018F000FFF71AF8401BB8424FF00300F4D9BEE0DE
:10190000B8F1000F3FF5DEADB06D20F08050B0654E
:10191000D8E500BFF0684FF6FC71CFF6EE610840E5
:10192000F060002003B0BDE8F08300BFFEF7FCFFCD
:10193000054600BF306880037FF58DADFEF7F4FFEC
:10194000401B64284FF00300F4D998E0A5F1700023
:10195000B0FA80F04009802D08BF022001E000BFEE
:10196000002042F20001C4F202010A6822F00702DC
:1019700002440A60096801F00701814234D1B0686D
:10198000F16810F00C0005D00C2831D101F00301F2
:1019900001292DD1314651F8942B12F0080232461C
:1019A00008BF0A464FF00401126808BF082122FA56
:1019B00001F145F2744201F00F01C0F6000252F845
:1019C000211000280A4618BF00220C283CD1F068DC
:1019D00000F00300022815D0032804BF41F20021C3
:1019E000C0F27A0112E000BF012003B0BDE8F0832D
:1019F00004281FD0082823D141F20022C0F27A0225
:101A000022E000BF42F20041C0F2F401F068F26847
:101A1000C0F30210C2F306225143F2680130B1FB59
:101A2000F0F0C2F34161022202EB4101B0FBF1F29E
:101A30000AE000BF42F20042C0F2F40204E000BF3C
:101A4000002200210C28C2D0B06845F26341C0F3E7
:101A50000310C0F60001085C00F01F0022FA00F13C
:101A600040F20400C2F2000040F208020068C2F234
:101A700000021160FFF74EFA00283FF460AC03B09B
:101A8000BDE8F083F06848F28C01C0F29D1104F1CA
:101A90002C0700EA010C8ECF6FF00F00D4E90F5431
:101AA00000EB02100022CFF6E07241EA0C0102EADC
:101AB00005520843A2F500124FF07E4540EA03208C
:101AC00005EA0465104305F17E4540EAC7602843F6
:101AD000F060306840F080703060F06840F08070F6
:101AE000F060FEF721FF04463068800108D4FEF75D
:101AF0001BFF001B02284FF00300F5D9BFE700BF12
:101B0000002003B0BDE8F083002804BF0120704727
:101B1000416A19B100210161142104E04168B1F565
:101B2000827F02D01C2100224250B0B50025856280
:101B300090F85D1029B980F85C50044600F052F826
:101B40002046022180F85D100168D0F80CE00B6897
:101B5000BEF5E06F23F040030B6098BF01254EF403
:101B60000063B3F5706F4FEA053C1CBF002585622A
:101B7000D0E90154D0E9043205F4827504F4044438
:101B80002C4403F002032344846902F00102C56976
:101B90001A4404F400731A4405F03803056A1A4421
:101BA00005F08003856A1A4405F400531A430A605D
:101BB0000422436A0EF4706502EA1442446B45EA5B
:101BC0000C0503F010032A4304F008041A432243CF
:101BD0004A6000210122016680F85D20BDE8B04026
:101BE0000846704780B586B0006843F20002C4F230
:101BF000010200219042CDE90411CDE902110191C9
:101C000002D006B080BD00BF41F24C00C4F2020019
:101C1000426942F480524261426902F48052009269
:101C2000009A026842F001020260006800F00100C0
:101C300000900098A02001900220CDE9020103202D
:101C400004900520059001A94FF09040FEF78AFD11
:101C500006B080BD2DE9F04381B0044690F85C00E9
:101C6000012803D1022001B0BDE8F0834FF0010844
:101C70001D460F46164684F85C80FEF755FE94F824
:101C80005D10012948D18146002F4FF0010018BF97
:101C9000002E00F0D9800320002284F85D00226627
:101CA000A763A687E6872264A4F84420A4F8462008
:101CB000A0683146B0F5004F2068E264226507D184
:101CC000026822F040020260026842F48042026030
:101CD0000268520603D4026842F040020260626861
:101CE0000139E368B2FA82F2B1FA81F15209490985
:101CF000B3F5E06F41EA02013ED931B137F8021B7A
:101D0000C160A763E08F0138E087E08F002871D0C1
:101D1000681C0ED11FE000BF022095E0A16B31F8D6
:101D2000022BC260A163E08F0138E087E08F0028BA
:101D300060D0206881688907F0D4FEF7F5FDA0EB3C
:101D40000900A842F2D303207EE000BFFEF7ECFDBD
:101D5000E08F00284ED0206881688907F6D5A16BF6
:101D600031F8022BC260A163E08F0138E087E08F79
:101D70000028F0D13EE000BF89B1E18F02294FF683
:101D8000FE7103D337F8022BC26004E03A780131C8
:101D90000273A06B471CA763E08F0844E087E08FC5
:101DA00040B3681C5DD04FF6FE70471C08E000BFD2
:101DB000FEF7BAFDA0EB0900A842C4D2E08FC8B17B
:101DC000216888688007F3D5E28FA06B022A05D3CB
:101DD00030F8022BCA604FF6FE7104E000780873F9
:101DE000A06B39460130A063E08F0844E087E08FA4
:101DF0000028E5D120464FF4C0512A464B4600F05A
:101E0000B7F968B9204629464A4600F071FA38B950
:101E100020464FF4C0612A464B4600F0A9F928B18C
:101E2000206E40F02000206620202066A06838B98F
:101E3000002000902068C1680091806800900098A0
:101E4000206E002818BF0120002184F85D8084F8EE
:101E50005C1001B0BDE8F083FEF766FDE08F00285E
:101E6000C8D0206881688907F6D5E28FA16B012A66
:101E700008D931F8022BC260A163E08F0238E087F5
:101E8000ECE700BF09780173A06B0130A063E08F1D
:101E90000138E087E2E70000411E0020B0EB116F3F
:101EA0001CBF012070474EF21002CEF200025160BA
:101EB0004EF62351CEF20001F0230B700721906003
:101EC00011607047FEE700002DE9F04381B0036820
:101ED00004469869C00605D4002000219A69D705F8
:101EE00060D465E01020D8619869800653D4884694
:101EF000481C46D016464FF02009002506E000BFDA
:101F00000027986900F02000384335D1FEF70CFD1A
:101F10002368B8F1000F02D0801B4045F0D9596802
:101F200094F842009A6912040CD511F4804109D149
:101F3000202807D0586840F480405860FEF7F4FC31
:101F4000236806469869002702E000BF2368986965
:101F50008006D6D4FEF7E8FC801B1A28F6D3606C06
:101F6000012740F02000606484F8419084F84250DA
:101F700084F84050EAE700BF7FB90CE0986980061A
:101F800009D49869800606D4986980065CBF986970
:101F90005FEA8060F2D52020D861012104209A698F
:101FA000D70505D54FF4807140F00100D9610121BA
:101FB000570507D492050BD479B9002001B0BDE8CC
:101FC000F08300BF08304FF480619205D96104D5D9
:101FD00040F002004FF40071D9619969890744BF4C
:101FE000002199629969C90703D1996941F00101FA
:101FF000996159684EF60002CFF6006211405960AF
:10200000616C08436064202084F84100002084F85B
:10201000420084F84000012001B0BDE8F0830000D8
:1020200070B51546044609B30E4600BF20688069A6
:10203000400734D4204631462A46FFF745FFF8B919
:1020400020688169890625D4FEF76EFC401BB042EA
:10205000ECD9606C40F020006064202084F84100DE
:10206000002084F84000012070BD00BF2068806916
:10207000400714D4204600212A46FFF725FF08B167
:10208000012070BD20688169890603D4FEF74CFCED
:10209000DFE700BF8169490704D5218D11B1002018
:1020A00070BD00BF82694EF60006D2064FF00002F6
:1020B00042BF1022C261042262642022C2614368CE
:1020C000CFF6006600213340436084F8412084F855
:1020D0004210002084F84000012070BD70B5044615
:1020E00000688069800710D415460E4611B3701C35
:1020F00017D100BF20464FF0FF312A46FFF7E4FE1C
:10210000F0B9206880698007F4D5002070BD00BF59
:10211000FEF70AFC401BB04216D820688069800791
:10212000F3D4204631462A46FFF7CEFE0028EFD0F2
:1021300006E000BF204600212A46FFF7C5FE08B191
:10214000012070BDFEF7F0FB606C40F02000606481
:10215000202084F84100002084F8420084F84000E8
:10216000012070BDFEE70000FEE7000070470000A0
:102170002DE9F04782B000261F4690460D46814665
:102180008DF80360FEF7D0FB381A00EB0807FEF766
:10219000CBFB40F20801C2F200010968232251433F
:1021A000090DD9F8004079430191A168294235D041
:1021B000824618F1010035D0B5F5C06F1AD100BFC5
:1021C000207B8DF803009DF80300FEF7ADFBA0EB2C
:1021D0000A00B8425ED2019801990028A1F10101DC
:1021E0000191D9F80010896808BF074611F4C06F43
:1021F000E6D112E0FEF798FBA0EB0A00B84249D204
:10220000019801990028A1F101010191D9F800106C
:10221000896808BF07462942ECD10026304602B043
:10222000BDE8F0870026B5F5C06F25D1207B8DF87D
:1022300003009DF80300A06810F4C06FEDD0207B70
:102240008DF803009DF80300A06810F4C06FE4D07F
:10225000207B8DF803009DF80300A06810F4C06F88
:10226000DBD0207B8DF803009DF80300A06810F4FC
:10227000C06FDBD1D2E700BFA0682842CDD0A068F4
:102280002842CAD0A0682842C7D0A0682842F3D10B
:10229000C4E700BFD9E900014268B1F5827F22F0AE
:1022A000E00242600BD1D9F80810B1F5004F02D01E
:1022B000B1F5806F03D1016821F040010160D9F8C8
:1022C0002810B1F5005F07D1016821F400510160C9
:1022D000016841F400510160012089F85D0000208F
:1022E00089F85C000326304602B0BDE8F0870000A4
:1022F000F0B581B015460E460446FEF715FB281AC8
:102300008719FEF711FB40F20801C2F200010968CB
:10231000C1F3CB317943009121688A68120622D536
:102320000546701C15D000BFFEF7FEFA401BB842F0
:102330001CD2009800990028A1F1010100912168A8
:10234000896808BF07460806EED40CE088680006D6
:1023500009D58868000606D58868000644BF8868E5
:102360005FEA0060F2D4002001B0F0BDD4E90001C2
:102370004268B1F5827F22F0E00242600AD1A16892
:10238000B1F5004F02D0B1F5806F03D1016821F0A3
:1023900040010160A16AB1F5005F07D1016821F435
:1023A00000510160016841F400510160012084F88E
:1023B0005D00002084F85C00032001B0F0BD000047
:1023C00070470000FEF788BD10B596B005A84421FF
:1023D000FEF7BDF800244FF400700494CDE90244E8
:1023E000CDE90044FEF714FE20B1EFF3108072B681
:1023F000FEE700BFFEF75AFE41F29000C4F2020071
:10240000016821F01801016014206021059001206D
:102410000D9102210790CDE90B04CDE90F10119029
:10242000282012900720CDE9130105A81591FEF789
:1024300071FF28B1EFF3108072B600BFFEE700BF56
:102440000F200090032001900020CDE902000490AD
:1024500068460421FEF73EFE20B1EFF3108072B60D
:10246000FEE700BFFEF72CFE16B010BD4EF68850FA
:10247000CEF20000016841F4700101607047000075
:10248000FEE7000092B040F2004845F20049C4F671
:102490000008C4F20009FEF72DFDFFF795FF0027A5
:1024A00041F24C000B97CDE90977CDE90777C4F2EB
:1024B00002000168012241F0040101600168502519
:1024C00001F004010C910C990168012441F0800194
:1024D0000160016801F080010C910C99016841F0E4
:1024E00001010160016801F001010C910C99016882
:1024F00041F0020101600068502100F002000C90E0
:102500000C984FF09040FEF709FA40460121012255
:10251000FEF704FACDE9075407AD02264FF09040CC
:10252000294609970A96FEF71DF940462946CDE946
:102530000744CDE90976FEF715F940F2EC0609F5F6
:102540005C40C2F200064FF4827186E883000720E7
:102550004FF4E0624FF400731025C6E90A7030466C
:10256000C6E90327C6E90573F561C6E90877C6E938
:102570000C77FFF7C9FA28B1EFF3108072B600BFED
:10258000FEE700BF40F27005C2F20005284649F69A
:10259000EC4140F8289FC1F29001C0E90117C0E961
:1025A0000347C0E90577C0E90777FEF70DFA28B1C0
:1025B000EFF3108072B600BFFEE700BF2F4628354C
:1025C00028460021FEF7B6F920B1EFF3108072B66D
:1025D000FEE700BF28460021FEF7D2F920B1EFF355
:1025E000108072B6FEE700BFB94647F80C6F4FF097
:1025F0009040786178604020388101201021388235
:1026000038463983C7F80C804FF0010A01F066FDA7
:10261000A7F1080007F11C01442200F073F93846C5
:10262000012101F04DFD384602F02CFE4FF4FA7006
:10263000FEF784F838460021002401F041FD3846B9
:1026400002F020FE4FF4FA70FEF778F838460121C8
:1026500001F036FD384602F015FE4FF4FA70FEF731
:102660006DF83846002101F02BFD384602F00AFED5
:102670004FF4FA70FEF762F83846012101F020FDB0
:10268000384602F0FFFD4FF4FA70FEF757F838466F
:10269000002101F015FD384602F0F4FD4FF4FA7008
:1026A000FEF74CF80C2022214FF4807240F24B23AD
:1026B00022270590049700F0ADF841F2883809F11F
:1026C000040003907CE000BFB9F80000B9F802B044
:1026D00005B280EAE53045F2C042A0EBE539FBB235
:1026E0005FFA86FC10A80821C0F600020597049640
:1026F000CDF800C0FDF7D8FD45F2C94345F2B3401F
:10270000C0F60003C0F60000002D48BF034646F2A5
:10271000676010FB09F0811401EBD07505EB8500B3
:10272000A9EB40000DF11C0A45F2B54207B2504634
:102730001021C0F60002CDE90057FDF7B5FD1FFAE4
:102740008BF04CF6CD414843C30C03EB8300ABEB5D
:1027500040000DF1300B45F2A94287B258461021D6
:10276000C0F600020097FDF79FFD40F27005C2F22F
:10277000000505F10C094846002101F0A1FC48467E
:102780000A21142210AB01270426CDE9007601F0BE
:1027900075FC48460A21782253460326CDE9007687
:1027A00001F06CFC48460A21B4225B464FF0010A56
:1027B000CDE9007601F062FC484602F063FDA946CF
:1027C000FEF7B2F8001B4045FAD3FEF7ADF8059FBF
:1027D000049E5AFA87F140F6AB2201364A4304467A
:1027E000F0B2120C02EB42023B2884BFA1EBC207FD
:1027F0000026039806A900F089F800287FF464AF4A
:10280000BDF81800BDF81AB0A9F80000A9F802B088
:102810005EE700002DE9F0438DB01E46034610B27E
:1028200015460F4682EAE03145F2C0420DF12C0810
:10283000A1EBE034C0F60002404608210097FDF706
:1028400033FD45F2B34045F2C943C0F60000C0F67F
:102850000003002D48BF034646F2676010FB04F0FA
:10286000811401EBD07707EB8700A4EB400045F221
:10287000B5420DF11C0904B2C0F600024846102111
:10288000CDE90074FDF710FD4CF6CD407043C30C4C
:1028900003EB8300A6EB400045F2A94203AE87B2EA
:1028A000C0F60002304610210097FDF7FDFC40F213
:1028B0007000C2F2000000F10C073846002101F060
:1028C000FFFB0425012438460A2114224346CDE9A2
:1028D000004501F0D3FB032538460A2178224B46F8
:1028E000CDE9004501F0CAFB38460A21B42233463F
:1028F000CDE9004501F0C2FB384602F0C3FC0DB043
:10290000BDE8F0830160510001717047F0B583B0FC
:1029100005460C46242200682979ADF80A204FF0BC
:10292000FF360DF10A0202230096FEF79DF908B169
:1029300003B0F0BD0F20FDF701FF2868297901AA37
:1029400006230096FEF792F80028F1D19DF90400C5
:102950003121C24381EA4203002848BF53005AB2E2
:102960005E00002A48BF81EA430672B27300002A63
:1029700048BF81EA46035AB25E00002A48BF81EA96
:10298000430672B27300002A48BF81EA46035AB276
:102990005E00002A48BF81EA430672B27300002A33
:1029A00048BF81EA46035AB25E00002A48BF81EA66
:1029B00043069DF805C09DF8063086EA0C0256B223
:1029C0005500002E48BF81EA42056AB26E00002A17
:1029D00048BF81EA450672B27500002A48BF81EA05
:1029E00046056AB26E00002A48BF81EA450672B207
:1029F0007500002A48BF81EA46056AB26E00002AC7
:102A000048BF81EA450672B27500002A48BF81EAD4
:102A100046056AB26E00002A48BF81EA4506F2B256
:102A20009A4240F095809DF907E06FEA0E0281EA34
:102A30004206BEF1000F48BF560072B27500002A70
:102A400048BF81EA46056AB26E00002A48BF81EAA3
:102A5000450672B27500002A48BF81EA46056AB28F
:102A60006E00002A48BF81EA450672B27500002A4E
:102A700048BF81EA46056AB26E00002A48BF81EA73
:102A8000450672B27300002A48BF81EA46039DF8EA
:102A900008509DF809206B405EB25F00002E48BFD1
:102AA00081EA43077BB27E00002B48BF81EA4706DC
:102AB00073B27700002B48BF81EA46077BB27E00E5
:102AC000002B48BF81EA470673B27700002B48BF4E
:102AD00081EA46077BB27E00002B48BF81EA4706A9
:102AE00073B27700002B48BF81EA46077BB27E00B5
:102AF000002B48BF81EA4706F1B2914228D1C0B20B
:102B00004CEA002047F6FF7140F2D66200FB02104B
:102B100041F20102C1F20002A0FB02025FFA8EF054
:102B200045EA00204FF47A7300FB031040F60101E0
:102B3000C0F60001A0FB0101C80A4FF63E61CFF6C6
:102B4000FF7101EB123160800020218003B0F0BDE5
:102B5000012003B0F0BD00002DE9F04F93B0DDF887
:102B600074B0A3F1200034281292009120D80FF6FF
:102B7000AC520192DFE800F01C1C1C1C1C3E1C1C0B
:102B80001C1C1C1C1C3A2A1C61324246565226361A
:102B90002E224A1C1C1C1C1C1C1C1C4E1C1C1C1CFD
:102BA0005E1C1C1C1C1C1C1C1C1C1C1C5A0000BF7A
:102BB00045F2A440C0F600003EE000BF0FF64860BA
:102BC0003AE000BF0FF6486036E000BF0FF64860FD
:102BD00032E000BF0FF648602EE000BF0FF64860FD
:102BE0002AE000BF0FF6486026E000BF0FF64860FD
:102BF00022E000BF0FF648601EE000BF0FF64860FD
:102C00001AE000BF0FF6486016E000BF0FF64860FC
:102C100012E000BF0FF648600EE000BF0FF64860FC
:102C20000AE000BF0FF6486006E000BF0FF64860FC
:102C300002E000BF0FF648600190BBF1000F01F009
:102C40001782129A4FF0010802EB4B0110910BEB27
:102C50004B018F1802EB41010C9128EA0201099106
:102C600002F0010108918BEA02010BEB02030F97BE
:102C700002EB8B0701F0010228EA0101039103F046
:102C800001011C9807910BF003010B9140F25011C8
:102C90000E9703EB8B0704920BF0FC0C0028C2F29A
:102CA00000014FF000020D97119300F0BD844FF02A
:102CB0004B0904E0029A0132052A01F0D9810198FA
:102CC0000292835C0098059302FB0B000A90D807E0
:102CD00040F0B8800598800700F15C8105984007B6
:102CE00000F1FC810598000700F19C820598C00660
:102CF00000F148830598800600F1E88305984006B6
:102D0000D8D54FF0000A03E00AF1010ADA45D1D024
:102D10000A98504482B292084A2AF5D80623BBF199
:102D2000040F03EA400E47D200260B980028EBD090
:102D30000C988719B8B20309182B0ED8400810FB5D
:102D4000092007F0010343EA0E0380B283F0070372
:102D50000C5C08FA03F323430B540B980128D3D0DF
:102D6000781C84B22309182B0ED8630813FB09239F
:102D700000F0010040EA0E009BB280F00700CC5C3E
:102D800008FA00F02043C8540B980228BCD0B81CA5
:102D900084B22309182BB7D8630813FB092200F06B
:102DA000010040EA0E0092B280F007008B5C08FA46
:102DB00000F018438854A7E70898002640EA0E0060
:102DC00080F0070008FA00F5099840EA0E0080F04C
:102DD000070008FA00F702E00436B445A5D00C98C5
:102DE0008419A0B20309182B06D8400810FB09204B
:102DF00080B20B5C2B430B54601C80B20309182B70
:102E000006D8400810FB092080B20B5C3B430B54F2
:102E1000A01C80B20309182B06D8400810FB09201B
:102E200080B20B5C2B430B54E01C80B20309182BBF
:102E3000D2D8400810FB092080B20B5C3B430B54F6
:102E4000CAE700BF4FF0000A05E000BF0AF1010A1F
:102E5000DA453FF43FAF0A9800EB0A07B8B28208A0
:102E60004A2AF3D80620DE46BBF1040F00EA4703E6
:102E7000069349D200260B98F3460028E6D0129814
:102E80008719B8B20309182B0ED84008069E10FB0C
:102E9000092007F00103334380B283F007030C5C81
:102EA00008FA03F323430B540B980128CED07C1C63
:102EB000A0B20309182B0ED84008069E10FB09206B
:102EC00004F00103334380B283F007030C5C08FA7B
:102ED00003F323430B540B980228B7D0BC1CA0B2B9
:102EE0000309182BB2D84008069B10FB092004F0F8
:102EF00001021A4380B282F007020B5C08FA02F268
:102F00001A430A54A2E700BF08980026184380F02D
:102F1000070008FA00F50998184380F0070008FA3E
:102F200000F702E00436B445A5D012988419A0B287
:102F30004FEA101BBBF1180F06D8400810FB092000
:102F400080B20B5C2B430B54601C80B20309182B1E
:102F500006D8400810FB092080B20B5C3B430B54A1
:102F6000A01C80B20309182B06D8400810FB0920CA
:102F700080B20B5C2B430B54E01C80B20309182B6E
:102F8000D0D8400810FB092080B20B5C3B430B54A7
:102F9000C8E700BF4FF0000A05E000BF0AF1010AD0
:102FA000DA453FF49BAE0A9800EB0A07B8B28208F4
:102FB0004A2AF3D80620BBF1040F00EA470E47D295
:102FC00000260B980028E9D011988719B8B2030998
:102FD000182B0ED8400810FB092007F0010343EA24
:102FE0000E0380B283F007030C5C08FA03F323435B
:102FF0000B540B980128D1D07C1CA0B20309182BCC
:103000000ED8400810FB092004F0010343EA0E0328
:1030100080B283F007030C5C08FA03F323430B54DC
:103020000B980228BAD0BC1CA0B20309182BB5D843
:10303000400810FB092004F0010242EA0E0280B2AF
:1030400082F007020B5C08FA02F21A430A54A5E761
:103050000498002640EA0E0080F0070008FA00F508
:10306000039840EA0E0080F0070008FA00F702E03B
:103070000436B445A5D011988419A0B20309182BC1
:1030800006D8400810FB092080B20B5C2B430B5480
:10309000601C80B20309182B06D8400810FB0920D9
:1030A00080B20B5C3B430B54A01C80B20309182B6D
:1030B00006D8400810FB092080B20B5C2B430B5450
:1030C000E01C80B20309182BD2D8400810FB09205D
:1030D00080B20B5C3B430B54CAE700BF4FF0000AC1
:1030E00005E000BF0AF1010ADA453FF4FBAD0A989A
:1030F00000EB0A07B8B282084A2AF3D80620BBF1CF
:10310000040F00EA470E47D200260B980028E9D0AA
:1031100010988719B8B20309182B0ED8400810FB75
:10312000092007F0010343EA0E0380B283F007038E
:103130000C5C08FA03F323430B540B980128D1D0FD
:103140007C1CA0B20309182B0ED8400810FB0920E4
:1031500004F0010343EA0E0380B283F007030C5C22
:1031600008FA03F323430B540B980228BAD0BC1C73
:10317000A0B20309182BB5D8400810FB092004F0B1
:10318000010242EA0E0280B282F007020B5C08FAEA
:1031900002F21A430A54A5E70898002640EA0E00F6
:1031A00080F0070008FA00F5099840EA0E0080F068
:1031B000070008FA00F702E00436B445A5D01098DD
:1031C0008419A0B20309182B06D8400810FB092067
:1031D00080B20B5C2B430B54601C80B20309182B8C
:1031E00006D8400810FB092080B20B5C3B430B540F
:1031F000A01C80B20309182B06D8400810FB092038
:1032000080B20B5C2B430B54E01C80B20309182BDB
:10321000D2D8400810FB092080B20B5C3B430B5412
:10322000CAE700BF4FF0000E05E000BF0EF1010E2F
:10323000DE453FF45BAD0A9800EB0E0290B28408C5
:103240004A2CF3D80620BBF1040F00EA420245D213
:1032500000250B980028E9D00F984719B8B2030948
:10326000182B0DD8400810FB094007F00103134349
:1032700080B283F007030D5C08FA03F32B430B5471
:103280000B980128D2D0781C83B21D09182D0DD8B7
:103290005B0813FB094300F0010010439BB280F070
:1032A0000700CD5C08FA00F02843C8540B980228A8
:1032B000BCD0B81C83B21D09182DB7D85B0813FB0E
:1032C000094300F0010010439AB280F007008B5CC4
:1032D00008FA00F018438854A8E700BF07980025B3
:1032E000104380F0070008FA00FA02E00435AC450C
:1032F000AFD00F984719B8B20309182B07D8400868
:1033000010FB094080B20B5C43EA0A030B54781CA3
:1033100083B21E09182E0DD85B0813FB094300F079
:10332000010010439BB280F00700CE5C08FA00F069
:103330003043C854B81C83B21E09182E0DD85B0840
:1033400013FB094300F0010010439BB280F007001B
:10335000CE5C08FA00F03043C854F81C83B21E0952
:10336000182EC3D85B0813FB094300F0010010437B
:103370009BB280F00700CE5C08FA00F03043C854DE
:10338000B4E700BF4FF0000A05E000BF0AF1010AF0
:10339000DA453FF4AFAC0A98504482B292084A2A08
:1033A000F4D80623BBF1040F03EA400E48D20026EE
:1033B0000B980028EAD00E988719B8B20309182B89
:1033C0000ED8400810FB092007F0010343EA0E0362
:1033D00080B283F007030C5C08FA03F323430B5419
:1033E0000B980128D2D0781C84B22309182B0ED850
:1033F000630813FB092300F0010040EA0E009BB2B2
:1034000080F00700CC5C08FA00F02043C8540B9809
:103410000228BBD0B81C84B22309182BB6D8630885
:1034200013FB092200F0010040EA0E0092B280F086
:1034300007008B5C08FA00F018438854A6E700BF29
:103440000898002640EA0E0080F0070008FA00F510
:10345000099840EA0E0080F0070008FA00F702E041
:103460000436B445A4D00E988419A0B20309182BD1
:1034700006D8400810FB092080B20B5C2B430B548C
:10348000601C80B20309182B06D8400810FB0920E5
:1034900080B20B5C3B430B54A01C80B20309182B79
:1034A00006D8400810FB092080B20B5C2B430B545C
:1034B000E01C80B20309182BD2D8400810FB092069
:1034C00080B20B5C3B430B54CAE700BF4FF0000EC9
:1034D00005E000BF0EF1010EDE453FF40FAC0A9887
:1034E000704482B294084A2CF4D80622BBF1040F2F
:1034F00002EA400244D200250B980028EAD00D9839
:103500004719B8B20309182B0DD8400810FB094021
:1035100007F00103134380B283F007030D5C08FA40
:1035200003F32B430B540B980128D3D0781C83B2A0
:103530001D09182D0DD85B0813FB094300F001008D
:1035400010439BB280F00700CD5C08FA00F02843DE
:10355000C8540B980228BDD0B81C83B21D09182D81
:10356000B8D85B0813FB094300F0010010439AB27E
:1035700080F007008B5C08FA00F018438854A9E734
:1035800007980025104380F0070008FA00FA02E0CF
:103590000435AC45B0D00D984719B8B20309182BC3
:1035A00007D8400810FB094080B20B5C43EA0A03CD
:1035B0000B54781C83B21E09182E0DD85B0813FB20
:1035C000094300F0010010439BB280F00700CE5C7D
:1035D00008FA00F03043C854B81C83B21E09182EF4
:1035E0000DD85B0813FB094300F0010010439BB2A8
:1035F00080F00700CE5C08FA00F03043C854F81C95
:1036000083B21E09182EC3D85B0813FB094300F0D0
:10361000010010439BB280F00700CE5C08FA00F076
:103620003043C854B4E700BF4FF04B0A05E000BF79
:10363000029A0132052A00F01B8501980292835CF0
:103640000098059302FB0B000A90D80740F0BE805B
:103650000598800700F166810598400700F14C82CB
:103660000598000700F1F0820598C00600F1A283DA
:103670000598800600F1468405984006D8D54FF09D
:10368000000903E009F10109D945D1D00A9848445D
:1036900082B292084A2AF5D80623BBF1040F03EA46
:1036A000400E4BD200260B980028EBD00C988719BF
:1036B000B8B20309182B0FD8400810FB0A2007F0F6
:1036C000010343EA0E0380B283F007030C5C08FA9F
:1036D00003F324EA03030B540B980128D2D0781C7F
:1036E00084B22309182B0FD8630813FB0A2300F0B8
:1036F000010040EA0E009BB280F00700CC5C08FAA3
:1037000000F024EA0000C8540B980228BAD0B81C74
:1037100084B22309182BB5D8630813FB0A2200F0E2
:10372000010040EA0E0092B280F007008B5C08FABC
:1037300000F023EA00008854A4E700BF08980026A0
:1037400040EA0E0080F0070008FA00F0C54309982F
:1037500040EA0E0080F0070008FA00F0C74302E0DC
:103760000436B4459FD00C988419A0B20309182BD5
:1037700006D8400810FB0A2080B20B5C2B400B548B
:10378000601C80B20309182B06D8400810FB0A20E1
:1037900080B20B5C3B400B54A01C80B20309182B79
:1037A00006D8400810FB0A2080B20B5C2B400B545B
:1037B000E01C80B20309182BD2D8400810FB0A2065
:1037C00080B20B5C3B400B54CAE700BF4FF00009CE
:1037D00005E000BF09F10109D9453FF439AF0A9866
:1037E000484482B292084A2AF4D80623BBF1040F57
:1037F00003EA400E4AD200260B980028EAD012981D
:103800008719B8B20409182C0FD8400810FB0A20F9
:1038100007F0010444EA0E0480B284F007040D5C52
:1038200008FA04F425EA04040C540B980128D1D0BA
:10383000781C84B22509182D0FD8640814FB0A24BB
:1038400000F0010040EA0E00A4B280F007000D5D18
:1038500008FA00F025EA000008550B980228B9D0B4
:10386000B81C84B22509182DB4D8640814FB0A22A8
:1038700000F0010040EA0E0092B280F007008F5C79
:1038800008FA00F027EA00008854A3E70898002609
:1038900040EA0E0080F0070008FA00F0C5430998DE
:1038A00040EA0E0080F0070008FA00F0C74302E08B
:1038B0000436B445A0D012988419A0B20309182B7D
:1038C00006D8400810FB0A2080B20B5C2B400B543A
:1038D000601C80B20309182B06D8400810FB0A2090
:1038E00080B20B5C3B400B54A01C80B20309182B28
:1038F00006D8400810FB0A2080B20B5C2B400B540A
:10390000E01C80B20309182BD2D8400810FB0A2013
:1039100080B20B5C3B400B54CAE700BF3E514945A7
:103920003E0000004FF0000E05E000BF0EF1010E5A
:10393000DE453FF491AE0A98704482B292084A2A5A
:10394000F4D80623BBF1040F03EA400306934BD2DD
:1039500000260B980028E9D011988719B8B20309FE
:10396000182B0FD84008069C10FB0A2007F0010313
:10397000234380B283F007030C5C08FA03F324EAC4
:1039800003030B540B980128D0D0781C84B2230970
:10399000182B0FD86308069C13FB0A2300F00100C4
:1039A00020439BB280F00700CC5C08FA00F024EAC8
:1039B0000000C8540B980228B8D0B81C84B2230960
:1039C000182BB3D8630813FB0A22069B00F00100F2
:1039D000184392B280F007008B5C08FA00F023EAEB
:1039E00000008854A2E700BF04980026184380F026
:1039F000070008FA00F0C5430398184380F0070059
:103A000008FA00F0C74343E0064949291E000000B8
:103A10003C4A49493000000000606000000000009E
:103A2000364949493600000000427F40000000004E
:103A300001710905030000000808080808000000DB
:103A400063130864630000004261514946000000AE
:103A50002141454B310000000036360000000000D7
:103A60003E41414122000000274545453900000004
:103A70001814127F1000000001017F0101000000F6
:103A80007F0808087F0000000436B4453FF461AFAA
:103A900011988419A0B24FEA1019B9F1180F06D87D
:103AA000400810FB0A2080B20B5C2B400B54601CBA
:103AB00080B20309182B06D8400810FB0A2080B2F8
:103AC0000B5C3B400B54A01C80B20309182B06D89A
:103AD000400810FB0A2080B20B5C2B400B54E01C0A
:103AE00080B20309182BCFD8400810FB0A2080B2FF
:103AF0000B5C3B400B54C7E74FF0000905E000BFEB
:103B000009F10109D9453FF4ABAD0A98484482B2A6
:103B100092084A2AF4D80623BBF1040F03EA400EA8
:103B20004AD200260B980028EAD010988719B8B21C
:103B30000309182B0FD8400810FB0A2007F00103D7
:103B400043EA0E0380B283F007030C5C08FA03F328
:103B500024EA03030B540B980128D1D0781C84B2BB
:103B60002309182B0FD8630813FB0A2300F0010068
:103B700040EA0E009BB280F00700CC5C08FA00F02F
:103B800024EA0000C8540B980228B9D0B81C84B2AB
:103B90002309182BB4D8630813FB0A2200F0010094
:103BA00040EA0E0092B280F007008B5C08FA00F049
:103BB00023EA00008854A3E70898002640EA0E0094
:103BC00080F0070008FA00F0C543099840EA0E00AB
:103BD00080F0070008FA00F0C74302E00436B4455D
:103BE000A0D010988419A0B20309182B06D8400859
:103BF00010FB0A2080B20B5C2B400B54601C80B27F
:103C00000309182B06D8400810FB0A2080B20B5C71
:103C10003B400B54A01C80B20309182B06D8400867
:103C200010FB0A2080B20B5C2B400B54E01C80B2CE
:103C30000309182BD2D8400810FB0A2080B20B5C75
:103C40003B400B54CAE700BF4FF0000E05E000BF39
:103C50000EF1010EDE453FF407AD0A98704482B2C2
:103C600093084A2BF4D80622BBF1040F02EA400461
:103C700048D200220B980028EAD00F98024490B254
:103C80000509182D0ED8400810FB0A3002F0010576
:103C9000254380B285F007050E5C08FA05F526EA93
:103CA00005050D540B980128D2D0501C85B22E0961
:103CB000182E0ED86D0815FB0A3500F001002043C0
:103CC000ADB280F007004E5D08FA00F026EA000071
:103CD00048550B980228BBD0901C82B21509182DAC
:103CE000B6D8520812FB0A3200F00100204392B20B
:103CF00080F007008B5C08FA00F023EA000088548B
:103D0000A6E700BF07980022204380F0070008FACA
:103D100000F06FEA000902E004329445AAD00F983F
:103D20008618B0B20709182F07D8400810FB0A30D0
:103D300080B20F5C07EA09070F54701C87B23D0977
:103D4000182D0ED87D0815FB0A3500F00100204320
:103D5000ADB280F007004F5D08FA00F027EA0000DE
:103D60004855B01C87B23D09182D0ED87D0815FBAB
:103D70000A3500F001002043ADB280F007004F5D2E
:103D800008FA00F027EA00004855F01C86B2350911
:103D9000182DC1D8750815FB0A3500F00100204325
:103DA000ADB280F007004E5D08FA00F026EA000090
:103DB0004855B1E74FF0000905E000BF09F10109DE
:103DC000D9453FF455AC0A98484482B292084A2A31
:103DD000F4D80623BBF1040F03EA400E4AD20026B2
:103DE0000B980028EAD00E988719B8B20309182B4F
:103DF0000FD8400810FB0A2007F0010343EA0E0326
:103E000080B283F007030C5C08FA03F324EA03038F
:103E10000B540B980128D1D0781C84B22309182B9D
:103E20000FD8630813FB0A2300F0010040EA0E00DC
:103E30009BB280F00700CC5C08FA00F024EA000096
:103E4000C8540B980228B9D0B81C84B22309182B87
:103E5000B4D8630813FB0A2200F0010040EA0E0008
:103E600092B280F007008B5C08FA00F023EA0000B1
:103E70008854A3E70898002640EA0E0080F0070067
:103E800008FA00F0C543099840EA0E0080F00700E8
:103E900008FA00F0C74302E00436B445A0D00E98FB
:103EA0008419A0B20309182B06D8400810FB0A2079
:103EB00080B20B5C2B400B54601C80B20309182BA2
:103EC00006D8400810FB0A2080B20B5C3B400B5424
:103ED000A01C80B20309182B06D8400810FB0A204A
:103EE00080B20B5C2B400B54E01C80B20309182BF2
:103EF000D2D8400810FB0A2080B20B5C3B400B5428
:103F0000CAE700BF4FF0000E05E000BF0EF1010E42
:103F1000DE453FF4B1AB0A98704482B294084A2C53
:103F2000F4D80622BBF1040F02EA400248D2002571
:103F30000B980028EAD00D984719B8B20309182B3E
:103F40000ED8400810FB0A4007F00103134380B26B
:103F500083F007030D5C08FA03F325EA03030B540F
:103F60000B980128D2D0781C83B21D09182D0ED8C9
:103F70005B0813FB0A4300F0010010439BB280F082
:103F80000700CD5C08FA00F025EA0000C8540B9841
:103F90000228BBD0B81C83B21D09182DB6D85B0807
:103FA00013FB0A4300F0010010439AB280F00700AF
:103FB0008B5C08FA00F023EA00008854A6E700BFF3
:103FC00007980025104380F0070008FA00F06FEA18
:103FD000000902E00435AC45AAD00D984719B8B2E3
:103FE0000309182B07D8400810FB0A4080B20B5C6D
:103FF00003EA09030B54781C83B21E09182E0ED84D
:104000005B0813FB0A4300F0010010439BB280F0F1
:104010000700CE5C08FA00F026EA0000C854B81C7D
:1040200083B21E09182E0ED85B0813FB0A4300F05A
:10403000010010439BB280F00700CE5C08FA00F04C
:1040400026EA0000C854F81C83B21E09182EC1D8F5
:104050005B0813FB0A4300F0010010439BB280F0A1
:104060000700CE5C08FA00F026EA0000C854B1E769
:1040700013B000F000B830BCBDE8C08F187800283D
:1040800008BF70472DE9F04383B0DDE90A890D468A
:1040900009EB490114464F005E1E00BFA9B2C3B22E
:1040A0002246CDE90089FEF757FDB0783D4400284F
:1040B00006F10106F2D103B0BDE8F04370470000FD
:1040C00080B540F250100A460029C2F2000043F6C3
:1040D000982118BFFF22FCF732FA80BD2DE9F04F7E
:1040E00081B004464069218B01220125FCF716FCB2
:1040F000E068218A0122FCF711FC1420FCF71EFB6A
:10410000E068218A00224FF00008FCF707FC142029
:10411000FCF714FBE068218A0122FCF7FFFB782002
:10412000FCF70CFBD622606821898DF80320002261
:10413000FCF7F4FB6069218B0022FCF7EFFB2068A1
:104140000DF1030101224FF0FF33FDF783FD60699C
:10415000218B0122FCF7E2FB1722606821898DF890
:1041600003200122FCF7DAFB6069218B0022FCF7B7
:10417000D5FB20680DF1030101224FF0FF33FDF75D
:1041800069FD6069218B0122FCF7C8FB022260688F
:1041900021898DF803200122FCF7C0FB6069218B87
:1041A0000022FCF7BBFB20680DF1030101224FF058
:1041B000FF33FDF74FFD6069218B0122FCF7AEFB59
:1041C000D122606821898DF803200022FCF7A6FB2C
:1041D0006069218B0022FCF7A1FB20680DF103012F
:1041E00001224FF0FF33FDF735FD6069218B01227D
:1041F000FCF794FB6068218901228DF80350FCF7DD
:104200008DFB6069218B0022FCF788FB20680DF193
:10421000030101224FF0FF33FDF71CFD6069218B84
:104220000122FCF77BFBC022606821898DF8032006
:104230000022FCF773FB6069218B0022FCF76EFB08
:1042400020680DF1030101224FF0FF33FDF702FD5D
:104250006069218B0122FCF761FB606821894FF0C6
:10426000110901228DF80390FCF758FB6069218B3E
:104270000022FCF753FB20680DF1030101224FF0EF
:10428000FF33FDF7E7FC6069218B0122FCF746FB59
:104290000422606821898DF803200122FCF73EFB8F
:1042A0006069218B0022FCF739FB20680DF10301C6
:1042B00001224FF0FF33FDF7CDFC6069218B012215
:1042C000FCF72CFBC122606821898DF803200022B5
:1042D000FCF724FB6069218B0022FCF71FFB2068A0
:1042E0000DF1030101224FF0FF33FDF7B3FC6069CC
:1042F000218B0122FCF712FB6068218941270122F2
:104300008DF80370FCF70AFB6069218B0022FCF733
:1043100005FB20680DF1030101224FF0FF33FDF78B
:1043200099FC6069218B0122FCF7F8FA6068218909
:1043300001228DF80370FCF7F1FA6069218B0022ED
:10434000FCF7ECFA20680DF1030101224FF0FF3376
:10435000FDF780FC6069218B0122FCF7DFFA6068C1
:10436000218901228DF80370FCF7D8FA6069218B4E
:104370000022FCF7D3FA20680DF1030101224FF06F
:10438000FF33FDF767FC6069218B0122FCF7C6FA59
:104390006068218901228DF80370FCF7BFFA60691B
:1043A000218B0022FCF7BAFA20680DF103010122EB
:1043B0004FF0FF33FDF74EFC6069218B0122FCF7C3
:1043C000ADFAC222606821898DF803200022FCF733
:1043D000A5FA6069218B0022FCF7A0FA20680DF194
:1043E000030101224FF0FF33FDF734FC6069218B9C
:1043F0000122FCF793FA60682189192501228DF8C2
:104400000350FCF78BFA6069218B0022FCF786FAD7
:1044100020680DF1030101224FF0FF33FDF71AFC74
:104420006069218B0122FCF779FA606821890122F9
:104430008DF80350FCF772FA6069218B0022FCF7BB
:104440006DFA20680DF1030101224FF0FF33FDF7F3
:1044500001FC6069218B0122FCF760FA6068218908
:1044600001228DF80350FCF759FA6069218B002274
:10447000FCF754FA20680DF1030101224FF0FF33DD
:10448000FDF7E8FB6069218B0122FCF747FA6068C1
:10449000218901228DF80350FCF740FA6069218BD5
:1044A0000022FCF73BFA20680DF1030101224FF0D6
:1044B000FF33FDF7CFFB6069218B0122FCF72EFA59
:1044C000C422606821898DF803200022FCF726FAB7
:1044D0006069218B0022FCF721FA20680DF10301AD
:1044E00001224FF0FF33FDF7B5FB6069218B0122FC
:1044F000FCF714FA6068218901228DF80370FCF73B
:104500000DFA6069218B0022FCF708FA20680DF192
:10451000030101224FF0FF33FDF79CFB6069218B03
:104520000122FCF7FBF96068218901228DF80370F4
:10453000FCF7F4F96069218B0022FCF7EFF92068A1
:104540000DF1030101224FF0FF33FDF783FB60699A
:10455000218B0122FCF7E2F96068218901228DF8A4
:104560000370FCF7DBF96069218B0022FCF7D6F9B8
:1045700020680DF1030101224FF0FF33FDF76AFBC4
:104580006069218B0122FCF7C9F960682189012249
:104590008DF80370FCF7C2F96069218B0022FCF7EB
:1045A000BDF920680DF1030101224FF0FF33FDF743
:1045B00051FB6069218B0122FCF7B0F9C5226068CC
:1045C00021898DF803200022FCF7A8F96069218B6E
:1045D0000022FCF7A3F920680DF1030101224FF03E
:1045E000FF33FDF737FB6069218B0122FCF796F959
:1045F0006068218901228DF80350FCF78FF960690A
:10460000218B0022FCF78AF920680DF103010122B9
:104610004FF0FF33FDF71EFB6069218B0122FCF791
:104620007DF96068218901228DF80350FCF776F945
:104630006069218B0022FCF771F920680DF10301FC
:1046400001224FF0FF33FDF705FB6069218B01224A
:10465000FCF764F96068218901228DF80350FCF7AA
:104660005DF96069218B0022FCF758F920680DF193
:10467000030101224FF0FF33FDF7ECFA6069218B53
:104680000122FCF74BF96068218901228DF8035063
:10469000FCF744F96069218B0022FCF73FF92068A0
:1046A0000DF1030101224FF0FF33FDF7D3FA6069EA
:1046B000218B0122FCF732F9D822606821898DF81C
:1046C00003200022FCF72AF96069218B0022FCF705
:1046D00025F920680DF1030101224FF0FF33FDF7AA
:1046E000B9FA6069218B0122FCF718F9A6226068EB
:1046F00021898DF803200122FCF710F96069218BD4
:104700000022FCF70BF920680DF1030101224FF0A4
:10471000FF33FDF79FFA6069218B0122FCF7FEF859
:10472000E922606821898DF803200122FCF7F6F860
:104730006069218B0022FCF7F1F820680DF103017C
:1047400001224FF0FF33FDF785FA6069218B0122CA
:10475000FCF7E4F8B222606821898DF8032000227A
:10476000FCF7DCF86069218B0022FCF7D7F82068A1
:104770000DF1030101224FF0FF33FDF76BFA606981
:10478000218B0122FCF7CAF8606821894FF0050AE5
:1047900001228DF803A0FCF7C1F86069218B00228B
:1047A000FCF7BCF820680DF1030101224FF0FF3344
:1047B000FDF750FA6069218B0122FCF7AFF8B322B4
:1047C000606821898DF803200022FCF7A7F8606952
:1047D000218B0022FCF7A2F820680DF103010122D1
:1047E0004FF0FF33FDF736FA6069218B0122FCF7A9
:1047F00095F8E522606821898DF803200122FCF7F5
:104800008DF86069218B0022FCF788F820680DF193
:10481000030101224FF0FF33FDF71CFA6069218B81
:104820000122FCF77BF8F622606821898DF80320CD
:104830000122FCF773F86069218B0022FCF76EF807
:1048400020680DF1030101224FF0FF33FDF702FA5A
:104850006069218B0122FCF761F8606821890122DF
:104860008DF803A0FCF75AF86069218B0022FCF751
:1048700055F820680DF1030101224FF0FF33FDF7D9
:10488000E9F96069218B0122FCF748F86068218909
:104890004FF0460B01228DF803B0FCF73FF860693A
:1048A000218B0022FCF73AF820680DF10301012268
:1048B0004FF0FF33FDF7CEF96069218B0122FCF741
:1048C0002DF860682189772501228DF80350FCF7C7
:1048D00025F86069218B0022FCF720F820680DF193
:1048E000030101224FF0FF33FDF7B4F96069218B1A
:1048F0000122FCF713F86068218901228DF803502A
:10490000FCF70CF86069218B0022FCF707F820689F
:104910000DF1030101224FF0FF33FDF79BF96069B0
:10492000218B0122FBF7FAFF6068218901228DF8B3
:104930000350FBF7F3FF6069218B0022FBF7EEFFCA
:1049400020680DF1030101224FF0FF33FDF782F9DA
:104950006069218B0122FBF7E1FF60682189012258
:104960008DF80350FBF7DAFF6069218B0022FBF71B
:10497000D5FF20680DF1030101224FF0FF33FDF751
:1049800069F96069218B0122FBF7C8FF6068218902
:10499000762701228DF80370FBF7C0FF6069218B39
:1049A0000022FBF7BBFF20680DF1030101224FF04D
:1049B000FF33FDF74FF96069218B0122FBF7AEFF52
:1049C00060682189452601228DF80360FBF7A6FF68
:1049D0006069218B0022FBF7A1FF20680DF1030124
:1049E00001224FF0FF33FDF735F96069218B012279
:1049F000FBF794FFB422606821898DF80320002220
:104A0000FBF78CFF6069218B0022FBF787FF206892
:104A10000DF1030101224FF0FF33FDF71BF960692F
:104A2000218B0122FBF77AFF6068218901228DF832
:104A300003A0FBF773FF6069218B0022FBF76EFF79
:104A400020680DF1030101224FF0FF33FDF702F959
:104A50006069218B0122FBF761FF606821890122D7
:104A60008DF803B0FBF75AFF6069218B0022FBF73A
:104A700055FF20680DF1030101224FF0FF33FDF7D0
:104A8000E9F86069218B0122FBF748FF6068218902
:104A900001228DF80350FBF741FF6069218B002252
:104AA000FBF73CFF20680DF1030101224FF0FF33BB
:104AB000FDF7D0F86069218B0122FBF72FFF6068BA
:104AC000218901228DF80350FBF728FF6069218BB3
:104AD0000022FBF723FF20680DF1030101224FF0B4
:104AE000FF33FDF7B7F86069218B0122FBF716FF52
:104AF0006068218901228DF80350FBF70FFF606980
:104B0000218B0022FBF70AFF20680DF1030101222F
:104B10004FF0FF33FDF79EF86069218B0122FBF710
:104B2000FDFE6068218901228DF80350FBF7F6FE37
:104B30006069218B0022FBF7F1FE20680DF1030173
:104B400001224FF0FF33FDF785F86069218B0122C8
:104B5000FBF7E4FE6068218901228DF80370FBF702
:104B6000DDFE6069218B0022FBF7D8FE20680DF185
:104B7000030101224FF0FF33FDF76CF86069218BD0
:104B80000122FBF7CBFE6068218901228DF80360CA
:104B9000FBF7C4FE6069218B0022FBF7BFFE206893
:104BA0000DF1030101224FF0FF33FDF753F8606967
:104BB000218B0122FBF7B2FE6222606821898DF809
:104BC00003200022FBF7AAFE6069218B0022FBF77D
:104BD000A5FE20680DF1030101224FF0FF33FDF720
:104BE00039F86069218B0122FBF798FE3222606858
:104BF00021898DF803200122FBF790FE6069218B4B
:104C00000022FBF78BFE20680DF1030101224FF01B
:104C1000FF33FDF71FF86069218B0122FBF77EFE51
:104C20000322606821898DF803200122FBF776FEBC
:104C30006069218B0022FBF771FE20680DF10301F2
:104C400001224FF0FF33FDF705F86069218B012247
:104C5000FBF764FE1F22606821898DF80320012282
:104C6000FBF75CFE6069218B0022FBF757FE206892
:104C70000DF1030101224FF0FF33FCF7EBFF6069F8
:104C8000218B0122FBF74AFEB722606821898DF84B
:104C900003200022FBF742FE6069218B0022FBF714
:104CA0003DFE20680DF1030101224FF0FF33FCF7B8
:104CB000D1FF6069218B0122FBF730FE132260686F
:104CC00021898DF803200122FBF728FE6069218BE2
:104CD0000022FBF723FE20680DF1030101224FF0B3
:104CE000FF33FCF7B7FF6069218B0122FBF716FE4B
:104CF000B022606821898DF803200022FBF70EFEA8
:104D00006069218B0022FBF709FE20680DF1030189
:104D100001224FF0FF33FCF79DFF6069218B0122D8
:104D2000FBF7FCFD6422606821898DF803200122D5
:104D3000FBF7F4FD6069218B0022FBF7EFFD206893
:104D40000DF1030101224FF0FF33FCF783FF60698F
:104D5000218B0122FBF7E2FD6068218900228DF89A
:104D60000390FBF7DBFD6069218B0022FBF7D6FD8A
:104D700020680DF1030101224FF0FF33FCF76AFFB9
:104D80006069218B0122FBF7C9FDFF20FF27FBF79C
:104D9000D5FCC922606821898DF803200022FBF729
:104DA000BDFD6069218B0022FBF7B8FD20680DF185
:104DB000030101224FF0FF33FCF74CFF6069218BA8
:104DC0000122FBF7ABFD6068218901228DF8038089
:104DD000FBF7A4FD6069218B0022FBF79FFD206893
:104DE0000DF1030101224FF0FF33FCF733FF60693F
:104DF000218B0122FBF792FD3622606821898DF814
:104E000003200022FBF78AFD6069218B0022FBF75B
:104E100085FD20680DF1030101224FF0FF33FCF7FF
:104E200019FF6069218B0122FBF778FD4822606839
:104E300021898DF803200122FBF770FD6069218B29
:104E40000022FBF76BFD20680DF1030101224FF0FA
:104E5000FF33FCF7FFFE6069218B0122FBF75EFD4B
:104E60003A22606821898DF803200022FBF756FD65
:104E70006069218B0022FBF751FD20680DF10301D1
:104E800001224FF0FF33FCF7E5FE6069218B012220
:104E9000FBF744FD6068218901228DF80390FBF740
:104EA0003DFD6069218B0022FBF738FD20680DF184
:104EB000030101224FF0FF33FCF7CCFE6069218B28
:104EC0000122FBF72BFDB922606821898DF80320B0
:104ED0000022FBF723FD6069218B0022FBF71EFDFA
:104EE00020680DF1030101224FF0FF33FCF7B2FE01
:104EF0006069218B0122FBF711FD60682189202563
:104F000001228DF80350FBF709FD6069218B002217
:104F1000FBF704FD20680DF1030101224FF0FF3380
:104F2000FCF798FE6069218B0122FBF7F7FCB822A1
:104F3000606821898DF803200022FBF7EFFC60698F
:104F4000218B0022FBF7EAFC20680DF1030101220E
:104F50004FF0FF33FCF77EFE6069218B0122FBF7E7
:104F6000DDFC60682189292601228DF80360FBF7AA
:104F7000D5FC6069218B0022FBF7D0FC20680DF185
:104F8000030101224FF0FF33FCF764FE6069218BBF
:104F90000122FBF7C3FC6068218900228DF80350D1
:104FA000FBF7BCFC6069218B0022FBF7B7FC206893
:104FB0000DF1030101224FF0FF33FCF74BFE606956
:104FC000218B0122FBF7AAFC2A22606821898DF837
:104FD00003200022FBF7A2FC6069218B0022FBF773
:104FE0009DFC20680DF1030101224FF0FF33FCF717
:104FF00031FE6069218B0122FBF790FC1222606870
:1050000021898DF803200122FBF788FC6069218B40
:105010000022FBF783FC20680DF1030101224FF011
:10502000FF33FCF717FE6069218B0122FBF776FC4A
:10503000606821892B2501228DF80350FBF76EFC57
:105040006069218B0022FBF769FC20680DF10301E8
:1050500001224FF0FF33FCF7FDFD6069218B012237
:10506000FBF75CFC6068218900228DF80350FBF798
:1050700055FC6069218B0022FBF750FC20680DF184
:10508000030101224FF0FF33FCF7E4FD6069218B3F
:105090000122FBF743FC6068218901228DF803801F
:1050A000FBF73CFC6069218B0022FBF737FC206892
:1050B0000DF1030101224FF0FF33FCF7CBFD6069D6
:1050C000218B0122FBF72AFCC722606821898DF819
:1050D00003200122FBF722FC6069218B0022FBF7F1
:1050E0001DFC20680DF1030101224FF0FF33FCF796
:1050F000B1FD6069218B0122FBF710FC352260684D
:1051000021898DF803200022FBF708FC6069218BC0
:105110000022FBF703FC20680DF1030101224FF090
:10512000FF33FCF797FD6069218B0122FBF7F6FB4B
:105130006068218901228DF80380FBF7EFFB60692D
:10514000218B0022FBF7EAFB20680DF1030101220D
:105150004FF0FF33FCF77EFD6069218B0122FBF7E6
:10516000DDFBD022606821898DF803200022FBF747
:10517000D5FB6069218B0022FBF7D0FB20680DF185
:10518000030101224FF0FF33FCF764FD6069218BBE
:105190000122FBF7C3FB6068218901228DF80370AF
:1051A000FBF7BCFB6069218B0022FBF7B7FB206893
:1051B0000DF1030101224FF0FF33FCF74BFD606955
:1051C000218B0122FBF7AAFB3922606821898DF827
:1051D00003200022FBF7A2FB6069218B0022FBF772
:1051E0009DFB20680DF1030101224FF0FF33FCF716
:1051F00031FD6069218B0122FBF790FB60682189FA
:1052000000228DF80360FBF789FB6069218B002287
:10521000FBF784FB20680DF1030101224FF0FF33FF
:10522000FCF718FD6069218B0122FBF777FB40F248
:105230005010C2F2000043F69821FBF788F920468F
:1052400000F020F83822606821898DF803200022C0
:10525000FBF764FB6069218B0022FBF75FFB206892
:105260000DF1030101224FF0FF33FCF7F3FC6069FD
:10527000218B0122FBF752FB01B000F000B830BCDB
:10528000BDE8C08F70B582B00446406821892A26E7
:1052900000228DF801600025FBF740FB6069218B3F
:1052A0000022FBF73BFB20680DF1010101224FF0CA
:1052B000FF33FCF7CFFC6069218B0122FBF72EFB4B
:1052C0001222606821898DF802200122FBF726FB5B
:1052D0006069218B0022FBF721FB20680DF10201A0
:1052E00001224FF0FF33FCF7B5FC6069218B0122EE
:1052F000FBF714FB6068218901228DF80360FBF73E
:105300000DFB6069218B0022FBF708FB20680DF183
:10531000030101224FF0FF33FCF79CFC6069218BF5
:105320000122FBF7FBFA2B22606821898DF804200B
:105330000022FBF7F3FA6069218B0022FBF7EEFAFB
:10534000206801A901224FF0FF33FCF783FC60695C
:10535000218B0122FBF7E2FA6068218901228DF896
:105360000550FBF7DBFA6069218B0022FBF7D6FAC8
:1053700020680DF1050101224FF0FF33FCF76AFCB4
:105380006069218B0122FBF7C9FAC7226068218975
:105390008DF806200122FBF7C1FA6069218B0022FB
:1053A000FBF7BCFA20680DF1060101224FF0FF3334
:1053B000FCF750FC6069218B0122FBF7AFFA2C222D
:1053C000606821898DF807200022FBF7A7FA606941
:1053D000218B0022FBF7A2FA20680DF107010122C0
:1053E0004FF0FF33FCF736FC6069218B0122FBF79D
:1053F00095FA606821890122FBF790FA6069218B98
:105400000022FBF78BFA206840F25011C2F2000133
:1054100043F698224FF0FF33FCF71CFC6069218BA8
:105420000122FBF77BFA02B070BD30380A2801D2A6
:105430000120704700207047F1EE100A4FF6FF710F
:10544000C0F2C03120EA010040F04070E1EE100AE5
:105450007047040000080000000000000002000186
:10546000000010000000000000000001020304061C
:1054700007080900A0860100400D0300801A0600FD
:1054800000350C0040420F0080841E0000093D00E2
:1054900000127A000024F40000366E010048E80192
:1054A000006CDC020000000000483A25642E2564F0
:1054B0002525002D00543A257325642E25644300CC
:1054C000253032643A25303264000000F054000880
:1054D0000000002010000000F00100080055000846
:1054E00010000020E0410000100200080000000051
:1054F000010000001000000000093D000000000055
:040000050800018D61
:00000001FF
