:020000040800F2
:10000000A842002069020008C92F0008252D000819
:10001000C52F0008810800080D3C00080000000002
:100020000000000000000000000000002132000875
:100030008508000800000000CD2F000825320008C8
:10004000830200088302000883020008830200087C
:10005000830200088302000883020008830200086C
:10006000830200088302000883020008830200085C
:10007000830200088302000883020008830200084C
:10008000830200088302000883020008830200083C
:10009000830200088302000883020008830200082C
:1000A000830200088302000883020008830200081C
:1000B0008302000800000000000000008302000826
:1000C00083020008830200088302000883020008FC
:1000D0008302000883020008013C00088302000834
:1000E00083020008830200080000000000000000F6
:1000F0000000000000000000000000000000000000
:1001000000000000830200080000000083020008D5
:1001100000000000000000008302000883020008C5
:10012000830200088302000883020008830200089B
:100130008302000800000000000000000000000032
:10014000830200088302000883020008830200087B
:10015000830200088302000883020008830200086B
:1001600083020008830200088302000800000000E8
:10017000830200088302000883020008830200084B
:1001800083020008830200088302000800F002F8DE
:1001900000F05AF814A696E8000CB244B344DA45CD
:1001A00001D100F051F8BAE80F000FA696E8300030
:1001B000A5EB040504EB0607AAEB0704A7F101076A
:1001C0004FEA15154FEA3414A4F10104AC4201D3EF
:1001D00000F03AF813F0010F18BFFB1A43F00103C7
:1001E00000F001F8DBE71847D89B0000F89B0000FF
:1001F000103A24BF78C878C1FAD8520724BF30C853
:1002000030C144BF04680C607047000070470000B4
:100210000023002400250026103A28BF78C1FBD80F
:10022000520728BF30C148BF0B607047642900F0F7
:100230002381732900F0E282002070471FB509F086
:1002400056FD1FBD10B510BD00F0E4FA1146FFF7D2
:10025000F5FF05F047FB00F002FB03B4FFF7F2FFE8
:1002600003BC00F005FB000009488047094800472F
:10027000FEE7FEE7FEE7FEE7FEE7FEE7FEE7FEE756
:10028000FEE7FEE704480549054A064B70470000B3
:10029000CD3200088D010008A83C0020A8420020B3
:1002A000A83E0020A83E002053EA020C00F069801E
:1002B0002DE9F04B4FF00006002B1FBFB3FA83F57A
:1002C00003FA05F424FA05F65E4012BF1643B2FAAB
:1002D00082F502FA05F4C5F120051EBF22FA05FCDD
:1002E00044EA0C04203556EA044C4FEA144418BF83
:1002F000641C4FF000084FF00009904271EB030CB2
:1003000039D3002919BFB1FA81F701FA07F6B0FA1B
:1003100080F700FA07F6C7F120071EBF20FA07FC96
:1003200046EA0C062037B6FBF4FCA7EB0507103FA6
:1003300007F01F0BCBF120062CFA06F60CFA0BFB8C
:1003400044BFB3460026202FA4BF5E464FF0000BEB
:100350005BEA060C08BF4FF0010B19EB0B0948EBE9
:100360000608ABFB027C06FB02CC0BFB03CCC01BDC
:1003700071EB0C01C1E70B46024641464846BDE819
:10038000F08B13B5084318BF4FF0FF300146AFF3B1
:100390000080BDE81C4070470FB41CB50C0007AAD4
:1003A000009007D04142A14202D32044401E01E008
:1003B0004FF0FF30074B7B4469460190069800F0F0
:1003C000F0F90020002C01D0009908701CBC5DF8E9
:1003D00014FB00000F04000070B504468569006836
:1003E000C10601D5302600E02026C00707D070BD29
:1003F000D4E9012130469047206A401C20626D1EDE
:10040000F6D570BD70B5044685690078C00707D180
:1004100070BDD4E9012120209047206A401C206251
:100420006D1EF6D570BD70B50C460546012A05D087
:100430002878800600D5EA69002302E0012305E060
:100440005B1C934202D2E05C0028F9D1A869E6184F
:10045000C01AA861286A184428622846FFF7BCFF22
:1004600004E0D5E9012114F8010B9047B442F8D318
:100470002846FFF7C7FF70BD2DE9F041064600246E
:1004800010687529314616A510D0AFF300800028FA
:1004900002DA404213A507E031688A0701D512A5A8
:1004A00002E0490704D511A5012401E0AFF3008063
:1004B00000210A2206F1240709E0B0FBF2FCB0FBA0
:1004C000F2F302FB1C00303078541846491C002817
:1004D000F3D123462A463046BDE8F04100F003B987
:1004E000000000002D0000002B0000002000000094
:1004F0002DE9F05F894604464FF0000ADFF824B189
:10050000FB44C0F820A02046E168884700287DD041
:10051000252806D0D4E901219047206A401C20629A
:10052000F1E700255F462046E16888472028064617
:1005300007DB312E05D2B81910F8200C08B105439D
:10054000F1E7A80701D525F00405C4F81CA0002791
:10055000C4F818A02A2E09D0304609F0C1FB38B3E0
:1005600004EB8708303EC8F8186019E059F8041BFE
:10057000204604EB87029161E1688847012F064617
:1005800018D1E069002820DA25F020051DE0D8F810
:10059000180000EB800006EB40003038C8F8180067
:1005A0002046E1688847064609F09AFB0028EED10C
:1005B000012F0AD02E2E08D12046E16888477F1CE3
:1005C0000646022F45F02005C4DBA069002803DAA7
:1005D000404245F00105A061E80701D025F0100573
:1005E000A6B1A6F14100192802D8203645F40065CD
:1005F0004A463146204625604D46FFF717FE60B15A
:10060000012807D0ED1D25F0070000E007E000F10C
:10061000080978E705F1040975E730467AE7206AAA
:1006200000F002B80498000030BCBDE8C09F10B5CF
:10063000431C02E010F8011B71B18107FAD14FF0A1
:10064000013202C88C1A8C4314EAC211F9D0C01AC4
:100650000A0603D0C01E10BDC01A10BD0A0401D086
:10066000801E10BD0902FCD0401E10BD02F0FF0329
:1006700043EA032242EA024200F002B84FF00002CD
:1006800000B5134694469646203922BFA0E80C5088
:10069000A0E80C50B1F12001BFF4F7AF090728BF63
:1006A000A0E80C5048BF0CC05DF804EB890028BFDF
:1006B00040F8042B08BF704748BF20F8022B11F008
:1006C000804F18BF00F8012B704770477047704784
:1006D00010B500F097F8006810BD10B5044600F0A2
:1006E00091F8046010BD2DE9F0470D4699469246F9
:1006F000044600F124080168880604D5E06921F069
:100700001001216000E00120A84201DD471B00E04C
:100710000027A1697A1902EB0900081AA061207864
:10072000C00602D42046FFF757FE002608E0D4E9B1
:1007300001211AF806009047206A401C761C2062AE
:100740004E45F4DB2078C0060AD52046FFF744FE6C
:1007500006E0D4E9012130209047206A401C206245
:10076000381EA7F10107F4DC07E0D4E9012118F8ED
:1007700005009047206A401C2062281EA5F1010553
:10078000F3DC2046FFF73EFE2078000602D502206B
:10079000BDE8F0870120FBE701694A1C0261087887
:1007A000704700B58FB0CDE90131002105910549B1
:1007B0007944CDE9031011466846FFF799FE0FB062
:1007C00000BD0000E5FFFFFFD1E900239A4202D2FD
:1007D000531C0B601070704710B5436913B1AFF331
:1007E000008001E0FFF71FFE012010BD127800F12C
:1007F00024010A7000224A700122EDE711684FF0CF
:10080000FF32E9E7004870471800002000487047B1
:10081000180000207546FFF7F9FFAE46050069464F
:10082000534620F00700854618B020B5FFF72AFD93
:10083000BDE820404FF000064FF000074FF00008E1
:100840004FF0000BAC46ACE8C009ACE8C009ACE81E
:10085000C009ACE8C00921F007018D46704710B50A
:100860000446AFF300802046BDE81040FFF7F5BC1A
:1008700001491820ABBEFEE72600020070470000C9
:10088000FEE7000070470000014690F825000228AE
:1008900018D10868D1E910C3026822F00E02026084
:1008A000026822F00102026003F01C00012202FA39
:1008B00000F0CCF8040081F825200020002281F807
:1008C000242070470420C8630120002281F82420DE
:1008D0007047000090F82510022921D180B50268E8
:1008E000D0F838C0D0E910E1136801F01C0123F002
:1008F0000E0313601368BCF1000F23F001031360B3
:100900004FF0010202FA01F1CEF804104FF000019D
:1009100080F8252080F8241018BFE047002080BD13
:100920000421C16301207047B0B5044600F0F2F81D
:10093000054640F20C00C2F200000078611C18BFAE
:10094000044400BF00F0E6F8401BA042FAD3B0BD5B
:100950002DE9F04F83B00E68002E00F0CF8000F13B
:10096000200241F2000C009200F13847C4F6000C5E
:1009700007224FEAB725604508BF0422042D38BF7F
:100980004FEAB722002500274FF0000801920AE045
:100990000E6808F1010836FA08F207F1020705F1BE
:1009A000040500F0AB80012202FA08FE16EA0E09E7
:1009B000EED0D1F804C003220CF0030BABF101061A
:1009C00002FA07F4012E6FEA040A11D88468CE688F
:1009D00004EA0A04BE4034438460446824EA0E06F4
:1009E000CCF3001404FA08F42643466006E000BF86
:1009F000BBF1030F02D14FF0030B21E0C6688C68F6
:100A000006EA0A06BC402643BBF1020FC66017D1B6
:100A10006FF00302009B02EA580605F01C020F2447
:100A200053F806C004FA02FE0C692CEA0E0C04FA14
:100A300002F242EA0C029A51D1F804C00CF0030B06
:100A400002680BFA07F302EA0A021A431CF4403F59
:100A500002609DD041F26003C4F202031A6840F2C2
:100A6000004E42F001021A601A68C4F2010E02F050
:100A700001020292029A28F003024FF6084C7244D7
:100A8000CFF6FF7C52F80C3005F00C060F24B44072
:100A9000A343019C04FA06F6334342F80C30DEF817
:100AA00008204B6842EA090640F20C4CDC0258BFB1
:100AB00022EA0906CEF80860C4F2010CDCF8002036
:100AC0009C0242EA090658BF22EA0906CCF80060F7
:100AD000DEF804209C0342EA090658BF22EA090610
:100AE000CEF80460DEF80020DB0342EA090658BFB6
:100AF00022EA0906CEF800604AE700BF03B000F022
:100B000000B830BCBDE8C08F1823002A08BF2823D6
:100B1000C150704743F6A040C2F200000068704721
:100B200090F84120202A03D190F84020012A01D1D9
:100B300002207047242280F841200268136823F0C5
:100B400001031360136823F480531360136819437F
:100B50001160116841F001011160202180F84110FD
:100B6000002180F8401000207047000090F84120DC
:100B7000202A03D190F84020012A01D10220704799
:100B8000242280F841200268136823F001031360D7
:100B9000136823F4706343EA01211160116841F086
:100BA00001011160202180F84110002180F84010DF
:100BB00000207047002804BF0120704710B590F84E
:100BC000411031B9002180F84010044600F03EFA8F
:100BD0002046242180F8411090E81210C3680A686A
:100BE000012B22F001020A6024F070620A618A6817
:100BF00022F400428A6003D14CF400428A6007E08C
:100C00004CF40442022B8A6004BF4FF400624A6035
:100C10004A6800F1100C42F0007242F400424A604F
:100C2000CA6822F40042CA609CE81C101A4342EAD7
:100C30000422CA60026A42EA0C020A600A6842F0B0
:100C400001020A6000212022416480F841200163F2
:100C500080F84210002010BD2DE9F04F81B004460D
:100C600090F84100202803D194F84000012803D1D6
:100C7000022001B000F0EAB801200E46174698465F
:100C800084F84000FFF746FF216805468A69120490
:100C90000AD500BFFFF73EFF401B192800F2C680AF
:100CA000216888690004F5D4222284F841201022AA
:100CB00084F84220002262646762A4F82A8062639A
:100CC000628D49F6000040F20008CFF60040C0F205
:100CD000FF18B2F5807F6FF39F2609D34A68024060
:100CE0003243424402F510524A60FF220BE000BF3B
:100CF000628D4F68D3B246EA034307403B4308F591
:100D000092373B434B602285618D0A9F00295DD05D
:100D100006F1007907F1010A00F5806B0DE000BFD4
:100D2000618D21854268C9B249EA014102EA0B029C
:100D300011434160608D002848D0204639462A463C
:100D400002F09EF800285DD12068616A406A087050
:100D5000606A218D01306062481E2085618D0139F5
:100D60006185618D0029E5D00004E3D120688169A7
:100D700009060FD4BAF1000F1AD0002F54D000BFCB
:100D8000FFF7C8FE401BB84250D8206881690906A9
:100D9000F6D500BF618DB1F5807FC1D3FF212185DC
:100DA000416801EA0B01314341EA0801C1E700BF94
:100DB00081690906EED4816909065CBF81695FEA31
:100DC0000161E7D481690906F2D5E3E787B100BF85
:100DD00020688169890619D4204639462A4601F0DF
:100DE000A3FF78B9FFF796FE401BB842F0D91DE08B
:100DF00020688169890609D4204600212A4601F02D
:100E000093FF88B1012001B000F020B82021C1611A
:100E100042684EF60003CFF600631A40426000209D
:100E200084F841100AE000BFFFF774FE606C40F0E8
:100E300020006064202084F841000120002184F813
:100E4000421084F8401001B000F000B830BCBDE89A
:100E5000C08F00002DE9F04F81B0044690F84100AA
:100E6000202803D194F84000012803D1022001B0CA
:100E700000F0E8B801200E461746984684F8400076
:100E8000FFF748FE216805468A6912040AD500BFAB
:100E9000FFF740FE401B192800F2C48021688869D2
:100EA0000004F5D4212284F84120102284F8422045
:100EB000002262646762A4F82A806263628D49F648
:100EC000000040F20008CFF60040C0F2FF18B2F573
:100ED000807F6FF39F2609D34A6802403243424421
:100EE00002F500524A60FF220BE000BF628D4F689E
:100EF000D3B246EA034307403B4308F590373B43F0
:100F00004B602285628D0A9F002A5BD006F1007932
:100F100007F1010A00F5806B0DE000BF608D2085B0
:100F20004A68C0B249EA004002EA0B021043486036
:100F3000608D002846D0204639462A4601F0FEFF43
:100F400000285AD1606A216810F8012B8A62606219
:100F5000608D01386085208D01382085628D002AE2
:100F6000E6D00004E4D1886900060FD4BAF1000F7E
:100F70001AD0002F54D000BFFFF7CCFD401BB84261
:100F800050D8216888690006F6D500BF608DB0F59D
:100F9000807FC3D3FF202085486800EA0B003043E0
:100FA00040EA0800C3E700BF88690006EED48869FC
:100FB00000065CBF88695FEA0060E7D488690006C4
:100FC000F2D5E3E787B100BF21688869800619D4AC
:100FD000204639462A4601F0A7FE70B9FFF79AFD70
:100FE000401BB842F0D91DE0886980060AD420462B
:100FF00000212A4601F098FE90B1012001B000F0D6
:1010000021B800BF2020C8614A684EF60003CFF621
:1010100000631A404A6084F8410000200AE000BFE3
:10102000FFF778FD606C40F020006064202084F8B9
:1010300041000120002184F8421084F8401001B0E2
:1010400000F000B830BCBDE8C08F000010B586B01D
:10105000006845F20041C4F2000188424FF00000F0
:101060000590CDE90300CDE9010001D006B010BD27
:1010700041F24C04C4F20204206801A940F00200CD
:101080002060206800F0020000900098C0200190CD
:101090001220029001200390032004900420059068
:1010A00040F20040C4F60000FFF752FCE06840F454
:1010B0000010E060E06800F400100090009806B0B6
:1010C00010BD000040F20C0043F6A041C2F2000047
:1010D000C2F2000100780A681044086070470000FE
:1010E00080B5032000F08CF80F2000F009F80028EC
:1010F0001CBF012080BD00F02BF8002080BD000047
:10110000B0B540F20C05C2F200052978F1B10446F1
:1011100040F21400C2F200004FF47A720068B2FB91
:10112000F1F1B0FBF1F001F04FF801460F2C4FF058
:1011300001000AD8002918BFB0BD4FF0FF3021468A
:10114000002200F031F800206C60B0BD0120B0BD7D
:1011500082B041F25800C4F20200816841F00101FE
:101160008160816801F0010101910199016841F0FC
:1011700080510160006800F080500090009802B03B
:1011800070470000002848BF704700F01F0101228F
:1011900002FA01F11C2202EAD0004EF20012CEF255
:1011A000000281507047000010B54EF60C5CCEF284
:1011B000000CDCF80030C3F3022E8EF00704042C80
:1011C00028BF0424BEF103034FF0FF3E0EFA04F4DF
:1011D00038BF0023A14399400EFA03F39A43114309
:1011E00000F00F0200F160430901043A03F5644383
:1011F0006244002848BF02F10C03197010BD0000C2
:101200004EF60C51CEF200010A684FF6FF031A4069
:1012100060F30A2242F0806040F0FD700860704781
:1012200047F20001C4F200010A68B0F5007F02F441
:10123000C06031D1B0F5007F2CD00868012262F384
:101240004A20086040F21400C2F200000068322216
:1012500050434DF68362C4F21B32A0FB0202900C95
:101260004A69520511D5421C0FD04A6952050CD566
:1012700058B14A69520508D5012806D04A69520575
:1012800003D50228A0F10400EAD14869400544BF13
:101290000320704700207047B0F5806FFAD00868CF
:1012A000022262F34A2008600020704747F20000E3
:1012B000C4F20000006800F4C060704747F200000C
:1012C000C4F20000016841F48071016070470000C1
:1012D00041F20000C4F20200016841F00401016023
:1012E000704700002DE9F04381B0002800F08C80A9
:1012F00042F20009C4F202090446D9F8000000F0E5
:10130000070081420CD9D9F8000020F007000843FB
:10131000C9F80000D9F8000000F00700884273D136
:10132000206841F2080610F00202C4F202060AD058
:10133000A368376807F0F007BB4204D9376827F085
:10134000F0073B433360C30734D0606856F8082C7D
:1013500050B1022804D003280AD192010AD453E0E4
:10136000920307D450E000BF920703D44CE000BFC3
:10137000520549D58846316821F0030108433060A1
:10138000FFF7C8FB054641F2883700BF3068616847
:1013900000F00C00B0EB810F08D0FFF7BBFB401B47
:1013A000B842F3D9032001B0BDE8F083206841467C
:1013B00000F0020252B1A268336803F0F0039A42CF
:1013C00004D2336823F0F0031A433260D9F80020C6
:1013D00002F0070291420CD2D9F8002022F0070255
:1013E0000A43C9F80020D9F8002002F007028A4217
:1013F0000AD141070CD4000712D43068716810F08C
:101400000C0019D11EE000BF012001B0BDE8F0833F
:101410003168E26821F4E061114331600007ECD5E6
:101420003068216920F4605040EAC10030603068C3
:10143000716810F00C0005D00C282BD101F00301CD
:10144000012927D156F8081C042211F008016FF079
:10145000070108BF8C21715808BF0822D14049F606
:10146000745201F00F01C0F6000252F8211000285A
:101470000A4618BF00220C2838D1706800F003001B
:10148000022811D0032804BF41F20021C0F27A01E2
:101490000EE000BF04281FD0082823D141F200220B
:1014A000C0F27A0222E000BF42F20041C0F2F40131
:1014B00070687268C0F30210C2F30622514372686A
:1014C0000130B1FBF0F0C2F34161022202EB4101B5
:1014D000B0FBF1F20AE000BF42F20042C0F2F402B7
:1014E00004E000BF002200210C28C6D0306849F675
:1014F0005C51C0F30310C0F60001085C00F01F004F
:1015000022FA00F140F21000C2F2000040F2140290
:101510000068C2F20002116001B0BDE8F043FFF7BD
:10152000EFBD000040F2140041F20801C2F20000D9
:10153000C4F202010068096849F66C52C1F3022145
:10154000C0F60002515C01F01F01C8407047000066
:1015500040F2140041F20801C2F20000C4F202019C
:101560000068096849F66C52C1F3C221C0F6000256
:10157000515C01F01F01C8407047000041F20C01AE
:10158000C4F2020151F8040C10F00C02086805D0F6
:101590000C2A2BD100F00300012827D151F80C0CA4
:1015A000042310F008006FF00B0008BF88200858D3
:1015B00008BF0823D84049F6745300F00F00C0F666
:1015C000000353F82030002A184618BF00200C2AC8
:1015D00018BF7047086800F00300022810D00328E5
:1015E00004BF41F20023C0F27A030DE0042A1FD0A9
:1015F000082A23D141F20020C0F27A00704700BFD0
:1016000042F20043C0F2F40308680A68C0F3021013
:10161000C2F30622096801305A43B2FBF0F0C1F36D
:101620004161022202EB4101B0FBF1F0704700BFC3
:1016300042F20040C0F2F400704700BF00200023D7
:10164000C5E70000002804BF012070472DE9F043E2
:1016500083B041F200060446C4F20206B068F168A5
:10166000227800F00C09D00601F003081ED420787F
:10167000C00700F08880B9F1080F00F07D80B9F153
:101680000C0F08BFB8F1030F76D061683068B1F570
:10169000803F07D0B1F5A02F40F0528240F4802067
:1016A0003060306840F48030306053E2B9F1000FB0
:1016B0001CD0B9F10C0F08BFB8F1010F16D0A16909
:1016C0003068002900F0A08140F001003060FFF791
:1016D00021FA05463068800700F1A881FFF71AFA61
:1016E000401B02284FF00300F4D960E33068800704
:1016F00003D5A069002800F00F83256A3068000731
:1017000000F14A81D6F89400000900F0F00085420B
:1017100000F248813068B9F1000F40F008003060F5
:10172000306820F0F00040EA050030607068E16940
:1017300020F47F4040EA0120706040F0B882B06D34
:10174000C00000F15582B06D40F08050B065B06DC2
:1017500000F0805002900298FFF7A8FDB16D21F0D3
:101760008051B165B0F5007F00F04882802D40F2D5
:10177000858203208DE200BF3068800303D5606856
:10178000002800F0C982207880072DD5B9F1040F18
:101790001CD0B9F10C0F08BFB8F1020F16D0E168E8
:1017A0003068002900F0E68140F480703060FFF777
:1017B000B1F90546306840050FD4FFF7ABF9401B7F
:1017C00002284FF00300F5D9F1E200BF3068400570
:1017D00003D5E068002800F09F827068216920F03E
:1017E000F85040EA016070602078000760D42078EB
:1017F000400779D42078800600F1B280A06A0028E2
:1018000000F01683022840F02381F068E16A00F0BE
:1018100003028A4240F03481226B6FF00F0300F024
:10182000700103EB0212914240F02A81616B00F4D7
:10183000FE42B2EB012F40F02381A16B00F0784211
:10184000B2EBC16F40F01C81E26B0023CFF6E07376
:1018500003EA025200F4C001A2F50012914240F0E6
:101860000F81216C4FF07E4202EA016100F0C060FE
:1018700001F17E41884240F003813068800100F12F
:10188000D782306840F080703060F06840F080703F
:10189000F060FFF73FF904463068800100F1C8822C
:1018A000FFF738F9001B02284FF00300F4D97EE25D
:1018B0006169D6F89400002900F0908040F00100A2
:1018C000C6F89400FFF726F9054600BFD6F8940045
:1018D00080078CD4FFF71EF9401B0228F6D903209D
:1018E00003B0BDE8F08300BFB06D5FEAC00808D464
:1018F000B06D40F08050B065B06D00F08050009049
:10190000009847F20007C4F200073868C00513D4F6
:10191000386840F480703860FFF7FCF8054600BF77
:101920003868C00508D4FFF7F5F8401B02284FF0CF
:101930000300F5D93BE200BFA168D6F89000012969
:1019400008D0052940F0DC8040F00400C6F8900083
:10195000D6F8900040F00100C6F89000DCE000BF2F
:10196000616AD6F89800002900F0B48040F00100C8
:10197000C6F89800FFF7CEF8054600BFD6F89800E5
:1019800080073FF53BAFFFF7C5F8401B02284FF03B
:101990000300F3D90BE200BF306800F0F00085428D
:1019A0007FF6B8AEB06DC00000F18680B06D40F03B
:1019B0008050B065B06D00F0805001900198FFF745
:1019C00075FCB16D21F08051B165B0F5007F79D023
:1019D000802D40F2E1800320E9E000BF20F001000B
:1019E000C6F89400FFF796F8054600BFD6F89400B5
:1019F00080077FF5FCAEFFF78DF8401B02284FF003
:101A00000300F3D9D3E100BF20F001003060FFF7FD
:101A100081F80546306880077FF529AEFFF77AF830
:101A2000401B02284FF00300F4D9C0E1306840F0B9
:101A3000080030603068D4E9071220F0F00010434D
:101A40003060706820F47F4040EA012070600EE64C
:101A5000B9F10C0F00F06081306820F080703060C8
:101A6000FFF758F8044600BF3068800140F1EA8073
:101A7000FFF750F8001B02284FF00300F4D996E15D
:101A8000B9F10C0F00F048813068400100F1448149
:101A9000306820F080703060FFF73CF8054600BFEA
:101AA0003068800140F18681FFF734F8401B02283E
:101AB0004FF00300F4D97AE1FFF7F8FBB0F5007FAF
:101AC0007FF486AF812D71D30120A02D88BF022025
:101AD0006DE000BF20F00100C6F89800FFF71AF88B
:101AE000054600BFD6F8980080077FF587AEFFF760
:101AF00011F8401B02284FF00300F3D957E100BF53
:101B000020F00100C6F89000D6F89000002920F0DF
:101B10000400C6F8900079D0FEF7FCFF054641F2BC
:101B2000883700BFD6F89000800700F18180FEF76B
:101B3000F1FF401BB842F5D9032003B0BDE8F083A4
:101B400020F4803030603068002920F4802030603C
:101B500000F08480FEF7DEFF054600BF306880039A
:101B60003FF511AEFEF7D6FF401B64284FF003008F
:101B7000F4D91CE120F480703060FEF7CBFF0546FD
:101B8000306840057FF530AEFEF7C4FF401B0228E9
:101B90004FF00300F4D90AE1A5F17000B0FA80F02B
:101BA0004009802D08BF022001E000BF002042F262
:101BB0000001C4F202010A6822F0070202440A602E
:101BC000096801F00701814240F0A680306840F0CA
:101BD000080030603068D4E9071220F0F0001043AC
:101BE0003060706820F47F4040EA012070605EE061
:101BF000FFF75CFBB0F5007F7FF4B8AD812D47D3D4
:101C00000120A02D88BF022043E000BFFEF782FF25
:101C1000054641F2883700BFD6F89000800707D507
:101C2000FEF778FF401BB8424FF00300F4D9BEE046
:101C3000B8F1000F3FF5DEADB06D20F08050B0651B
:101C4000D8E500BFF0684FF6FC71CFF6EE610840B2
:101C5000F060002003B0BDE8F08300BFFEF75AFF3C
:101C6000054600BF306880037FF58DADFEF752FF5B
:101C7000401B64284FF00300F4D998E0A5F17000F0
:101C8000B0FA80F04009802D08BF022001E000BFBB
:101C9000002042F20001C4F202010A6822F00702A9
:101CA00002440A60096801F00701814234D1B0683A
:101CB000F16810F00C0005D00C2831D101F00301BF
:101CC00001292DD1314651F8942B12F008023246E9
:101CD00008BF0A464FF00401126808BF082122FA23
:101CE00001F149F6745201F00F01C0F6000252F8FA
:101CF000211000280A4618BF00220C283CD1F068A9
:101D000000F00300022815D0032804BF41F200218F
:101D1000C0F27A0112E000BF012003B0BDE8F083F9
:101D200004281FD0082823D141F20022C0F27A02F1
:101D300022E000BF42F20041C0F2F401F068F26814
:101D4000C0F30210C2F306225143F2680130B1FB26
:101D5000F0F0C2F34161022202EB4101B0FBF1F26B
:101D60000AE000BF42F20042C0F2F40204E000BF09
:101D7000002200210C28C2D0B06849F65C51C0F3A3
:101D80000310C0F60001085C00F01F0022FA00F109
:101D900040F21000C2F2000040F214020068C2F2E9
:101DA00000021160FFF7ACF900283FF460AC03B00B
:101DB000BDE8F083F06848F28C01C0F29D1104F197
:101DC0002C0700EA010C8ECF6FF00F00D4E90F54FE
:101DD00000EB02100022CFF6E07241EA0C0102EAA9
:101DE00005520843A2F500124FF07E4540EA032059
:101DF00005EA0465104305F17E4540EAC7602843C3
:101E0000F060306840F080703060F06840F08070C2
:101E1000F060FEF77FFE04463068800108D4FEF7CC
:101E200079FE001B02284FF00300F5D9BFE700BF81
:101E3000002003B0BDE8F083002804BF01207047F4
:101E4000416A19B100210161142104E04168B1F532
:101E5000827F02D01C2100224250B0B5002585624D
:101E600090F85D1029B980F85C50044600F052F8F3
:101E70002046022180F85D100168D0F80CE00B6864
:101E8000BEF5E06F23F040030B6098BF01254EF4D0
:101E90000063B3F5706F4FEA053C1CBF00258562F7
:101EA000D0E90154D0E9043205F4827504F4044405
:101EB0002C4403F002032344846902F00102C56943
:101EC0001A4404F400731A4405F03803056A1A44EE
:101ED00005F08003856A1A4405F400531A430A602A
:101EE0000422436A0EF4706502EA1442446B45EA28
:101EF0000C0503F010032A4304F008041A4322439C
:101F00004A6000210122016680F85D20BDE8B040F2
:101F10000846704780B586B0006843F20002C4F2FC
:101F2000010200219042CDE90411CDE90211019195
:101F300002D006B080BD00BF41F24C00C4F20200E6
:101F4000426942F480524261426902F48052009236
:101F5000009A026842F001020260006800F001008D
:101F600000900098A02001900220CDE902010320FA
:101F700004900520059001A94FF09040FEF7E8FC81
:101F800006B080BD2DE9F04381B0044690F85C00B6
:101F9000012803D1022001B0BDE8F0834FF0010811
:101FA0001D460F46164684F85C80FEF7B3FD94F894
:101FB0005D10012948D18146002F4FF0010018BF64
:101FC000002E00F0D9800320002284F85D002266F4
:101FD000A763A687E6872264A4F84420A4F84620D5
:101FE000A0683146B0F5004F2068E264226507D151
:101FF000026822F040020260026842F480420260FD
:102000000268520603D4026842F04002026062682D
:102010000139E368B2FA82F2B1FA81F15209490951
:10202000B3F5E06F41EA02013ED931B137F8021B46
:10203000C160A763E08F0138E087E08F002871D08E
:10204000681C0ED11FE000BF022095E0A16B31F8A3
:10205000022BC260A163E08F0138E087E08F002887
:1020600060D0206881688907F0D4FEF753FDA0EBAB
:102070000900A842F2D303207EE000BFFEF74AFD2C
:10208000E08F00284ED0206881688907F6D5A16BC3
:1020900031F8022BC260A163E08F0138E087E08F46
:1020A0000028F0D13EE000BF89B1E18F02294FF650
:1020B000FE7103D337F8022BC26004E03A78013195
:1020C0000273A06B471CA763E08F0844E087E08F92
:1020D00040B3681C5DD04FF6FE70471C08E000BF9F
:1020E000FEF718FDA0EB0900A842C4D2E08FC8B1EA
:1020F000216888688007F3D5E28FA06B022A05D398
:1021000030F8022BCA604FF6FE7104E000780873C5
:10211000A06B39460130A063E08F0844E087E08F70
:102120000028E5D120464FF4C0512A464B4600F026
:102130004FFF68B9204629464A4601F009F838B9E8
:1021400020464FF4C0612A464B4600F041FF28B1BB
:10215000206E40F02000206620202066A06838B95C
:10216000002000902068C16800918068009000986D
:10217000206E002818BF0120002184F85D8084F8BB
:102180005C1001B0BDE8F083FEF7C4FCE08F0028CE
:10219000C8D0206881688907F6D5E28FA16B012A33
:1021A00008D931F8022BC260A163E08F0238E087C2
:1021B000ECE700BF09780173A06B0130A063E08FEA
:1021C0000138E087E2E70000411E0020B0EB116F0C
:1021D0001CBF012070474EF21002CEF20002516087
:1021E0004EF62351CEF20001F0230B7007219060D0
:1021F0001160704770470000704700007047000092
:1022000070B5016840F62F03CA690E688C681340E8
:10221000202B06F0200E07D1BEF1000F04D0416E36
:1022200041B3BDE87040084740F60F031A4209D099
:1022300040F22013C0F2004304F0010C334013EBD2
:102240000C0325D1036ED50616D5012B14D116F03B
:10225000100311D010220A628968490630D4B0F800
:102260005810B0F85A20B0F85A30002B18BF9142DD
:1022700040F02E8270BD00BFD30213D514F480034A
:1022800010D04FF480120A62BDE87040FFF7B4BF6F
:10229000D30718BF16F4807340F0CC80930700F189
:1022A000D380DCE0110640F1D98116F0800100F006
:1022B000D581816E0029DDD0BDE87040084700BFA0
:1022C000016F0A6853689CB2002CD3D0B0F8581044
:1022D0008C42CFD2A0F85A301268920600F1A28048
:1022E000016851E8001F026821F4807142E8001380
:1022F000DBB1016851E8001F026821F4807142E8F7
:10230000001393B1016851E8001F026821F4807145
:1023100042E800134BB1016851E8001F026821F444
:10232000807142E80013002BDAD1016851E8021FE6
:10233000026821F0010142E80213C3B3016851E8C9
:10234000021F026821F0010142E802137BB3016819
:1023500051E8021F026821F0010142E8021333B381
:10236000016851E8021F026821F0010142E80213EE
:10237000002BDAD11BE000BF016851E8021F0268A0
:1023800021F0400142E80213DBB1016851E8021F6D
:10239000026821F0400142E8021393B1016851E85C
:1023A000021F026821F0400142E802134BB10168AC
:1023B00051E8021F026821F0400142E80213002B9D
:1023C000DAD12021C16700210166016851E8001FB0
:1023D000026821F0100142E80013DBB1016851E806
:1023E000001F026821F0100142E8001393B1016858
:1023F00051E8001F026821F0100142E800134BB1C0
:10240000016851E8001F026821F0100142E8001342
:10241000002BDAD1016F04460846FEF735FAB4F80E
:1024200058102046B0F85A20891A89B2BDE8704089
:10243000FFF7E0BE01230B62D0F8803043F00103C8
:10244000C0F8803093070AD5BCF1000F07D00223F3
:102450000B62D0F8803043F00403C0F8803053079B
:102460000AD5BCF1000F07D004230B62D0F88030EE
:1024700043F00203C0F8803013070AD55CEA0E036C
:1024800007D008230B62D0F8803043F00803C0F86F
:10249000803013050BD516F0806308D04FF400632D
:1024A0000B62D0F8803043F02003C0F88030D0F8C1
:1024B0008030002B3FF4DEAE920608D5BEF1000F4F
:1024C00005D0426E1AB10446904721682046D0F8E4
:1024D0008020896802F0280201F04001891807D1A4
:1024E0000446FFF78BFE0020C4F8800070BD00BFDB
:1024F000016851E8001F026821F4907142E800135E
:10250000BBB3016851E8001F026821F4907142E8F2
:10251000001373B3016851E8001F026821F4907141
:1025200042E800132BB3016851E8001F026821F450
:10253000907142E80013002BDAD11AE0016851E8EB
:10254000021F026821F0010142E80213DBB10168B9
:1025500051E8021F026821F0010142E8021393B121
:10256000016851E8021F026821F0010142E80213EC
:102570004BB1016851E8021F026821F0010142E8F5
:102580000213002BDAD1016E012924D1016851E830
:10259000001F026821F0100142E80013DBB101685E
:1025A00051E8001F026821F0100142E8001393B1C6
:1025B000016851E8001F026821F0100142E8001391
:1025C0004BB1016851E8001F026821F0100142E898
:1025D0000013002BDAD12021C167002101660268B7
:1025E0004166916849066FD5016851E8021F02688B
:1025F00021F0400142E80213DBB1016851E8021FFB
:10260000026821F0400142E8021393B1016851E8E9
:10261000021F026821F0400142E802134BB1016839
:1026200051E8021F026821F0400142E80213002B2A
:10263000DAD1016F002947D043F2C932C0F6000257
:10264000044608468A63FEF745F900283FF412AEB7
:10265000206F816BBDE87040084700BF51067FF5D1
:1026600009AE16F0400108BF70BD00BF016851E817
:10267000001F026821F0400142E80013DBB101684D
:1026800051E8001F026821F0400142E8001393B1B5
:10269000016851E8001F026821F0400142E8001380
:1026A0004BB1016851E8001F026821F0400142E887
:1026B0000013002BDAD12021816700218166BDE85B
:1026C000704000F02DBB00BFBDE87040FFF796BD25
:1026D000891A00BF026852E8002F036822F4907242
:1026E00043E80026BEB3026852E8002F036822F4D4
:1026F000907243E8002676B3026852E8002F036820
:1027000022F4907243E800262EB3026852E8002FAC
:10271000036822F4907243E80026002EDAD11AE012
:10272000026852E8022F036822F0010243E8022601
:10273000DEB1026852E8022F036822F0010243E88A
:10274000022696B1026852E8022F036822F00102C5
:1027500043E802264EB1026852E8022F036822F0D5
:10276000010243E80226002EDAD12022C2670022AD
:1027700002664266026852E8002F036822F01002E7
:1027800043E80026DEB1026852E8002F036822F019
:10279000100243E8002696B1026852E8002F036851
:1027A00022F0100243E800264EB1026852E8002FE2
:1027B000036822F0100243E80026002EDAD189B225
:1027C000BDE87040FFF716BD002804BF0120704728
:1027D000B0B582B00446806F28B9002084F8740038
:1027E000204600F059F82420A0672068016821F0F5
:1027F00001010160204600F037FF18B1012002B04E
:10280000B0BD00BF606A10B1204600F069FD2068CD
:10281000416821F490414160816821F02A01816082
:10282000016841F0010101600020C4F88000FEF75A
:1028300071F9216805460A68120710D56FF07E4CC1
:1028400020464FF4001100222B46CDF800C001F0C5
:10285000D5F818B1032002B0B0BD00BF21680868E8
:1028600040070FD56FF07E4C20464FF480010022C8
:102870002B46CDF800C001F0C1F818B1032002B01A
:10288000B0BD00BF2020A067E0670020206684F86C
:10289000740002B0B0BD000010B586B0006844F20C
:1028A0000041C4F2000188424FF000000590CDE9DC
:1028B0000300CDE9010001D006B010BD41F24C0487
:1028C000C4F20204206801A940F0010020602068E1
:1028D00000F00100009000980C200190022002906E
:1028E0000120039003200490072005904FF09040B2
:1028F000FEF72EF8E068052140F40030E060E06863
:10290000002200F40030009000982620FEF74CFCD6
:102910002620FEF737FC06B010BD0000C36F202B49
:102920000CD100294FF0010318BF002A02D118462C
:10293000704700BF90F87430012B03D10223184672
:10294000704700BF80B5012380F874300023036610
:10295000D0F800C048F20003C4F200039C4503D045
:10296000DCF804301B0203D400F08CFF002080BD93
:10297000036853E800CFD0F800E04CF080634EE8E5
:10298000003CBCF1000FEFD0036853E800CFD0F853
:1029900000E04CF080634EE8003CBCF1000FE3D057
:1029A000036853E800CFD0F800E04CF080634EE8B5
:1029B000003CBCF1000FD7D0036853E800CFD0F83B
:1029C00000E04CF080634EE8003CBCF1000FCFD13A
:1029D000CAE70000016844F20042C4F200029142DA
:1029E00018BF70472DE9F04381B040F27804C2F27D
:1029F000000421780D2900F020810A2936D1A1791F
:102A000004F134020023535494F8343094F8352000
:102A1000152908BF542B33D0032908BF532B00F0CE
:102A200085800529C0F00781572B40F004813A2AA0
:102A300040F0018194F83620A2F1300E5FFA8EF951
:102A4000B9F1090F00F2F78094F837202C2A40F0F2
:102A5000F28094F838202D2A74D04FF0010C2B2AE4
:102A600014BF042505258D4271D3E4E0A2791E2A06
:102A700000F2E180531C2244A37182F83410DCE0A0
:102A80003A2AC9D194F83A702D2FC5D194F83D70E7
:102A90002D2FC1D194F84070202FBDD194F84370F0
:102AA0003A2FB9D194F846703A2FB5D194F8411025
:102AB00094F8422001EB810102EB41011039CAB2C6
:102AC000172A00F2B88094F8442094F8453002EBBD
:102AD000820203EB4202103AD3B23B2B00F2AB80EE
:102AE00094F8473094F8487003EB830307EB4303F3
:102AF000103BDFB23B2F00F29E800546E08F40F294
:102B00000007C2F20007A7F80900D4F83A00D4F889
:102B10003660C7F805000020F8720120C7F8016090
:102B2000A170E2702371E07181E000BF3A2A7FF466
:102B300078AF94F836104E2976D057297BD10546C8
:102B4000012073E005254FF0FF3C8D4273D26219DE
:102B500092F83420A2F13008B8F1090F6BD86A1C42
:102B6000464691421CD1B8F1090F98BFB9F1040F44
:102B700061D8054606FB0CF040F2000110F1630F2E
:102B8000D8BF6FF06200C2F200016328A8BF6320C3
:102B900081F800E06070FDF7BDFFE06047E000BF36
:102BA000671997F83520A2F13003092BDBD806EB23
:102BB000860302EB4302AB1CDBB29942A2F1300662
:102BC000D1D097F83620A2F13003092BCBD806EBF1
:102BD000860302EB4302EB1CDBB29942A2F1300602
:102BE000C1D097F83720A2F13003092BBBD806EBF0
:102BF000860302EB43032A1DD6B2B142A3F130068D
:102C0000B1D097F83870A7F13003092BABD806EB99
:102C1000860307EB4303A3F130066B1DDBB2994239
:102C20001546BDD19FE700BF054600206071FDF746
:102C300071FFA06028460021A17140F27801C2F224
:102C40000001012201B0BDE8F043FFF767BE0000BC
:102C50002DE9F04182B00446806F20280ED10F4646
:102C600000294FF0010018BF002A03D102B0BDE8CF
:102C7000F08100BF94F87400012803D1022002B053
:102C8000BDE8F081012084F874000020C4F88000C1
:102C900021201D46A0671646FDF73CFFA4F85060B2
:102CA000A4F85260A1688046B1F5805F01D1206927
:102CB000A0B33E460027002084F8740008E000BF5F
:102CC00016F8011B0185B4F852000138A4F852002F
:102CD000B4F8520080B1204680210022434600957E
:102CE00000F08CFE80B92068002EE9D137F8021B75
:102CF00000266FF35F21E5E720464021002243468E
:102D0000009500F07BFE18B1032002B0BDE8F08111
:102D10002020A067002002B0BDE8F0810026CAE7AD
:102D200070470000FEE700002DE9F04381B0036822
:102D300004469869C00605D4002000219A69D70589
:102D400060D465E01020D8619869800653D4884625
:102D5000481C46D016464FF02009002506E000BF6B
:102D60000027986900F02000384335D1FDF7D2FEE6
:102D70002368B8F1000F02D0801B4045F0D9596894
:102D800094F842009A6912040CD511F4804109D1DB
:102D9000202807D0586840F480405860FDF7BAFEFC
:102DA000236806469869002702E000BF23689869F7
:102DB0008006D6D4FDF7AEFE801B1A28F6D3606CD1
:102DC000012740F02000606484F8419084F842506C
:102DD00084F84050EAE700BF7FB90CE098698006AC
:102DE00009D49869800606D4986980065CBF986902
:102DF0005FEA8060F2D52020D861012104209A6921
:102E0000D70505D54FF4807140F00100D96101214B
:102E1000570507D492050BD479B9002001B0BDE85D
:102E2000F08300BF08304FF480619205D96104D56A
:102E300040F002004FF40071D9619969890744BFDD
:102E4000002199629969C90703D1996941F001018B
:102E5000996159684EF60002CFF600621140596040
:102E6000616C08436064202084F84100002084F8ED
:102E7000420084F84000012001B0BDE8F08300006A
:102E800070B51546044609B30E4600BF2068806938
:102E9000400734D4204631462A46FFF745FFF8B9AB
:102EA00020688169890625D4FDF734FE401BB042B5
:102EB000ECD9606C40F020006064202084F8410070
:102EC000002084F84000012070BD00BF20688069A8
:102ED000400714D4204600212A46FFF725FF08B1F9
:102EE000012070BD20688169890603D4FDF712FEB8
:102EF000DFE700BF8169490704D5218D11B10020AA
:102F000070BD00BF82694EF60006D2064FF0000287
:102F100042BF1022C261042262642022C26143685F
:102F2000CFF6006600213340436084F8412084F8E6
:102F30004210002084F84000012070BD70B50446A6
:102F400000688069800710D415460E4611B3701CC6
:102F500017D100BF20464FF0FF312A46FFF7E4FEAD
:102F6000F0B9206880698007F4D5002070BD00BFEB
:102F7000FDF7D0FD401BB04216D82068806980075D
:102F8000F3D4204631462A46FFF7CEFE0028EFD084
:102F900006E000BF204600212A46FFF7C5FE08B123
:102FA000012070BDFDF7B6FD606C40F0200060644C
:102FB000202084F84100002084F8420084F840007A
:102FC000012070BDFEE70000FEE700007047000032
:102FD0002DE9F04782B000261F4690460D468146F7
:102FE0008DF80360FDF796FD381A00EB0807FDF732
:102FF00091FD40F21401C2F20001096823225143FD
:10300000090DD9F8004079430191A168294235D0D2
:10301000824618F1010035D0B5F5C06F1AD100BF56
:10302000207B8DF803009DF80300FDF773FDA0EBF6
:103030000A00B8425ED2019801990028A1F101016D
:103040000191D9F80010896808BF074611F4C06FD4
:10305000E6D112E0FDF75EFDA0EB0A00B84249D2CE
:10306000019801990028A1F101010191D9F80010FE
:10307000896808BF07462942ECD10026304602B0D5
:10308000BDE8F0870026B5F5C06F25D1207B8DF80F
:1030900003009DF80300A06810F4C06FEDD0207B02
:1030A0008DF803009DF80300A06810F4C06FE4D011
:1030B000207B8DF803009DF80300A06810F4C06F1A
:1030C000DBD0207B8DF803009DF80300A06810F48E
:1030D000C06FDBD1D2E700BFA0682842CDD0A06886
:1030E0002842CAD0A0682842C7D0A0682842F3D19D
:1030F000C4E700BFD9E900014268B1F5827F22F040
:10310000E00242600BD1D9F80810B1F5004F02D0AF
:10311000B1F5806F03D1016821F040010160D9F859
:103120002810B1F5005F07D1016821F4005101605A
:10313000016841F400510160012089F85D00002020
:1031400089F85C000326304602B0BDE8F087000035
:10315000F0B581B015460E460446FDF7DBFC281A93
:103160008719FDF7D7FC40F21401C2F2000109688B
:10317000C1F3CB317943009121688A68120622D5C8
:103180000546701C15D000BFFDF7C4FC401BB842BB
:103190001CD2009800990028A1F10101009121683A
:1031A000896808BF07460806EED40CE08868000668
:1031B00009D58868000606D58868000644BF886877
:1031C0005FEA0060F2D4002001B0F0BDD4E9000154
:1031D0004268B1F5827F22F0E00242600AD1A16824
:1031E000B1F5004F02D0B1F5806F03D1016821F035
:1031F00040010160A16AB1F5005F07D1016821F4C7
:1032000000510160016841F400510160012084F81F
:103210005D00002084F85C00032001B0F0BD0000D8
:1032200070470000FDF74EBF10B596B005A84421C9
:10323000FDF724FA00244FF400700494CDE9024411
:10324000CDE90044FDF7ECFF20B1EFF3108072B63A
:10325000FEE700BFFEF732F841F29000C4F2020030
:10326000016821F0180101601420602105900120FF
:103270000D9102210790CDE90B04CDE90F101190BB
:10328000282012900720CDE9130105A81591FEF71B
:10329000D9F928B1EFF3108072B600BFFEE700BF86
:1032A0000F200090032001900020CDE9020004903F
:1032B00068460421FEF716F820B1EFF3108072B6CD
:1032C000FEE700BFFEF704F816B010BD4EF68850BA
:1032D000CEF20000016841F4700101607047000007
:1032E000416ACA070CD18A0715D44A071ED40A07B7
:1032F00027D4CA0630D48A0639D44A0642D457E0C5
:103300000268D0F828C0536823F4003343EA0C0362
:1033100053608A07E9D50268D0F82CC0536823F4BB
:10332000803343EA0C0353604A07E0D50268D0F8C3
:1033300030C0536823F4802343EA0C0353600A0728
:10334000D7D50268D0F834C0536823F4004343EA69
:103350000C035360CA06CED50268D0F838C0936813
:1033600023F4805343EA0C0393608A06C5D50268B0
:10337000D0F83CC0936823F4005343EA0C039360F5
:103380004A0615D5D0F800C0036CDCF80420B3F56C
:10339000801F22F4801242EA0302CCF8042007D1F5
:1033A000DCF80420436C22F4C0021A43CCF8042059
:1033B000090658BF70470168806C4A6822F40022F1
:1033C0001043486070470000806A0021A0F85A103E
:1033D000A0F85210FEF712BFB0F85C200168C36F6E
:1033E000222B40F09780898C436D114023F8021BFB
:1033F0004365B0F85A100139A0F85A10B0F85A10C5
:10340000002918BF704700BF016851E8001F02681B
:1034100021F4907142E80013E3B1016851E8001F04
:10342000026821F4907142E800139BB1016851E8F1
:10343000001F026821F4907142E8001353B1016843
:1034400051E8001F026821F4907142E80013002B3C
:10345000DAD100BF016851E8021F026821F00101C2
:1034600042E80213DBB1016851E8021F026821F053
:10347000010142E8021393B1016851E8021F02689A
:1034800021F0010142E802134BB1016851E8021F2B
:10349000026821F0010142E80213002BDAD1202159
:1034A000C16700214166026E012A18BFFFF792BA78
:1034B000016600BF016851E8001F026821F0100199
:1034C00042E80013DBB1016851E8001F026821F0F7
:1034D000100142E8001393B1016851E8001F02682F
:1034E00021F0100142E800134BB1016851E8001FC0
:1034F000026821F0100142E80013002BDAD10168C4
:10350000CA69D20644BF10220A62B0F85810FEF70A
:1035100071BE00BF088B40F00800088370470000B0
:10352000B0F85C100268C36F222B40F09780928C39
:10353000436D11401970416D01314165B0F85A1069
:103540000139A0F85A10B0F85A10002918BF704776
:10355000016851E8001F026821F4907142E80013ED
:10356000E3B1016851E8001F026821F4907142E85C
:1035700000139BB1016851E8001F026821F49071AB
:1035800042E8001353B1016851E8001F026821F4BA
:10359000907142E80013002BDAD100BF016851E8B6
:1035A000021F026821F0010142E80213DBB1016849
:1035B00051E8021F026821F0010142E8021393B1B1
:1035C000016851E8021F026821F0010142E802137C
:1035D0004BB1016851E8021F026821F0010142E885
:1035E0000213002BDAD12021C16700214166026E4F
:1035F000012A18BFFFF7EEB9016600BF016851E864
:10360000001F026821F0100142E80013DBB10168DD
:1036100051E8001F026821F0100142E8001393B145
:10362000016851E8001F026821F0100142E8001310
:103630004BB1016851E8001F026821F0100142E817
:103640000013002BDAD10168CA69D20644BF1022E8
:103650000A62B0F85810FEF7CDBD00BF108B40F0E5
:103660000800108370470000B0B5054605F1080456
:103670001ECC0068194341EA0403D5F81CE0046835
:1036800046F6F311CEF6FF712140194341EA0E01CF
:103690000160416848F2000C21F44051114341603F
:1036A000AA69C4F2000C60451CBF296A0A438168FC
:1036B000102321F430611143816047F6FF71C4F299
:1036C0000001884212DC44F20041C4F20001884249
:1036D0001CD044F60001C4F2000188422CD141F212
:1036E0008801C4F2020109680B091DE0604515D08C
:1036F00043F60001C4F2010188421DD141F2880164
:10370000C4F202010B685BA212E000BF41F2880123
:10371000C4F2020109688B0806E000BF41F288018B
:10372000C4F2020109688B0A49F6A452C0F60002ED
:1037300003F0030152F82130604542F20040C0F22C
:10374000F40015D0BEF5004F22D1082B4FF0010137
:1037500000F28B80DFE803F006506289588989897E
:10376000600000BFFDF7DEFE002840F0578078E0E3
:10377000082B4FF0010100F27880DFE803F00576B6
:1037800021761B7676761F00FDF7CCFEC0B968E087
:10379000082B4FF0010100F26880DFE803F00531EB
:1037A0005566396666665300FDF7BCFE00284BD1AE
:1037B00057E000BFFDF7E2FE10B952E04FF40040C1
:1037C0006A6802EB420188424FF001014DD31303B6
:1037D00098424AD8010E000210EB520041F100015C
:1037E0000023FCF761FD4FF60052A0F54071C0F2D6
:1037F0000F02914233D337E0FDF7AAFE70B930E0F3
:10380000FDF7A6FE00BB2CE0FDF7B8FE30B928E0BE
:10381000FDF7B4FEC0B924E04FF4004069684A08DF
:1038200002EB4000B0FBF1F04FF6EF72A0F1100197
:10383000914219D84FF6F0710140C0F3420008449C
:103840000DE000BF4FF4004069684FF6EF7200EBE7
:103850005100B0FBF1F0A0F11001914204D82968A9
:10386000C860002101E000BF0121002208466A660D
:10387000AA66B0BD010000000400000002000000C4
:10388000080000004165A0F85820A0F85A2081687F
:103890000022426671B1B1F1805F07D0B1F5805F5F
:1038A0000ED1016951B940F2FF110AE0016919B165
:1038B0003F2106E0016909B17F2102E0FF2100E01C
:1038C0000021A0F85C100021C0F880102221C167FF
:1038D000016851E8021F026841F0010142E8021349
:1038E000DBB1016851E8021F026841F0010142E8C2
:1038F000021393B1016851E8021F026841F001010F
:1039000042E802134BB1016851E8021F026841F01E
:10391000010142E80213002BDAD182680169B2F595
:10392000805F09D1D1B343F22151C0F60001416655
:10393000002180F8741009E043F22152C0F6000221
:103940004266002280F8742081B300BF016851E80C
:10395000001F026841F4907142E80013002B4AD026
:10396000016851E8001F026841F4907142E80013B9
:10397000002B40D0016851E8001F026841F49071AB
:1039800042E80013BBB3016851E8001F026841F42C
:10399000907142E80013002BD8D12CE043F2D931CA
:1039A000C0F600014166002180F87410016851E8FA
:1039B000001F026841F0200142E80013DBB10168FA
:1039C00051E8001F026841F0200142E8001393B162
:1039D000016851E8001F026841F0200142E800132D
:1039E0004BB1016851E8001F026841F0200142E834
:1039F0000013002BDAD10020704700002DE9F041C0
:103A0000044600681546C2690E461140891BB1FA8A
:103A100081F149098D4240F09C80DDF81880B8F1B1
:103A2000000F27D018F101017CD100BFC1693140DE
:103A3000891BB1FA81F149098D4240F08A80C16940
:103A40003140891BB1FA81F149098D4240F08180F2
:103A5000C1693140891BB1FA81F149098D4278D1A0
:103A6000C1693140891BB1FA81F149098D42DDD02C
:103A70006FE000BFFDF74EF8206850E8000F2168A6
:103A800020F4D07041E80002BAB3206850E8000F7B
:103A9000216820F4D07041E8000272B3206850E839
:103AA000000F216820F4D07041E800022AB320689A
:103AB00050E8000F216820F4D07041E80002002A8D
:103AC000DAD11AE0206850E8020F216820F00100E6
:103AD00041E80202DAB1206850E8020F216820F0C4
:103AE000010041E8020292B1206850E8020F21680B
:103AF00020F0010041E802024AB1206850E8020FBC
:103B0000216820F0010041E80202002ADAD17C207D
:103B10007821202262502250002084F87400032073
:103B2000BDE8F0811F4600BFFCF7F4FFC01B404515
:103B3000A2D820680168490744BFC1695FEA015102
:103B40000AD4C0693040801BB0FA80F04009854239
:103B5000EAD00020BDE8F0814FF40061016200BFAF
:103B6000206850E8000F216820F4D07041E800027E
:103B7000BAB3206850E8000F216820F4D07041E803
:103B8000000272B3206850E8000F216820F4D07062
:103B900041E800022AB3206850E8000F216820F4B1
:103BA000D07041E80002002ADAD11AE0206850E81B
:103BB000020F216820F0010041E80202DAB120681A
:103BC00050E8020F216820F0010041E8020292B1A2
:103BD000206850E8020F216820F0010041E802024D
:103BE0004AB1206850E8020F216820F0010041E846
:103BF0000202002ADAD12020A06780207C2188E7F9
:103C000040F28410C2F20000FEF7FABAFEE70000AC
:103C10002DE9F04381B0804600F1020940F27800BE
:103C2000C2F20000002700F1180400BF09EB0700F2
:103C300086B220461C2132460123BDB204F088FD25
:103C400020461D213246012304F082FD20461E211C
:103C50003246012304F07CFD20461F213246012319
:103C600004F076FD204620213246012304F070FD49
:103C7000204621213246012304F06AFD20462221FC
:103C80003246012304F064FD2046232132460123FD
:103C900004F05EFD204624213246012304F058FD45
:103CA000204625213246012304F052FD20462621DC
:103CB0003246012304F04CFD2046272132460123E1
:103CC00004F046FD204628213246012304F040FD41
:103CD000204629213246012304F03AFD20462A21BC
:103CE0003246012304F034FD20462B2132460123C5
:103CF00004F02EFD20462C213246012304F028FD3D
:103D000020462D213246012304F022FD20462E219B
:103D10003246012304F01CFD20462F2132460123A8
:103D200004F016FD072D07F10107FFF47FAF08F13E
:103D30000E09002707EB090086B220460E21324605
:103D40000123BDB204F004FD20460F2132460123B9
:103D500004F0FEFC204610213246012304F0F8FC5A
:103D6000204611213246012304F0F2FC20461221A4
:103D70003246012304F0ECFC204613213246012395
:103D800004F0E6FC204614213246012304F0E0FC56
:103D9000204615213246012304F0DAFC2046162184
:103DA0003246012304F0D4FC204617213246012379
:103DB00004F0CEFC204618213246012304F0C8FC52
:103DC000204619213246012304F0C2FC092D07F1D7
:103DD0000107AFD3002700BF07EB090086B22046DA
:103DE000322132460123BDB204F0B2FC2046332119
:103DF0003246012304F0ACFC204634213246012334
:103E000004F0A6FC204635213246012304F0A0FC34
:103E1000204636213246012304F09AFC2046372101
:103E20003246012304F094FC204638213246012317
:103E300004F08EFC204639213246012304F088FC30
:103E400020463A213246012304F082FC20463B21E1
:103E50003246012304F07CFC20463C2132460123FB
:103E600004F076FC20463D213246012304F070FC2C
:103E7000092D07F10107AFD308F10809002500BF9C
:103E800009EB050086B22046142132460123AFB269
:103E900004F05EFC204615213246012304F058FC54
:103EA000204616213246012304F052FC20461721F9
:103EB0003246012304F04CFC2046182132460123EF
:103EC00004F046FC204619213246012304F040FC50
:103ED00020461A213246012304F03AFC20461B21D9
:103EE0003246012304F034FC20461C2132460123D3
:103EF00004F02EFC20461D213246012304F028FC4C
:103F000020461E213246012304F022FC20461F21B8
:103F10003246012304F01CFC2046202132460123B6
:103F200004F016FC204621213246012304F010FC47
:103F3000204622213246012304F00AFC2046232198
:103F40003246012304F004FC20462421324601239A
:103F500004F0FEFB204625213246012304F0F8FB45
:103F6000204626213246012304F0F2FB2046272179
:103F70003246012304F0ECFB20462821324601237F
:103F800004F0E6FB204629213246012304F0E0FB41
:103F900020462A213246012304F0DAFB20462B2159
:103FA0003246012304F0D4FB20462C213246012363
:103FB00004F0CEFB20462D213246012304F0C8FB3D
:103FC00020462E213246012304F0C2FB20462F2139
:103FD0003246012304F0BCFB204630213246012347
:103FE00004F0B6FB204631213246012304F0B0FB39
:103FF000204632213246012304F0AAFB2046332119
:104000003246012304F0A4FB20463421324601232A
:1040100004F09EFB204635213246012304F098FB34
:10402000204636213246012304F092FB20463721F8
:104030003246012304F08CFB0F2F05F10105FFF43C
:104040001FAF08F11400002586B200BF05F10C0077
:1040500081B2204632460123AFB204F079FB332F00
:1040600005F10105F2D308F11500002586B200BF65
:1040700005F10C0081B2204632460123AFB204F0B4
:1040800067FB332F05F10105F2D308F11600002577
:1040900086B200BF05F10C0081B2204632460123F2
:1040A000AFB204F055FB332F05F10105F2D308F14F
:1040B0001700002586B200BF05F10C0081B2204632
:1040C00032460123AFB204F043FB332F05F1010563
:1040D000F2D308F11800002586B200BF05F10C00EC
:1040E00081B2204632460123AFB204F031FB332FB8
:1040F00005F10105F2D308F11900002685B200BFD1
:1041000006F10C0081B220462A460123B7B204F022
:104110001FFB332F06F10106F2D301B0BDE8F08397
:104120002DE9F04F81B0042802D901B001F0C7BBDE
:10413000002800F02181012841F0228040F278001F
:10414000C2F20000002600F1180400BF06F16E0064
:1041500085B2204630212A460123B7B204F0F8FA8E
:10416000204631212A46012304F0F2FA204632216A
:104170002A46012304F0ECFA204633212A46012383
:1041800004F0E6FA204634212A46012304F0E0FA3E
:10419000204635212A46012304F0DAFA204636214A
:1041A0002A46012304F0D4FA204637212A46012367
:1041B00004F0CEFA204638212A46012304F0C8FA3A
:1041C000204639212A46012304F0C2FA20463A212A
:1041D0002A46012304F0BCFA20463B212A4601234B
:1041E00004F0B6FA0B2F06F10106AFD320462C21BE
:1041F0007222012304F0ACFA20462D217222012301
:1042000004F0A6FA20462E217222012304F0A0FA1F
:1042100020462F217222012304F09AFA20462C21F5
:104220007322012304F094FA20462D2173220123E6
:1042300004F08EFA20462E217322012304F088FA1E
:1042400020462F217322012304F082FA20462C21DC
:104250007422012304F07CFA20462D2174220123CC
:1042600004F076FA20462E217422012304F070FA1D
:1042700020462F217422012304F06AFA20462C21C3
:104280007522012304F064FA20462D2175220123B2
:1042900004F05EFA20462E217522012304F058FA1C
:1042A00020462F217522012304F052FA20463C219A
:1042B0007222012304F04CFA20463D217222012390
:1042C00004F046FA20463E217222012304F040FA0F
:1042D00020463F217222012304F03AFA20463C2175
:1042E0007322012304F034FA20463D217322012376
:1042F00004F02EFA20463E217322012304F028FA0E
:1043000020463F217322012304F022FA20463C215B
:104310007422012304F01CFA20463D21742201235B
:1043200004F016FA20463E217422012304F010FA0C
:1043300020463F217422012304F00AFA20463C2142
:104340007522012304F004FA20463D217522012341
:1043500004F0FEF920463E217522012304F0F8F90D
:1043600020463F217522012304F0F2F97E2001B09E
:1043700001F0A8BAFFF74CBC40F27800C2F200008E
:10438000002600F1180400BF06F1780085B220462F
:104390001A212A460123B7B204F0DAF920461B217C
:1043A0002A46012304F0D4F920461C212A46012381
:1043B00004F0CEF920461D212A46012304F0C8F955
:1043C00020461E212A46012304F0C2F920461F215F
:1043D0002A46012304F0BCF9204620212A46012365
:1043E00004F0B6F9204621212A46012304F0B0F951
:1043F000204622212A46012304F0AAF9204623213F
:104400002A46012304F0A4F9204624212A46012348
:1044100004F09EF9204625212A46012304F098F94C
:10442000204626212A46012304F092F9204627211E
:104430002A46012304F08CF9204628212A4601232C
:1044400004F086F9204629212A46012304F080F948
:1044500020462A212A46012304F07AF920462B21FE
:104460002A46012304F074F920462C212A46012310
:1044700004F06EF920462D212A46012304F068F944
:1044800020462E212A46012304F062F920462F21DE
:104490002A46012304F05CF9204630212A460123F4
:1044A00004F056F9204631212A46012304F050F940
:1044B000172F06F10106FFF467AF204624216E2274
:1044C000012304F045F9204625216E22012304F042
:1044D0003FF9204626216E22012304F039F92046B7
:1044E00027216E22012304F033F9204624216F2274
:1044F000012304F02DF9204625216F22012304F029
:1045000027F9204626216F22012304F021F92046B5
:1045100027216F22012304F01BF920462421702259
:10452000012304F015F9204625217022012304F00F
:104530000FF9204626217022012304F009F92046B4
:1045400027217022012304F003F92046242171223F
:10455000012304F0FDF8204625217122012304F0F7
:10456000F7F8204626217122012304F0F1F82046B5
:1045700027217122012304F0EBF820462421722226
:10458000012304F0E5F8204625217222012304F0DE
:10459000DFF8204626217222012304F0D9F82046B4
:1045A00027217222012304F0D3F82046242173220C
:1045B000012304F0CDF8204625217322012304F0C5
:1045C000C7F8204626217322012304F0C1F82046B3
:1045D00027217322012304F0BBF8204624217422F2
:1045E000012304F0B5F8204625217422012304F0AC
:1045F000AFF8204626217422012304F0A9F82046B2
:1046000027217422012304F0A3F8204624217522D7
:10461000012304F09DF8204625217522012304F092
:1046200097F8204626217522012304F091F82046B0
:1046300027217522012304F08BF8204624219222A1
:10464000012304F085F8204625219222012304F05D
:104650007FF8204626219222012304F079F8204693
:1046600027219222012304F073F82046242193226B
:10467000012304F06DF8204625219322012304F044
:1046800067F8204626219322012304F061F8204692
:1046900027219322012304F05BF820462421942251
:1046A000012304F055F8204625219422012304F02B
:1046B0004FF8204626219422012304F049F8204691
:1046C00027219422012304F043F820462421952237
:1046D000012304F03DF8204625219522012304F012
:1046E00037F8204626219522012304F031F8204690
:1046F00027219522012304F02BF82046242196221D
:10470000012304F025F8204625219622012304F0F8
:104710001FF8204626219622012304F019F820468E
:1047200027219622012304F013F820462421972202
:10473000012304F00DF8204625219722012304F0DF
:1047400007F8204626219722012304F001F820468D
:1047500027219722012303F0FBFF204624219822E2
:10476000012303F0F5FF204625219822012303F0C1
:10477000EFFF204626219822012303F0E9FF20467F
:1047800027219822012303F0E3FF204624219922C8
:10479000012303F0DDFF204625219922012303F0A8
:1047A000D7FF204626219922012303F0D1FF20467E
:1047B00027219922012303F0CBFF20460A218222E0
:1047C000012303F0C5FF20460B218222012303F0C1
:1047D000BFFF20460C218222012303F0B9FF2046AF
:1047E0000D218222012303F0B3FF20460E218222F5
:1047F000012303F0ADFF20460F218222012303F0A5
:10480000A7FF204610218222012303F0A1FF2046AA
:1048100011218222012303F09BFF20460A218322DB
:10482000012303F095FF20460B218322012303F08F
:104830008FFF20460C218322012303F089FF2046AD
:104840000D218322012303F083FF20460E218322C2
:10485000012303F07DFF20460F218322012303F073
:1048600077FF204610218322012303F071FF2046A9
:1048700011218322012303F06BFF20460A218422A9
:10488000012303F065FF20460B218422012303F05E
:104890005FFF20460C218422012303F059FF2046AC
:1048A0000D218422012303F053FF20460E21842290
:1048B000012303F04DFF20460F218422012303F042
:1048C00047FF204610218422012303F041FF2046A8
:1048D00011218422012303F03BFF20460A21852277
:1048E000012303F035FF20460B218522012303F02D
:1048F0002FFF20460C218522012303F029FF2046AB
:104900000D218522012303F023FF20460E2185225D
:10491000012303F01DFF20460F218522012303F010
:1049200017FF204610218522012303F011FF2046A6
:1049300011218522012303F00BFF20463A21822218
:10494000012303F005FF20463B218222012303F0CF
:10495000FFFE20463C218222012303F0F9FE20467F
:104960003D218222012303F0F3FE20463E218222D4
:10497000012303F0EDFE20463F218222012303F0B4
:10498000E7FE204640218222012303F0E1FE20467B
:1049900041218222012303F0DBFE20463A218322BB
:1049A000012303F0D5FE20463B218322012303F09F
:1049B000CFFE20463C218322012303F0C9FE20467E
:1049C0003D218322012303F0C3FE20463E218322A2
:1049D000012303F0BDFE20463F218322012303F083
:1049E000B7FE204640218322012303F0B1FE20467A
:1049F00041218322012303F0ABFE20463A21842289
:104A0000012303F0A5FE20463B218422012303F06D
:104A10009FFE20463C218422012303F099FE20467C
:104A20003D218422012303F093FE20463E2184226F
:104A3000012303F08DFE20463F218422012303F051
:104A400087FE204640218422012303F081FE204678
:104A500041218422012303F07BFE20463A21852256
:104A6000012303F075FE20463B218522012303F03C
:104A70006FFE20463C218522012303F069FE20467B
:104A80003D218522012303F063FE20463E2185223D
:104A9000012303F05DFE20463F218522012303F020
:104AA00057FE204640218522012303F051FE204677
:104AB00041218522012303F04BFE20460E21702266
:104AC000012303F045FE20460F217022012303F04D
:104AD0003FFE204610217022012303F039FE2046BC
:104AE00011217022012303F033FE2046122170228F
:104AF000012303F02DFE204613217022012303F031
:104B000027FE20460E217122012303F021FE2046BC
:104B10000F217122012303F01BFE20461021712278
:104B2000012303F015FE204611217122012303F019
:104B30000FFE204612217122012303F009FE2046B8
:104B400013217122012303F003FE20460E2172225D
:104B5000012303F0FDFD20460F217222012303F003
:104B6000F7FD204610217222012303F0F1FD2046BB
:104B700011217222012303F0EBFD20461221722243
:104B8000012303F0E5FD204613217222012303F0E7
:104B9000DFFD20460E217322012303F0D9FD2046BC
:104BA0000F217322012303F0D3FD2046102173222D
:104BB000012303F0CDFD204611217322012303F0D0
:104BC000C7FD204612217322012303F0C1FD2046B8
:104BD00013217322012303F0BBFD20460E21742212
:104BE000012303F0B5FD20460F217422012303F0B9
:104BF000AFFD204610217422012303F0A9FD2046B9
:104C000011217422012303F0A3FD204612217422F6
:104C1000012303F09DFD204613217422012303F09C
:104C200097FD20460E217522012303F091FD2046B9
:104C30000F217522012303F08BFD204610217522E0
:104C4000012303F085FD204611217522012303F085
:104C50007FFD204612217522012303F079FD2046B5
:104C600013217522012303F073FD204638217022A1
:104C7000012303F06DFD204639217022012303F04A
:104C800067FD20463A217022012303F061FD204692
:104C90003B217022012303F05BFD20463C21702262
:104CA000012303F055FD20463D217022012303F02E
:104CB0004FFD204638217122012303F049FD204693
:104CC00039217122012303F043FD20463A2171224C
:104CD000012303F03DFD20463B217122012303F017
:104CE00037FD20463C217122012303F031FD20468F
:104CF0003D217122012303F02BFD20463821722231
:104D0000012303F025FD204639217222012303F0FF
:104D10001FFD20463A217222012303F019FD20468F
:104D20003B217222012303F013FD20463C21722215
:104D3000012303F00DFD20463D217222012303F0E3
:104D400007FD204638217322012303F001FD204690
:104D500039217322012303F0FBFC20463A21732200
:104D6000012303F0F5FC20463B217322012303F0CD
:104D7000EFFC20463C217322012303F0E9FC20468E
:104D80003D217322012303F0E3FC204638217422E5
:104D9000012303F0DDFC204639217422012303F0B6
:104DA000D7FC20463A217422012303F0D1FC20468F
:104DB0003B217422012303F0CBFC20463C217422CA
:104DC000012303F0C5FC20463D217422012303F09A
:104DD000BFFC204638217522012303F0B9FC204690
:104DE00039217522012303F0B3FC20463A217522B4
:104DF000012303F0ADFC20463B217522012303F083
:104E0000A7FC20463C217522012303F0A1FC20468B
:104E10003D217522012303F09BFC20460E219222A6
:104E2000012303F095FC20460F219222012303F079
:104E30008FFC204610219222012303F089FC20469A
:104E400011219222012303F083FC20461221922299
:104E5000012303F07DFC204613219222012303F05D
:104E600077FC20460E219322012303F071FC20469B
:104E70000F219322012303F06BFC20461021932283
:104E8000012303F065FC204611219322012303F046
:104E90005FFC204612219322012303F059FC204697
:104EA00013219322012303F053FC20460E21942268
:104EB000012303F04DFC20460F219422012303F02F
:104EC00047FC204610219422012303F041FC204698
:104ED00011219422012303F03BFC2046122194224D
:104EE000012303F035FC204613219422012303F013
:104EF0002FFC20460E219522012303F029FC204699
:104F00000F219522012303F023FC20461021952236
:104F1000012303F01DFC204611219522012303F0FB
:104F200017FC204612219522012303F011FC204694
:104F300013219522012303F00BFC20460E2196221B
:104F4000012303F005FC20460F219622012303F0E4
:104F5000FFFB204610219622012303F0F9FB204697
:104F600011219622012303F0F3FB20461221962201
:104F7000012303F0EDFB204613219622012303F0C9
:104F8000E7FB20460E219722012303F0E1FB204698
:104F90000F219722012303F0DBFB204610219722EB
:104FA000012303F0D5FB204611219722012303F0B2
:104FB000CFFB204612219722012303F0C9FB204694
:104FC00013219722012303F0C3FB204638219222AC
:104FD000012303F0BDFB204639219222012303F077
:104FE000B7FB20463A219222012303F0B1FB204671
:104FF0003B219222012303F0ABFB20463C2192226D
:10500000012303F0A5FB20463D219222012303F05A
:105010009FFB204638219322012303F099FB204671
:1050200039219322012303F093FB20463A21932256
:10503000012303F08DFB20463B219322012303F043
:1050400087FB20463C219322012303F081FB20466D
:105050003D219322012303F07BFB2046382194223B
:10506000012303F075FB204639219422012303F02C
:105070006FFB20463A219422012303F069FB20466E
:105080003B219422012303F063FB20463C21942220
:10509000012303F05DFB20463D219422012303F010
:1050A00057FB204638219522012303F051FB20466F
:1050B00039219522012303F04BFB20463A2195220A
:1050C000012303F045FB20463B219522012303F0F9
:1050D0003FFB20463C219522012303F039FB20466B
:1050E0003D219522012303F033FB204638219622EF
:1050F000012303F02DFB204639219622012303F0E2
:1051000027FB20463A219622012303F021FB20466B
:105110003B219622012303F01BFB20463C219622D3
:10512000012303F015FB20463D219622012303F0C5
:105130000FFB204638219722012303F009FB20466C
:1051400039219722012303F003FB20463A219722BD
:10515000012303F0FDFA20463B219722012303F0AF
:10516000F7FA20463C219722012303F0F1FA20466A
:105170003D219722012301B000F0A9BB03F0E8BA5A
:1051800004467220FEF744FD032C00F0BF80042C7F
:105190007EF4CBAF40F27800C2F200004FF0000B7B
:1051A00000F11804CBEBCB01162000EB4106F5B261
:1051B0000091204629469422012303F0C9FA05F103
:1051C0000108204641469422012303F0C1FA02203F
:1051D00050FA86F9204649469422012303F0B8FA92
:1051E000032050FA86FA204651469422012303F008
:1051F000AFFA042050FA86F720463946942201235C
:1052000003F0A6FA052050FA86F62046314694228D
:10521000012303F09DFA204629469522012303F03D
:1052200097FA204641469522012303F091FA204641
:1052300049469522012303F08BFA204651469522D8
:10524000012303F085FA204639469522012303F015
:105250007FFA204631469522012303F079FA00991E
:10526000182000EB4100C6B22046314692220123AD
:10527000751C03F06DFA204629469222012303F0A3
:1052800067FA204631469322012303F061FA204653
:1052900029469322012303F05BFA204631469422EB
:1052A000012303F055FA204629469422012303F0F6
:1052B0004FFA204631469522012303F049FA204651
:1052C00029469522012303F043FA204631469622CF
:1052D000012303F03DFA204629469622012303F0DC
:1052E00037FA204631469722012303F031FA20464F
:1052F00029469722012303F02BFABBF1020F0BF191
:10530000010BFFF44FAFFEF710BF00BF40F2780073
:10531000C2F2000000F11804204616219022012359
:1053200003F016FA204617219022012303F010FA09
:10533000204618219022012303F00AFA2046192161
:105340009022012303F004FA204616219122012322
:1053500003F0FEF9204617219122012303F0F8F90A
:10536000204618219122012303F0F2F92046192149
:105370009122012303F0ECF9204616219222012309
:1053800003F0E6F9204617219222012303F0E0F909
:10539000204618219222012303F0DAF92046192130
:1053A0009222012303F0D4F92046162193220123EF
:1053B00003F0CEF9204617219322012303F0C8F908
:1053C000204618219322012303F0C2F92046192117
:1053D0009322012303F0BCF92046162194220123D5
:1053E00003F0B6F9204617219422012303F0B0F907
:1053F000204618219422012303F0AAF920461921FE
:105400009422012303F0A4F92046162195220123BA
:1054100003F09EF9204617219522012303F098F905
:10542000204618219522012303F092F920461921E4
:105430009522012303F08CF92046162196220123A0
:1054400003F086F9204617219622012303F080F904
:10545000204618219622012303F07AF920461921CB
:105460009622012303F074F9204616219722012386
:1054700003F06EF9204617219722012303F068F903
:10548000204618219722012303F062F920461921B2
:105490009722012303F05CF920461621982201236C
:1054A00003F056F9204617219822012303F050F902
:1054B000204618219822012303F04AF92046192199
:1054C0009822012303F044F9204616219922012352
:1054D00003F03EF9204617219922012303F038F901
:1054E000204618219922012303F032F92046192180
:1054F0009922012303F02CF9204624219022012334
:1055000003F026F9204625219022012303F020F9FB
:10551000204626219022012303F01AF92046272154
:105520009022012303F014F9204624219122012323
:1055300003F00EF9204625219122012303F008F9FA
:10554000204626219122012303F002F9204627213B
:105550009122012303F0FCF820462421922201230A
:1055600003F0F6F8204625219222012303F0F0F8FB
:10557000204626219222012303F0EAF82046272123
:105580009222012303F0E4F82046242193220123F0
:1055900003F0DEF8204625219322012303F0D8F8FA
:1055A000204626219322012303F0D2F8204627210A
:1055B0009322012303F0CCF82046242194220123D6
:1055C00003F0C6F8204625219422012303F0C0F8F9
:1055D000204626219422012303F0BAF820462721F1
:1055E0009422012303F0B4F82046242195220123BC
:1055F00003F0AEF8204625219522012303F0A8F8F8
:10560000204626219522012303F0A2F820462721D7
:105610009522012303F09CF82046242196220123A1
:1056200003F096F8204625219622012303F090F8F6
:10563000204626219622012303F08AF820462721BE
:105640009622012303F084F8204624219722012387
:1056500003F07EF8204625219722012303F078F8F5
:10566000204626219722012303F072F820462721A5
:105670009722012303F06CF820462421982201236D
:1056800003F066F8204625219822012303F060F8F4
:10569000204626219822012303F05AF8204627218C
:1056A0009822012303F054F8204624219922012353
:1056B00003F04EF8204625219922012303F048F8F3
:1056C000204626219922012303F042F82046272173
:1056D0009922012303F03CF8204632219022012335
:1056E00003F036F8204633219022012303F030F8EE
:1056F000204634219022012303F02AF82046352148
:105700009022012303F024F8204632219122012324
:1057100003F01EF8204633219122012303F018F8EC
:10572000204634219122012303F012F8204635212E
:105730009122012303F00CF820463221922201230A
:1057400003F006F8204633219222012303F000F8EB
:10575000204634219222012302F0FAFF204635210F
:105760009222012302F0F4FF2046322193220123EA
:1057700002F0EEFF204633219322012302F0E8FFDE
:10578000204634219322012302F0E2FF20463521F6
:105790009322012302F0DCFF2046322194220123D0
:1057A00002F0D6FF204633219422012302F0D0FFDD
:1057B000204634219422012302F0CAFF20463521DD
:1057C0009422012302F0C4FF2046322195220123B6
:1057D00002F0BEFF204633219522012302F0B8FFDC
:1057E000204634219522012302F0B2FF20463521C4
:1057F0009522012302F0ACFF20463221962201239C
:1058000002F0A6FF204633219622012302F0A0FFDA
:10581000204634219622012302F09AFF20463521AA
:105820009622012302F094FF204632219722012381
:1058300002F08EFF204633219722012302F088FFD9
:10584000204634219722012302F082FF2046352191
:105850009722012302F07CFF204632219822012367
:1058600002F076FF204633219822012302F070FFD8
:10587000204634219822012302F06AFF2046352178
:105880009822012302F064FF20463221992201234D
:1058900002F05EFF204633219922012302F058FFD7
:1058A000204634219922012302F052FF204635215F
:1058B0009922012301B000F00FB802F049BF30BCBB
:1058C000BDE8C08F30BCBDE8C04FFEF753BD30BC53
:1058D000BDE8C04FFFF752BC30BCBDE8C04FFFF77A
:1058E000ECBF00008EB040F2004944F20048C4F61C
:1058F0000009C4F20008FBF7F3FBFDF795FC002755
:1059000041F24C000D97CDE90B77CDE90977C4F250
:1059100002000168012241F0040101600168502485
:1059200001F00401089108990168012541F0800106
:105930000160016801F0800108910899016841F057
:1059400001010160016801F00101089108990168F5
:1059500041F0020101600068502100F0020008904F
:1059600008984FF09040FBF7CFF8484601210122FC
:10597000FBF7CAF809A8B0C009AC02264FF0904066
:1059800021460C96FAF7E4FF48462146CDE9095531
:10599000CDE90B76FAF7DCFF40F2201608F56C40F3
:1059A000C2F200064FF4827186E8830007204FF4AC
:1059B000E0624FF400731024C6E90A703046C6E96D
:1059C0000327C6E90573F461C6E90877C6E90C77D1
:1059D000FCF732FA20B1EFF3108072B6FEE700BF99
:1059E00040F2CC0008F58051C2F2000049F6EC42CA
:1059F000C1F2900280E88600C0E90357C0E905774C
:105A0000C0E90777FBF7D6F820B1EFF3108072B644
:105A1000FEE700BF40F2CC00C2F200000021FBF71D
:105A20007FF828B1EFF3108072B600BFFEE700BF29
:105A300040F2CC00C2F2000000210024FBF796F8EF
:105A400020B1EFF3108072B6FEE700BF40F2841081
:105A5000C2F200004FF4E1310C22C0E90081C0E93C
:105A60000244C0E90442C0E90644C0E90844FCF726
:105A7000ABFE28B1EFF3108072B600BFFEE700BFA7
:105A800040F27804C2F200044FF090412046E162F7
:105A9000E161402140F8186F102221840121228603
:105AA000C4F82490218502F0A7FE40F2CC0104F155
:105AB0001000C2F200014422059001F08DFA40F27C
:105AC0008410C2F2000021460122FCF727FF0025C6
:105AD000FBF720F8824641F2883900204FF0000B96
