:020000040800F2
:100000004043002079020008854B0008E1480008C1
:10001000814B0008D5110008E959000800000000D4
:10002000000000000000000000000000C54F0008B4
:10003000D911000800000000894B0008C94F0008D2
:10004000930200089302000893020008694D00081B
:10005000930200089302000893020008930200082C
:10006000930200089302000893020008930200081C
:10007000930200089302000893020008930200080C
:1000800093020008930200089302000893020008FC
:1000900093020008930200089302000893020008EC
:1000A00093020008930200089302000893020008DC
:1000B0009302000800000000000000009302000806
:1000C00093020008930200089302000893020008BC
:1000D0009302000893020008DD590008930200080B
:1000E00093020008930200080000000000000000D6
:1000F0000000000000000000000000000000000000
:1001000000000000930200080000000093020008B5
:1001100000000000000000009302000893020008A5
:10012000930200089302000893020008930200085B
:100130009302000800000000000000000000000022
:10014000930200089302000893020008930200083B
:10015000930200089302000893020008930200082B
:1001600093020008930200089302000800000000B8
:10017000930200089302000893020008930200080B
:1001800093020008930200089302000800F002F8AE
:1001900000F063F814A696E8000CB244B344DA45C4
:1001A00001D100F05AF8BAE80F000FA696E8300027
:1001B000A5EB040504EB0607AAEB0704A7F101076A
:1001C0004FEA15154FEA3414A4F10104AC4201D3EF
:1001D00000F043F813F0010F18BFFB1A43F00103BE
:1001E00000F001F8DBE71847B0CE0000D0CE0000E9
:1001F000103A24BF78C878C1FAD8520724BF30C853
:1002000030C144BF04680C607047000070470000B4
:100210000023002400250026103A28BF78C1FBD80F
:10022000520728BF30C148BF0B607047642900F0F7
:100230002B81732900F0B283002070471FB50CF0AA
:100240007BFD00F0FBFD0400002000210CF05EFDB2
:10025000401C60601FBD10B510BD00F0B7FD114619
:10026000FFF7ECFF06F054F800F0DEFD03B4FFF7F3
:10027000F2FF03BC00F0E6FD09488047094800474B
:10028000FEE7FEE7FEE7FEE7FEE7FEE7FEE7FEE746
:10029000FEE7FEE704480549054A064B70470000A3
:1002A000A95000088D010008403D00204043002077
:1002B000403F0020403F002053EA020C00F06980DC
:1002C0002DE9F04B4FF00006002B1FBFB3FA83F56A
:1002D00003FA05F424FA05F65E4012BF1643B2FA9B
:1002E00082F502FA05F4C5F120051EBF22FA05FCCD
:1002F00044EA0C04203556EA044C4FEA144418BF73
:10030000641C4FF000084FF00009904271EB030CA1
:1003100039D3002919BFB1FA81F701FA07F6B0FA0B
:1003200080F700FA07F6C7F120071EBF20FA07FC86
:1003300046EA0C062037B6FBF4FCA7EB0507103F96
:1003400007F01F0BCBF120062CFA06F60CFA0BFB7C
:1003500044BFB3460026202FA4BF5E464FF0000BDB
:100360005BEA060C08BF4FF0010B19EB0B0948EBD9
:100370000608ABFB027C06FB02CC0BFB03CCC01BCC
:1003800071EB0C01C1E70B46024641464846BDE809
:10039000F08B13B5084318BF4FF0FF300146AFF3A1
:1003A0000080BDE81C4070470FB41CB50C0007AAC4
:1003B000009007D04142A14202D32044401E01E0F8
:1003C0004FF0FF30074B7B4469460190069800F0E0
:1003D000B8FA0021002C01D0009A11701CBC5DF805
:1003E00014FB00009F05000070B504468569006895
:1003F000C10601D5302600E02026C00707D070BD19
:10040000D4E9012130469047206A401C20626D1ECD
:10041000F6D570BD70B5044685690078C00707D170
:1004200070BDD4E9012120209047206A401C206241
:100430006D1EF6D570BD70B50C460546012A05D077
:100440002878800600D5EA69002302E0012305E050
:100450005B1C934202D2E05C0028F9D1A869E6183F
:10046000C01AA861286A184428622846FFF7BCFF12
:1004700004E0D5E9012114F8010B9047B442F8D308
:100480002846FFF7C7FF70BD2DE9F041064600245E
:1004900010687529314616A510D0AFF300800028EA
:1004A00002DA404213A507E031688A0701D512A598
:1004B00002E0490704D511A5012401E0AFF3008053
:1004C00000210A2206F1240709E0B0FBF2FCB0FB90
:1004D000F2F302FB1C00303078541846491C002807
:1004E000F3D123462A463046BDE8F04100F0CBB9AF
:1004F000000000002D0000002B0000002000000084
:100500002DE9F05F894604464FF0000ADFF824B178
:10051000FB44C0F820A02046E168884700287DD031
:10052000252806D0D4E901219047206A401C20628A
:10053000F1E700255F462046E16888472028064607
:1005400007DB312E05D2B81910F8200C08B105438D
:10055000F1E7A80701D525F00405C4F81CA0002781
:10056000C4F818A02A2E09D030460CF0C7FB38B3C7
:1005700004EB8708303EC8F8186019E059F8041BEE
:10058000204604EB87029161E1688847012F064607
:1005900018D1E069002820DA25F020051DE0D8F800
:1005A000180000EB800006EB40003038C8F8180057
:1005B0002046E168884706460CF0A0FB0028EED1F3
:1005C000012F0AD02E2E08D12046E16888477F1CD3
:1005D0000646022F45F02005C4DBA069002803DA97
:1005E000404245F00105A061E80701D025F0100563
:1005F000A6B1A6F14100192802D8203645F40065BD
:100600004A463146204625604D46FFF70FFE60B151
:10061000012807D0ED1D25F0070000E007E000F1FC
:10062000080978E705F1040975E730467AE7206A9A
:1006300000F002B83EC8000030BCBDE8C09F00001A
:100640000FB400B58DB010A9099000910B904FF038
:10065000FF300A9000200C90064878440690064827
:1006600078446A4607900F9909A800F0AFF90DB0D9
:100670005DF814FB8F030000A70300002DE9FF5F66
:100680001D464FF0FF3B91464FF000085F46D5E90D
:100690000146A96901987F1C8847296A82468847D4
:1006A0000028F6D1BAF1FF3F0CD0002E24F4C0642C
:1006B00019DD600614D5BAF12B0F09D0BAF12D0F50
:1006C0000ED103E0584604B000F07EB844F48064D4
:1006D000A96901987F1C8847761E8246002E02DD9C
:1006E000BAF1300F03D0B9F1000F26D032E0A9697A
:1006F000761E01987F1C44F400748847002E8246C1
:1007000005DDBAF1780F06D0BAF1580F03D0B9F170
:10071000000F10D01EE0B9F1000F02D0B9F1100F98
:1007200018D1A969761E01987F1C24F400748847AB
:100730008246102002E0082000E00A20814609E0FD
:10074000A96908FB0908761E01987F1C44F400740F
:1007500088478246002E05DD4946504600F022F9C2
:100760000028EDDAE96901988847A00502D46FF006
:100770000100A8E7E00725D1600613D5600502D582
:10078000C8F1000000E0404629680A1D2A60096897
:10079000220501D5087015E0220701D5088011E077
:1007A00008600FE02868011D29600068210502D556
:1007B00080F8008006E0210702D5A0F8008001E063
:1007C000C0F8008038467EE730BCBDE8C09F10B559
:1007D000431C02E010F8011B71B18107FAD14FF000
:1007E000013202C88C1A8C4314EAC211F9D0C01A23
:1007F0000A0603D0C01E10BDC01A10BD0A0401D0E5
:10080000801E10BD0902FCD0401E10BD02F0FF0387
:1008100043EA032242EA024200F002B84FF000022B
:1008200000B5134694469646203922BFA0E80C50E6
:10083000A0E80C50B1F12001BFF4F7AF090728BFC1
:10084000A0E80C5048BF0CC05DF804EB890028BF3D
:1008500040F8042B08BF704748BF20F8022B11F066
:10086000804F18BF00F8012B7047704770477047E2
:1008700010B500F0DBF8006810BD10B5044600F0BC
:10088000D5F8046010BD2DE9F0470D469946924613
:10089000044600F124080168880604D5E06921F0C7
:1008A0001001216000E00120A84201DD471B00E0AB
:1008B0000027A1697A1902EB0900081AA0612078C3
:1008C000C00602D42046FFF78FFD002608E0D4E9D9
:1008D00001211AF806009047206A401C761C20620D
:1008E0004E45F4DB2078C0060AD52046FFF77CFD94
:1008F00006E0D4E9012130209047206A401C2062A4
:10090000381EA7F10107F4DC07E0D4E9012118F84B
:1009100005009047206A401C2062281EA5F10105B1
:10092000F3DC2046FFF776FD2078000602D5022092
:10093000BDE8F0870120FBE701694A1C02610878E5
:10094000704700B58FB0CDE901310021059105490F
:100950007944CDE9031011466846FFF7D1FD0FB089
:1009600000BD0000E5FFFFFFD1E900239A4202D25B
:10097000531C0B601070704710B5436913B1AFF38F
:10098000008001E0FFF757FD012010BD127800F153
:1009900024010A7000224A700122EDE711684FF02D
:1009A000FF32E9E73A2800D2303820F02002412A0D
:1009B00001D3A2F13700884201D34FF0FF307047D6
:1009C000026811441378016018467047D1600549E8
:1009D0007944516104497944116200211161114641
:1009E00000F032B8EDFFFFFF5B000000426842B14B
:1009F000016811F8013B23B1521EC0E900121846EC
:100A000070470121C160881E704742685AB1C368AF
:100A1000016843B983688B4205D0491E521CC0E966
:100A20000012002070474FF0FF30704700487047B9
:100A30001800002010B5044600F0EEF90068005DD3
:100A400000F0010010BD00002DE9F34F4FF0000A47
:100A50000C4656468DB001200C9001F10C000B9015
:100A600062690B9801219047051E2DD0252D2CD0B1
:100A7000216A8847C0B162690B9801219047216AB9
:100A800088470028F7D16269411E0B98904700E023
:100A9000761CA1690D988847216A88470028F7D1FC
:100AA000E1690D988847DBE7A1690D988847A8425E
:100AB000074601D1761CD3E7E1690D9888477F1C72
:100AC00002D1BAF1000F6FD06BE162690B98002779
:100AD0003D46394690472A2804D162690B98012186
:100AE00090470125DFF8D08262690B980121904779
:100AF000A0F130010A290AD24745E5DC07EB87015E
:100B000000EB4107303FDFD445F01005ECE7E90684
:100B100001D46FF000476C280AD04C2814D0682804
:100B200015D06A280DD074281CD07A281AD01DE060
:100B300062690B98012190476C2802D045F00405AA
:100B400014E045F002050DE045F020050AE0626979
:100B50000B9801219047682802D045F0080505E070
:100B600045F4006562690B9801219047C4E901577B
:100B700065283DD019DC58287AD00CDC452837D0C0
:100B800004DC252826D041289ED131E046282FD0EC
:100B9000472899D12CE05B2877D0612828D063289A
:100BA0007CD0642823D15AE0F6E06F2848D008DCD6
:100BB00066281DD067281BD0692821D06E2816D141
:100BC00027E0702845D0732868D0752847D078284A
:100BD0000DD14DE0A1690D988847252805463FF4C1
:100BE00069AFE1690D9888476D1C3FF46AAFD8E0A2
:100BF0000D9923466A466FF00100AFF30080C5E00F
:100C000045F0400023464FF000026060A80736D44C
:100C10003EE0E8077FF447AF2068011D21600068CF
:100C2000290501D506701BE7290701D5068017E7BE
:100C3000A90703D5F117C0E9006111E706600FE7C6
:100C400045F0400023464FF008026060A80716D424
:100C50001EE040F60E0125EA0100606016E045F056
:100C6000400023464FF00A026060A80707D40FE057
:100C700045F040006060A80708D5234610220D9972
:100C80006FF00100AFF3008080E007E01022234600
:100C90000D996FF00100FFF7F1FC77E04FF00009CC
:100CA00063284F46C8464B46CB4602D05B2806D049
:100CB00038E0E80601D40120A060012732E0626933
:100CC000D4F80CB00B98012190475E2807D14FF063
:100CD000010949466269D4F80CB00B989047216924
:100CE00039B900210A4603AB43F82120491C0829E1
:100CF000FADBD8B3216949B308F1010862690B989E
:100D0000012190475D28F4D1B9F1000F09D00020EE
:100D100003A951F82020D24341F82020401C082884
:100D2000F7DB03AB2069002820794FEA40701ED022
:100D30005B462246CDF80080CDE901970D99002849
:100D40006FF0010020DAAFF300801FE0C11703AAA3
:100D500000EBD1614B1121F01F0102EB8302411A1C
:100D600013680120884003431360C7E719E00D9919
:100D7000224600286FF00100009702DAAFF30080EE
:100D800004E0AFF3008001E0AFF3008000280ADA4E
:100D9000401C06D10C9820B14FF0FF300FB000F08E
:100DA0000DB85046FAE7E90701D10AF1010A0644F5
:100DB00000200C9054E60000CCCCCC0C30BCBDE83C
:100DC000C08F000000487047180000207546FFF7EC
:100DD000F9FFAE4605006946534620F007008546F8
:100DE00018B020B5FFF756FABDE820404FF00006D6
:100DF0004FF000074FF000084FF0000BAC46ACE896
:100E0000C009ACE8C009ACE8C009ACE8C00921F0F1
:100E100007018D467047000010B500F00FF8001D67
:100E200010BD00BFE9BE000010B50446AFF300805E
:100E30002046BDE81040FFF719BA0000004870478F
:100E40003800002001491820ABBEFEE72600020052
:100E500030B44FF0013C50F8042B51F8043BCCFA6D
:100E600052F4D51A20D1FCB950F8042B51F8043BA8
:100E7000CCFA52F4D51A17D1B4B950F8042B51F862
:100E8000043BCCFA52F4D51A0ED16CB950F8042BAD
:100E900051F8043BCCFA52F4D51A05D1002CDAD023
:100EA00030BC4FF00000704729BAB1FA81F111F05F
:100EB0001801D1F120008440F2D1CA40CB4012F099
:100EC000FF0213F0FF0330BCD01A704770470000D8
:100ED00070B5044600688268836802F0040203F07B
:100EE0000803D21800F0BA80C26892016ED5627E03
:100EF000012A6BD1227E012A68D10168490661D49A
:100F00000121CAF24031026852065BD402685206DF
:100F100058D4026852065CBF02685FEA426251D44C
:100F2000026852065CBF02685FEA42624AD4026805
:100F300052065CBF02685FEA426243D4026852060E
:100F40005CBF02685FEA42623CD4026852065CBF42
:100F500002685FEA426235D4026852065CBF0268EA
:100F60005FEA42622ED4026852065CBF02685FEA02
:100F7000426227D4026852065CBF02685FEA42629E
:100F800020D4026852065CBF02685FEA426219D44C
:100F9000026852065CBF02685FEA426212D40268CD
:100FA00052065CBF02685FEA42620BD402685206D6
:100FB0005CBF02685FEA426204D41B3944D0026815
:100FC0005206A0D540210160012105E0022903D18C
:100FD0000221082612E000BF826852070AD5826803
:100FE000920707D482684FF6C073C7F6FF731A40A2
:100FF0001032826001294FF0040610D08268120777
:101000000AD58268920707D482684FF6C073C7F684
:10101000FF731A4020328260032908BF0C2600F0BB
:1010200053FE21688968314218D0054603E000BFAD
:101030008068304212D000F047FE411B206806292C
:10104000F6D381683142F3D0606D40F010006065E6
:10105000A06D40F00100A065012070BD002070BDB2
:10106000B0B5016804468A688868C0074FF0000080
:1010700031D012F0020218BFB0BD886800F00D0038
:1010800001281FD188684FF6C072C7F6FF72104062
:10109000023088600320086000F016FE216889682D
:1010A000C90704BF0020B0BD054602E08068C00744
:1010B00012D000F009FE411B20680329F6D3816895
:1010C000C907F3D0606D40F010006065A06D40F07E
:1010D0000100A0650120B0BD0020B0BD70B582B098
:1010E00004460020019021688A68D20711D14FF68A
:1010F000C076C7F6FF76886806F17F0210420BD0F3
:10110000606D40F010006065A06D40F00100A065CA
:10111000012002B070BD00BF8868304040F001007F
:10112000886040F20830C5F204000068000221D453
:1011300000F0CAFD21680A68D20717D1054602E00F
:101140000868C00712D18868C00704D18868304099
:1011500040F00100886000F0B7FD401B21680328C3
:10116000EED30868C007EBD1CAE700BF002002B089
:1011700070BD00BF40F21400C2F20000006842F6E9
:1011800063518009C0F23E51A0FB0101880900EBC8
:1011900040000C2101EB8000019001980028C7D08D
:1011A00001980138019001980028C1D001980138B8
:1011B000019001980028BBD0019801380190019856
:1011C0000028B5D001980138019001980028E7D196
:1011D000AEE70000FEE7000070470000B0B582B047
:1011E00004460020019094F85000012802D102200A
:1011F00002B0B0BD012084F8500020460D46FFF734
:101200002FFF616D10B141F010014BE041F202126D
:1012100091430231616521684FF6C073D1F808C06F
:10122000C3F6FF7303EA0C0305F0804548F2FF7232
:101230002B44C0F2040203F100438B608B68B3F1CE
:10124000FF3F2BDC019B01330193019B93421DD88F
:101250008B68B3F1FF3F21DC019B01330193019BBC
:10126000934213D88B68B3F1FF3F17DC019B013326
:101270000193019B934209D88B68B3F1FF3F0DDCCA
:10128000019B01330193019B9342D7D9606D40F0DC
:10129000100020F00201012004E000BF616D012276
:1012A00062F301016165002184F8501002B0B0BD05
:1012B000F0B581B00022009290F85020012A03D1AD
:1012C0000221084601B0F0BD0123076880F85030C4
:1012D000BB685B0700F19A804B68052B07D8023B7F
:1012E000032B9ABFC5A555F8233006234B60C3F3E3
:1012F000012407EB84040D68226B03F01F031F26F3
:101300009E40B243C5F3846606FA03F31A43226390
:10131000BA68BB6802F0040203F00803D21840F078
:1013200090800A688B68C2F3406607EB8606756991
:10133000C2F3045207249440A54303FA02F22A435D
:101340007261D1E90435FC68042B65D13A6E3A6EBE
:101350000B68C2F3846293FAA3F6C3F3846C6FF351
:10136000DF43B6FA86F5002B2C464FF6FF7E08BF0A
:101370006446A242C0F2070E0CD13A6E22F000423F
:101380003A660A6802EA0E03C2F3846C92FAA2F289
:10139000B2FA82F57A6E7A6E002BC2F384622C4622
:1013A00008BF6446A2420CD17A6E22F000427A66EF
:1013B0000A6802EA0E03C2F3846C92FAA2F2B2FA4D
:1013C00082F5BA6EBA6E002BC2F384622C4608BF57
:1013D0006446A2420CD1BA6E22F00042BA660A6894
:1013E00002EA0E03C2F3846C92FAA2F2B2FA82F518
:1013F000FA6EFA6E002BC2F3846208BF6546AA42F9
:101400001FD1FA6E22F00042FA661AE0416D41F0F7
:10141000200141650121EAE0062202EA94020E68F9
:1014200007EB830305FA02F21D6E4FF20004C0F2CF
:10143000FF3406F0F846254032432A4342F000428A
:101440001A66BA680D68D20750D1CA68D7F8B0607A
:101450002B466FF3DF4326EA030C4FF6FF7602F0CC
:101460001804C0F20706E64000242E40C4F27F04B0
:1014700046EA0C06A242C7F8B06037D193B195FA9C
:10148000A5F2B2FA82F2013202F01E03092B02F039
:101490001F0310D801229A4003EB430342EA03538F
:1014A00015E000BF012202EB956202F01E030A2B39
:1014B00002F01F03EED3012200269A4003EB430300
:1014C000CFF6206606EB03531A4342F00073C3F3D2
:1014D000406607EB86068A687569C3F304530724E0
:1014E0009C40A5439A402A4372610D680021C8F2CE
:1014F00008010D427AD040F2083CC5F2040CDCF839
:1015000000400021CCF252718D4204F0E07E08BF11
:1015100014F4000116D00021CCF684318D424DD157
:101520000021B1EB1E6F49D1ACF542718F425DD104
:10153000DCF8001021F0E07141EA0E0141F0807109
:1015400052E000BFACF542718F424FD1DCF8001081
:1015500042F6635221F0E07141EA0E0141F40001CC
:10156000CCF8001040F21401C2F200010968C0F288
:101570003E528909A1FB0212910901EB41010C22A3
:1015800002EB81010091009981B30099013900912A
:10159000009959B3009901390091009931B300992C
:1015A00001390091009909B300990139009100991E
:1015B00000294FF00001E8D119E000BFACF54271FD
:1015C0008F424FF0000112D10122C8F20002954271
:1015D00008BF14F480020AD1DCF8001021F0E07199
:1015E00041EA0E0141F48001CCF8001000210022F4
:1015F00080F85020084601B0F0BD00BF0C0000008C
:101600001200000018000000000100000068006CDB
:1016100070470000B0B582B000210028019155D07C
:10162000416D39B9044600F0E9F820460021A16572
:1016300084F850100268916889004FF6C071C5F6B1
:10164000FF7102D593680B4093609368DB002ED442
:10165000936801F18051194041F08051916040F24E
:101660001401C2F20001096842F663538909C0F20D
:101670003E53A1FB03139909022303EB410101919E
:101680000199A1B1019901390191019979B10199AA
:1016900001390191019951B10199013901910199E2
:1016A00029B101990139019101990029EAD1916883
:1016B000C90011D4416D4FF0010E41F01001416598
:1016C000816D41F00101816508E000BF4FF0010E1E
:1016D000704602B0B0BD00BF4FF0000E9368446D7D
:1016E00003F0040304F010041B19436D68D123F4C4
:1016F0008173023343659368DB0712D140F20833EC
:101700004FF60054C5F20403CFF6FF741C59E407EA
:1017100007D1D0F804C01C6824F47C1444EA0C04FB
:101720001C60437E446BD0E902C144EA4333194351
:1017300090F8203041EA0C01012B41EA034306D125
:10174000416A0024CFF6FE7404EB41410B43846AE6
:1017500024B1C16A04F4707421430B43D1684CF284
:101760000704CFF6F07421401943D1609168936863
:1017700001F0040103F00803C9182CD190F83030AF
:10178000017E5B0090F838C043EA8131D36844F2AF
:101790000204A3431943D1601369BCF1010F17D1AF
:1017A00040F2FD7123EA010CD0E90F34D0E91115A4
:1017B00043EA0C0323431943294341F0010309E0A1
:1017C00043F010024FF0010E4265704602B0B0BD0A
:1017D00023F0010313610169136B012923F00F0347
:1017E00002D1C16901390B431363426D012161F3D9
:1017F00001024265704602B0B0BD000070470000B3
:101800002DE9F041D0F814800446B8F1080F0D46D8
:1018100002D1082705E000BF2068C068C0075FD17B
:10182000042700F051FA21680A683A4226D0606D18
:1018300040F400706065C86810F4406F0FD1607E9E
:1018400068B9086800070AD5606D20F4807060658B
:10185000606DC00403D4606D40F001006065C8682D
:10186000B8F1080F02D1082003E000BF400401D402
:101870000C2008600020BDE8F08100BF0646681C0F
:1018800029D065B900F020FA2168086838420FD0E5
:1018900008683842F6D0CAE708683842C7D100F075
:1018A00013FA801B2168A842F6D908683842F3D1A0
:1018B000606D40F004006065002084F85000032053
:1018C000BDE8F08108683842B1D108683842AED12D
:1018D00008683842ABD108683842F3D0A7E700BFA8
:1018E000606D40F0200060650120BDE8F0810000DF
:1018F00010B501688968490703D490F85010012990
:1019000002D1022010BD00BF012180F85010044612
:10191000FFF7E4FB20B1002084F85000012010BD47
:10192000616D40F60172914301F580716165616DF1
:101930002046C9044FF0000144BF816D21F006012B
:101940008165016800221C230B6080F85020CA6862
:10195000920104D5426D012363F30D32426588681C
:101960004FF6C072C7F6FF72104004308860002046
:1019700010BD0000B0B5044690F85000012804BF27
:101980000220B0BD01252046032184F85050FFF706
:101990009FFA28B1002084F850002846B0BD00BF4F
:1019A000206881688268D20717D011F0020114D133
:1019B000816801F00D01012926D181684FF6C072BE
:1019C000C7F6FF721140023181600321016000F00F
:1019D0007BF921688968C90708D1204650F8541F4F
:1019E00041F201129143002516E000BF054602E0D6
:1019F0008068C007F1D000F067F9411B2068032917
:101A0000F6D38168C907F3D0606D012540F010005E
:101A10006065204650F8581F41F001010160002028
:101A200084F850002846B0BD42F20400CEF2040013
:101A3000016821F00201016070470000014690F842
:101A40002500022818D10868D1E910C3026822F0E5
:101A50000E020260026822F00102026003F01C0024
:101A6000012202FA00F0CCF8040081F825200020C1
:101A7000002281F8242070470420C863012000223E
:101A800081F824207047000090F82510022921D108
:101A900080B50268D0F838C0D0E910E1136801F0D1
:101AA0001C0123F00E0313601368BCF1000F23F038
:101AB000010313604FF0010202FA01F1CEF80410A5
:101AC0004FF0000180F8252080F8241018BFE0476F
:101AD000002080BD0421C16301207047B0B50446D9
:101AE00000F0F2F8054640F20C00C2F20000007867
:101AF000611C18BF044400BF00F0E6F8401BA04280
:101B0000FAD3B0BD2DE9F04F83B00E68002E00F07F
:101B1000CF8000F1200241F2000C009200F1384722
:101B2000C4F6000C07224FEAB725604508BF04221F
:101B3000042D38BF4FEAB722002500274FF00008D8
:101B400001920AE00E6808F1010836FA08F207F17E
:101B5000020705F1040500F0AB80012202FA08FE3D
:101B600016EA0E09EED0D1F804C003220CF0030BE4
:101B7000ABF1010602FA07F4012E6FEA040A11D84C
:101B80008468CE6804EA0A04BE4034438460446832
:101B900024EA0E06CCF3001404FA08F42643466047
:101BA00006E000BFBBF1030F02D14FF0030B21E0B1
:101BB000C6688C6806EA0A06BC402643BBF1020FE1
:101BC000C66017D16FF00302009B02EA580605F0C9
:101BD0001C020F2453F806C004FA02FE0C692CEA1A
:101BE0000E0C04FA02F242EA0C029A51D1F804C037
:101BF0000CF0030B02680BFA07F302EA0A021A431D
:101C00001CF4403F02609DD041F26003C4F2020325
:101C10001A6840F2004E42F001021A601A68C4F2DB
:101C2000010E02F001020292029A28F003024FF61E
:101C3000084C7244CFF6FF7C52F80C3005F00C06CD
:101C40000F24B440A343019C04FA06F6334342F840
:101C50000C30DEF808204B6842EA090640F20C4CD2
:101C6000DC0258BF22EA0906CEF80860C4F2010C73
:101C7000DCF800209C0242EA090658BF22EA090665
:101C8000CCF80060DEF804209C0342EA090658BF45
:101C900022EA0906CEF80460DEF80020DB0342EAFF
:101CA000090658BF22EA0906CEF800604AE700BFDD
:101CB00003B000F000B830BCBDE8C08F1823002A84
:101CC00008BF2823C150704743F63850C2F20000C5
:101CD0000068704790F84120202A03D190F84020F6
:101CE000012A01D102207047242280F84120026895
:101CF000136823F001031360136823F48053136007
:101D0000136819431160116841F00101116020212D
:101D100080F84110002180F840100020704700003A
:101D200090F84120202A03D190F84020012A01D1C7
:101D300002207047242280F841200268136823F0B3
:101D400001031360136823F4706343EA01211160F7
:101D5000116841F001011160202180F8411000213B
:101D600080F8401000207047002804BF0120704711
:101D700010B590F8411031B9002180F840100446A8
:101D800000F03EFA2046242180F8411090E812101D
:101D9000C3680A68012B22F001020A6024F0706215
:101DA0000A618A6822F400428A6003D14CF400423E
:101DB0008A6007E04CF40442022B8A6004BF4FF4AF
:101DC00000624A604A6800F1100C42F0007242F46E
:101DD00000424A60CA6822F40042CA609CE81C10B3
:101DE0001A4342EA0422CA60026A42EA0C020A600A
:101DF0000A6842F001020A6000212022416480F852
:101E00004120016380F84210002010BD2DE9F04F01
:101E100081B0044690F84100202803D194F8400096
:101E2000012803D1022001B000F0EAB801200E46DB
:101E30001746984684F84000FFF746FF216805469C
:101E40008A6912040AD500BFFFF73EFF401B19281C
:101E500000F2C680216888690004F5D4222284F843
:101E60004120102284F84220002262646762A4F8B4
:101E70002A806263628D49F6000040F20008CFF6C6
:101E80000040C0F2FF18B2F5807F6FF39F2609D3A0
:101E90004A6802403243424402F510524A60FF222F
:101EA0000BE000BF628D4F68D3B246EA03430740A0
:101EB0003B4308F592373B434B602285618D0A9F77
:101EC00000295DD006F1007907F1010A00F5806B69
:101ED0000DE000BF618D21854268C9B249EA014128
:101EE00002EA0B0211434160608D002848D0204671
:101EF00039462A4602F0A2FD00285DD12068616AB9
:101F0000406A0870606A218D01306062481E208539
:101F1000618D01396185618D0029E5D00004E3D12F
:101F20002068816909060FD4BAF1000F1AD0002F7A
:101F300054D000BFFFF7C8FE401BB84250D82068FD
:101F400081690906F6D500BF618DB1F5807FC1D3E7
:101F5000FF212185416801EA0B01314341EA080173
:101F6000C1E700BF81690906EED4816909065CBF3B
:101F700081695FEA0161E7D481690906F2D5E3E787
:101F800087B100BF20688169890619D42046394687
:101F90002A4602F0A7FC78B9FFF796FE401BB8422C
:101FA000F0D91DE020688169890609D42046002106
:101FB0002A4602F097FC88B1012001B000F020B859
:101FC0002021C16142684EF60003CFF600631A403B
:101FD0004260002084F841100AE000BFFFF774FE61
:101FE000606C40F020006064202084F841000120F3
:101FF000002184F8421084F8401001B000F000B8CD
:1020000030BCBDE8C08F00002DE9F04F81B0044620
:1020100090F84100202803D194F84000012803D112
:10202000022001B000F0E8B801200E46174698469D
:1020300084F84000FFF748FE216805468A691204CB
:102040000AD500BFFFF740FE401B192800F2C480EC
:10205000216888690004F5D4212284F841201022E7
:1020600084F84220002262646762A4F82A806263D6
:10207000628D49F6000040F20008CFF60040C0F241
:10208000FF18B2F5807F6FF39F2609D34A6802409C
:102090003243424402F500524A60FF220BE000BF87
:1020A000628D4F68D3B246EA034307403B4308F5CD
:1020B00090373B434B602285628D0A9F002A5BD09C
:1020C00006F1007907F1010A00F5806B0DE000BF11
:1020D000608D20854A68C0B249EA004002EA0B02DE
:1020E00010434860608D002846D0204639462A4675
:1020F00002F002FD00285AD1606A216810F8012B15
:102100008A626062608D01386085208D013820858B
:10211000628D002AE6D00004E4D1886900060FD45D
:10212000BAF1000F1AD0002F54D000BFFFF7CCFD3A
:10213000401BB84250D8216888690006F6D500BF18
:10214000608DB0F5807FC3D3FF202085486800EA0A
:102150000B00304340EA0800C3E700BF886900066F
:10216000EED4886900065CBF88695FEA0060E7D446
:1021700088690006F2D5E3E787B100BF2168886966
:10218000800619D4204639462A4602F0ABFB70B9C6
:10219000FFF79AFD401BB842F0D91DE08869800620
:1021A0000AD4204600212A4602F09CFB90B101206F
:1021B00001B000F021B800BF2020C8614A684EF687
:1021C0000003CFF600631A404A6084F84100002003
:1021D0000AE000BFFFF778FD606C40F0200060640B
:1021E000202084F841000120002184F8421084F866
:1021F000401001B000F000B830BCBDE8C08F000056
:1022000010B586B0006845F20041C4F20001884272
:102210004FF000000590CDE90300CDE9010001D0A9
:1022200006B010BD41F24C04C4F20204206801A9BA
:1022300040F002002060206800F00200009000984A
:10224000C0200190122002900120039003200490EE
:102250000420059040F20040C4F60000FFF752FC55
:10226000E06840F40010E060E06800F400100090C6
:10227000009806B010BD000040F20C0043F6385143
:10228000C2F20000C2F2000100780A68104408603F
:102290007047000080B5032000F08CF80F2000F09C
:1022A00009F800281CBF012080BD00F02BF8002099
:1022B00080BD0000B0B540F20C05C2F200052978DF
:1022C000F1B1044640F21400C2F200004FF47A72F9
:1022D0000068B2FBF1F1B0FBF1F001F0D1FC014676
:1022E0000F2C4FF001000AD8002918BFB0BD4FF0E5
:1022F000FF302146002200F031F800206C60B0BDB4
:102300000120B0BD82B041F25800C4F202008168E1
:1023100041F001018160816801F0010101910199A1
:10232000016841F080510160006800F08050009029
:10233000009802B070470000002848BF704700F0C6
:102340001F01012202FA01F11C2202EAD0004EF222
:102350000012CEF2000281507047000010B54EF618
:102360000C5CCEF2000CDCF80030C3F3022E8EF0D1
:102370000704042C28BF0424BEF103034FF0FF3EE2
:102380000EFA04F438BF0023A14399400EFA03F378
:102390009A43114300F00F0200F160430901043A2F
:1023A00003F564436244002848BF02F10C0319702E
:1023B00010BD00004EF60C51CEF200010A684FF637
:1023C000FF031A4060F30A2242F0806040F0FD7083
:1023D0000860704747F20001C4F200010A68B0F5D6
:1023E000007F02F4C06031D1B0F5007F2CD00868C6
:1023F000012262F34A20086040F21400C2F2000099
:102400000068322250434DF68362C4F21B32A0FBB7
:102410000202900C4A69520511D5421C0FD04A693C
:1024200052050CD558B14A69520508D5012806D085
:102430004A69520503D50228A0F10400EAD148698F
:10244000400544BF0320704700207047B0F5806FFF
:10245000FAD00868022262F34A2008600020704720
:1024600047F20002C4F20002136801214EF6105C2C
:1024700061F30203CEF2000C1360DCF800100128B7
:1024800041F00401CCF800100FBF30BF40BF20BFA7
:1024900020BFDCF8000020F00400CCF800007047FA
:1024A00047F20000C4F20000006800F4C06070470A
:1024B00047F20000C4F20000016841F4807101603D
:1024C000704700002DE9F04381B00446407841F2A6
:1024D00088070007C4F202071ED5606C80B1B0F512
:1024E000400F14D0B0F5000F40F0468157F87C0C37
:1024F00040F4803047F87C0C4FF4000007E000BF48
:10250000201D002102F042FB814638B9606C396819
:1025100021F44001084338604FF00009A07880079B
:1025200052D557F8300C5FEAC0080BD457F8300C7E
:1025300040F0805047F8300C57F8300C00F08050D5
:102540000090009847F20005C4F20005286840F4A6
:1025500080702860FFF7B8FB064600BF2868C005FA
:1025600008D4FFF7B1FB801B0228F7D94FF003090D
:1025700021E000BFB9F1000F1DD1B86810F4407020
:1025800011D0E16D88420BD0B868B96820F4407072
:1025900041F48031B960B96821F48031B960B86024
:1025A000C00740F0F180B868E16D20F44070084346
:1025B0004FF00009B860B8F1000F05D457F8300C9F
:1025C00020F0805047F8300C2168C80712D18807E6
:1025D00018D448071ED4880624D488052AD4480570
:1025E00030D4480636D408063CD4C80542D4880402
:1025F00048D459E03868226A20F00300104338605C
:102600008807E6D53868626A20F00C00104338600D
:102610004807E0D53868A26A20F0300010433860DF
:102620008806DAD53868E26A20F4406010433860E2
:102630008805D4D53868E26B20F440201043386018
:102640004805CED53868226C20F44010104338601D
:102650004806C8D53868226B20F4405010433860D3
:102660000806C2D53868626B20F4404010433860D9
:10267000C805BCD53868A26B20F4403010433860E0
:10268000880411D53A68A06C22F040620243B0F190
:10269000806F3A601ED0B0F1006F05D157F87C0C06
:1026A00040F4801047F87C0C080327D53A68E06CAA
:1026B00022F040620243B0F1806F3A6016D0B0F170
:1026C000006F1BD157F87C0C40F4801047F87C0C4D
:1026D00014E000BF201D012102F058FA21680028F3
:1026E00018BF81460803E1D408E000BF201D012186
:1026F00002F04CFA2168002818BF8146480311D522
:102700003A68206D22F040620243B0F1806F3A6077
:102710001CD0B0F1006F05D157F87C0C40F480104C
:1027200047F87C0C48041BD53868626D20F0405097
:102730001043B2F1805F386012D1201D022102F0F7
:1027400025FA2168002818BF814609E0201D0121D3
:1027500002F01CFA2168002818BF81464804E3D41F
:10276000080405D53868A16D20F080400843386022
:10277000484601B0BDE8F0834FF00109A07880071A
:102780003FF5CFAE20E700BFFFF79EFA064641F2C5
:1027900088354FF0030900BFB86880073FF503AFE5
:1027A000FFF792FA801BA842F6D904E72DE9F0431F
:1027B00081B0002800F08C8042F20009C4F20209C6
:1027C0000446D9F8000000F0070081420CD9D9F87E
:1027D000000020F007000843C9F80000D9F8000005
:1027E00000F00700884273D1206841F2080610F01B
:1027F0000202C4F202060AD0A368376807F0F007A5
:10280000BB4204D9376827F0F0073B433360C30766
:1028100034D0606856F8082C50B1022804D0032840
:102820000AD192010AD453E0920307D450E000BFCA
:10283000920703D44CE000BF520549D58846316861
:1028400021F0030108433060FFF73EFA054641F2EC
:10285000883700BF3068616800F00C00B0EB810F72
:1028600008D0FFF731FA401BB842F3D9032001B07A
:10287000BDE8F0832068414600F0020252B1A26830
:10288000336803F0F0039A4204D2336823F0F00374
:102890001A433260D9F8002002F0070291420CD2AC
:1028A000D9F8002022F007020A43C9F80020D9F81D
:1028B000002002F007028A420AD141070CD4000727
:1028C00012D43068716810F00C0019D11EE000BFFE
:1028D000012001B0BDE8F0833168E26821F4E061D5
:1028E000114331600007ECD53068216920F4605055
:1028F00040EAC10030603068716810F00C0005D00B
:102900000C282BD101F00301012927D156F8081C0E
:10291000042211F008016FF0070108BF8C217158E3
:1029200008BF0822D1404DF2140201F00F01C0F699
:10293000000252F8211000280A4618BF00220C2875
:1029400038D1706800F00300022811D0032804BFBA
:1029500041F20021C0F27A010EE000BF04281FD02E
:10296000082823D141F20022C0F27A0222E000BFFF
:1029700042F20041C0F2F40170687268C0F30210C4
:10298000C2F30622514372680130B1FBF0F0C2F38A
:102990004161022202EB4101B0FBF1F20AE000BF0B
:1029A00042F20042C0F2F40204E000BF0022002123
:1029B0000C28C6D030684CF6A451C0F30310C0F602
:1029C0000001085C00F01F0022FA00F140F2100044
:1029D000C2F2000040F214020068C2F2000211606C
:1029E00001B0BDE8F043FFF765BC000040F2140001
:1029F00041F20801C2F20000C4F202010068096855
:102A00004CF6B452C1F30221C0F60002515C01F051
:102A10001F01C8407047000040F2140041F2080155
:102A2000C2F20000C4F20201006809684CF6B45218
:102A3000C1F3C221C0F60002515C01F01F01C84081
:102A40007047000041F20C01C4F2020151F8040C7D
:102A500010F00C02086805D00C2A2BD100F00300FE
:102A6000012827D151F80C0C042310F008006FF056
:102A70000B0008BF8820085808BF0823D8404DF233
:102A8000140300F00F00C0F6000353F82030002AB2
:102A9000184618BF00200C2A18BF7047086800F0BD
:102AA0000300022810D0032804BF41F20023C0F223
:102AB0007A030DE0042A1FD0082A23D141F2002016
:102AC000C0F27A00704700BF42F20043C0F2F40344
:102AD00008680A68C0F30210C2F3062209680130D0
:102AE0005A43B2FBF0F0C1F34161022202EB410113
:102AF000B0FBF1F0704700BF42F20040C0F2F400BA
:102B0000704700BF00200023C5E70000002804BF75
:102B1000012070472DE9F04383B041F200060446DE
:102B2000C4F20206B068F168227800F00C09D00601
:102B300001F003081ED42078C00700F08880B9F1A6
:102B4000080F00F07D80B9F10C0F08BFB8F1030F3A
:102B500076D061683068B1F5803F07D0B1F5A02F1D
:102B600040F0528240F480203060306840F4803081
:102B7000306053E2B9F1000F1CD0B9F10C0F08BF5F
:102B8000B8F1010F16D0A1693068002900F0A081CA
:102B900040F001003060FFF797F805463068800785
:102BA00000F1A881FFF790F8401B02284FF00300C6
:102BB000F4D960E33068800703D5A069002800F0ED
:102BC0000F83256A3068000700F14A81D6F8940027
:102BD000000900F0F000854200F248813068B9F148
:102BE000000F40F008003060306820F0F00040EA4C
:102BF000050030607068E16920F47F4040EA012000
:102C0000706040F0B882B06DC00000F15582B06DC8
:102C100040F08050B065B06D00F080500290029896
:102C2000FFF73EFCB16D21F08051B165B0F5007F3A
:102C300000F04882802D40F2858203208DE200BFA3
:102C40003068800303D56068002800F0C9822078CE
:102C500080072DD5B9F1040F1CD0B9F10C0F08BFB6
:102C6000B8F1020F16D0E1683068002900F0E68163
:102C700040F480703060FFF727F805463068400563
:102C80000FD4FFF721F8401B02284FF00300F5D9BD
:102C9000F1E200BF3068400503D5E068002800F08D
:102CA0009F827068216920F0F85040EA01607060EE
:102CB0002078000760D42078400779D420788006F7
:102CC00000F1B280A06A002800F01683022840F0CC
:102CD0002381F068E16A00F003028A4240F0348107
:102CE000226B6FF00F0300F0700103EB02129142B0
:102CF00040F02A81616B00F4FE42B2EB012F40F0FC
:102D00002381A16B00F07842B2EBC16F40F01C81CF
:102D1000E26B0023CFF6E07303EA025200F4C00135
:102D2000A2F50012914240F00F81216C4FF07E42DB
:102D300002EA016100F0C06001F17E41884240F08A
:102D400003813068800100F1D782306840F08070E4
:102D50003060F06840F08070F060FEF7B5FF044628
:102D60003068800100F1C882FEF7AEFF001B022828
:102D70004FF00300F4D97EE26169D6F8940000298F
:102D800000F0908040F00100C6F89400FEF79CFF30
:102D9000054600BFD6F8940080078CD4FEF794FF58
:102DA000401B0228F6D9032003B0BDE8F08300BF22
:102DB000B06D5FEAC00808D4B06D40F08050B065D7
:102DC000B06D00F080500090009847F20007C4F208
:102DD00000073868C00513D4386840F48070386044
:102DE000FEF772FF054600BF3868C00508D4FEF73D
:102DF0006BFF401B02284FF00300F5D93BE200BFF8
:102E0000A168D6F89000012908D0052940F0DC809F
:102E100040F00400C6F89000D6F8900040F00100A1
:102E2000C6F89000DCE000BF616AD6F8980000297F
:102E300000F0B48040F00100C6F89800FEF744FFAF
:102E4000054600BFD6F8980080073FF53BAFFEF778
:102E50003BFF401B02284FF00300F3D90BE200BFF9
:102E6000306800F0F00085427FF6B8AEB06DC0006B
:102E700000F18680B06D40F08050B065B06D00F01C
:102E8000805001900198FFF70BFBB16D21F080514C
:102E9000B165B0F5007F79D0802D40F2E18003204C
:102EA000E9E000BF20F00100C6F89400FEF70CFF37
:102EB000054600BFD6F8940080077FF5FCAEFEF70C
:102EC00003FF401B02284FF00300F3D9D3E100BFFA
:102ED00020F001003060FEF7F7FE054630688007FD
:102EE0007FF529AEFEF7F0FE401B02284FF00300ED
:102EF000F4D9C0E1306840F0080030603068D4E9AF
:102F0000071220F0F00010433060706820F47F401A
:102F100040EA012070600EE6B9F10C0F00F060810C
:102F2000306820F080703060FEF7CEFE044600BFAF
:102F30003068800140F1EA80FEF7C6FE001B0228DF
:102F40004FF00300F4D996E1B9F10C0F00F048817D
:102F50003068400100F14481306820F080703060BA
:102F6000FEF7B2FE054600BF3068800140F1868161
:102F7000FEF7AAFE401B02284FF00300F4D97AE1C5
:102F8000FFF78EFAB0F5007F7FF486AF812D71D305
:102F90000120A02D88BF02206DE000BF20F00100BD
:102FA000C6F89800FEF790FE054600BFD6F89800D8
:102FB00080077FF587AEFEF787FE401B02284FF0A3
:102FC0000300F3D957E100BF20F00100C6F89000DC
:102FD000D6F89000002920F00400C6F8900079D0BF
:102FE000FEF772FE054641F2883700BFD6F8900022
:102FF000800700F18180FEF767FE401BB842F5D9DB
:10300000032003B0BDE8F08320F4803030603068E6
:10301000002920F48020306000F08480FEF754FE08
:10302000054600BF306880033FF511AEFEF74CFE49
:10303000401B64284FF00300F4D91CE120F4807099
:103040003060FEF741FE0546306840057FF530AE42
:10305000FEF73AFE401B02284FF00300F4D90AE1C4
:10306000A5F17000B0FA80F04009802D08BF022061
:1030700001E000BF002042F20001C4F202010A6830
:1030800022F0070202440A60096801F00701814248
:1030900040F0A680306840F0080030603068D4E925
:1030A000071220F0F00010433060706820F47F4079
:1030B00040EA012070605EE0FFF7F2F9B0F5007FB2
:1030C0007FF4B8AD812D47D30120A02D88BF022009
:1030D00043E000BFFEF7F8FD054641F2883700BF28
:1030E000D6F89000800707D5FEF7EEFD401BB842EA
:1030F0004FF00300F4D9BEE0B8F1000F3FF5DEADAC
:10310000B06D20F08050B065D8E500BFF0684FF694
:10311000FC71CFF6EE610840F060002003B0BDE81E
:10312000F08300BFFEF7D0FD054600BF3068800386
:103130007FF58DADFEF7C8FD401B64284FF00300FE
:10314000F4D998E0A5F17000B0FA80F04009802D24
:1031500008BF022001E000BF002042F20001C4F2DB
:1031600002010A6822F0070202440A60096801F0BD
:103170000701814234D1B068F16810F00C0005D02D
:103180000C2831D101F0030101292DD1314651F82C
:10319000942B12F00802324608BF0A464FF0040191
:1031A000126808BF082122FA01F14DF2140201F061
:1031B0000F01C0F6000252F8211000280A4618BF7D
:1031C00000220C283CD1F06800F00300022815D042
:1031D000032804BF41F20021C0F27A0112E000BFCF
:1031E000012003B0BDE8F08304281FD0082823D1B4
:1031F00041F20022C0F27A0222E000BF42F2004116
:10320000C0F2F401F068F268C0F30210C2F30622C3
:103210005143F2680130B1FBF0F0C2F34161022288
:1032200002EB4101B0FBF1F20AE000BF42F20042C2
:10323000C0F2F40204E000BF002200210C28C2D03A
:10324000B0684CF6A451C0F30310C0F60001085C4E
:1032500000F01F0022FA00F140F21000C2F200005C
:1032600040F214020068C2F200021160FFF722F877
:1032700000283FF460AC03B0BDE8F083F06848F28A
:103280008C01C0F29D1104F12C0700EA010C8ECFD5
:103290006FF00F00D4E90F5400EB02100022CFF6BC
:1032A000E07241EA0C0102EA05520843A2F500125D
:1032B0004FF07E4540EA032005EA0465104305F11E
:1032C0007E4540EAC7602843F060306840F0807077
:1032D0003060F06840F08070F060FEF7F5FC044666
:1032E0003068800108D4FEF7EFFC001B02284FF085
:1032F0000300F5D9BFE700BF002003B0BDE8F083AD
:10330000006800EB8100006D7047000081B000682C
:1033100050300090009800EB81000090009802600F
:1033200001B0704770B5044690F8200001284FF0B6
:10333000020008BF70BD012184F8201084F821002C
:103340002068CA21416253214162816821F4806171
:103350008160816821F480418160FEF7B5FC0546FB
:10336000002600BF2168C868400709D4FEF7ACFCFE
:10337000401BB0F57A7FF5D921680322032001E0D4
:1033800001220020FF234B6284F8212084F8206072
:1033900070BD0000F0B581B0044690F8200001280F
:1033A0004FF002004DD00E46012184F8201084F821
:1033B00021002168CA204862532048628868154667
:1033C00020F480608860C86860F4906020F48060B9
:1033D000C860C868400611D4FEF776FC074600BFF7
:1033E0002168C868400709D4FEF76EFCC01BB0F521
:1033F0007A7FF5D92168032203201BE04E6188689B
:1034000020F007002843886040F20040C4F2010029
:10341000026842F480120260826842F48012826084
:103420008868012240F480408860886840F48060A9
:1034300088600020FF234B62002184F8212084F85B
:10344000201001B0F0BD000040F27800C2F2000090
:10345000C1680531C16001210172704710B5044691
:1034600040F21440C4F201004FF480110160206862
:10347000C168490508D5C16861F4906121F4806193
:10348000C1602046FFF7E0FF012084F8210010BD55
:1034900080B5006843684FEA1340C3F3042E03F07D
:1034A0003F0CC3F34233C87081F801E081F802C0D9
:1034B0000B700AB1002080BDC2B21209A2EB8202D9
:1034C00000EB4200C8704FEA1E10A0EB80000EEB2C
:1034D000400048704FEA1C10A0EB80000CEB40004D
:1034E0008870002080BD000080B50068836A4B6052
:1034F00003696FF3DF338B600368C3F30540C3F3E5
:10350000062E03F07F0CC3F38053087081F801E0AE
:1035100081F802C0CB700AB1002080BD0209A2EB85
:10352000820200EB420008704FEA1E10A0EB800000
:103530000EEB400048704FEA1C10A0EB80000CEB33
:1035400040008870002080BD002804BF0120704723
:10355000B0B5044690F8210028B9002084F8200076
:10356000204600F053F8022084F821002168CA2088
:10357000486253204862C868400613D44FF0FF30B9
:10358000C860FEF7A1FB2168CA6852060AD4054646
:10359000FEF79AFB401BB0F57A7F31D82168C868E6
:1035A0004006F5D588684FF6BF72CFF68F7210408F
:1035B0008860D4E9010CD4E903531843A3698A68ED
:1035C0001843104388600D61086940EA0C400861A7
:1035D000204601F07FFB002818BFB0BD206861695C
:1035E000E269C36C114323F00303C364C36C194342
:1035F000C164FF214162012084F821000020B0BD98
:10360000032084F821002168C968B0BD704700001C
:103610002DE9F041044690F8200001284FF0020007
:1036200008BFBDE8F081012384F8203084F8210030
:1036300032B14878CA788E78000240EA024845E004
:1036400048784FF0CD0CC20642BF00F0EF000A30C0
:103650004870CA788E78A2F10A07FDB205FB0CF516
:10366000ED0A05EB8503A7EB4303A0F10A0703EB83
:103670000513FDB25FFA82FE05FB0CF5BEF1090FE2
:1036800088BF03F11002ED0A5FFA82FE05EB8502A6
:10369000A7EB4202C3B202EB0512092B88BF02F16D
:1036A0001000A6F10A02D3B203FB0CF3C0B2DB0A8E
:1036B000000203EB830740EA0E48F0B2A2EB470298
:1036C00002EB0312092888BF02F110060F78216867
:1036D000CA20486253204862C868400614D44FF09C
:1036E000FF30C860FEF7F0FA2168CA6852060BD4B2
:1036F000054600BFFEF7E8FA401BB0F57A7F21D8F7
:103700002168C8684006F5D5F0B240EA08007A039F
:1037100020F0C00010434860204601F0DBFA216829
:10372000FF224A6220B1002184F82010BDE8F08118
:10373000012084F821000020002184F82010BDE839
:10374000F08100BF032084F821002168CA68FF22AD
:103750004A62002184F82010BDE8F0812DE9F04391
:1037600081B0044690F8200001284FF0020000F0DC
:10377000B1800D46012184F8201084F821002168D1
:10378000CA20486253204862C8681646400614D4CE
:103790004FF0FF30C860FEF797FA2168CA685206FA
:1037A0000BD40746FEF790FAC01BB0F57A7F00F203
:1037B00087802168C8684006F4D5886836B140061D
:1037C0000CD44FF0000E85F803E00AE040060FD459
:1037D0004FF0000E85F803E00DE000BFE8784FEAF7
:1037E000805E6B782878AA781B0243EA004347E0A2
:1037F000E8784FEA805E2B784FF0CD08A3F10A09F4
:103800005FFA89F000FB08F0C00A6F7800EB8006D1
:10381000A9EB46065FFA83FC06EB0010A7F10A0647
:10382000AA78BCF1090F88BF00F11003F0B200FBC9
:1038300008F0C00A5FFA83FC00EB80035FFA87F9A7
:10384000A6EB430303EB0010B9F1090F88BF00F1A9
:103850001007F8B2A2F10A07FEB206FB08F6000252
:10386000F60A40EA0C4306EB86005FFA82FCA7EBFF
:10387000400000EB0610BCF1090F88BF00F11002F8
:10388000D0B2184347F67F7240EA0E00C0F27F02C2
:1038900010400860886820F480208860D5E9030221
:1038A0008B68104318438860204601F013FA2168A2
:1038B000FF224A6258B9012084F82100002006E066
:1038C000032084F821002168CA68FF224A6200218F
:1038D00084F8201001B0BDE8F08300004EF2100023
:1038E000CEF20000016841F0020101607047000063
:1038F000002804BF01207047416A19B1002101610D
:10390000142104E04168B1F5827F02D01C2100221D
:103910004250B0B50025856290F85D1029B980F855
:103920005C50044600F052F82046022180F85D10F9
:103930000168D0F80CE00B68BEF5E06F23F040039F
:103940000B6098BF01254EF40063B3F5706F4FEA2A
:10395000053C1CBF00258562D0E90154D0E9043242
:1039600005F4827504F404442C4403F00203234458
:10397000846902F00102C5691A4404F400731A4410
:1039800005F03803056A1A4405F08003856A1A4475
:1039900005F400531A430A600422436A0EF470656A
:1039A00002EA1442446B45EA0C0503F010032A4373
:1039B00004F008041A4322434A60002101220166F0
:1039C00080F85D20BDE8B0400846704780B586B0FD
:1039D000006843F20002C4F2010200219042CDE9E6
:1039E0000411CDE90211019102D006B080BD00BFE3
:1039F00041F24C00C4F20200426942F4805242613A
:103A0000426902F480520092009A026842F0010278
:103A10000260006800F0010000900098A020019072
:103A20000220CDE90201032004900520059001A9A0
:103A30004FF09040FEF766F806B080BD2DE9F043E8
:103A400081B0044690F85C00012803D1022001B047
:103A5000BDE8F0834FF001081D460F46164684F876
:103A60005C80FEF731F994F85D10012948D1814658
:103A7000002F4FF0010018BF002E00F0D980032066
:103A8000002284F85D002266A763A687E687226489
:103A9000A4F84420A4F84620A0683146B0F5004FB1
:103AA0002068E264226507D1026822F040020260C9
:103AB000026842F4804202600268520603D402683F
:103AC00042F04002026062680139E368B2FA82F2B1
:103AD000B1FA81F152094909B3F5E06F41EA0201F7
:103AE0003ED931B137F8021BC160A763E08F0138BE
:103AF000E087E08F002871D0681C0ED11FE000BF66
:103B0000022095E0A16B31F8022BC260A163E08F27
:103B10000138E087E08F002860D02068816889073D
:103B2000F0D4FEF7D1F8A0EB0900A842F2D30320AD
:103B30007EE000BFFEF7C8F8E08F00284ED0206876
:103B400081688907F6D5A16B31F8022BC260A163A9
:103B5000E08F0138E087E08F0028F0D13EE000BF21
:103B600089B1E18F02294FF6FE7103D337F8022B9A
:103B7000C26004E03A7801310273A06B471CA7636E
:103B8000E08F0844E087E08F40B3681C5DD04FF6BB
:103B9000FE70471C08E000BFFEF796F8A0EB090096
:103BA000A842C4D2E08FC8B1216888688007F3D5E5
:103BB000E28FA06B022A05D330F8022BCA604FF6C1
:103BC000FE7104E000780873A06B39460130A063F1
:103BD000E08F0844E087E08F0028E5D120464FF4CD
:103BE000C0512A464B4601F0C5F868B9204629461F
:103BF0004A4601F07FF938B920464FF4C0612A46A1
:103C00004B4601F0B7F828B1206E40F02000206646
:103C100020202066A06838B9002000902068C16884
:103C20000091806800900098206E002818BF012045
:103C3000002184F85D8084F85C1001B0BDE8F08359
:103C4000FEF742F8E08F0028C8D020688168890715
:103C5000F6D5E28FA16B012A08D931F8022BC26098
:103C6000A163E08F0238E087ECE700BF09780173B9
:103C7000A06B0130A063E08F0138E087E2E700002D
:103C8000411E0020B0EB116F1CBF012070474EF2A7
:103C90001002CEF2000251604EF62351CEF2000126
:103CA000F0230B7007219060116070474EF21000F6
:103CB000CEF20000016821F00201016070470000AF
:103CC00090F87410012904BF02207047012180F888
:103CD000741000BF016851E8001F026841F0020142
:103CE00042E80013DBB1016851E8001F026841F0AF
:103CF000020142E8001393B1016851E8001F026815
:103D000041F0020142E800134BB1016851E8001F85
:103D1000026841F0020142E80013002BDAD10021D1
:103D200080F874100020704770470000B0B582B072
:103D3000044690F87400012802D1022002B0B0BD00
:103D4000012084F874002420A0672068036823F011
:103D500001030360836823F4401343EA0103836093
:103D600051B9416893B221F0100119434160416893
:103D7000120C62F31F614160016841F001010160B2
:103D8000FDF7A2FF03466FF07E40009020464FF4FF
:103D900080010022002501F01FFD28B1032084F8D6
:103DA000745002B0B0BD00BF2020A067002084F88E
:103DB000745002B0B0BD00007047000070470000B2
:103DC00070B5016840F62F03CA690E688C6813400D
:103DD000202B06F0200E07D1BEF1000F04D0416E5B
:103DE00041B3BDE87040084740F60F031A4209D0BE
:103DF00040F22013C0F2004304F0010C334013EBF7
:103E00000C0325D1036ED50616D5012B14D116F05F
:103E1000100311D010220A628968490630D4B0F824
:103E20005810B0F85A20B0F85A30002B18BF914201
:103E300040F02E8270BD00BFD30213D514F480036E
:103E400010D04FF480120A62BDE87040FFF7B4BF93
:103E5000D30718BF16F4807340F0CC80930700F1AD
:103E6000D380DCE0110640F1D98116F0800100F02A
:103E7000D581816E0029DDD0BDE87040084700BFC4
:103E8000016F0A6853689CB2002CD3D0B0F8581068
:103E90008C42CFD2A0F85A301268920600F1A2806C
:103EA000016851E8001F026821F4807142E80013A4
:103EB000DBB1016851E8001F026821F4807142E81B
:103EC000001393B1016851E8001F026821F480716A
:103ED00042E800134BB1016851E8001F026821F469
:103EE000807142E80013002BDAD1016851E8021F0B
:103EF000026821F0010142E80213C3B3016851E8EE
:103F0000021F026821F0010142E802137BB301683D
:103F100051E8021F026821F0010142E8021333B3A5
:103F2000016851E8021F026821F0010142E8021312
:103F3000002BDAD11BE000BF016851E8021F0268C4
:103F400021F0400142E80213DBB1016851E8021F91
:103F5000026821F0400142E8021393B1016851E880
:103F6000021F026821F0400142E802134BB10168D0
:103F700051E8021F026821F0400142E80213002BC1
:103F8000DAD12021C16700210166016851E8001FD4
:103F9000026821F0100142E80013DBB1016851E82A
:103FA000001F026821F0100142E8001393B101687C
:103FB00051E8001F026821F0100142E800134BB1E4
:103FC000016851E8001F026821F0100142E8001367
:103FD000002BDAD1016F04460846FDF72FFDB4F837
:103FE00058102046B0F85A20891A89B2BDE87040AE
:103FF000FFF79ABE01230B62D0F8803043F0010333
:10400000C0F8803093070AD5BCF1000F07D0022317
:104010000B62D0F8803043F00403C0F880305307BF
:104020000AD5BCF1000F07D004230B62D0F8803012
:1040300043F00203C0F8803013070AD55CEA0E0390
:1040400007D008230B62D0F8803043F00803C0F893
:10405000803013050BD516F0806308D04FF4006351
:104060000B62D0F8803043F02003C0F88030D0F8E5
:104070008030002B3FF4DEAE920608D5BEF1000F73
:1040800005D0426E1AB10446904721682046D0F808
:104090008020896802F0280201F04001891807D1C8
:1040A0000446FFF78BFE0020C4F8800070BD00BFFF
:1040B000016851E8001F026821F4907142E8001382
:1040C000BBB3016851E8001F026821F4907142E817
:1040D000001373B3016851E8001F026821F4907166
:1040E00042E800132BB3016851E8001F026821F475
:1040F000907142E80013002BDAD11AE0016851E810
:10410000021F026821F0010142E80213DBB10168DD
:1041100051E8021F026821F0010142E8021393B145
:10412000016851E8021F026821F0010142E8021310
:104130004BB1016851E8021F026821F0010142E819
:104140000213002BDAD1016E012924D1016851E854
:10415000001F026821F0100142E80013DBB1016882
:1041600051E8001F026821F0100142E8001393B1EA
:10417000016851E8001F026821F0100142E80013B5
:104180004BB1016851E8001F026821F0100142E8BC
:104190000013002BDAD12021C167002101660268DB
:1041A0004166916849066FD5016851E8021F0268AF
:1041B00021F0400142E80213DBB1016851E8021F1F
:1041C000026821F0400142E8021393B1016851E80E
:1041D000021F026821F0400142E802134BB101685E
:1041E00051E8021F026821F0400142E80213002B4F
:1041F000DAD1016F002947D045F2A512C0F60002BE
:10420000044608468A63FDF73FFC00283FF412AEDF
:10421000206F816BBDE87040084700BF51067FF5F5
:1042200009AE16F0400108BF70BD00BF016851E83B
:10423000001F026821F0400142E80013DBB1016871
:1042400051E8001F026821F0400142E8001393B1D9
:10425000016851E8001F026821F0400142E80013A4
:104260004BB1016851E8001F026821F0400142E8AB
:104270000013002BDAD12021816700218166BDE87F
:10428000704000F02BBB00BFBDE87040FFF796BD4B
:10429000891A00BF026852E8002F036822F4907266
:1042A00043E80026BEB3026852E8002F036822F4F8
:1042B000907243E8002676B3026852E8002F036844
:1042C00022F4907243E800262EB3026852E8002FD1
:1042D000036822F4907243E80026002EDAD11AE037
:1042E000026852E8022F036822F0010243E8022626
:1042F000DEB1026852E8022F036822F0010243E8AF
:10430000022696B1026852E8022F036822F00102E9
:1043100043E802264EB1026852E8022F036822F0F9
:10432000010243E80226002EDAD12022C2670022D1
:1043300002664266026852E8002F036822F010020B
:1043400043E80026DEB1026852E8002F036822F03D
:10435000100243E8002696B1026852E8002F036875
:1043600022F0100243E800264EB1026852E8002F06
:10437000036822F0100243E80026002EDAD189B249
:10438000BDE87040FFF7D0BC002804BF0120704793
:10439000B0B582B00446806F28B9002084F874005C
:1043A000204600F059F82420A0672068016821F019
:1043B00001010160204601F045F818B1012002B06A
:1043C000B0BD00BF606A10B1204600F077FE2068E3
:1043D000416821F490414160816821F02A018160A7
:1043E000016841F0010101600020C4F88000FDF780
:1043F0006BFC216805460A68120710D56FF07E4CE9
:1044000020464FF4001100222B46CDF800C001F0E9
:10441000E3F918B1032002B0B0BD00BF21680868FD
:1044200040070FD56FF07E4C20464FF480010022EC
:104430002B46CDF800C001F0CFF918B1032002B02F
:10444000B0BD00BF2020A067E0670020206684F890
:10445000740002B0B0BD000010B586B0006844F230
:104460000041C4F2000188424FF000000590CDE900
:104470000300CDE9010001D006B010BD41F24C04AB
:10448000C4F20204206801A940F001002060206805
:1044900000F00100009000980C2001900220029092
:1044A0000120039003200490072005904FF09040D6
:1044B000FDF728FBE068052140F40030E060E0688B
:1044C000002200F40030009000982620FDF746FFFF
:1044D0002620FDF731FF06B010BD0000C36F202B72
:1044E0000CD100294FF0010318BF002A02D1184651
:1044F000704700BF90F87430012B03D10223184697
:10450000704700BF80B5012380F874300023036634
:10451000D0F800C048F20003C4F200039C4503D069
:10452000DCF804301B0203D401F09AF8002080BDAF
:10453000036853E800CFD0F800E04CF080634EE809
:10454000003CBCF1000FEFD0036853E800CFD0F877
:1045500000E04CF080634EE8003CBCF1000FE3D07B
:10456000036853E800CFD0F800E04CF080634EE8D9
:10457000003CBCF1000FD7D0036853E800CFD0F85F
:1045800000E04CF080634EE8003CBCF1000FCFD15E
:10459000CAE70000016844F20042C4F200029142FE
:1045A00018BF70472DE9F04387B040F27805C2F29A
:1045B000000529780D2900F005810A293ED1697A84
:1045C00005F144020023535495F8443095F84520F2
:1045D000152908BF542B3BD0012908BF442B00F0FC
:1045E000EB80032908BF532B00F0F8800529C0F0A9
:1045F000E780572B40F0E4803A2A40F0E18095F8BC
:104600004620A2F130085FFA88F9B9F1090F00F2EB
:10461000D78095F847202C2A40F0D28095F8482082
:104620002D2A00F0E7804FF0010C2B2A14BF042242
:1046300005228A4280F0C480E1E000BF6A7A1E2A27
:1046400000F2BE80531C2A446B7282F84410B9E019
:104650003A2AC1D195F84A702D2FBDD195F84D70E9
:104660002D2FB9D195F85070202FB5D195F85370F2
:104670003A2FB1D195F856703A2FADD195F8511027
:1046800095F8522001EB810102EB4101A1F11008E4
:104690005FFA88F2172A00F2938095F8542095F873
:1046A000553002EB820203EB4202A2F1100E5FFAD8
:1046B0008EF33B2B00F2848095F8573095F85870B4
:1046C00003EB830307EB4303A3F1100C5FFA8CF7B2
:1046D0003B2F75D840F20007B5F84E30C2F2000704
:1046E000D5F84660D5F84A40A7F809300023FB7298
:1046F0000123C7F80160C7F8054085F8048085F8F4
:1047000005E085F806C0AB72F3B2BE78FC78642190
:1047100071434FF47A763A7913FB061104EB840364
:1047200001EB43018E184DF68401711A11F1640FEB
:1047300044D3B979FA7901EB810102EB4104A4F287
:104740001D2111F10C0F39D3797ABA7A01EB81016D
:1047500002EB4107A7F50C7111F11F0F2ED3A6F143
:1047600020028DF81B20A4F110028DF81920A7F16A
:10477000100240F2DC0400218DF81A200122C2F25E
:1047800000040391CDE901118DF81820CDE9041141
:1047900006A90646204600228DF804808DF805E023
:1047A0008DF806C0FEF734FF01A920460022FEF76F
:1047B000D5FF304602E000BF0121A970E968A96178
:1047C0000021697240F27801C2F200010122FFF774
:1047D00085FE07B0BDE8F043704700BF3A2A7FF47A
:1047E00005AF95F846104E2974D05729E8D101211C
:1047F000E971E3E705224FF0FF3C8A42E0D2AF18AF
:1048000097F84470A7F1300EBEF1090FD8D8541CA8
:104810007646A1421AD1BEF1090F98BFB9F1040F33
:10482000CED806FB0CF140F2000211F1630FD8BFA5
:104830006FF06201C2F200026329A8BF632182F80F
:104840000080E970E968E961B8E700BFAF1897F840
:104850004540A4F13003092BDDD806EB860304EBB9
:104860004303941CE4B2A142A3F13006D3D097F8DD
:104870004640A4F13003092BCDD806EB860304EBA8
:104880004303D41CE4B2A142A3F13006C3D097F88D
:104890004740A4F13003092BBDD806EB860304EB97
:1048A0004303141DE6B2B142A3F13006B3D097F82A
:1048B0004870A7F13003092BADD806EB860305320B
:1048C00007EB4303D2B2A3F1300691422246BDD199
:1048D000A1E700BF0021E97170E700007047000008
:1048E000FEE700002DE9F04381B0036804469869B3
:1048F000C00605D4002000219A69D70560D465E080
:104900001020D8619869800653D48846481C46D048
:1049100016464FF02009002506E000BF00279869E1
:1049200000F02000384335D1FDF7CEF92368B8F107
:10493000000F02D0801B4045F0D9596894F842001E
:104940009A6912040CD511F4804109D1202807D0AE
:10495000586840F480405860FDF7B6F92368064671
:104960009869002702E000BF236898698006D6D4C2
:10497000FDF7AAF9801B1A28F6D3606C012740F0D6
:104980002000606484F8419084F8425084F84050DC
:10499000EAE700BF7FB90CE09869800609D49869FE
:1049A000800606D4986980065CBF98695FEA8060DB
:1049B000F2D52020D861012104209A69D70505D5B8
:1049C0004FF4807140F00100D9610121570507D4EF
:1049D00092050BD479B9002001B0BDE8F08300BF87
:1049E00008304FF480619205D96104D540F002008F
:1049F0004FF40071D9619969890744BF0021996218
:104A00009969C90703D1996941F001019961596810
:104A10004EF60002CFF6006211405960616C084307
:104A20006064202084F84100002084F8420084F86B
:104A30004000012001B0BDE8F083000070B51546CC
:104A4000044609B30E4600BF20688069400734D48D
:104A5000204631462A46FFF745FFF8B920688169AC
:104A6000890625D4FDF730F9401BB042ECD9606CC3
:104A700040F020006064202084F84100002084F889
:104A80004000012070BD00BF20688069400714D439
:104A9000204600212A46FFF725FF08B1012070BDFE
:104AA00020688169890603D4FDF70EF9DFE700BFAE
:104AB0008169490704D5218D11B1002070BD00BF67
:104AC00082694EF60006D2064FF0000242BF102265
:104AD000C261042262642022C2614368CFF600668C
:104AE00000213340436084F8412084F842100020C4
:104AF00084F84000012070BD70B5044600688069EC
:104B0000800710D415460E4611B3701C17D100BF94
:104B100020464FF0FF312A46FFF7E4FEF0B9206847
:104B200080698007F4D5002070BD00BFFDF7CCF888
:104B3000401BB04216D8206880698007F3D4204615
:104B400031462A46FFF7CEFE0028EFD006E000BF30
:104B5000204600212A46FFF7C5FE08B1012070BD9E
:104B6000FDF7B2F8606C40F020006064202084F80B
:104B70004100002084F8420084F84000012070BD0C
:104B8000FEE70000FEE7000070470000F0B581B0CE
:104B900041F20005C4F20205EA68920714D0EA68FF
:104BA000036802F003029A424FF0010208D13BB1C0
:104BB000EA684368C2F3021201329A422AD0012203
:104BC000104601B0F0BD00BF0268032A10D0022ACF
:104BD00006D0012A07D12B689B0710D403E000BF41
:104BE0002B685B050BD40122104601B0F0BD00BF5D
:104BF0002B689B035CBF2B685FEA4333F3D5EB68FC
:104C000047686FF00F0623F0730306EB07173B436B
:104C10001A43EA60064628680F4620F08060286044
:104C2000FDF752F8044600BF2868000108D5FDF7DB
:104C30004BF8001B0228F7D90322104601B0F0BD43
:104C40002969B0683246012F4FEA002008D0BFB969
:104C500048F2FF03D268C0F2FF731940D2061BE08E
:104C600048F2FF03CFF6FF1303F1B4631940126952
:104C70000023CFF6E07303EA0252A2F500120BE024
:104C800048F2FF03CFF6FF13526919404FF07E43FD
:104C900003EA026202F17E42084310432861286859
:104CA00040F080602860FDF70FF804462868000196
:104CB00008D4FDF709F8001B0228F7D90322104693
:104CC00001B0F0BDB069296900220843286110468F
:104CD00001B0F0BD70B542F60806C4F20006716876
:104CE000044621F0800171603168890616D420687D
:104CF000C16821F0A001C160FCF7E6FF054600BFD6
:104D00002068C068800627D4FCF7DEFF401BB0F5A2
:104D10007A7FF5D9032084F8210070BD306820F037
:104D2000200030602068C16821F0A001C160FCF75C
:104D3000CBFF05462068C06880060FD4FCF7C4FF8F
:104D4000401BB0F57A7FF5D9032084F82100316843
:104D500041F02001316070BD002070BD002031683D
:104D600041F02001316070BD40F2DC00C2F2000071
:104D7000FEF774BB2DE9F04782B000261F4690462F
:104D80000D4681468DF80360FCF79EFF381A00EB54
:104D90000807FCF799FF40F21401C2F2000109680C
:104DA00023225143090DD9F8004079430191A168AC
:104DB000294235D0824618F1010035D0B5F5C06FD3
:104DC0001AD100BF207B8DF803009DF80300FCF78B
:104DD0007BFFA0EB0A00B8425ED20198019900283F
:104DE000A1F101010191D9F80010896808BF0746B7
:104DF00011F4C06FE6D112E0FCF766FFA0EB0A00E9
:104E0000B84249D2019801990028A1F1010101910C
:104E1000D9F80010896808BF07462942ECD100265E
:104E2000304602B0BDE8F0870026B5F5C06F25D149
:104E3000207B8DF803009DF80300A06810F4C06F7C
:104E4000EDD0207B8DF803009DF80300A06810F4DE
:104E5000C06FE4D0207B8DF803009DF80300A068AC
:104E600010F4C06FDBD0207B8DF803009DF80300A9
:104E7000A06810F4C06FDBD1D2E700BFA068284261
:104E8000CDD0A0682842CAD0A0682842C7D0A06868
:104E90002842F3D1C4E700BFD9E900014268B1F567
:104EA000827F22F0E00242600BD1D9F80810B1F500
:104EB000004F02D0B1F5806F03D1016821F04001AD
:104EC0000160D9F82810B1F5005F07D1016821F41D
:104ED00000510160016841F400510160012089F82E
:104EE0005D00002089F85C000326304602B0BDE872
:104EF000F0870000F0B581B015460E460446FCF779
:104F0000E3FE281A8719FCF7DFFE40F21401C2F213
:104F100000010968C1F3CB317943009121688A68A7
:104F2000120622D50546701C15D000BFFCF7CCFE3A
:104F3000401BB8421CD2009800990028A1F1010141
:104F400000912168896808BF07460806EED40CE086
:104F50008868000609D58868000606D588680006B6
:104F600044BF88685FEA0060F2D4002001B0F0BD61
:104F7000D4E900014268B1F5827F22F0E00242608C
:104F80000AD1A168B1F5004F02D0B1F5806F03D10D
:104F9000016821F040010160A16AB1F5005F07D10D
:104FA000016821F400510160016841F40051016081
:104FB000012084F85D00002084F85C00032001B02B
:104FC000F0BD000070470000FDF756B9F0B5AFB076
:104FD0001EAC20464421FBF721FC002501A86021DE
:104FE0001D95CDE91B55CDE919556027FBF716FC3A
:104FF000FDF75EFA41F29000C4F20200016801265A
:1050000021F01801016016201E904FF4807021904D
:105010001020229020462096CDE9246526972896D8
:10502000FDF774FD20B1EFF3108072B6FEE700BF0C
:105030000F20CDE9190619A80221CDE91B551D95B0
:10504000FDF7B4FB20B1EFF3108072B6FEE700BFAE
:1050500010201E900020249028901EA8FDF756FDD9
:1050600020B1EFF3108072B6FEE700BF4FF480600E
:10507000FDF7B0F920B1EFF3108072B6FEE700BF84
:105080004FF0021001904FF48070189008200A90A1
:1050900001A8FDF717FA28B1EFF3108072B600BF30
:1050A000FEE700BF2FB0F0BD4EF68850CEF20000F4
:1050B000016841F47001016070470000416ACA074D
:1050C0000CD18A0715D44A071ED40A0727D4CA066A
:1050D00030D48A0639D44A0642D457E00268D0F860
:1050E00028C0536823F4003343EA0C0353608A0753
:1050F000E9D50268D0F82CC0536823F4803343EA22
:105100000C0353604A07E0D50268D0F830C05368FA
:1051100023F4802343EA0C0353600A07D7D50268BF
:10512000D0F834C0536823F4004343EA0C035360BF
:10513000CA06CED50268D0F838C0936823F48053ED
:1051400043EA0C0393608A06C5D50268D0F83CC0D8
:10515000936823F4005343EA0C0393604A0615D581
:10516000D0F800C0036CDCF80420B3F5801F22F4F3
:10517000801242EA0302CCF8042007D1DCF80420B4
:10518000436C22F4C0021A43CCF80420090658BF2D
:1051900070470168806C4A6822F40022104348601E
:1051A00070470000806A0021A0F85A10A0F8521041
:1051B000FEF704BEB0F85C200168C36F222B40F0FC
:1051C0009780898C436D114023F8021B4365B0F82A
:1051D0005A100139A0F85A10B0F85A10002918BF17
:1051E000704700BF016851E8001F026821F4907108
:1051F00042E80013E3B1016851E8001F026821F49E
:10520000907142E800139BB1016851E8001F0268E9
:1052100021F4907142E8001353B1016851E8001F76
:10522000026821F4907142E80013002BDAD100BF2C
:10523000016851E8021F026821F0010142E80213EF
:10524000DBB1016851E8021F026821F0010142E868
:10525000021393B1016851E8021F026821F00101B5
:1052600042E802134BB1016851E8021F026821F0C5
:10527000010142E80213002BDAD12021C16700218D
:105280004166026E012A18BFFFF784B9016600BFAC
:10529000016851E8001F026821F0100142E8001384
:1052A000DBB1016851E8001F026821F0100142E8FB
:1052B000001393B1016851E8001F026821F010014A
:1052C00042E800134BB1016851E8001F026821F069
:1052D000100142E80013002BDAD10168CA69D20636
:1052E00044BF10220A62B0F85810FEF71DBD00BF7F
:1052F000088B40F00800088370470000B0F85C108D
:105300000268C36F222B40F09780928C436D11404E
:105310001970416D01314165B0F85A100139A0F89A
:105320005A10B0F85A10002918BF7047016851E8A8
:10533000001F026821F4907142E80013E3B1016894
:1053400051E8001F026821F4907142E800139BB1FC
:10535000016851E8001F026821F4907142E80013CF
:1053600053B1016851E8001F026821F4907142E8CE
:105370000013002BDAD100BF016851E8021F026858
:1053800021F0010142E80213DBB1016851E8021F7C
:10539000026821F0010142E8021393B1016851E86B
:1053A000021F026821F0010142E802134BB10168BB
:1053B00051E8021F026821F0010142E80213002BAC
:1053C000DAD12021C16700214166026E012A18BF8F
:1053D000FFF7E0B8016600BF016851E8001F0268EE
:1053E00021F0100142E80013DBB1016851E8001F11
:1053F000026821F0100142E8001393B1016851E8FE
:10540000001F026821F0100142E800134BB101684F
:1054100051E8001F026821F0100142E80013002B40
:10542000DAD10168CA69D20644BF10220A62B0F814
:105430005810FEF779BC00BF108B40F008001083B5
:1054400070470000B0B5054605F108041ECC0068A1
:10545000194341EA0403D5F81CE0046846F6F31149
:10546000CEF6FF712140194341EA0E010160416807
:1054700048F2000C21F4405111434160AA69C4F282
:10548000000C60451CBF296A0A438168102321F47F
:1054900030611143816047F6FF71C4F20001884218
:1054A00012DC44F20041C4F2000188421CD044F6F0
:1054B0000001C4F2000188422CD141F28801C4F2FB
:1054C000020109680B091DE0604515D043F6000193
:1054D000C4F2010188421DD141F28801C4F20201E7
:1054E0000B685BA212E000BF41F28801C4F2020126
:1054F00009688B0806E000BF41F28801C4F202018E
:1055000009688B0A4DF24402C0F6000203F0030161
:1055100052F82130604542F20040C0F2F40015D04C
:10552000BEF5004F22D1082B4FF0010100F28B8015
:10553000DFE803F00650628958898989600000BF5E
:10554000FDF754FA002840F0578078E0082B4FF020
:10555000010100F27880DFE803F0057621761B7602
:1055600076761F00FDF742FAC0B968E0082B4FF0CD
:10557000010100F26880DFE803F005315566396605
:1055800066665300FDF732FA00284BD157E000BFA2
:10559000FDF758FA10B952E04FF400406A6802EB88
:1055A000420188424FF001014DD3130398424AD87B
:1055B000010E000210EB520041F100010023FAF746
:1055C0007BFE4FF60052A0F54071C0F20F029142EF
:1055D00033D337E0FDF720FA70B930E0FDF71CFA5D
:1055E00000BB2CE0FDF72EFA30B928E0FDF72AFACF
:1055F000C0B924E04FF4004069684A0802EB40005B
:10560000B0FBF1F04FF6EF72A0F11001914219D802
:105610004FF6F0710140C0F3420008440DE000BFB6
:105620004FF4004069684FF6EF7200EB5100B0FB99
:10563000F1F0A0F11001914204D82968C86000215E
:1056400001E000BF0121002208466A66AA66B0BDDB
:10565000010000000400000002000000080000003B
:105660004165A0F85820A0F85A20816800224266BF
:1056700071B1B1F1805F07D0B1F5805F0ED10169E2
:1056800051B940F2FF110AE0016919B13F2106E06A
:10569000016909B17F2102E0FF2100E00021A0F8AB
:1056A0005C100021C0F880102221C167016851E818
:1056B000021F026841F0010142E80213DBB10168F8
:1056C00051E8021F026841F0010142E8021393B160
:1056D000016851E8021F026841F0010142E802132B
:1056E0004BB1016851E8021F026841F0010142E834
:1056F0000213002BDAD182680169B2F5805F09D10B
:10570000D1B345F2FD21C0F600014166002180F8C9
:10571000741009E045F2FD22C0F600024266002244
:1057200080F8742081B300BF016851E8001F02684F
:1057300041F4907142E80013002B4AD0016851E80F
:10574000001F026841F4907142E80013002B40D022
:10575000016851E8001F026841F4907142E80013AB
:10576000BBB3016851E8001F026841F4907142E840
:105770000013002BD8D12CE045F2B511C0F6000182
:105780004166002180F87410016851E8001F02682A
:1057900041F0200142E80013DBB1016851E8001F2D
:1057A000026841F0200142E8001393B1016851E81A
:1057B000001F026841F0200142E800134BB101686C
:1057C00051E8001F026841F0200142E80013002B5D
:1057D000DAD10020704700002DE9F041044600684E
:1057E0001546C2690E461140891BB1FA81F149097B
:1057F0008D4240F09C80DDF81880B8F1000F27D072
:1058000018F101017CD100BFC1693140891BB1FA97
:1058100081F149098D4240F08A80C1693140891B7C
:10582000B1FA81F149098D4240F08180C16931406E
:10583000891BB1FA81F149098D4278D1C1693140A2
:10584000891BB1FA81F149098D42DDD06FE000BFBB
:10585000FCF73AFA206850E8000F216820F4D07075
:1058600041E80002BAB3206850E8000F216820F434
:10587000D07041E8000272B3206850E8000F216840
:1058800020F4D07041E800022AB3206850E8000FED
:10589000216820F4D07041E80002002ADAD11AE031
:1058A000206850E8020F216820F0010041E8020260
:1058B000DAB1206850E8020F216820F0010041E8C9
:1058C000020292B1206850E8020F216820F0010026
:1058D00041E802024AB1206850E8020F216820F036
:1058E000010041E80202002ADAD17C20782120223E
:1058F00062502250002084F874000320BDE8F0813B
:105900001F4600BFFCF7E0F9C01B4045A2D8206845
:105910000168490744BFC1695FEA01510AD4C069FF
:105920003040801BB0FA80F040098542EAD0002068
:10593000BDE8F0814FF40061016200BF206850E8CB
:10594000000F216820F4D07041E80002BAB320684B
:1059500050E8000F216820F4D07041E8000272B3D3
:10596000206850E8000F216820F4D07041E8000260
:105970002AB3206850E8000F216820F4D07041E875
:105980000002002ADAD11AE0206850E8020F2168EC
:1059900020F0010041E80202DAB1206850E8020F6D
:1059A000216820F0010041E8020292B1206850E82D
:1059B000020F216820F0010041E802024AB120688C
:1059C00050E8020F216820F0010041E80202002A9D
:1059D000DAD12020A06780207C2188E740F21C20BB
:1059E000C2F20000FEF7ECB9FEE7000010B586B089
:1059F00041F24C01C4F202010A68002442F4005250
:105A00000A60096801F40051009100990090062095
:105A10000190072002907F2003900420049040F220
:105A20005410C2F2000069460594FBF741FC18B11E
:105A3000A0B206B010BD00BF40F25410C2F2000088
:105A4000FBF756FF20B10024A0B206B010BD00BF86
:105A500040F25410C2F200006421FBF7D1FE08B1FD
:105A6000002406E040F25410C2F20000FBF7CEFD25
:105A7000044640F25410C2F20000FBF77BFFA0B2D4
:105A800006B010BD2DE9F04F9BB040F2780200F156
:105A900009030546481CC2F2000202F128041FFA5D
:105AA00083F986B288462046494632460123CDF81E
:105AB000689005F053FE05F10A001FFA80FA2046AF
:105AC000514632460123CDF844A005F047FE05F1CA
:105AD0000B001FFA80FB2046594632460123CDF8C1
