:020000040800F2
:10000000D806002059020008E9120008E112000891
:10001000E512000861030008B113000800000000A9
:10002000000000000000000000000000F1120008C5
:100030006503000800000000ED120008F51200083A
:1000400073020008730200087302000873020008BC
:1000500073020008730200087302000873020008AC
:10006000730200087302000873020008730200089C
:10007000730200087302000873020008730200088C
:10008000730200087302000873020008730200087C
:10009000730200087302000873020008730200086C
:1000A000730200087302000873020008730200085C
:1000B0007302000800000000000000007302000846
:1000C000730200087302000873020008730200083C
:1000D000730200087302000873020008730200082C
:1000E0007302000873020008000000000000000016
:1000F0000000000000000000000000000000000000
:1001000000000000730200080000000073020008F5
:1001100000000000000000007302000873020008E5
:1001200073020008730200087302000873020008DB
:100130007302000800000000000000000000000042
:1001400073020008730200087302000873020008BB
:1001500073020008730200087302000873020008AB
:100160007302000873020008730200080000000018
:10017000730200087302000873020008730200088B
:1001800073020008730200087302000800F002F80E
:1001900000F052F814A696E8000CB244B344DA45D5
:1001A00001D100F049F8BAE80F000FA696E8300038
:1001B000A5EB040504EB0607AAEB0704A7F101076A
:1001C0004FEA15154FEA3414A4F10104AC4201D3EF
:1001D00000F032F813F0010F18BFFB1A43F00103CF
:1001E00000F001F8DBE71847241300004413000077
:1001F000103A24BF78C878C1FAD8520724BF30C853
:1002000030C144BF04680C607047000070470000B4
:100210000023002400250026103A28BF78C1FBD80F
:10022000520728BF30C148BF0B6070471FB501F0AF
:1002300040F91FBD10B510BD00F058F81146FFF78A
:10024000F5FF01F0B7F800F076F803B4FFF7F2FF1E
:1002500003BC00F07DF800000948804709480047CA
:10026000FEE7FEE7FEE7FEE7FEE7FEE7FEE7FEE766
:10027000FEE7FEE704480549054A064B70470000C3
:100280009D1300088D010008D8000020D80600202A
:10029000D8020020D80200204FF0000200B513461B
:1002A00094469646203922BFA0E80C50A0E80C5096
:1002B000B1F12001BFF4F7AF090728BFA0E80C5047
:1002C00048BF0CC05DF804EB890028BF40F8042B40
:1002D00008BF704748BF20F8022B11F0804F18BFAD
:1002E00000F8012B7047704770477047754600F063
:1002F0002BF8AE4605006946534620F007008546B8
:1003000018B020B5FFF7B6FFBDE820404FF000065B
:100310004FF000074FF000084FF0000BAC46ACE880
:10032000C009ACE8C009ACE8C009ACE8C00921F0DC
:1003300007018D46704710B50446AFF30080204694
:10034000BDE81040FFF781BF004870471000002053
:1003500001491820ABBEFEE72600020070470000EE
:10036000FEE70000704700002DE9F04F83B00E68F3
:10037000002E00F0CF8000F1200241F2000C00922C
:1003800000F13847C4F6000C07224FEAB725604554
:1003900008BF0422042D38BF4FEAB72200250027EA
:1003A0004FF0000801920AE00E6808F1010836FAE1
:1003B00008F207F1020705F1040500F0AB80012205
:1003C00002FA08FE16EA0E09EED0D1F804C00322A4
:1003D0000CF0030BABF1010602FA07F4012E6FEAF1
:1003E000040A11D88468CE6804EA0A04BE40344383
:1003F0008460446824EA0E06CCF3001404FA08F47E
:100400002643466006E000BFBBF1030F02D14FF068
:10041000030B21E0C6688C6806EA0A06BC40264346
:10042000BBF1020FC66017D16FF00302009B02EA16
:10043000580605F01C020F2453F806C004FA02FE09
:100440000C692CEA0E0C04FA02F242EA0C029A51F0
:10045000D1F804C00CF0030B02680BFA07F302EAB0
:100460000A021A431CF4403F02609DD041F260032F
:10047000C4F202031A6840F2004E42F001021A6010
:100480001A68C4F2010E02F001020292029A28F0E8
:1004900003024FF6084C7244CFF6FF7C52F80C3042
:1004A00005F00C060F24B440A343019C04FA06F6A1
:1004B000334342F80C30DEF808204B6842EA090664
:1004C00040F20C4CDC0258BF22EA0906CEF8086064
:1004D000C4F2010CDCF800209C0242EA090658BF75
:1004E00022EA0906CCF80060DEF804209C0342EA08
:1004F000090658BF22EA0906CEF80460DEF800209B
:10050000DB0342EA090658BF22EA0906CEF800607A
:100510004AE700BF03B000F000B830BCBDE8C08FB0
:100520001823002A08BF2823C150704740F2D40086
:10053000C2F200000068704740F2000040F2D401AF
:10054000C2F20000C2F2000100780A68104408609C
:100550007047000080B5032000F07AF80F2000F00B
:1005600009F800281CBF012080BD00F02BF80020F6
:1005700080BD0000B0B540F20005C2F20005297848
:10058000F1B1044640F20800C2F200004FF47A7262
:100590000068B2FBF1F1B0FBF1F000F08BFE014618
:1005A0000F2C4FF001000AD8002918BFB0BD4FF042
:1005B000FF302146002200F01FF800206C60B0BD23
:1005C0000120B0BD82B041F25800C4F2020081683F
:1005D00041F001018160816801F0010101910199FF
:1005E000016841F080510160006800F08050009087
:1005F000009802B07047000010B54EF60C5CCEF2C9
:10060000000CDCF80030C3F3022E8EF00704042C3B
:1006100028BF0424BEF103034FF0FF3E0EFA04F49A
:1006200038BF0023A14399400EFA03F39A431143C4
:1006300000F00F0200F160430901043A03F564433E
:100640006244002848BF02F10C03197010BD00007D
:100650004EF60C51CEF200010A684FF6FF031A4025
:1006600060F30A2242F0806040F0FD70086070473D
:1006700047F20001C4F200010A68B0F5007F02F4FD
:10068000C06031D1B0F5007F2CD00868012262F340
:100690004A20086040F20800C2F2000000683222DE
:1006A00050434DF68362C4F21B32A0FB0202900C51
:1006B0004A69520511D5421C0FD04A6952050CD522
:1006C00058B14A69520508D5012806D04A69520531
:1006D00003D50228A0F10400EAD14869400544BFCF
:1006E0000320704700207047B0F5806FFAD008688B
:1006F000022262F34A2008600020704747F200009F
:10070000C4F20000006800F4C060704747F20000C7
:10071000C4F20000016841F480710160704700007C
:1007200041F20000C4F20200016841F004010160DE
:10073000704700002DE9F04381B0002800F08C8064
:1007400042F20009C4F202090446D9F8000000F0A0
:10075000070081420CD9D9F8000020F007000843B7
:10076000C9F80000D9F8000000F00700884273D1F2
:10077000206841F2080610F00202C4F202060AD014
:10078000A368376807F0F007BB4204D9376827F041
:10079000F0073B433360C30734D0606856F8082C39
:1007A00050B1022804D003280AD192010AD453E0A0
:1007B000920307D450E000BF920703D44CE000BF7F
:1007C000520549D58846316821F00301084330605D
:1007D000FFF7ACFE054641F2883700BF306861681C
:1007E00000F00C00B0EB810F08D0FFF79FFE401B1C
:1007F000B842F3D9032001B0BDE8F0832068414638
:1008000000F0020252B1A268336803F0F0039A428A
:1008100004D2336823F0F0031A433260D9F8002081
:1008200002F0070291420CD2D9F8002022F0070210
:100830000A43C9F80020D9F8002002F007028A42D2
:100840000AD141070CD4000712D43068716810F047
:100850000C0019D11EE000BF012001B0BDE8F083FB
:100860003168E26821F4E061114331600007ECD5A2
:100870003068216920F4605040EAC100306030687F
:10088000716810F00C0005D00C282BD101F0030189
:10089000012927D156F8081C042211F008016FF035
:1008A000070108BF8C21715808BF0822D14041F2CE
:1008B000DC4201F00F01C0F6000252F821100028BE
:1008C0000A4618BF00220C2838D1706800F00300D7
:1008D000022811D0032804BF41F20021C0F27A019E
:1008E0000EE000BF04281FD0082823D141F20022C7
:1008F000C0F27A0222E000BF42F20041C0F2F401ED
:1009000070687268C0F30210C2F306225143726825
:100910000130B1FBF0F0C2F34161022202EB410170
:10092000B0FBF1F20AE000BF42F20042C0F2F40272
:1009300004E000BF002200210C28C6D0306841F23C
:10094000CC41C0F30310C0F60001085C00F01F00AA
:1009500022FA00F140F20400C2F2000040F2080264
:100960000068C2F20002116001B0BDE8F043FFF779
:1009700001BE0000002804BF012070472DE9F043AC
:1009800083B041F200060446C4F20206B068F16882
:10099000227800F00C09D00601F003081ED420785C
:1009A000C00700F08880B9F1080F00F07D80B9F130
:1009B0000C0F08BFB8F1030F76D061683068B1F54D
:1009C000803F07D0B1F5A02F40F0528240F4802044
:1009D0003060306840F48030306053E2B9F1000F8D
:1009E0001CD0B9F10C0F08BFB8F1010F16D0A169E6
:1009F0003068002900F0A08140F001003060FFF76E
:100A000095FD05463068800700F1A881FFF78EFD4F
:100A1000401B02284FF00300F4D960E330688007E0
:100A200003D5A069002800F00F83256A306800070D
:100A300000F14A81D6F89400000900F0F0008542E8
:100A400000F248813068B9F1000F40F008003060D2
:100A5000306820F0F00040EA050030607068E1691D
:100A600020F47F4040EA0120706040F0B882B06D11
:100A7000C00000F15582B06D40F08050B065B06D9F
:100A800000F0805002900298FFF738FEB16D21F01F
:100A90008051B165B0F5007F00F04882802D40F2B2
:100AA000858203208DE200BF3068800303D5606833
:100AB000002800F0C982207880072DD5B9F1040FF5
:100AC0001CD0B9F10C0F08BFB8F1020F16D0E168C5
:100AD0003068002900F0E68140F480703060FFF754
:100AE00025FD0546306840050FD4FFF71FFD401B6C
:100AF00002284FF00300F5D9F1E200BF306840054D
:100B000003D5E068002800F09F827068216920F01A
:100B1000F85040EA016070602078000760D42078C7
:100B2000400779D42078800600F1B280A06A0028BE
:100B300000F01683022840F02381F068E16A00F09B
:100B400003028A4240F03481226B6FF00F0300F001
:100B5000700103EB0212914240F02A81616B00F4B4
:100B6000FE42B2EB012F40F02381A16B00F07842EE
:100B7000B2EBC16F40F01C81E26B0023CFF6E07353
:100B800003EA025200F4C001A2F50012914240F0C3
:100B90000F81216C4FF07E4202EA016100F0C060DB
:100BA00001F17E41884240F003813068800100F10C
:100BB000D782306840F080703060F06840F080701C
:100BC000F060FFF7B3FC04463068800100F1C88292
:100BD000FFF7ACFC001B02284FF00300F4D97EE2C3
:100BE0006169D6F89400002900F0908040F001007F
:100BF000C6F89400FFF79AFC054600BFD6F89400AB
:100C000080078CD4FFF792FC401B0228F6D9032002
:100C100003B0BDE8F08300BFB06D5FEAC00808D440
:100C2000B06D40F08050B065B06D00F08050009025
:100C3000009847F20007C4F200073868C00513D4D3
:100C4000386840F480703860FFF770FC054600BFDC
:100C50003868C00508D4FFF769FC401B02284FF034
:100C60000300F5D93BE200BFA168D6F89000012946
:100C700008D0052940F0DC8040F00400C6F8900060
:100C8000D6F8900040F00100C6F89000DCE000BF0C
:100C9000616AD6F89800002900F0B48040F00100A5
:100CA000C6F89800FFF742FC054600BFD6F898004A
:100CB00080073FF53BAFFFF739FC401B02284FF0A0
:100CC0000300F3D90BE200BF306800F0F00085426A
:100CD0007FF6B8AEB06DC00000F18680B06D40F018
:100CE0008050B065B06D00F0805001900198FFF722
:100CF00005FDB16D21F08051B165B0F5007F79D06F
:100D0000802D40F2E1800320E9E000BF20F00100E7
:100D1000C6F89400FFF70AFC054600BFD6F8940019
:100D200080077FF5FCAEFFF701FC401B02284FF067
:100D30000300F3D9D3E100BF20F001003060FFF7DA
:100D4000F5FB0546306880077FF529AEFFF7EEFB1F
:100D5000401B02284FF00300F4D9C0E1306840F096
:100D6000080030603068D4E9071220F0F00010432A
:100D70003060706820F47F4040EA012070600EE629
:100D8000B9F10C0F00F06081306820F080703060A5
:100D9000FFF7CCFB044600BF3068800140F1EA80D9
:100DA000FFF7C4FB001B02284FF00300F4D996E1C3
:100DB000B9F10C0F00F048813068400100F1448126
:100DC000306820F080703060FFF7B0FB054600BF50
:100DD0003068800140F18681FFF7A8FB401B0228A4
:100DE0004FF00300F4D97AE1FFF788FCB0F5007FFB
:100DF0007FF486AF812D71D30120A02D88BF022002
:100E00006DE000BF20F00100C6F89800FFF78EFBF0
:100E1000054600BFD6F8980080077FF587AEFFF73C
:100E200085FB401B02284FF00300F3D957E100BFB8
:100E300020F00100C6F89000D6F89000002920F0BC
:100E40000400C6F8900079D0FFF770FB054641F228
:100E5000883700BFD6F89000800700F18180FFF747
:100E600065FB401BB842F5D9032003B0BDE8F08311
:100E700020F4803030603068002920F48020306019
:100E800000F08480FFF752FB054600BF3068800306
:100E90003FF511AEFFF74AFB401B64284FF00300FB
:100EA000F4D91CE120F480703060FFF73FFB054669
:100EB000306840057FF530AEFFF738FB401B022855
:100EC0004FF00300F4D90AE1A5F17000B0FA80F008
:100ED0004009802D08BF022001E000BF002042F23F
:100EE0000001C4F202010A6822F0070202440A600B
:100EF000096801F00701814240F0A680306840F0A7
:100F0000080030603068D4E9071220F0F000104388
:100F10003060706820F47F4040EA012070605EE03D
:100F2000FFF7ECFBB0F5007F7FF4B8AD812D47D320
:100F30000120A02D88BF022043E000BFFFF7F6FA92
:100F4000054641F2883700BFD6F89000800707D5E4
:100F5000FFF7ECFA401BB8424FF00300F4D9BEE0B3
:100F6000B8F1000F3FF5DEADB06D20F08050B065F8
:100F7000D8E500BFF0684FF6FC71CFF6EE6108408F
:100F8000F060002003B0BDE8F08300BFFFF7CEFAA9
:100F9000054600BF306880037FF58DADFFF7C6FAC8
:100FA000401B64284FF00300F4D998E0A5F17000CD
:100FB000B0FA80F04009802D08BF022001E000BF98
:100FC000002042F20001C4F202010A6822F0070286
:100FD00002440A60096801F00701814234D1B06817
:100FE000F16810F00C0005D00C2831D101F003019C
:100FF00001292DD1314651F8942B12F008023246C6
:1010000008BF0A464FF00401126808BF082122FAFF
:1010100001F141F2DC4201F00F01C0F6000252F88A
:10102000211000280A4618BF00220C283CD1F06885
:1010300000F00300022815D0032804BF41F200216C
:10104000C0F27A0112E000BF012003B0BDE8F083D6
:1010500004281FD0082823D141F20022C0F27A02CE
:1010600022E000BF42F20041C0F2F401F068F268F1
:10107000C0F30210C2F306225143F2680130B1FB03
:10108000F0F0C2F34161022202EB4101B0FBF1F248
:101090000AE000BF42F20042C0F2F40204E000BFE6
:1010A000002200210C28C2D0B06841F2CC41C0F32C
:1010B0000310C0F60001085C00F01F0022FA00F1E6
:1010C00040F20400C2F2000040F208020068C2F2DE
:1010D00000021160FFF74EFA00283FF460AC03B045
:1010E000BDE8F083F06848F28C01C0F29D1104F174
:1010F0002C0700EA010C8ECF6FF00F00D4E90F54DB
:1011000000EB02100022CFF6E07241EA0C0102EA85
:1011100005520843A2F500124FF07E4540EA032035
:1011200005EA0465104305F17E4540EAC76028439F
:10113000F060306840F080703060F06840F080709F
:10114000F060FFF7F3F904463068800108D4FFF738
:10115000EDF9001B02284FF00300F5D9BFE700BFEF
:10116000002003B0BDE8F083002804BF01207047D1
:10117000416A19B100210161142104E04168B1F50F
:10118000827F02D01C2100224250B0B5002585622A
:1011900090F85D1029B980F85C50044600F052F8D0
:1011A0002046022180F85D100168D0F80CE00B6841
:1011B000BEF5E06F23F040030B6098BF01254EF4AD
:1011C0000063B3F5706F4FEA053C1CBF00258562D4
:1011D000D0E90154D0E9043205F4827504F40444E2
:1011E0002C4403F002032344846902F00102C56920
:1011F0001A4404F400731A4405F03803056A1A44CB
:1012000005F08003856A1A4405F400531A430A6006
:101210000422436A0EF4706502EA1442446B45EA04
:101220000C0503F010032A4304F008041A43224378
:101230004A6000210122016680F85D20BDE8B040CF
:101240000846704780B586B0006843F20002C4F2D9
:10125000010200219042CDE90411CDE90211019172
:1012600002D006B080BD00BF41F24C00C4F20200C3
:10127000426942F480524261426902F48052009213
:10128000009A026842F001020260006800F001006A
:1012900000900098822001900220CDE902010320F5
:1012A00004900520059001A94FF09040FFF75CF8ED
:1012B00006B080BD411E0020B0EB116F1CBF0120A5
:1012C00070474EF21002CEF2000251604EF62351EA
:1012D000CEF20001F0230B7007219060116070477F
:1012E000FEE70000FEE70000FEE700007047000098
:1012F00070470000FFF720B910B596B005A844214B
:10130000FEF7CAFF00244FF400700494CDE90244B4
:10131000CDE90044FFF7ACF920B1EFF3108072B6CD
:10132000FEE700BFFFF7F2F941F29000C4F20200BD
:10133000016821F01801016014206021059001204E
:101340000D9102210790CDE90B04CDE90F1011900A
:10135000282012900720CDE9130105A81591FFF769
:1013600009FB28B1EFF3108072B600BFFEE700BFA3
:101370000F200090032001900020CDE9020004908E
:1013800068460421FFF7D6F920B1EFF3108072B65A
:10139000FEE700BFFFF7C4F916B010BD4EF6885047
:1013A000CEF20000016841F4700101607047000056
:1013B000FEE7000086B0FFF7CDF8FFF79DFF00269F
:1013C00041F24C000596CDE90366CDE90166C4F211
:1013D00002000168012241F004010160016850250A
:1013E00001F00401009100990168012741F080019A
:1013F0000160016801F0800100910099016841F0ED
:1014000001010160016801F001010091009901688A
:1014100041F0020101600068502100F002000090DC
:1014200000984FF09040FFF77BF840F20048C4F678
:101430000008404601210122FFF772F8CDE901576B
:1014400001AD02244FF09040294603960494FEF724
:101450008BFF40462946CDE90177CDE90364FEF7CD
:1014600083FF40F2700043F20001C2F20000C4F2B8
:1014700001014FF482724FF4E06380E8460000F10E
:101480000C014FF400754FF0100C98C10721C0E912
:10149000065CC0E90866C0E90A61C0E90C66FFF7AE
:1014A00063FE28B1EFF3108072B600BFFEE700BF05
:1014B000FEE7F1EE100A4FF6FF71C0F2C03120EAEC
:1014C000010040F04070E1EE100A7047000000009B
:1014D000000000000102030406070809A0860100BD
:1014E000400D0300801A060000350C0040420F003A
:1014F00080841E0000093D0000127A000024F400E0
:1015000000366E010048E801006CDC02301500086E
:101510000000002010000000F00100084015000845
:1015200010000020C80600001002000800000000A3
:10153000010000001000000000093D000000000054
:040000050800018D61
:00000001FF
